:100000000C94FB000C9423010C9423010C94230109
:100010000C9423010C9423010C9423010C942301D0
:100020000C9423010C94C7100C9423010C9423010D
:100030000C9423010C940F0D0C9423010C942301B8
:100040000C947B0C0C9423010C94C50C0C94230190
:100050000C9423010C9423010C9423010C94230190
:100060000C9423010C942301000000000000000008
:100070000000000000000000000000000000000080
:10008000010101010101010101010101020202025C
:10009000020202020303030303030404040405052C
:1000A00005050506060606070707080808090909E1
:1000B0000A0A0A0B0B0B0C0C0D0D0D0E0E0F0F1078
:1000C00010111112121313141415151616171818EF
:1000D00019191A1B1B1C1D1D1E1F1F202122222344
:1000E000242526262728292A2A2B2C2D2E2F30316D
:1000F00032333435363738393A3B3C3D3E3F404168
:10010000424445464748494B4C4D4E505152545538
:100110005658595A5C5D5E606163646667696A6CD3
:100120006D6F7072737577787A7C7D7F818284863B
:1001300088898B8D8F91929496989A9C9EA0A2A468
:10014000A6A8AAACAEB0B2B4B6B8BABCBFC1C3C55B
:10015000C7CACCCED1D3D5D7DADCDFE1E3E6E8EB12
:10016000EDF0F2F5F7FAFCFF000000002400270094
:100170002A000000000023002600290000000008DB
:10018000000201000003040700000000000000005E
:100190000000FF00007FFF0000FFFF0000FF7F0066
:1001A00000FF00007FFF0000FFFF0000FF7F000056
:1001B000FF000000FF007F00FF00FF007F00FF0046
:1001C00001020408102040800102040810200102EE
:1001D0000408102000000000250028002B00040463
:1001E00004040404040402020202020203030303DF
:1001F0000303F816591711241FBECFEFD4E0DEBF5A
:10020000CDBF11E0A0E0B1E0EAE1F4E302C0059067
:100210000D92AA31B107D9F722E0AAE1B1E001C0FD
:100220001D92A836B207E1F710E0CAEFD0E004C093
:100230002197FE010E94CE18C93FD107C9F70E943D
:10024000E8110C94001A0C940000CF92DF92EF9208
:10025000FF920F931F939C01AAEFB5E00E948B18A9
:10026000DC01CB019058AF4FBF4FCD01BB2797FDAD
:10027000B095AB2F8E3F21E0920758F5282F8F3F86
:10028000910508F445C06EEF681B862F30E02FEF14
:10029000682F70E090E080E0CB0177276627D12CB3
:1002A000F12CE12C632B7D298E299F29022F10E050
:1002B00030E020E0322F212F102F0027602B712BF0
:1002C000822B932B1F910F91FF90EF90DF90CF9097
:1002D00008958C3F23E0920768F48D3F22E0920757
:1002E00028F432E0380F2FEF80E0D2CF2CEF281B1C
:1002F0003FEFFACF8A3F25E0920769F03AEF381BCB
:100300008B3F24E0920740F48C5F3FEF20E0C0CFAA
:1003100030E08FEFBDCF30E020E0FBCF833081F0C5
:1003200028F4813099F08230A9F008958730A9F03F
:100330008830C9F08430B1F4809180008F7D03C093
:10034000809180008F7780938000089584B58F77A7
:1003500084BD089584B58F7DFBCF8091B0008F77E9
:100360008093B00008958091B0008F7DF9CFCF9336
:10037000DF93282F30E0F901E458FE4F8491F90112
:10038000E054FE4FD491F901E252FE4FC491CC23C8
:10039000A1F081110E948E01EC2FF0E0EE0FFF1F03
:1003A000EE58FE4FA591B491EC91ED2381E090E0E1
:1003B00009F480E0DF91CF91089580E090E0FACFDA
:1003C0001F93CF93DF93282F30E0F901E458FE4FBD
:1003D0008491F901E054FE4FD491F901E252FE4FAD
:1003E000C491CC23A9F0162F81110E948E01EC2F0D
:1003F000F0E0EE0FFF1FEC52FE4FA591B4918FB7C6
:10040000F894EC91111108C0D095DE23DC938FBFD6
:10041000DF91CF911F910895DE2BF8CFCF93DF931B
:1004200090E0FC01E054FE4F249182529E4FFC016B
:1004300084918823C9F090E0880F991FFC01E85946
:10044000FE4FA591B491FC01EC52FE4FC591D491A1
:1004500061110DC09FB7F8948C91209582238C93E5
:100460008881282328839FBFDF91CF910895623030
:1004700051F49FB7F8943C91822F809583238C93FD
:10048000E8812E2BEFCF8FB7F894EC912E2B2C9385
:100490008FBFEACF8E50806480937C0080917A0079
:1004A000806480937A0080917A0086FDFCCF8091F1
:1004B00078009091790008953FB7F8948091C60133
:1004C0009091C701A091C801B091C90126B5A89B20
:1004D00005C02F3F19F00196A11DB11D3FBFBA2FD6
:1004E000A92F982F8827BC01CD01620F711D811D96
:1004F000911D42E0660F771F881F991F4A95D1F71B
:100500000895CF93DF9300D000D0CDB7DEB76983D5
:100510007A838B839C83DE011196CE010596ED9143
:10052000F0E0E859FF4F44919D0121503109F90154
:1005300040838A179B0799F769817A818B819C8117
:100540000F900F900F900F90DF91CF910895FF9231
:100550000F931F93CF93DF93EC01FF24F394F60ED8
:1005600028852F1581F109851A85215041F16F3FAA
:10057000E1F430E050E040E06FEF7FEF80E090E0AA
:100580000E943718B901F8014C815D81CF01801BB1
:10059000910B84179507B0F44081469FC001479F97
:1005A000900D112490833196EFCF8F2D90E0982FEE
:1005B00088270197622F70E00E94A618E4CF70E0B0
:1005C00060E0E1CFF886DF91CF911F910F91FF900E
:1005D00008954F925F926F927F928F929F92AF9207
:1005E000BF92EF92FF92CF93DF93DC0112968D9131
:1005F0009C9113976817790708F0E9C01E968C91B3
:100600001E971B969C911B9719964D915C911A977A
:1006100018968C901897282F30E01C96EC911C9718
:10062000F0E01D96AC91B0E0891364C0CB01880F57
:10063000991F680F791F460F571F240F351FE901B7
:100640002881E40FF51FF080A40FB51FCC918820FE
:1006500009F445C0912CB12CA12C622F70E0762FAB
:100660006627072E000C880B990BA50194010E94A8
:1006700069183901552444246F2D70E0762F6627C0
:10068000072E000C880B990BA50194010E94691894
:10069000B42FA32F922F8827482A592A6A2A7B2A07
:1006A0006C2F70E0762F6627072E000C880B990BB5
:1006B000A50194010E946918C301B201622B732B3A
:1006C000842B952BDF91CF91FF90EF90BF90AF904F
:1006D0009F908F907F906F905F904F9008956F2DB7
:1006E00070E090E080E0982F872F762F6627822B8E
:1006F0006C2BE8CF660F771F660F771F640F751F8F
:10070000260F371FE9013881EB01C90FD11DF88091
:10071000E60FF71FC081A60FB71FEC90882009F4E1
:100720004BC0912CB12CA12C632F70E0762F662743
:10073000072E000C880B990BA50194010E946918E3
:10074000722E6624552444246F2D70E0762F662780
:10075000072E000C880B990BA50194010E946918C3
:10076000A90133272227422A532A642A752A6E2D8B
:1007700070E0762F6627072E000C880B990BA501D9
:1007800094010E946918422A532A642A752A6C2F00
:1007900070E0762F6627072E000C880B990BA501B9
:1007A00094010E946918942F832F722F6627642961
:1007B00075298629972986CF6F2D70E090E080E01B
:1007C000CB0177276627932B6E297C2B7BCF60E0AC
:1007D00070E0CB0177CF8F929F92AF92BF92CF9272
:1007E000DF92EF92FF921F93CF93DF93FC01828100
:1007F000938168177907A8F54A01AA24BB24C82D5C
:10080000C32ED42EE52EFF241C2DD22F80858823C5
:1008100061F0889E40011124C92D8C9D6001112436
:100820001D2D829FD0011124DB2FA685E184F28447
:100830009385A91322C0CB01880F991F680F791FD8
:100840006E0D7F1DA385A60FB72FB11DCC93A48578
:10085000A60FB72FB11D1C938585680F711DFB0175
:10086000D083DF91CF911F91FF90EF90DF90CF90D9
:10087000BF90AF909F908F900895660F771F660F7F
:10088000771F6E0D7F1D252F33274427552788237B
:1008900049F090E0829F7001839FF00C929FF00CD2
:1008A00011242F2DA60FB72FB11D2C93CBCFCF9294
:1008B000DF92EF92FF920F931F93CF93DF93CDB709
:1008C000DEB729970FB6F894DEBF0FBECDBF8C01FF
:1008D000DC0119968D919C91892B09F473C00E94BB
:1008E0005C02F801C784D088E188F2886C157D0528
:1008F0008E059F0520F46787708B818B928BF801A2
:10090000C784D088E188F2886C197D098E099F0917
:100910006C3271408105910510F3F894D80114965A
:100920008D919C9115979A8389831996ED91FC91ED
:100930007F01BFEFEB1AFB0A80818987F801908164
:100940000388F489E02DD80155968C91992309F4F8
:1009500048C09081982B98879081809589238F83B8
:100960008F818C8388E08B8358856F8149853B819B
:100970002C8189819A81D701508347FD252F3A9593
:100980002083262F39F0441F00C000006083000040
:1009900000C0F2CF38E04D9160830000019761F70D
:1009A000D8015496FC93EE93539749873B832C834D
:1009B0009A83898378940E945C02F8016787708B20
:1009C000818B928B29960FB6F894DEBF0FBECDBFF8
:1009D000DF91CF911F910F91FF90EF90DF90CF901B
:1009E00008959081982B98879081809589238F8393
:1009F0008F818E8388E08D8358856F8149853D8105
:100A00002E8189819A81D701508347FD252F00C00F
:100A100000C0208300C000C000C000C000C06083D0
:100A20000000262F3A9541F0441F000000C000C08E
:100A300000C000C000C0E8CF38E04D9100C0608326
:100A400000C0019709F7D8015496FC93EE93539791
:100A500049873D832E83ACCFCF93DF93EC018E810A
:100A60009F8197FD07C061E00E940E0260E08E81C9
:100A70000E94E00181E08983DF91CF9108959091F8
:100A8000C00095FFFCCF8093C6000895FC0144810F
:100A9000558170E060E0818592850C94F919CF92C0
:100AA000DF92EF92FF926B017C01C114D104E1044B
:100AB000F10441F00E94C917A70196010E9437185E
:100AC0006B017C01C701B601FF90EF90DF90CF90E2
:100AD00008958F929F92AF92BF92CF92DF92EF9242
:100AE000FF920F931F93CF93DF93EC010E94C917DE
:100AF000CB010E9425010E9481026B017C010E94B2
:100B0000C9178881873009F4ECC10CF054C08330D8
:100B100009F424C184F4813009F4DCC0823009F482
:100B2000FEC08D3014F081E088838881811150C12E
:100B30008CE088834DC1853009F48BC10CF455C11C
:100B4000D0E0C0E0C12CD12C7601CA9445E0B42E8F
:100B50008E018091ED019091EE010817190708F0C0
:100B6000B6C10E94C917A70196010E943718E62F47
:100B7000462F572FBC01DA01992788278827992704
:100B8000BB27762F652F542F4427662777279A0196
:100B9000AB01282B392B4A2B5B2B8E2F6B2D0E9400
:100BA0009A18E81B2E2BB8018BEE91E00E94EB0304
:100BB0000D5F1F4FCECF8A3009F4E9C10CF060C041
:100BC000883009F4C7C1893009F0ABCF80910D029C
:100BD00090910E0201962091E7013091E801821771
:100BE0009307A0F41092E8011092E7018BEE91E0D8
:100BF0000E9446058BEE91E00E9446058BEE91E047
:100C00000E9446058BEE91E00E944605C4E0D0E0CC
:100C10006091E7017091E80190E080E0CB017727D7
:100C200066272091ED013091EE013695279550E031
:100C300040E00E9437188091E9019091EA01820F0B
:100C4000931F0E9425010E9481029B01AC016091CB
:100C5000E7017091E8018BEE91E00E94EB038BEECF
:100C600091E00E945704219799F68091E9019091B3
:100C7000EA018150984F9093EA018093E901DFC027
:100C80008C3009F4CAC10CF49CC18D3409F049CFF1
:100C9000D0E0C0E08091ED019091EE01C817D90736
:100CA00008F04CC0809108022091050230E050E02D
:100CB00040E0A90133272227582B80910702282BD7
:100CC00080910602382BBE018BEE91E00E94EB036F
:100CD0002196E0CF70E08091ED019091EE018617B2
:100CE000970718F40E94C917F5CFA70196018BEE5C
:100CF00091E00E94EB038BEE91E00E9457048BEE93
:100D000091E0DF91CF911F910F91FF90EF90DF90D5
:100D1000CF90BF90AF909F908F900C9446056091BC
:100D2000ED017091EE0190E080E00E944F0570E0CF
:100D3000A70196018BEE91E00E94EB038BEE91E010
:100D4000DF91CF911F910F91FF90EF90DF90CF90A7
:100D5000BF90AF909F908F900C94570410E000E0EC
:100D6000E8012091ED013091EE01C217D307E8F4BC
:100D7000BE0190E080E0CB017727662750E040E09D
:100D80000E9437188091E9019091EA01820F931F28
:100D90000E9425010E9481029B01AC01BE018BEEE5
:100DA00091E00E94EB032396DCCF8BEE91E00E9452
:100DB00057048091E9019091EA0180589F4F9093E8
:100DC000EA018093E9010F5F1F4F0330110541F6DF
:100DD000DF91CF911F910F91FF90EF90DF90CF9017
:100DE000BF90AF909F908F9008952091E701309130
:100DF000E8018091ED019091EE018217930720F4B4
:100E00001092E8011092E7016091E7017091E8010A
:100E1000A70196018BEE91E00E94EB036091E70140
:100E20007091E8016150710920E030E0A9018BEE7A
:100E300091E00E94EB038BEE91E00E9457048091B9
:100E4000E7019091E80101969093E8018093E70112
:100E5000BFCFC5E0D0E0C12CD12C7601CA940BEAFB
:100E60000E94C917A70196010E943718B62E872E37
:100E7000982EA92E609F812D112486951B2D181B5D
:100E80006091ED017091EE0190E080E00E944F05CD
:100E90008B2D982DA92DBA2DAC013327222722277F
:100EA00033275527BA2FA92F982F8827AA27BB2782
:100EB000822B932BA42BB52B9C01AD01212B70E031
:100EC0008BEE91E00E94EB03219751F614CF8BEE4D
:100ED00091E00E9457042196C330D10509F038CE25
:100EE00077CFD0E0C0E08091E9019091EA010E94C3
:100EF00025010E9481029B01AC01BE018BEE91E0B5
:100F00000E94EB032196C530D10569F78091E90174
:100F10009091EA018D5C9C4C0E9425010E94810207
:100F20009B01AC01BE018BEE91E00E94EB03219688
:100F3000CA30D10559F78BEE91E00E945704809199
:100F4000E9019091EA0180589F4F9093EA018093C4
:100F5000E9013ECFD0E0C0E08091ED019091EE013B
:100F6000C817D90708F0EACEE091630284E0E89F51
:100F7000F0011124E057FE4F259135914591549190
:100F8000BE018BEE91E00E94EB032196E5CF6091CC
:100F9000ED017091EE0190E080E00E944F05C62FB8
:100FA000D0E0BE018BEE91E00E94E902672B682B36
:100FB000692B19F0C12CD12C7601A7019601BE0135
:100FC000B9CED0E0C0E01AE08091ED019091EE0141
:100FD000C817D90708F0FCCE65E470E080E090E027
:100FE0000E944F05DC01CB010196A11DB11D2227F6
:100FF000382F492F5A2F44275527612F0E949A18BE
:10100000282B4F6ABE018BEE91E00E94EB038BEE22
:1010100091E00E9457042196D7CFC3E0D0E032E0A0
:10102000832E912CA12CB12C0E94C917A5019401EB
:101030000E9437188FEF662311F080E06FEF90E089
:10104000B0E0A0E0CC24D82EE92EFA2EE62A60915A
:10105000ED017091EE0190E080E00E944F05A70144
:1010600096018BEE91E00E94EB032197E9F643CEC7
:101070003F924F925F926F927F928F929F92AF9228
:10108000BF92CF92DF92EF92FF920F931F93CF9375
:10109000DF93FC019081973009F472C20CF044C0D8
:1010A000933009F431C184F4913009F4D2C0923004
:1010B00009F406C19D3014F081E0808380818111A4
:1010C000EDC08CE08083EAC0953009F4B3C10CF424
:1010D00071C110E000E0412C512C32014A9435E0FE
:1010E000332E43E6842E42E0942EE80180910D02D7
:1010F00090910E02C817D90708F411C28BE092E054
:101100000E94570481E292E00E94570487E392E034
:101110000E9457048DE492E00E9457040F5F1F4F16
:101120000330110511F7BAC09A3009F4ABC20CF0C4
:1011300061C0983009F47CC2993009F0BBCF80912E
:101140000D0290910E0201962091CA013091CB01BF
:1011500082179307A0F41092CB011092CA018BE082
:1011600092E00E94460581E292E00E94460587E3F4
:1011700092E00E9446058DE492E00E944605CBE095
:10118000D2E06091CA017091CB0190E080E0CB0188
:101190007727662720910D0230910E022F5F3F4F77
:1011A00050E040E00E9437188091CC019091CD0131
:1011B000820F931F0E9425010E9481029B01AC01B6
:1011C0006091CA017091CB01CE010E94EB03CE0168
:1011D0000E945704669682E0C336D80791F6809144
:1011E000CC019091CD018150984F9093CD01809387
:1011F000CC0116C19C3009F442C30CF472C2CBE09E
:10120000D2E09D3409F056CFCE010E94460510E091
:1012100000E08091E5019091E6010817190708F0B8
:1012200060C3809108022091050230E050E040E068
:10123000A90133272227582B80910702282B809160
:101240000602382BB801CE010E94EB030F5F1F4F3F
:10125000E0CFCBE0D2E003E612E00E94C917CB0159
:101260000E9425010E9481026B017C0160910D02A8
:1012700070910E0290E080E00E944F0570E0A7019F
:101280009601CE010E94EB03CE010E945704CE01CD
:101290000E94460566960C171D07F9F6DF91CF915F
:1012A0001F910F91FF90EF90DF90CF90BF90AF9084
:1012B0009F908F907F906F905F904F903F90089598
:1012C00060910D0270910E0290E080E00E944F0547
:1012D000062F0E94C917CB010E9425010E9481029E
:1012E0006B017C01CBE0D2E010E0A7019601B801D0
:1012F000CE010E94EB03CE010E945704669622E0C5
:10130000C336D20791F7CACF10E000E063E6C62EDD
:1013100062E0D62EE80120910D0230910E02C21734
:10132000D30700F18BE092E00E94570481E292E043
:101330000E94570487E392E00E9457048DE492E0F4
:101340000E9457048091CC019091CD0180589F4F0D
:101350009093CD018093CC010F5F1F4F0330110597
:10136000C9F69CCFBE0190E080E0CB0177276627CD
:1013700050E040E00E9437188091CC019091CD015F
:10138000820F931F0E9425010E9481024B015C0184
:101390005BE0E52E52E0F52EA5019401BE01C701E8
:1013A0000E94EB0386E1E80EF11CCE14DF04A1F7E6
:1013B0002396B1CF80910D0290910E02019620915B
:1013C000CA013091CB018217930720F41092CB0110
:1013D0001092CA01CBE0D2E00E94C917CB010E9453
:1013E00025010E9481029B01AC016091CA017091AC
:1013F000CB01CE010E94EB036091CA017091CB0139
:101400006150710920E030E0A901CE010E94EB0398
:10141000CE010E945704669622E0C336D207E1F659
:101420008091CA019091CB0101969093CB0180935A
:10143000CA0134CFC3E0D0E0C12CD12C7601CA94CC
:1014400015E00E94C917A70196010E9437189B0159
:10145000AB01BC013A01552444244424552477248B
:10146000762F652F542F442766277727442A552A3D
:10147000662A772A822F612F0E949A18281B422AF7
:1014800060910D0270910E0290E080E00E944F0585
:10149000ABE08A2EA2E09A2EA62EB12CA3019201D7
:1014A000B501C4010E94EB0386E1880E911C23E67E
:1014B000821622E0920691F7219719F68BE092E0CE
:1014C0000E9457048BE092E00E94460581E292E080
:1014D0000E94570481E292E00E94460587E392E071
:1014E0000E94570487E392E00E9446058DE492E053
:1014F0000E9457048DE492E0DF91CF911F910F91EC
:10150000FF90EF90DF90CF90BF90AF909F908F9023
:101510007F906F905F904F903F900C9446050E9493
:10152000C917A30192010E9437189B01AB01BC01AE
:101530007A01DD24CC24CC24DD24FF24762F652FF2
:10154000542F442766277727C42AD52AE62AF72A64
:10155000822F632D0E949A18281BC22A9BE0A92E75
:1015600092E0B92EA7019601BE01C5010E94EB03CE
:1015700086E1A80EB11C8A149B04A1F72396B6CD70
:101580000BE012E0D0E0C0E08091CC019091CD0161
:10159000905C0E9425010E9481029B01AC01BE016A
:1015A000C8010E94EB032196C830D10569F78091EC
:1015B000CC019091CD0190580E9425010E9481029A
:1015C0009B01AC01BE01C8010E94EB032196CE3005
:1015D000D10569F78091CC019091CD0190540E9482
:1015E00025010E9481029B01AC01BE01C8010E943D
:1015F000EB032196C231D10569F7C8010E94570457
:101600008091CC019091CD019C01305C3093CD0153
:101610002093CC010A5E1F4F22E00336120709F027
:10162000B1CF80589F4B9093CD018093CC0136CEA3
:10163000CBE0D2E0CE010E94460510E000E08091B0
:10164000E5019091E6010817190798F4E091E4018B
:1016500084E0E89FF0011124E057FE4F2591359179
:1016600045915491B801CE010E94EB030F5F1F4FCB
:10167000E6CFCE010E945704669622E0C336D20719
:10168000C9F60CCE60910D0270910E0290E080E0E0
:101690000E944F05062F0E94C917CB010E94250109
:1016A0000E9481026B017C01CBE0D2E010E0B80126
:1016B000CE010E94E902672B682B692B19F0C12C1F
:1016C000D12C7601A7019601B801CE010E94EB034F
:1016D000CE010E945704669622E0C336D20739F73E
:1016E000DDCD65E470E080E090E00E944F05D0E041
:1016F000C0E00AE065E470E080E090E00E944F0501
:101700006B017C012FEFC21AD20AE20AF20A1C2DE9
:10171000FE2CED2CDC2CCC24EE24FF24812F602F1A
:101720000E949A18C82A86E9E82AFBE0AF2EF2E068
:10173000BF2EA70196011B3018F420E030E0A9016C
:10174000BE01C5010E94EB0326E1A20EB11C83E697
:10175000A81682E0B80669F72196C830D10551F67F
:101760000AE065E470E080E090E00E944F056B01C4
:101770007C012FEFC21AD20AE20AF20A1C2DFE2CBB
:10178000ED2CDC2CCC24EE24FF24812F602F0E9432
:101790009A18C82A88ECE82A7BE0A72E72E0B72EB8
:1017A000A70196011E3218F420E030E0A901BE0125
:1017B000C5010E94EB0326E1A20EB11C83E6A81628
:1017C00082E0B80669F72196CE30D10551F60AE0DD
:1017D00065E470E080E090E00E944F056B017C01C1
:1017E0002FEFC21AD20AE20AF20A1C2DFE2CED2CAF
:1017F000DC2CCC24EE24FF24812F602F0E949A1829
:10180000C82AEE24EA945BE0A52E52E0B52EA7018B
:1018100096011D3318F420E030E0A901BE01C50196
:101820000E94EB0386E1A80EB11C23E6A21622E07B
:10183000B20669F72196C231D10551F68BE092E0EC
:101840000E94570481E292E00E94570487E392E0ED
:101850000E9457048DE492E0DF91CF911F910F9188
:10186000FF90EF90DF90CF90BF90AF909F908F90C0
:101870007F906F905F904F903F900C94570403E0DF
:1018800010E032E0832E912CA12CB12C0E94C917BC
:10189000A50194010E9437188FEF662311F080E0B4
:1018A0006FEF90E0B0E0A0E0CC24D82EE92EFA2E25
:1018B000E62ACBE0D2E06091D0017091D10190E0B6
:1018C00080E00E944F05A7019601CE010E94EB0324
:1018D000669682E0C336D80771F701501109B1F658
:1018E000EDCDCE010E945704669622E0C336D207A2
:1018F00009F08ACCD3CC1F920F920FB60F9211240D
:101900002F933F938F939F93AF93BF938091C20187
:101910009091C301A091C401B091C5013091C10162
:1019200023E0230F2D3758F50196A11DB11D2093FB
:10193000C1018093C2019093C301A093C401B093ED
:10194000C5018091C6019091C701A091C801B091D5
:10195000C9010196A11DB11D8093C6019093C701D5
:10196000A093C801B093C901BF91AF919F918F918E
:101970003F912F910F900FBE0F901F90189526E862
:10198000230F0296A11DB11DD2CF1F920F920FB649
:101990000F9211248F939F93EF93FF938091B40143
:1019A000811134C08091C600E0912901F0912A0193
:1019B000E259FE4F808380916E01833239F4809129
:1019C0002801811103C081E08093280180912801C2
:1019D000882349F08091290190912A0101969093E2
:1019E0002A01809329018091290190912A0107976A
:1019F00069F410922A01109229018091280188230C
:101A000029F081E08093B40110922801FF91EF91B9
:101A10009F918F910F900FBE0F901F9018951F925E
:101A20000F920FB60F9211242F933F934F935F9312
:101A30006F937F938F939F93AF93BF93EF93FF9396
:101A40008EE00E944A0290932701809326018091A4
:101A50002601909127018834914074F080912601ED
:101A600090912701803791403CF481E090E0909381
:101A700027018093260123C08091260190912701A0
:101A80008C3E914044F08091260190912701843151
:101A900092400CF4C3C080912601909127018039B7
:101AA00092400CF0BEC080912601909127018235B2
:101AB00092400CF0C1C01092270110922601809133
:101AC0002501882319F0815080932501209126015A
:101AD0003091270180910202232B21F09091250162
:101AE000992319F0813109F01EC12091260130910E
:101AF00027012430310519F492E3909325012091B8
:101B00002601309127012230310541F41092BE01A7
:101B100091E09093240192E3909325012091260176
:101B2000309127012130310541F41092BE0191E03E
:101B30009093230192E39093250120912601309107
:101B400027012330310551F41092BE0191E09093AA
:101B500022011092BF0192E390932501813189F413
:101B600080910302813309F472C0823309F473C097
:101B7000803329F481E080932201109205021092B3
:101B8000020280912201882379F0809120019091B6
:101B90002101843091050CF062C0019690932101DF
:101BA00080932001109222018091200190912101C7
:101BB000009709F059C08091260190912701049760
:101BC00019F481E08093AE01109224011092230158
:101BD00080912001909121018230910509F0CDC0C2
:101BE0008091AF019091B0018130910509F082C0E0
:101BF00080912401882339F0809101018F5F8093C7
:101C000001011092240180912301882309F48BC0E3
:101C10008091010181508093010183C082E090E0B6
:101C200026CF8091260190912701883B92400CF0AD
:101C30003ACF83E090E01BCF80912601909127015D
:101C40008A3792400CF037CF84E090E010CF81E0EB
:101C50008093240192CF81E0809323018ECF109254
:101C60002101109220019ECF019709F0B1CF809100
:101C70006D01882351F083E08093010163E081E0EE
:101C800090E00E94291810926D0180912401882310
:101C900059F08091AF019091B00101969093B001FD
:101CA0008093AF011092240180912301882359F081
:101CB0008091AF019091B00101979093B001809312
:101CC000AF01109223018091AF019091B001039771
:101CD00024F01092B0011092AF018091AF01909169
:101CE000B00197FF75CF82E090E09093B0018093B0
:101CF000AF016ECF8230910539F5809124018823A0
:101D000039F0809100018F5F8093000110922401CF
:101D100080912301882339F08091000181508093C4
:101D2000000110922301FF91EF91BF91AF919F911C
:101D30008F917F916F915F914F913F912F910F9074
:101D40000FBE0F901F901895892B69F78091240181
:101D5000882349F0809100018F5F80930001809378
:101D6000010110922401809123018823E1F28091E6
:101D700000018150809300014ECF8330910509F01E
:101D8000BAC18091AF019091B00181309105D1F538
:101D900080912401882359F08091080190910901D4
:101DA0000896909309018093080110922401809174
:101DB0002301882359F08091080190910901089727
:101DC00090930901809308011092230180910801EA
:101DD00090910901089730F488E090E09093090110
:101DE0008093080180910801909109018F3F91052E
:101DF00009F008F498CF8FEF90E090930901809359
:101E0000080191CF82309105D1F58091240188237A
:101E100059F080910601909107010896909307016F
:101E2000809306011092240180912301882359F0A8
:101E30008091060190910701089790930701809384
:101E400006011092230180910601909107010897E5
:101E500030F488E090E09093070180930601809130
:101E60000601909107018F3F910509F008F45BCFBF
:101E70008FEF90E0909307018093060154CF892B58
:101E800009F051CF80912401882379F080910801D5
:101E9000909109010896909309018093080190930D
:101EA0000701809306011092240180912301882369
:101EB00079F08091080190910901089790930901A8
:101EC00080930801909307018093060110922301EB
:101ED0008091080190910901089750F488E090E002
:101EE0009093090180930801909307018093060164
:101EF00080910801909109018F3F910509F008F444
:101F000012CF8FEF90E09093090180930801B2CF38
:101F10001092E4010CC18091020190910301885C50
:101F20009109909303018093020101C181500FC177
:101F3000809102019091030188539F4F9093030178
:101F40008093020106C18230910509F059C0809149
:101F50002401882369F0809100018830C9F58091BF
:101F600063028F5F8C3088F58093630210922401A6
:101F700080912301882369F0809100018830A9F5C0
:101F80008091630281112FC08BE0809363021092D5
:101F900023018091040190910501883C910530F462
:101FA00088EC90E0909305018093040180910401F6
:101FB0009091050181329E4408F4B5CE80E29EE402
:101FC0009093050180930401AECE10926302CECFB0
:101FD0008091040190910501885C9109909305011D
:101FE00080930401C3CF8150D0CF809104019091A0
:101FF000050188539F4F9093050180930401C7CF3B
:10200000892B09F090CE809124018823D9F080910A
:102010000101883009F057C08091E4018F5F8C3056
:1020200008F04EC08093E401809102019091030179
:1020300090930501809304018091E40180936302F1
:1020400010922401809123018823D1F08091010115
:10205000883009F045C08091E40181113FC08BE0D8
:102060008093E40180910201909103019093050116
:10207000809304018091E401809363021092230114
:102080008091020190910301883C910550F488EC05
:1020900090E0909303018093020190930501809357
:1020A0000401809102019091030181329E4408F461
:1020B0003ACE80E29EE4909303018093020180CFA8
:1020C0001092E401B1CF8091020190910301885CEC
:1020D00091099093030180930201A6CF8150C0CF54
:1020E000809102019091030188539F4F90930301C7
:1020F00080930201B7CF049709F015CE8091AF010C
:102100009091B0018130910509F01DCF809124019B
:10211000882379F080910101883009F0FCCE80910C
:10212000E4018F5F8C3008F0F3CE8093E4011092CD
:10213000240180912301882371F08091010188306E
:1021400009F0F6CE8091E4018111F0CE8BE080930E
:10215000E401109223018091020190910301883CD7
:10216000910530F488EC90E0909303018093020194
:10217000809102019091030181329E4408F4D3CDF5
:1021800080E29EE49093030180930201CCCD1F92E4
:102190000F920FB60F9211241F932F933F934F93DB
:1021A0005F936F937F938F939F93AF93BF93CF93DF
:1021B000DF93EF93FF938BE00E94B701182F8CE021
:1021C0000E94B701EC018DE00E94B701CC0FDD1F2A
:1021D000880F991F880F991FC82BC12B87E090E0AB
:1021E000C23081F03CF483E090E0C13059F082E1EC
:1021F00090E008C08AE090E0C33021F08FE090E0EA
:10220000C430A9F79093E6018093E5018091200105
:10221000909121018230910509F456C02CF5009768
:1022200079F161E0019709F450C02091AF0130913C
:10223000B0012115310509F465C080911F012130DD
:10224000310509F059C0823309F45CC0853634F099
:1022500061E081E10E94E00110921F0180911F0165
:102260008F5F80931F011CC083309105D1F10497CB
:10227000E1F660E08FE00E94E00161E082E137C0BA
:1022800061E081E10E94E00161E080E10E94E00103
:1022900061E082E10E94E00161E08FE00E94E001E4
:1022A000FF91EF91DF91CF91BF91AF919F918F916E
:1022B0007F916F915F914F913F912F911F910F905F
:1022C0000FBE0F901F90189560E080E10E94E00122
:1022D00061E082E10E94E00161E08FE00E94E001A4
:1022E000A4CF60E082E10E94E00161E08FE00E9403
:1022F000E00161E080E1F2CF2230310509F0AECF9C
:10230000823329F460E081E10E94E001A7CF8833A5
:102310000CF4A4CF9DCFCF92DF92EF92FF920F9358
:102320001F93CF93DF93EC016B01F42EE52E1982FE
:1023300018861F86188A198A1A8A81E08E878B87E9
:102340001C8692E09D8788838B01000F111F060F6A
:10235000171F1D830C83C8010E94D4189A87898790
:10236000009789F1A80170E060E00E94F919DB8212
:10237000CA82FE82EF828981882341F061E08F2D3D
:102380000E940E0260E08F2D0E94E0018F2D9E2D95
:10239000FC01E252FE4FE491F0E0EE0FFF1FEC5221
:1023A000FE4F259134913C8B2B8BFC01E054FE4F6A
:1023B000E491ED8BDF91CF911F910F91FF90EF9002
:1023C000DF90CF9008951D821C821B821A82D1CF8C
:1023D000CF93DF9300D000D000D0CDB7DEB7789494
:1023E00084B5826084BD84B5816084BD85B582601A
:1023F00085BD85B5816085BD80916E0081608093CB
:102400006E00109281008091810082608093810033
:102410008091810081608093810080918000816043
:10242000809380008091B10084608093B10080919E
:10243000B00081608093B00080917A0084608093C6
:102440007A0080917A00826080937A0080917A008D
:10245000816080937A0080917A00806880937A000E
:102460001092C10090E080E00E9421188D3009F4A4
:10247000FAC06DE090E080E00E94291860910101AF
:1024800081E090E00E9429186091000182E090E0D4
:102490000E9429186091080183E090E00E942918A9
:1024A0006091060184E090E00E9429188091020169
:1024B0009091030104E610E0B8010E94A61885E09F
:1024C00090E00E9429188091040190910501B801C3
:1024D0000E94A61886E090E00E9429186091AF0142
:1024E00087E090E00E9429186091E40188E090E084
:1024F0000E9429186091630289E090E00E942918E7
:1025000080910101803F19F481E080936D0161E0C9
:1025100081E10E940E0261E082E10E940E0261E010
:1025200080E10E940E0261E08FE00E940E0262E0F4
:102530008BE00E940E0262E08CE00E940E0262E0DC
:102540008DE00E940E02F89410928000109281009B
:102550001092B00081E08093700080936F008091B2
:1025600081008160809381008091B10081608093BF
:10257000B100789486E1EEECF1E0ABE0B2E00190DE
:102580000D928A95E1F786E1E7E5F1E0A1E2B2E09C
:1025900001900D928A95E1F786E1E1E4F1E0A7E38D
:1025A000B2E001900D928A95E1F786E1EBE2F1E06D
:1025B000ADE4B2E001900D928A95E1F70BE012E0F4
:1025C000C8010E942C05C8010E94570462E3C8019B
:1025D0000E94A7020A5E1F4F22E00336120781F70E
:1025E0008BEE91E00E942C058BEE91E00E94570447
:1025F00062E38BEE91E00E94A70280916D01882337
:1026000009F4ADC06AEA8BE092E00E94A7026AEA90
:1026100081E292E00E94A7026AEA87E392E00E94C8
:10262000A7026AEA8DE492E00E94A7026AEA8BEEB2
:1026300091E00E94A7020BE012E0F12CE12C8091C6
:102640000D0290910E02E816F90608F057C02FEF20
:102650003FEF4FEF50E0B701C8010E94EB038FEF4F
:10266000E81AF80AECCF81E090E00E9421188093EC
:10267000010182E090E00E9421188093000183E034
:1026800090E00E94211890E0909309018093080146
:1026900084E090E00E94211890E0909307018093DD
:1026A000060185E090E00E94211814E6819FC00198
:1026B0001124909303018093020186E090E00E9430
:1026C0002118819FC001112490930501809304017A
:1026D00087E090E00E94211890E09093B0018093F1
:1026E000AF0188E090E00E9421188093E40189E026
:1026F00090E00E9421188093630202CF0A5E1F4F70
:1027000092E00336190709F098CF10E000E08091BD
:10271000ED019091EE0108171907A8F08BE092E007
:102720000E94570481E292E00E94570487E392E0FE
:102730000E9457048DE492E00E9457048BEE91E0D2
:102740000E9457045ACF2FEF3FEF4FEF50E0B801F0
:102750008BEE91E00E94EB030F5F1F4FD8CF83E118
:102760000E944A02BC01990F880B990B61157105F3
:102770008105910511F00E9418181092C50083E39D
:102780008093C4008091C10088698093C1008091CA
:10279000C20086608093C20083E20E943F0584E00D
:1027A0000E943F05F8E02F2E312CA4E74A2EA1E02D
:1027B0005A2EB0E2EB2EBEE4FB2E14E6C12ED12C35
:1027C000AA24A394B12C11E0E0E08E2EE0E09E2E2E
:1027D0008091C00181117FC070900801672D8BE04E
:1027E00092E00E94A702672D81E292E00E94A70278
:1027F000672D87E392E00E94A702672D8DE492E0A7
:102800000E94A702609106018BEE91E00E94A70250
:102810008091BF0181110DC08091BE018D3409F0FE
:1028200070C08EEB91E00E9469058EEB91E00E94F2
:1028300038088091B401882309F453C186E0E4E1AB
:10284000F1E0DE01119601900D928A95E1F78091F9
:102850007401910102C0220F331F8A95E2F7809123
:102860007501280F311D87FD3A95EEE6F1E0DE0196
:10287000119650E040E081916D91082E000C990B6B
:10288000862B480F591F4E165F06A9F781E090E08E
:10289000452B11F090E080E0280F391F232B09F41D
:1028A0009DC290916F01909302028091700180937C
:1028B0000302A3E2A0936E01992359F0953109F424
:1028C0001CC20CF0EEC0913109F4FBC0943109F444
:1028D000F9C101E0FCC060E08BE092E00E94A70239
:1028E00060E081E292E00E94A70260E087E392E06C
:1028F0000E94A70260E08DE492E00E94A70260E0DF
:1029000083CF8E3481F58091BC019091BD0160919F
:1029100006022091050230E050E040E0A901332793
:102920002227362B60910702262B6091BA01709105
:10293000BB018430910549F48BEE91E00E94EB03DA
:102940008BEE91E00E94570474CFA6E1A89FF0019E
:10295000A99FF00D1124CF01855F9D4F3C010E947E
:10296000EB03C301EFCF8F3461F58BEE91E00E9452
:1029700046058BEE91E00E9457048BE092E00E94A6
:1029800046058BE092E00E94570481E292E00E94AB
:10299000460581E292E00E94570487E392E00E949C
:1029A000460587E392E00E9457048DE492E00E947E
:1029B00046058DE492E00E9457049EE49093BE0188
:1029C00038CF20910201309103018091B80190919C
:1029D000B9018217930740F081E091E00E94380826
:1029E000B092B901A092B801209104013091050183
:1029F0008091B6019091B70182179307C8F1809139
:102A00000001843009F048C080910101843009F050
:102A100043C020910D0230910E028091CA01909125
:102A2000CB012817390711F41093B5018091B50136
:102A3000882321F080E091E00E9469058091ED01FA
:102A40009091EE0101962091E7013091E801821703
:102A5000930751F48BEE91E00E9446058BEE91E0D6
:102A60000E9457041092B501B092B701A092B6012E
:102A70008091B8019091B9012091B6013091B701D0
:102A80002F5F3F4F3093B7012093B601019690938B
:102A9000B9018093B801CDCE80E091E00E94690534
:102AA000E3CF963109F474C1973109F012CF109237
:102AB000050210920602109207028FE48093BE0175
:102AC00005C0803409F0E6C01093C00100E0009317
:102AD0006F0183E20E943F05802F0E943F05109204
:102AE000B4018091B2019091B30101969093B3012A
:102AF0008093B2018091B101882309F44DC081E037
:102B000090E00E9421188093010182E090E00E94F1
:102B100021188093000183E090E00E94211890E04A
:102B2000909309018093080184E090E00E942118AD
:102B300090E0909307018093060185E090E00E9469
:102B4000211894E6792E879DC001112490930301EA
:102B50008093020186E090E00E942118879DC001C9
:102B60001124909305018093040187E090E00E9476
:102B7000211890E09093B0018093AF0188E090E03D
:102B80000E9421188093E40189E090E00E942118BE
:102B9000809363021092B1018091AE01882309F401
:102BA00072C06DE090E080E00E9429186091010100
:102BB00081E090E00E9429186091000182E090E09D
:102BC0000E9429186091080183E090E00E94291872
:102BD0006091060184E090E00E9429188091020132
:102BE00090910301B6010E94A61885E090E00E9432
:102BF00029188091040190910501B6010E94A61840
:102C000086E090E00E9429186091AF0187E090E093
:102C10000E9429186091E40188E090E00E94291840
:102C20006091630289E090E00E942918F89460E0C6
:102C300081E10E94E00160E080E10E94E00160E04B
:102C400082E10E94E00160E08FE00E94E001AFEFCE
:102C500023ED80E3A15020408040E1F700C0000058
:102C600061E081E10E94E00161E080E10E94E00119
:102C700061E082E10E94E00161E08FE00E94E001FA
:102C80001092AE0178948114910409F4A1CD0E94B0
:102C9000000099CD813419F41092C00117CF84330C
:102CA00019F41093AE0112CF833329F41092BE01B0
:102CB0001093B1010BCF8053833008F00ACE1092ED
:102CC000BE0104CF9DE49093BE01809305028091E4
:102CD00071018093060280917201809307028091B6
:102CE00073018093080290E090930701809306019E
:102CF0009093090180930801E9CE1092BE01609182
:102D0000710160930402833209F19CF4813231F144
:102D1000823209F0DECD8FEF860F843608F05CC07A
:102D200070E0C7010E94BA1870930301609302011A
:102D3000CDCE823301F18333B9F0813309F0C9CDAF
:102D400070E07093070160930601C0CE8FEF860F8D
:102D50008C3008F041C060930101B8CE70E07093F0
:102D6000090160930801B2CE8FEF860F8C30A0F579
:102D700060930001ABCE8FEF860F843668F570E06C
:102D8000C7010E94BA1870930501609304019ECE9A
:102D90002EE42093BE0190917301909308028093DA
:102DA00005028091710180930602809172018093E7
:102DB0000702292F2F7130E03093BB012093BA0115
:102DC000892F90E025E0959587952A95E1F79093D6
:102DD000BD018093BC017ACE02E079CE83E280937C
:102DE0006E0193E090936F010E943F0583E075CEE2
:102DF0001092050210920602109207021092080229
:102E000048E050E062E170E08EEC91E00E948B11AE
:102E100047E050E062E170E087E591E00E948B11AD
:102E200046E050E062E170E081E491E00E948B11A5
:102E300045E050E062E170E08BE291E00E948B118E
:102E4000EBE0F2E081E02FEF3FEF92E08083118230
:102E5000138212821582148237832683108612868B
:102E6000118683871486958786871786108A118A2C
:102E7000128A769642E0E336F40741F749E050E0E3
:102E80006AE070E08BEE91E00C948B11CF93DF93AE
:102E9000EC0189859A850E9470198E819F8197FD2A
:102EA00005C060E0DF91CF910C940E02DF91CF91CD
:102EB00008958BEE91E00E9446178DE492E00E9407
:102EC000461787E392E00E94461781E292E00E9453
:102ED00046178BE092E00E9446178BE291E00E9439
:102EE000461781E491E00E94461787E591E00E9431
:102EF00046178EEC91E00C9446178F929F92AF92FA
:102F0000BF92CF92DF92EF92FF92CF93DF93EC01CB
:102F1000688179818A819B8161157105810591059F
:102F200021F464E279ED8BE597E02DE133EF41E0A8
:102F300050E00E94371849015A019B01AC01A7EAF1
:102F4000B1E40E9456186B017C01ACEEB4EFA50110
:102F500094010E946418C60ED71EE81EF91EF7FEE3
:102F600006C081E0C81AD108E10880E8F80AC882E2
:102F7000D982EA82FB82C701B6019F77DF91CF91A8
:102F8000FF90EF90DF90CF90BF90AF909F908F9089
:102F900008958F929F92AF92BF92CF92DF92EF925D
:102FA000FF9260910A0170910B0180910C01909148
:102FB0000D01611571058105910521F464E279ED3A
:102FC0008BE597E02DE133EF41E050E00E943718A8
:102FD00049015A019B01AC01A7EAB1E40E945618CD
:102FE0006B017C01ACEEB4EFA50194010E94641862
:102FF000C60ED71EE81EF91EF7FE06C081E0C81AED
:10300000D108E10880E8F80AC0920A01D0920B01C9
:10301000E0920C01F0920D01C701B6019F77FF907D
:10302000EF90DF90CF90BF90AF909F908F900895DA
:1030300060930A0170930B0180930C0190930D0132
:103040000895F999FECF92BD81BDF89A992780B570
:103050000895262FF999FECF1FBA92BD81BD20BDDC
:103060000FB6F894FA9AF99A0FBE01960895052EB4
:1030700097FB1EF400940E944E1857FD07D00E9443
:10308000691807FC03D04EF40C944E1850954095E7
:10309000309521953F4F4F4F5F4F08959095809504
:1030A000709561957F4F8F4F9F4F08950E948B18A9
:1030B000A59F900DB49F900DA49F800D911D11248C
:1030C0000895B7FF0C9456180E945618821B930B54
:1030D0000895A1E21A2EAA1BBB1BFD010DC0AA1F59
:1030E000BB1FEE1FFF1FA217B307E407F50720F071
:1030F000A21BB30BE40BF50B661F771F881F991FEC
:103100001A9469F760957095809590959B01AC0134
:10311000BD01CF010895A29FB001B39FC001A39F3D
:10312000700D811D1124911DB29F700D811D112400
:10313000911D0895991B79E004C0991F961708F016
:10314000961B881F7A95C9F780950895AA1BBB1B0B
:1031500051E107C0AA1FBB1FA617B70710F0A61B97
:10316000B70B881F991F5A95A9F780959095BC01B8
:10317000CD01089597FB072E16F4009407D077FD34
:1031800009D00E94A61807FC05D03EF490958195C1
:103190009F4F0895709561957F4F0895EE0FFF1F23
:1031A0000590F491E02D09940F931F93CF93DF9333
:1031B0008230910510F482E090E0E0916602F09197
:1031C000670230E020E0B0E0A0E0309799F42115EC
:1031D000310509F44AC0281B390B24303105D8F5D4
:1031E0008A819B816115710589F1FB01938382833B
:1031F000FE0111C040815181028113814817590796
:10320000E0F04817590799F4109761F012960C9363
:10321000129713961C933296CF01DF91CF911F9195
:103220000F9108950093660210936702F4CF211561
:10323000310551F04217530738F0A901DB019A011B
:10324000BD01DF01F801C1CFEF01F9CF9093670213
:1032500080936602CDCFFE01E20FF31F819391931D
:103260002250310939832883D7CF209164023091CD
:103270006502232B41F4209110013091110130930C
:1032800065022093640220910E0130910F012115F7
:10329000310541F42DB73EB7409112015091130111
:1032A000241B350BE0916402F0916502E217F307ED
:1032B000A0F42E1B3F0B2817390778F0AC014E5FA6
:1032C0005F4F2417350748F04E0F5F1F509365027C
:1032D00040936402819391939FCFF0E0E0E09CCF14
:1032E000CF93DF930097E9F0FC01329713821282AB
:1032F000A0916602B0916702ED0130E020E01097E6
:10330000A1F420813181820F931F209164023091BA
:1033100065022817390709F061C0F0936502E09350
:103320006402DF91CF910895EA01CE17DF07E8F537
:103330004A815B819E0141155105B1F7E901FB838B
:10334000EA8349915991C40FD51FEC17FD0761F429
:10335000808191810296840F951FE901998388836A
:10336000828193819B838A83F0E0E0E012968D91C5
:103370009C9113970097B9F52D913C911197CD0130
:103380000296820F931F20916402309165022817E4
:10339000390739F6309751F510926702109266029C
:1033A000B0936502A0936402BCCFD383C2834081F3
:1033B0005181840F951FC817D90761F44E5F5F4F85
:1033C00088819981480F591F518340838A819B814D
:1033D000938382832115310509F0B0CFF093670202
:1033E000E09366029ECFFD01DC01C0CF1382128202
:1033F000D7CFDC0101C06D9341505040E0F70895F4
:1034000010E0CAEFD0E004C0FE010E94CE18219661
:0A341000CB3FD107C9F7F894FFCFB6
:10341A000404E803E803320032000100000000005F
:0A342A0068028000CCC8D5C0C8CBF2
:00000001FF
