:100000000C94F0000C9418010C9418010C94180135
:100010000C9418010C9418010C9418010C941801FC
:100020000C9418010C947F070C9418010C9418017F
:100030000C9418010C949B040C9418010C94180156
:100040000C9480020C9418010C94F0020C94CA02D7
:100050000C9418010C9418010C9418010C941801BC
:100060000C9418010C9418016A0EA60EDC0E450FB4
:10007000840FE60F3F10AD10E310AD08BF08DB089A
:1000800023094E09A709E8092F0A6A0A000000009F
:100090000000000000000000000000000000000060
:1000A0000000000001010101010101010101010144
:1000B0000202020202020202030303030303040416
:1000C00004040505050505060606060707070808D2
:1000D000080909090A0A0A0B0B0B0C0C0D0D0D0E71
:1000E0000E0F0F10101111121213131414151516F0
:1000F0001617181819191A1B1B1C1D1D1E1F1F204F
:1001000021222223242526262728292A2A2B2C2D82
:100110002E2F303132333435363738393A3B3C3D87
:100120003E3F4041424445464748494B4C4D4E5066
:10013000515254555658595A5C5D5E60616364660D
:1001400067696A6C6D6F7072737577787A7C7D7F82
:100150008182848688898B8D8F91929496989A9CBF
:100160009EA0A2A4A6A8AAACAEB0B2B4B6B8BABCBF
:10017000BFC1C3C5C7CACCCED1D3D5D7DADCDFE186
:10018000E3E6E8EBEDF0F2F5F7FAFCFF0000000023
:10019000240027002A0000000008000201000003DC
:1001A0000407000000000000000001020408102005
:1001B0004080010204081020010204081020000001
:1001C0000000250028002B00040404040404040497
:1001D00002020202020203030303030382118B0BD8
:1001E00011241FBECFEFD4E0DEBFCDBF11E0A0E0F1
:1001F000B1E0E4ECF9E202C005900D92A632B1073D
:10020000D9F722E0A6E2B1E001C01D92AE3AB207F2
:10021000E1F710E0CFEED0E004C02197FE010E948C
:10022000A213CE3ED107C9F70E94AF0B0C94D51490
:100230000C940000CF92DF92EF92FF920F931F93E6
:10024000CF93DF936C017A018B01C0E0D0E0CE1533
:10025000DF0581F0D8016D918D01D601ED91FC9102
:100260000190F081E02DC6010995892B11F02196AE
:10027000EECF7E01C701DF91CF911F910F91FF90CB
:10028000EF90DF90CF900895089580E090E008957A
:10029000FC01538D448D252F30E0842F90E0821B8C
:1002A000930B541710F0CF96089501970895FC0111
:1002B000918D828D981761F0828DDF01A80FB11D9D
:1002C0005D968C91928D9F5F9F73928F90E00895C1
:1002D0008FEF9FEF0895FC01918D828D981731F07B
:1002E000828DE80FF11D858D90E008958FEF9FEFCF
:1002F0000895FC01918D228D892F90E0805C9F4FA5
:10030000821B91098F739927089587E491E00E94D9
:10031000790121E0892B09F420E0822F0895FC0166
:10032000848DDF01A80FB11DA35ABF4F2C91848D7E
:1003300090E001968F739927848FA689B7892C93B3
:10034000A089B1898C91837080648C93938D848D06
:10035000981306C00288F389E02D80818F7D808309
:100360000895EF92FF920F931F93CF93DF93EC01C9
:1003700081E0888F9B8D8C8D981305C0E889F98961
:10038000808185FD26C0F62E0B8D10E00F5F1F4F7C
:100390000F731127E02E8C8DE8120CC00FB607FCEE
:1003A000FACFE889F989808185FFF5CFCE010E94D7
:1003B0008F01F1CF8B8DFE01E80FF11DE35AFF4F46
:1003C000F0829FB7F8940B8FEA89FB898081806265
:1003D0000AC09FB7F894EE89FF896083E889F9899C
:1003E00080818370806480839FBF81E090E0DF9193
:1003F000CF911F910F91FF90EF900895CF93DF93CE
:10040000EC01888D8823C9F0EA89FB89808185FD0C
:1004100005C0A889B9898C9186FD0FC00FB607FC6D
:10042000F5CF808185FFF2CFA889B9898C9185FFAE
:10043000EDCFCE010E948F01E7CFDF91CF910895DC
:1004400080E090E0892B29F00E94850181110C94B5
:1004500000000895FF920F931F93CF93DF93EC0159
:10046000FF24F394F60E2885F21679F109851A8592
:100470002150B9F06F3F59F430E040E050E06FEFA9
:100480007FEF80E090E00E941F13B9010CC08F2D18
:1004900090E0982F88270197622F70E00E948E13BA
:1004A00002C060E070E0F8014C815D81CF01801BEB
:1004B000910B8417950740F44081469FC001479FE8
:1004C000900D11249193F0CFF886DF91CF911F9179
:1004D0000F91FF900895CF93DF93EC018E819F8160
:1004E00097FD07C061E00E94170B60E08E810E94BB
:1004F000CA0A81E08983DF91CF9108950E94C914CF
:100500001F920F920FB60F9211242F933F938F9348
:100510009F93AF93BF9380913B0190913C01A09139
:100520003D01B0913E0130913A0123E0230F2D3778
:1005300020F40196A11DB11D05C026E8230F0296E7
:10054000A11DB11D20933A0180933B0190933C0182
:10055000A0933D01B0933E0180913F0190914001F5
:10056000A0914101B09142010196A11DB11D80935E
:100570003F0190934001A0934101B0934201BF918C
:10058000AF919F918F913F912F910F900FBE0F9040
:100590001F9018951F920F920FB60F9211242F9350
:1005A0003F934F935F936F937F938F939F93AF93FB
:1005B000BF93EF93FF9387E491E00E948F01FF9137
:1005C000EF91BF91AF919F918F917F916F915F91CB
:1005D0004F913F912F910F900FBE0F901F90189544
:1005E0001F920F920FB60F9211242F938F939F9308
:1005F000EF93FF93E0915701F09158018081E091D2
:100600005D01F0915E0182FD12C0908180916001D8
:100610008F5F8F7320916101821751F0E09160012B
:10062000F0E0E95BFE4F958F8093600101C080810F
:10063000FF91EF919F918F912F910F900FBE0F908F
:100640001F901895CF93DF9300D000D0CDB7DEB7C1
:1006500069837A838B839C83DE011196CE01059694
:10066000EC91F0E0E457FF4FE491ED93A817B90740
:10067000B9F769817A818B819C810F900F900F90DF
:100680000F90DF91CF910895FC014481558160E086
:1006900070E0818592850C94CE147F928F929F9208
:1006A000AF92BF92CF92DF92EF92FF920F931F9380
:1006B000CF93DF93FC01828193816817790708F05B
:1006C00053C04A01AA24BB24782CC32ED42EE52E75
:1006D000FF24BC2DA22F8085882361F0889E4001D5
:1006E0001124792C8C9D60011124BD2D829F7001F5
:1006F0001124AF2D9685D385E184F2849D1308C023
:10070000CB01880F991F680F791F6E0D7F1D1CC0CC
:10071000660F771F660F771F6E0D7F1D052F112740
:10072000222733277B01E90EF11C811102C0202F03
:1007300009C090E0809F6001819FD00C909FD00CF9
:1007400011242D2DE701288383859B01280F311D5E
:10075000E90178828485EB01C80FD11DB8838585B6
:10076000FB01E80FF11DA083DF91CF911F910F9145
:10077000FF90EF90DF90CF90BF90AF909F908F90C1
:100780007F900895CF92DF92EF92FF920F931F9385
:10079000CF93DF93CDB7DEB729970FB6F894DEBFBE
:1007A0000FBECDBF8C01DC0119968D919C911A97DB
:1007B000892B09F4B1C00E94530BF801C784D0887B
:1007C000E188F2886C157D058E059F0520F467870A
:1007D000708B818B928BF801C784D088E188F28876
:1007E000DC01CB018C199D09AE09BF098C32914007
:1007F000A105B10500F3F894D80114968D919C9150
:1008000015979A8389831996ED91FC911A977F0128
:10081000BFEFEB1AFB0A80818987F801908103887A
:10082000F489E02DD80155968C91992309F430C0B4
:100830009081982B98879081809589238F838F81D1
:100840008C8388E08B8358856F8149853B812C811F
:1008500089819A81D701508347FD252F3A952083BE
:10086000262F39F0441F00C000006083000000C044
:10087000F2CF38E04D9160830000019761F7D80115
:100880005496FC93EE93539749873B832C833AC04D
:100890009081982B98879081809589238F838F8171
:1008A0008E8388E08D8358856F8149853D812E81B7
:1008B00089819A81D701508347FD252F00C000C050
:1008C000208300C000C000C000C000C060830000E2
:1008D000262F3A9541F0441F000000C000C000C020
:1008E00000C000C0E8CF38E04D9100C0608300C078
:1008F000019709F7D8015496FC93EE9353974987D3
:100900003D832E839A83898378940E94530BF80148
:100910006787708B818B928B29960FB6F894DEBF18
:100920000FBECDBFDF91CF911F910F91FF90EF9040
:10093000DF90CF9008951F920F920FB60F9211245F
:100940002F933F934F935F936F937F938F939F93D7
:10095000AF93BF93EF93FF9380E480937C008091EB
:100960007A00806480937A0080917A0086FDFCCFC3
:10097000809178002091790090E0922B9C0128547E
:1009800031402832310588F0245A310928323105A6
:1009900078F0245A31092832310568F082559240A6
:1009A000889760F484E090E00BC081E090E008C09C
:1009B00082E090E005C083E090E002C080E090E03B
:1009C00020912C01222309F486C2215020932C016E
:1009D000009709F483C2211181C284309105A1F0EE
:1009E0008230910521F421E020932B010DC081304C
:1009F000910521F421E020932A0106C0833091055E
:100A000031F421E02093290122E320932C0120914D
:100A100029012223A1F020912701309128012430BF
:100A200031053CF42F5F3F4F30932801209327017D
:100A300004C01092280110922701109229012091E0
:100A40002701309128012115310551F4049719F43B
:100A500081E08093300110922B0110922A0146C050
:100A60002130310509F042C080912D01882351F0D9
:100A700085E08093000165E081E090E00E94111321
:100A800010922D0180912B01882359F080912E0125
:100A900090912F01019690932F0180932E01109237
:100AA0002B0180912A01882359F080912E01909189
:100AB0002F01019790932F0180932E0110922A010C
:100AC00080912E0190912F01039724F010922F0115
:100AD00010922E0180912E0190912F0197FF06C058
:100AE00082E090E090932F0180932E018091270166
:100AF000909128018230910509F053C080912E0118
:100B000090912F0181309105A1F480912B018823D0
:100B100039F0809100018F5F8093000110922B01CA
:100B200080912A01882309F4D9C180910001815064
:100B300035C082309105C1F480912B01882339F0B2
:100B4000809107018F5F8093070110922B018091A4
:100B50002A01882309F4C2C1809107018150809342
:100B6000070110922A01BAC1892B09F0B7C18091FF
:100B70002B01882349F0809107018F5F8093070143
:100B80008093000110922B0180912A01882309F49F
:100B9000A5C18091070181508093070180930001D6
:100BA000E0CF8330910509F0C7C080912E0190916C
:100BB0002F0181309105D1F580912B01882359F0C7
:100BC000809105019091060108969093060180930B
:100BD000050110922B0180912A01882359F0809100
:100BE00005019091060108979093060180930501F5
:100BF00010922A018091050190910601089730F426
:100C000088E090E0909306018093050180910501B2
:100C1000909106018F3F910509F008F45FC18FEFB5
:100C200090E0909306018093050158C182309105B0
:100C3000B1F580912B01882359F0809103019091A7
:100C400004010896909304018093030110922B01F4
:100C500080912A01882359F0809103019091040129
:100C60000897909304018093030110922A018091C8
:100C7000030190910401089730F488E090E090938C
:100C800004018093030180910301909104018F3F3F
:100C9000910509F008F422C18FEF90E048C0892B3C
:100CA00009F01CC180912B01882379F08091050106
:100CB0009091060108969093060180930501909308
:100CC00004018093030110922B0180912A01882353
:100CD00079F08091050190910601089790930601A3
:100CE00080930501909304018093030110922A01DF
:100CF0008091050190910601089750F488E090E0FA
:100D00009093060180930501909304018093030161
:100D100080910501909106018F3F910509F008F43B
:100D2000DDC08FEF90E090930601809305019093D2
:100D3000040180930301D2C0049709F0CFC08091D1
:100D40002E0190912F0181309105E1F580912B01C9
:100D5000882361F08091010190910201845F9140AC
:100D6000909302018093010110922B0180912A013E
:100D7000882361F080910101909102018C509E4F77
:100D8000909302018093010110922A018091010148
:100D900090910201843F914030F484EF91E0909370
:100DA0000201809301018091010190910201813142
:100DB000974208F493C080E197E2909302018093F8
:100DC00001018CC082309105C1F580912B018823EF
:100DD00061F08091080190910901845F91409093A6
:100DE00009018093080110922B0180912A01882328
:100DF00061F080910801909109018C509E4F909371
:100E000009018093080110922A01809108019091B4
:100E10000901843F914030F484EF91E090930901FF
:100E200080930801809108019091090181319742D6
:100E300008F454C080E197E249C0892B09F04EC004
:100E400080912B01882381F0809101019091020112
:100E5000845F914090930201809301019093090176
:100E60008093080110922B0180912A01882381F040
:100E700080910101909102018C509E4F909302014C
:100E800080930101909309018093080110922A0137
:100E90008091010190910201843F914050F484EFD0
:100EA00091E0909302018093010190930901809356
:100EB000080180910101909102018131974270F007
:100EC00080E197E2909302018093010190930901E0
:100ED0008093080103C0009709F07FCDFF91EF9147
:100EE000BF91AF919F918F917F916F915F914F9142
:100EF0003F912F910F900FBE0F901F9018951F924A
:100F00000F920FB60F9211242F933F934F935F933D
:100F10006F937F938F939F93AF93BF93EF93FF93C1
:100F200080912701909128018230910531F13CF4A4
:100F3000009791F081309105C1F561E01FC08330C9
:100F4000910531F18430910581F560E08FE00E94D8
:100F5000CA0A61E082E122C061E081E10E94CA0A1E
:100F600061E080E10E94CA0A61E082E10E94CA0A4F
:100F700061E08FE00E94CA0A42C060E080E10E9406
:100F8000CA0A61E082E10E94CA0A61E08FE00AC0F9
:100F900060E082E10E94CA0A61E08FE00E94CA0A12
:100FA00061E080E10E94CA0A02C0892B41F12091D0
:100FB0002E0130912F012115310579F08091260104
:100FC0002130310529F4823341F085369CF00CC084
:100FD0002230310579F4823329F460E081E10E9406
:100FE000CA0A08C0883334F061E081E10E94CA0A6D
:100FF00010922601809126018F5F80932601FF9138
:10100000EF91BF91AF919F918F917F916F915F9180
:101010004F913F912F910F900FBE0F901F901895F9
:101020000F931F939C01AAEFB5E00E947313DC019C
:10103000CB019058AF4FBF4FCD01BB2797FDB09567
:10104000AB2F8E3F01E0900760F48F3F910518F4BD
:10105000682F80E029C06EEF962F981B80E06FEF1D
:1010600024C08C3F13E0910760F48D3F42E0940769
:1010700018F48E5F6FEF03C06CEF681B8FEF90E08A
:1010800014C08A3F05E0900769F08B3F14E0910798
:1010900028F494E0980F8FEF60E007C06AEF681BB8
:1010A000862F01C080E060E09FEF292F30E0E62F1F
:1010B000F0E0482F50E0CF01A0E0B0E0BA2FA92F18
:1010C000982F88278827AA27BB2760E070E0482B45
:1010D000592B6A2B7B2BC901A0E0B0E0DC019927DA
:1010E000882788279927BB278A019B01082B192B62
:1010F0002A2B3B2BC901B8011F910F9108954F92E4
:101100005F926F927F928F929F92AF92BF92CF9297
:10111000DF92EF92FF920F931F93CF93DF93EC0137
:101120000E94B212CB010E9410080E9422034B01C0
:101130005C010E94B21220910701822F022E000C46
:10114000990BAA0BBB0BFC013197E930F10508F0B4
:1011500004C2E35CFF4F0C94A21370E08091E6019F
:101160009091E7018617970718F40E94B212F5CF05
:10117000A501940184EE91E00E944D03D0C0C0907F
:10118000E601D090E701E12CF12CC114D104E10477
:10119000F10441F00E94B212A70196010E941F13B0
:1011A0006B017C016C2D70E0A501940184EE91E04F
:1011B0000E944D037BC100E010E06E01DD0FEE08E0
:1011C000FF08812C912C5401A394E8012091E601A1
:1011D0003091E701C217D307E0F4CE01A0E0B0E000
:1011E0007727662740E050E00E941F138091450159
:1011F00090914601820F931F0E9410080E942203C3
:101200009B01AC01BE0184EE91E00E944D03239648
:10121000DDCF84EE91E00E94C203C501B401A701B5
:1012200096010E941F138091450190914601280F5D
:10123000391F30934601209345010F5F1F4F033044
:10124000110519F696C12091430130914401809116
:10125000E6019091E7018217930720F41092440170
:10126000109243016091430170914401A5019401E2
:1012700084EE91E00E944D0360914301709144011E
:101280006150710920E030E0A90184EE91E00E94F4
:101290004D0384EE91E00E94C20355C1C5E0D0E049
:1012A000412C512C32014A940BEA0E94B212A30144
:1012B00092010E941F136B017C01609F812D1124FC
:1012C00086951C2D181B8090E6019090E701A12CBB
:1012D000B12C81149104A104B10441F00E94B21216
:1012E000A50194010E941F134B015C01DD24EE2433
:1012F000FF24D60199278827FE2CED2CDC2CCC244A
:101300008C299D29AE29BF299C01AD01212B682D77
:1013100070E084EE91E00E944D03219731F684EE57
:1013200091E00E94C20384EE91E0DF91CF911F9182
:101330000F91FF90EF90DF90CF90BF90AF909F9074
:101340008F907F906F905F904F900C944403C0E01B
:10135000D0E0C12CD12C7601CA9455E0B52E8E0177
:101360008091E6019091E7010817190740F50E9466
:10137000B212A70196010E941F132B013C01DC0150
:10138000CB019927AA27BB27BC0155274427BA2F91
:10139000A92F982F88279A01AB01282B392B4A2B8C
:1013A0005B2B842D6B2D0E948213481A2429B801CF
:1013B00084EE91E00E944D030D5F1F4FD1CF84EE6C
:1013C00091E00E94C2032196C330D10541F6D1C0FD
:1013D00000E010E080914501909146010E941008C4
:1013E0000E9422039B01AC01B80184EE91E00E94AF
:1013F0004D030F5F1F4F0530110561F705E010E049
:1014000080914501909146018D5C9C4C0E94100892
:101410000E9422039B01AC01B80184EE91E00E947E
:101420004D030F5F1F4F0A30110551F784EE91E015
:101430000E94C2039E01DD0F440B550B60E070E07B
:1014400081E090E00E941F13809145019091460138
:10145000280F391F30934601209345018AC02091FF
:10146000080130910901AFEFBFEF0E94731320E133
:1014700037E240E050E00E941F13C9010E941008AB
:101480000E9422036B017C01C0E0D0E08091E60164
:101490009091E701C817D90748F4A7019601BE014A
:1014A00084EE91E00E944D032196F0CF84EE91E00E
:1014B000DF91CF911F910F91FF90EF90DF90CF9030
:1014C000BF90AF909F908F907F906F905F904F9064
:1014D0000C94C2038091FC019091FD010196209132
:1014E00043013091440182179307A0F41092440104
:1014F0001092430184EE91E00E94440384EE91E057
:101500000E94440384EE91E00E94440384EE91E043
:101510000E944403C4E0D0E00E94B212CB010E94BA
:1015200010080E9422039B01AC016091430170915D
:10153000440184EE91E00E944D0384EE91E00E940C
:10154000C203219749F7809143019091440101968C
:1015500090934401809343010CC02A301CF081E039
:101560008093070180910701811103C089E0809376
:101570000701DF91CF911F910F91FF90EF90DF90C6
:10158000CF90BF90AF909F908F907F906F905F9023
:101590004F90089590E0FC01EA56FE4F2491FC0123
:1015A000E655FE4F3491FC01E853FE4FE491EE23E3
:1015B00009F43CC0222339F1233091F038F4213072
:1015C000A9F0223001F584B58F7D12C0273091F04B
:1015D0002830A1F02430B9F4809180008F7D03C0C1
:1015E000809180008F77809380000DC084B58F77C5
:1015F00084BD09C08091B0008F7703C08091B00096
:101600008F7D8093B000F0E0EE0FFF1FE254FE4F9D
:10161000A591B4919FB7F894611104C08C91309555
:10162000382302C0EC913E2B3C939FBF0895CF938B
:10163000DF9390E0FC01E655FE4F2491FC01E85356
:10164000FE4F8491882361F190E0880F991FFC017F
:10165000E457FE4FC591D491FC01E254FE4FA59191
:10166000B491611109C09FB7F894888120958223B5
:101670008883EC912E230BC0623061F49FB7F894FD
:101680008881322F309583238883EC912E2B2C93E5
:101690009FBF06C08FB7F894E8812E2B28838FBF99
:1016A000DF91CF9108953FB7F89480913F019091D9
:1016B0004001A0914101B091420126B5A89B05C00F
:1016C0002F3F19F00196A11DB11D3FBFBA2FA92FC1
:1016D000982F8827820F911DA11DB11DBC01CD013E
:1016E00042E0660F771F881F991F4A95D1F708952A
:1016F000CF93DF93EC0189859A850E9440148E81F7
:101700009F8197FD05C060E0DF91CF910C94170B8E
:10171000DF91CF91089584EE91E00E94780B8CE3E5
:1017200092E00E94780B86E292E00E94780B80E1C2
:1017300092E00E94780B8AEF91E00E94780B82E59C
:1017400092E00E94780B88E692E00E94780B8EE788
:1017500092E00E94780B84E992E00C94780BCF938E
:10176000DF9300D000D000D0CDB7DEB7789484B539
:10177000826084BD84B5816084BD85B5826085BD8D
:1017800085B5816085BD80916E00816080936E001B
:10179000109281008091810082608093810080910D
:1017A00081008160809381008091800081608093BE
:1017B00080008091B10084608093B1008091B0007E
:1017C00081608093B00080917A00846080937A0079
:1017D00080917A00826080937A0080917A008160A3
:1017E00080937A0080917A00806880937A001092CA
:1017F000C10080E090E00E9409138D30E1F16DE0BE
:1018000080E090E00E9411136091000181E090E07F
:101810000E9411136091070182E090E00E94111371
:101820006091050183E090E00E9411136091030133
:1018300084E090E00E9411138091010190910201D7
:1018400064E670E00E948E1385E090E00E94111320
:10185000809108019091090164E670E00E948E1366
:1018600086E090E00E94111360912E0187E090E0E5
:101870000E9411133FC081E090E00E940913809301
:10188000000182E090E00E9409138093070183E049
:1018900090E00E94091390E0909306018093050167
:1018A00084E090E00E94091390E0909304018093FB
:1018B000030185E090E00E94091324E6829FC001A5
:1018C0001124909302018093010186E090E00E9430
:1018D000091334E6839FC00111249093090180937A
:1018E000080187E090E00E94091390E090932F0197
:1018F00080932E0180910001803F19F481E0809354
:101900002D01E0915701F091580182E08083E09130
:101910005301F09154011082E0915501F09156016C
:101920008FEC808310925F01E0915B01F0915C018C
:1019300086E08083E0915901F0915A0180818061B5
:101940008083E0915901F0915A0180818860808301
:10195000E0915901F0915A01808180688083E09183
:101960005901F0915A0180818F7D808361E081E18E
:101970000E94170B61E082E10E94170B61E080E199
:101980000E94170B61E08FE00E94170BF8941092F1
:101990008000109281001092B00081E0809370006E
:1019A00080936F008091810081608093810080919D
:1019B000B10081608093B100789486E1E4E9F2E0BF
:1019C000AAEFB1E001900D928A95E1F786E1EEE78A
:1019D000F2E0A0E1B2E001900D928A95E1F786E194
:1019E000E8E6F2E0A6E2B2E001900D928A95E1F716
:1019F00086E1E2E5F2E0ACE3B2E001900D928A9577
:101A0000E1F74AEF51E05A83498389819A810E9424
:101A10006B0289819A810E94C20362E389819A8163
:101A20000E942A0289819A8146969A8389838255E7
:101A3000924059F784EE91E00E946B0284EE91E0AF
:101A40000E94C20362E384EE91E00E942A02809128
:101A50002D01811108C0BAE02B2E312C412C512CC4
:101A6000320163941BC14AEF51E05A8349836AEA09
:101A700089819A810E942A0289819A8146969A8355
:101A800089838255924099F76AEA84EE91E00E9438
:101A90002A024AEF51E05A83498300E010E0809126
:101AA000FC019091FD010817190760F42FEF3FEF3B
:101AB0004FEF50E0B80189819A810E944D030F5F7A
:101AC0001F4FEDCF89819A8146969A8389838255EB
:101AD000924019F71A8219828091E6019091E701EC
:101AE00049815A814817590780F42FEF3FEF4FEF94
:101AF00050E069817A8184EE91E00E944D038981F2
:101B00009A8101969A838983E7CF8AEF91E00E94B8
:101B1000C20380E192E00E94C20386E292E00E944A
:101B2000C2038CE392E00E94C20384EE91E00E9423
:101B3000C2038DCF6091050189819A810E942A029A
:101B400049815A814A5E5F4F5A83498342555240C8
:101B500089F76091030184EE91E00E942A022091AE
:101B6000010130910201A9014150510980913801D0
:101B7000909139018417950708F095C0809108016C
:101B800090910901AC0141505109209132013091ED
:101B900033012417350708F073C380913201909107
:101BA0003301019690933301809332018091380183
:101BB0009091390101969093390180933801809179
:101BC0003001882309F468C06DE080E090E00E9455
:101BD00011136091000181E090E00E941113609167
:101BE000070182E090E00E9411136091050183E0FB
:101BF00090E00E9411136091030184E090E00E9444
:101C00001113809101019091020164E670E00E943D
:101C10008E1385E090E00E9411138091080190914D
:101C2000090164E670E00E948E1386E090E00E9455
:101C3000111360912E0187E090E00E941113F89437
:101C400060E081E10E94CA0A60E080E10E94CA0A65
:101C500060E082E10E94CA0A60E08FE00E94CA0A46
:101C60004FEF53ED80E3415050408040E1F700C01A
:101C7000000061E081E10E94CA0A61E080E10E9407
:101C8000CA0A61E082E10E94CA0A61E08FE00E9414
:101C9000CA0A1092300178940E9420022AEF31E0A3
:101CA0003A83298347CFC901B1010E948E136B018A
:101CB00040910001842F042E000C990BAA0BBB0B42
:101CC000FC013197E930F10508F0C9C2EC5CFF4F27
:101CD0000C94A2132AEF31E03A8329830E94B212B6
:101CE000CB010E9410080E9422034B015C01C090AE
:101CF000FC01D090FD01E12CF12CC114D104E104D0
:101D0000F10441F00E94B212A70196010E941F1334
:101D10006B017C016C2D70E0A501940189819A8191
:101D20000E944D0389819A810E94C20389819A8110
:101D30000E94440349815A814A5E5F4F5A83498316
:101D400082E592E08417950749F695C22091FC013F
:101D50003091FD016901E12CF12CC114D104E104A1
:101D6000F10441F00E94B212A70196010E941F13D4
:101D70006B017C01C9820E94B212CB010E94100843
:101D80000E9422036B017C010AEF11E05981452F6B
:101D900050E05A834983A701960169817A81C8017D
:101DA0000E944D03C8010E94C2030A5E1F4F82E0D9
:101DB0000235180781F75FC200E010E0E12CF12C3A
:101DC0001E830D832091FC013091FD014D815E81C8
:101DD0004217530798F5CA01A0E0B0E077276627BD
:101DE00040E050E00E941F1380913601909137012E
:101DF000820F931F0E9410080E94220369837A8336
:101E00008B839C83AAEFAA2EA1E0BA2E29813A8166
:101E10004B815C816D817E81C5010E944D0356E13D
:101E2000A50EB11C82E5A81682E0B80679F72D81CF
:101E30003E812D5F3F4F3E832D83C4CF8AEF91E0DB
:101E40000E94C20380E192E00E94C20386E292E017
:101E50000E94C2038CE392E00E94C203C301B2015C
:101E6000A70196010E941F138091360190913701BE
:101E7000280F391F30933701209336010F5F1F4F12
:101E80000330110509F09CCFF6C18091FC019091BF
:101E9000FD0101962091340130913501821793079D
:101EA00020F410923501109234014AEF51E05A8328
:101EB00049830E94B212CB010E9410080E942203A3
:101EC0009B01AC01609134017091350189819A8147
:101ED0000E944D0360913401709135016150710988
:101EE00020E030E0A90189819A810E944D03898117
:101EF0009A810E94C20389819A8146969A83898336
:101F000082559240B1F6A1C103E010E00E94B212E6
:101F10002FEF30E040E050E00E941F136B017C0186
:101F2000DC01CB019927AA27BB27BC0155274427F1
:101F30008824982EA92EBA2E842A952AA62AB72A52
:101F40008C2D65E00E948213C81A8C28C090FC0179
:101F5000D090FD01E12CF12CC114D104E104F10475
:101F600041F00E94B212A70196010E941F136B015B
:101F70007C014AEF51E05A834983D12CA501940199
:101F8000B60189819A810E944D0389819A81469682
:101F90009A8389838255924089F70150110909F08B
:101FA000B5CF4AEF51E05A83498389819A810E94D3
:101FB000C20389819A810E94440389819A8146964D
:101FC0009A8389838255924081F755C11A8219827A
:101FD00009811A818091FC019091FD010817190770
:101FE000A8F50E94B2122FEF30E040E050E00E94CE
:101FF0001F136B017C01DC01CB019927AA27BB27AA
:10200000BC01552744278824982EA92EBA2E842A4D
:10201000952AA62AB72A8C2D65E00E948213C81A39
:102020008C284AEFE42E41E0F42EA5019401B8017A
:10203000C7010E944D0336E1E30EF11C42E5E416B0
:1020400042E0F40691F70D5F1F4FC4CF8AEF91E095
:102050000E94C20380E192E00E94C20386E292E005
:102060000E94C2038CE392E00E94C20389819A819C
:1020700001969A838983039709F0AACFFCC02AEFBF
:1020800031E03A83298300E010E08091360190919D
:102090003701905C0E9410080E9422039B01AC0152
:1020A000B80189819A810E944D030F5F1F4F08304C
:1020B000110559F708E010E0809136019091370141
:1020C00090580E9410080E9422039B01AC01B801A5
:1020D00089819A810E944D030F5F1F4F0E301105B9
:1020E00059F70EE010E0809136019091370190543D
:1020F0000E9410080E9422039B01AC01B801898153
:102100009A810E944D030F5F1F4F0231110559F74D
:1021100089819A810E94C203009136011091370192
:10212000105C109337010093360149815A814A5E51
:102130005F4F5A8349834255524009F0A4CF96011C
:1021400040E050E0C301B2010E941F13200F311F75
:1021500030933701209336018EC0AFEFBFEF0E945E
:10216000731320E137E240E050E00E941F13C901E1
:102170000E9410080E9422036B017C012AEF31E0CB
:102180003A83298300E010E08091FC019091FD01E9
:102190000817190750F4A7019601B80189819A819F
:1021A0000E944D030F5F1F4FEFCF89819A810E94DC
:1021B000C20349815A814A5E5F4F5A83498342551F
:1021C000524001F758C08091FC019091FD010196A9
:1021D000209134013091350182179307A0F41092B9
:1021E0003501109234018AEF91E00E94440380E1AE
:1021F00092E00E94440386E292E00E9444038CE352
:1022000092E00E9444032AEF31E03A8329830E943E
:10221000B212CB010E9410080E9422039B01AC0164
:10222000609134017091350189819A810E944D033A
:1022300089819A810E94C20349815A814A5E5F4F17
:102240005A8349834255524011F78091340190914D
:102250003501019690933501809334010CC04A30CA
:102260001CF091E09093000180910001811103C066
:1022700029E02093000110923901109238017ECCA0
:1022800020910701243099F520910001243079F53F
:102290004091FC015091FD012091340130913501B4
:1022A0004217530719F431E0309331012091310185
:1022B000222331F0B1010E948E13CB010E947F08CE
:1022C0008091E6019091E7010196209143013091C0
:1022D00044018217930789F484EE91E00E9444033D
:1022E00084EE91E00E94C2031092310106C0B10158
:1022F0000E948E13CB010E947F081092330110922E
:1023000032014BCC10924A011092490188EE93E0C1
:10231000A0E0B0E080934B0190934C01A0934D015D
:10232000B0934E0188E191E090934801809347017A
:1023300085EC90E0909354018093530184EC90E0FD
:10234000909356018093550180EC90E09093580152
:102350008093570181EC90E090935A01809359014A
:1023600082EC90E090935C0180935B0186EC90E0BE
:1023700090935E0180935D01109260011092610163
:10238000109262011092630148E050E062E170E057
:1023900084E992E00E940A1247E050E062E170E0B6
:1023A0008EE792E00E940A1246E050E062E170E09F
:1023B00088E692E00E940A1245E050E062E170E097
:1023C00082E592E00E940A12EAEFF1E081E02FEF4D
:1023D0003FEF92E080831182138212821582148271
:1023E0003783268310861286118683871486958705
:1023F00086871786108A118A128A769642E0E2351D
:10240000F40741F749E050E06AE070E084EE91E0C3
:102410000C940A12CF92DF92EF92FF920F931F93C8
:10242000CF93DF93EC016B01F42EE52E1982188611
:102430001F86188A198A1A8A81E08E878B871C86E4
:1024400092E09D8788838B01000F111F060F171FD5
:102450001D830C83C8010E94A8139A87898700975F
:1024600041F0A80160E070E00E94CE14DB82CA82D5
:1024700004C01D821C821B821A82FE82EF82898127
:10248000882341F061E08F2D0E94170B60E08F2DB3
:102490000E94CA0A8F2D9E2DFC01E853FE4FE49145
:1024A000F0E0EE0FFF1FE254FE4F259134913C8B7C
:1024B0002B8BFC01E655FE4FE491ED8BDF91CF9124
:1024C0001F910F91FF90EF90DF90CF9008958F9222
:1024D0009F92AF92BF92CF92DF92EF92FF92CF93F3
:1024E000DF93EC01688179818A819B816115710597
:1024F0008105910521F464E279ED8BE597E02DE10A
:1025000033EF41E050E00E941F1349015A019B0143
:10251000AC01A7EAB1E40E943E136B017C01ACEE72
:10252000B4EFA50194010E944C13DC01CB018C0D8A
:102530009D1DAE1DBF1DB7FF03C00197A109B04887
:1025400088839983AA83BB83BC01CD019F77DF91E8
:10255000CF91FF90EF90DF90CF90BF90AF909F9082
:102560008F9008958F929F92AF92BF92CF92DF92F9
:10257000EF92FF9260910A0170910B0180910C0122
:1025800090910D01611571058105910521F464E2B9
:1025900079ED8BE597E02DE133EF41E050E00E94CB
:1025A0001F1349015A019B01AC01A7EAB1E40E9443
:1025B0003E136B017C01ACEEB4EFA50194010E94C7
:1025C0004C13DC01CB018C0D9D1DAE1DBF1DB7FF53
:1025D00003C00197A109B04880930A0190930B01B1
:1025E000A0930C01B0930D01BC01CD019F77FF902A
:1025F000EF90DF90CF90BF90AF909F908F90089515
:1026000060930A0170930B0180930C0190930D016C
:102610000895F999FECF92BD81BDF89A992780B5AA
:102620000895262FF999FECF1FBA92BD81BD20BD16
:102630000FB6F894FA9AF99A0FBE01960895052EEE
:1026400097FB1EF400940E94361357FD07D00E949A
:10265000511307FC03D04EF40C943613509540955B
:10266000309521953F4F4F4F5F4F0895909580953E
:10267000709561957F4F8F4F9F4F08950E94731300
:10268000A59F900DB49F900DA49F800D911D1124C6
:102690000895B7FF0C943E130E943E13821B930BC8
:1026A0000895A1E21A2EAA1BBB1BFD010DC0AA1F93
:1026B000BB1FEE1FFF1FA217B307E407F50720F0AB
:1026C000A21BB30BE40BF50B661F771F881F991F26
:1026D0001A9469F760957095809590959B01AC016F
:1026E000BD01CF010895A29FB001B39FC001A39F78
:1026F000700D811D1124911DB29F700D811D11243B
:10270000911D0895991B79E004C0991F961708F050
:10271000961B881F7A95C9F780950895AA1BBB1B45
:1027200051E107C0AA1FBB1FA617B70710F0A61BD1
:10273000B70B881F991F5A95A9F780959095BC01F2
:10274000CD010895EE0FFF1F0590F491E02D09943F
:102750000F931F93CF93DF938230910510F482E0A3
:1027600090E0E091AC02F091AD0220E030E0A0E01A
:10277000B0E0309719F140815181028113814817EF
:102780005907C8F08417950769F4109731F012962D
:102790000C93129713961C9327C00093AC021093CE
:1027A000AD0222C02115310519F04217530718F464
:1027B0009A01BD01EF01DF01F801DBCF21153105E1
:1027C000F9F0281B390B2430310580F48A819B8174
:1027D0006115710521F0FB019383828304C09093FE
:1027E000AD028093AC02FE01329644C0FE01E20FBE
:1027F000F31F8193919322503109398328833AC082
:102800002091AA023091AB02232B41F420911001B8
:10281000309111013093AB022093AA0220910E0156
:1028200030910F012115310541F42DB73EB740918C
:10283000120150911301241B350BE091AA02F09173
:10284000AB02E217F307A0F42E1B3F0B2817390742
:1028500078F0AC014E5F5F4F2417350748F04E0FFC
:102860005F1F5093AB024093AA028193919302C0E1
:10287000E0E0F0E0CF01DF91CF911F910F9108953B
:10288000CF93DF93009709F481C0FC013297138244
:102890001282A091AC02B091AD02109781F4208118
:1028A0003181820F931F2091AA023091AB02281729
:1028B000390751F5F093AB02E093AA0267C0ED012E
:1028C00020E030E0CE17DF0740F44A815B819E01B3
:1028D00041155105F1F0EA01F5CFD383C283408160
:1028E0005181840F951FC817D90759F488819981A0
:1028F000840F951F0296918380838A819B819383A5
:1029000082832115310529F4F093AD02E093AC02E6
:102910003DC0E901FB83EA8349915991C40FD51F5A
:10292000EC17FD0761F480819181840F951F029659
:10293000E90199838883828193819B838A83E0E084
:10294000F0E012968D919C911397009719F0FD017C
:10295000DC01F7CF8D919C9111979D012E5F3F4F28
:10296000820F931F2091AA023091AB0228173907DA
:1029700069F4309729F41092AD021092AC0202C0B3
:1029800013821282B093AB02A093AA02DF91CF917F
:10299000089581E090E0F8940C94D514DC0101C016
:1029A0006D9341505040E0F7089510E0CFEED0E035
:1029B00004C0FE010E94A2132196C03FD107C9F7AF
:0429C000F894FFCFB9
:1029C40004E8033200320004E803010000000000C0
:1029D400AE02200000000000B1011A014801FE010E
:0629E400790157016B01AF
:00000001FF
