:020000040000FA
:100000000C94DE000C9406010C9406010C9406017D
:100010000C9406010C9406010C9406010C94060144
:100020000C9406010C94BB0A0C9406010C94060176
:100030000C9406010C945D070C9406010C940601C7
:100040000C9413070C9406010C94E1060C94BB0667
:100050000C9406010C9406010C9406010C94060104
:100060000C9406010C940601000000000000000042
:100070000000000000000000000000000000000080
:10008000010101010101010101010101020202025C
:10009000020202020303030303030404040405052C
:1000A00005050506060606070707080808090909E1
:1000B0000A0A0A0B0B0B0C0C0D0D0D0E0E0F0F1078
:1000C00010111112121313141415151616171818EF
:1000D00019191A1B1B1C1D1D1E1F1F202122222344
:1000E000242526262728292A2A2B2C2D2E2F30316D
:1000F00032333435363738393A3B3C3D3E3F404168
:10010000424445464748494B4C4D4E505152545538
:100110005658595A5C5D5E606163646667696A6CD3
:100120006D6F7072737577787A7C7D7F818284863B
:1001300088898B8D8F91929496989A9C9EA0A2A468
:10014000A6A8AAACAEB0B2B4B6B8BABCBFC1C3C55B
:10015000C7CACCCED1D3D5D7DADCDFE1E3E6E8EB12
:10016000EDF0F2F5F7FAFCFF000000002400270094
:100170002A0000000008000201000003040700003C
:10018000000000000000010204081020408001026D
:1001900004081020010204081020000000002500BF
:1001A00028002B00040404040404040402020202D4
:1001B0000202030303030303220B7E1011241FBE5C
:1001C000CFEFD4E0DEBFCDBF11E0A0E0B1E0ECE4C2
:1001D000F6E202C005900D92A632B107D9F722E0EF
:1001E000A6E2B1E001C01D92AF3AB207E1F710E01C
:1001F000CDEDD0E004C02197FE010E94E711CC3D77
:10020000D107C9F70E94AA0B0C9419130C94000093
:10021000CF92DF92EF92FF920F931F939C01AAEF70
:10022000B5E00E94B011DC01CB019058AF4FBF4F39
:10023000CD01BB2797FDB095AB2F8E3F21E09207F4
:1002400058F5282F8F3F910508F445C06EEF681BC5
:10025000862F30E02FEF682F70E090E080E0CB0138
:1002600077276627D12CF12CE12C632B7D298E2951
:100270009F29022F10E030E020E0322F212F102F95
:100280000027602B712B822B932B1F910F91FF90D6
:10029000EF90DF90CF9008958C3F23E0920768F4B1
:1002A0008D3F22E0920728F432E0380F2FEF80E0F4
:1002B000D2CF2CEF281B3FEFFACF8A3F25E09207E1
:1002C00069F03AEF381B8B3F24E0920740F48C5FD3
:1002D0003FEF20E0C0CF30E08FEFBDCF30E020E037
:1002E000FBCFAF92BF92CF92DF92EF92FF920F932C
:1002F0001F93CF93DF936C017B018B01040F151FBC
:10030000EB015E01AE18BF08C017D10759F0699123
:10031000D601ED91FC910190F081E02DC601099587
:10032000892B79F7C501DF91CF911F910F91FF9034
:10033000EF90DF90CF90BF90AF900895FC01538D68
:10034000448D252F30E0842F90E0821B930B5417AF
:1003500010F0CF96089501970895FC01918D828D3C
:10036000981761F0A28DAE0FBF2FB11D5D968C91D5
:10037000928D9F5F9F73928F90E008958FEF9FEF14
:100380000895FC01918D828D981731F0828DE80FD0
:10039000F11D858D90E008958FEF9FEF0895FC018A
:1003A000918D228D892F90E0805C9F4F821B910957
:1003B0008F739927089588E491E00E94CF0121E08E
:1003C000892B09F420E0822F089580E090E0892BAA
:1003D00029F00E94DB0181110C9400000895FC01BA
:1003E000A48DA80FB92FB11DA35ABF4F2C91848D96
:1003F00090E001968F739927848FA689B7892C93F3
:10040000A089B1898C91837080648C93938D848D45
:10041000981306C00288F389E02D80818F7D808348
:100420000895EF92FF920F931F93CF93DF93EC0108
:1004300081E0888F9B8D8C8D98131AC0E889F9898B
:10044000808185FF15C09FB7F894EE89FF8960838E
:10045000E889F98980818370806480839FBF81E00F
:1004600090E0DF91CF911F910F91FF90EF90089551
:10047000F62E0B8D10E00F5F1F4F0F731127E02E2C
:100480008C8D8E110CC00FB607FCFACFE889F98964
:10049000808185FFF5CFCE010E94EF01F1CFEB8D7A
:1004A000EC0FFD2FF11DE35AFF4FF0829FB7F89438
:1004B0000B8FEA89FB8980818062CFCFCF93DF9356
:1004C000EC01888D8823B9F0AA89BB89E889F9896C
:1004D0008C9185FD03C0808186FD0DC00FB607FCA1
:1004E000F7CF8C9185FFF2CF808185FFEDCFCE01D4
:1004F0000E94EF01E9CFDF91CF91089590E0FC01D8
:10050000EE58FE4F2491FC01EA57FE4F3491FC0156
:10051000EC55FE4FE491EE23C9F0222339F023304D
:1005200001F1A8F4213019F1223029F1F0E0EE0FA9
:10053000FF1FE656FE4FA591B4918FB7F894EC914A
:10054000611126C030953E233C938FBF089527301C
:10055000A9F02830C9F0243049F7809180008F7DC0
:1005600003C0809180008F7780938000DFCF84B5B7
:100570008F7784BDDBCF84B58F7DFBCF8091B000BA
:100580008F778093B000D2CF8091B0008F7DF9CF6C
:100590003E2BDACFCF93DF9390E0FC01EA57FE4F7A
:1005A00024918C559E4FFC0184918823D1F090E0DA
:1005B000880F991FFC01E859FE4FA591B491FC01E9
:1005C000E656FE4FC591D49161110EC09FB7F894C5
:1005D0008C91E22FE0958E238C932881E223E8838F
:1005E0009FBFDF91CF9108958FB7F894EC91E22BE4
:1005F000EC938FBFF6CF3FB7F8948091360190917E
:100600003701A0913801B091390126B5A89B05C0EA
:100610002F3F19F00196A11DB11D3FBFBA2FA92F81
:10062000982F8827BC01CD01620F711D811D911D7E
:1006300042E0660F771F881F991F4A95D1F70895EA
:10064000CF93DF9300D000D0CDB7DEB769837A8334
:100650008B839C83DE011196CE010596ED91F0E02F
:10066000E859FF4F44919D0121503109F901408320
:100670008A179B0799F769817A818B819C810F90FA
:100680000F900F900F90DF91CF910895FF920F93ED
:100690001F93CF93DF93EC01FF24F394F60E28858C
:1006A0002F1581F109851A85215041F16F3FE1F441
:1006B00030E050E040E06FEF7FEF80E090E00E949C
:1006C0005C11B901F8014C815D81CF01801B910B58
:1006D00084179507B0F44081469FC001479F900D55
:1006E000112490833196EFCF8F2D90E0982F88279B
:1006F0000197622F70E00E94BF11E4CF70E060E0CC
:10070000E1CFF886DF91CF911F910F91FF9008956F
:100710008F929F92AF92BF92CF92DF92EF92FF9211
:100720001F93CF93DF93FC01828193816817790730
:10073000A8F54A01AA24BB24C82DC32ED42EE52E29
:10074000FF241C2DD22F8085882361F0889E4001D4
:100750001124C92D8C9D600111241D2D829FD00173
:100760001124DB2FA685E184F2849385A91322C08E
:10077000CB01880F991F680F791F6E0D7F1DA38510
:10078000A60FB72FB11DCC93A485A60FB72FB11D0F
:100790001C938585680F711DFB01D083DF91CF917C
:1007A0001F91FF90EF90DF90CF90BF90AF909F9000
:1007B0008F900895660F771F660F771F6E0D7F1D50
:1007C000252F332744275527882349F090E0829F1F
:1007D0007001839FF00C929FF00C11242F2DA60F17
:1007E000B72FB11D2C93CBCFCF92DF92EF92FF9218
:1007F0000F931F93CF93DF93CDB7DEB729970FB633
:10080000F894DEBF0FBECDBF8C01DC0119968D912F
:100810009C91892B09F473C00E94FB02F801C784E4
:10082000D088E188F2886C157D058E059F0520F43F
:100830006787708B818B928BF801C784D088E188A1
:10084000F2886C197D098E099F096C32714081050F
:10085000910510F3F894D80114968D919C911597F9
:100860009A8389831996ED91FC917F01BFEFEB1A72
:10087000FB0A80818987F80190810388F489E02D43
:10088000D80155968C91992309F448C09081982BF2
:1008900098879081809589238F838F818C8388E0CE
:1008A0008B8358856F8149853B812C8189819A8111
:1008B000D701508347FD252F3A952083262F39F005
:1008C000441F00C000006083000000C0F2CF38E089
:1008D0004D9160830000019761F7D8015496FC9315
:1008E000EE93539749873B832C839A83898378942B
:1008F0000E94FB02F8016787708B818B928B29968F
:100900000FB6F894DEBF0FBECDBFDF91CF911F9120
:100910000F91FF90EF90DF90CF9008959081982BEA
:1009200098879081809589238F838F818E8388E03B
:100930008D8358856F8149853D812E8189819A817A
:10094000D701508347FD252F00C000C0208300C081
:1009500000C000C000C000C060830000262F3A9590
:1009600041F0441F000000C000C000C000C000C033
:10097000E8CF38E04D9100C0608300C0019709F7CF
:10098000D8015496FC93EE93539749873D832E8369
:10099000ACCFCF93DF93EC018E819F8197FD07C091
:1009A00061E00E94CA0260E08E810E947E0281E0C6
:1009B0008983DF91CF910895FC014481558170E0D6
:1009C00060E0818592850C9412134F925F926F9232
:1009D0007F928F929F92AF92BF92CF92DF92EF92CF
:1009E000FF92CF93DF93C82E0E94EE10CB010E949E
:1009F00008010E9420034B015C010E94EE108091CF
:100A00000901EFEFE80FE73008F0A8C10E2E000C47
:100A1000FF0BE35FFA4F0C94E71114053B056705E4
:100A2000C205F60533066B0670E08091E7019091F0
:100A3000E8018617970718F40E94EE10F5CFA5017C
:100A4000940185EE91E00E94880385EE91E00E947A
:100A5000F40385EE91E0DF91CF91FF90EF90DF906E
:100A6000CF90BF90AF909F908F907F906F905F904E
:100A70004F900C94DC04C090E701D090E801F12C79
:100A8000E12CC114D104E104F10439F00E94EE100C
:100A9000A70196010E945C116B016C2D70E0A5010D
:100AA000940185EE91E00E94880385EE91E0DF914C
:100AB000CF91FF90EF90DF90CF90BF90AF909F903D
:100AC0008F907F906F905F904F900C94F403B12CB7
:100AD000A12C0C2C000CDD08EE08FF08412C512C39
:100AE00032016394E5012091E7013091E801C217DA
:100AF000D307E8F4BE0190E080E0CB0177276627BA
:100B000050E040E00E945C118091460190914701C5
:100B1000820F931F0E9408010E9420039B01AC01D9
:100B2000BE0185EE91E00E9488032396DCCF85EE1E
:100B300091E00E94F403C301B201A70196010E9453
:100B40005C118091460190914701280F391F309325
:100B50004701209346018FEFA81AB80A83E0A81630
:100B6000B10409F0BFCFDF91CF91FF90EF90DF90FC
:100B7000CF90BF90AF909F908F907F906F905F903D
:100B80004F90089520914401309145018091E701F3
:100B90009091E8018217930720F41092450110927A
:100BA00044016091440170914501A501940185EED5
:100BB00091E00E9488036091440170914501615069
:100BC000710920E030E0A90185EE91E00E948803E0
:100BD00085EE91E00E94F4038091440190914501DB
:100BE00001969093450180934401BDCFC5E0D0E0CC
:100BF00084E6882E912CA12CB12C0E94EE10A50128
:100C000094010E945C112B013C01C090E701D0903F
:100C1000E801F12CE12CC114D104E104F10439F014
:100C20000E94EE10A70196010E945C116B01A201C7
:100C300033272227222733275527B62DA52D942D7C
:100C40008827AA27BB27822B932BA42BB52B9C018B
:100C5000AD0124296C2D70E085EE91E00E9488039F
:100C6000219759F6F2CED0E0C0E0F4E68F2E912C19
:100C7000A12CB12C7E018091E7019091E801E8164A
:100C8000F90600F50E94EE10A50194010E945C1186
:100C9000AB01332722272227332755274424562EFA
:100CA000672E782E6624772424293529462957294A
:100CB000262BB70185EE91E00E94880383E0E80EC1
:100CC000F11CD9CF85EE91E00E94F4032196C33048
:100CD000D10581F648CFD0E0C0E0809146019091E7
:100CE00047010E9408010E9420039B01AC01BE0144
:100CF00085EE91E00E9488032196C530D10569F701
:100D0000809146019091470190580E9408010E94ED
:100D100020039B01AC01BE0185EE91E00E94880397
:100D20002196CA30D10561F785EE91E00E94F40367
:100D30002C2DCC0C330B440B550B60E070E081E0A4
:100D400090E00E945C118091460190914701280F2C
:100D5000391F309347012093460105CF87301CF09F
:100D600081E080930901809109018111FCCE86E028
:100D700080930901F8CE1F920F920FB60F921124A3
:100D80002F933F934F935F936F937F938F939F9393
:100D9000AF93BF93EF93FF9388E491E00E94EF013C
:100DA000FF91EF91BF91AF919F918F917F916F9143
:100DB0005F914F913F912F910F900FBE0F901F9019
:100DC00018951F920F920FB60F9211242F938F93A5
:100DD0009F93EF93FF93E0915801F0915901808127
:100DE000E0915E01F0915F0182FD1BC090818091D6
:100DF00061018F5F8F7320916201821741F0E09152
:100E00006101F0E0E85BFE4F958F80936101FF91F7
:100E1000EF919F918F912F910F900FBE0F901F9088
:100E200018958081F4CF1F920F920FB60F92112464
:100E30002F933F938F939F93AF93BF9380913201F2
:100E400090913301A0913401B0913501309131017D
:100E500023E0230F2D3758F50196A11DB11D2093D6
:100E600031018093320190933301A0933401B09308
:100E700035018091360190913701A0913801B091F0
:100E800039010196A11DB11D809336019093370160
:100E9000A0933801B0933901BF91AF919F918F9189
:100EA0003F912F910F900FBE0F901F90189526E83D
:100EB000230F0296A11DB11DD2CF1F920F920FB624
:100EC0000F9211242F933F934F935F936F937F93D0
:100ED0008F939F93AF93BF93CF93DF93EF93FF9342
:100EE00080E480937C0080917A00806480937A0013
:100EF00080917A0086FDFCCF9091780080917900F6
:100F00008927982789279C012854314028323105A8
:100F100008F454C0245A31092832310508F451C06C
:100F2000245A31092832310508F44EC082559240C6
:100F3000889708F04CC084E090E020912F01309118
:100F400030012115310509F4CAC22150310930930D
:100F5000300120932F01009709F48FC0232B09F053
:100F60008CC084309105B1F524E630E03093300137
:100F700020932F0120912C01222379F020912A0126
:100F800030912B0124303105DCF52F5F3F4F30933A
:100F90002B0120932A0110922C0120912A013091DB
:100FA0002B012115310589F5049719F481E080930F
:100FB0003A0110922E0110922D015FC081E090E065
:100FC000BCCF82E090E0B9CF83E090E0B6CF90E074
:100FD00080E0B3CF8130910521F421E020932E01F0
:100FE000C3CF8330910521F421E020932D01BCCFA4
:100FF0008230910509F0BECF21E020932C01B4CFBF
:1010000010922B0110922A01C6CF2130310509F030
:1010100060C080912E01882359F080912801909121
:1010200029010196909329018093280110922E01A5
:1010300080912D01882359F08091280190912901F8
:101040000197909329018093280110922D0180919E
:10105000280190912901039724F010922901109200
:101060002801809128019091290197FF06C082E014
:1010700090E09093290180932801C0912601D0919E
:1010800027012196D0932701C093260180912A0140
:1010900090912B018230910509F4D6C10CF0C6C1A4
:1010A00061E08130910509F4D0C1892B09F0D8C1E4
:1010B00061E08FE00E947E0261E080E10E947E029A
:1010C00061E081E10E947E0261E082E10E947E0295
:1010D000E5C12230310509F051C08091280190917D
:1010E000290181309105B1F480912E01882339F0D6
:1010F000809102018F5F8093020110922E018091F6
:101100002D01882309F4B9CF809102018150809389
:10111000020151CF82309105B1F480912E018823D4
:1011200039F0809109018F5F8093090110922E019F
:1011300080912D01882309F4A0CF8091090181506D
:101140008093090138CF892B09F097CF80912E0128
:10115000882349F0809109018F5F80930901809372
:10116000020110922E0180912D01882309F485CF70
:1011700080910901815080930901C9CF2330310545
:1011800009F0B1C180912801909129018130910528
:10119000D9F580912E01882359F080910701909113
:1011A00008010C96909308018093070110922E017C
:1011B00080912D01882359F08091070190910801B9
:1011C0000C97909308018093070110922D01809154
:1011D0000701909108011816190634F081E090E09B
:1011E0009093080180930701809107019091080175
:1011F0008F3F910509F00CF440CF8FEF90E0909372
:1012000008018093070139CF82309105D9F580918B
:101210002E01882359F080910501909106010C96CA
:10122000909306018093050110922E0180912D016B
:10123000882359F080910501909106010C979093B5
:1012400006018093050110922D0180910501909176
:1012500006011816190634F081E090E0909306011B
:101260008093050180910501909106018F3F9105C2
:1012700009F00CF402CF8FEF90E090930601809379
:101280000501FBCE892B09F0F8CE80912E01882331
:1012900079F080910701909108010C9690930801D4
:1012A00080930701909306018093050110922E010F
:1012B00080912D01882379F0809107019091080198
:1012C0000C979093080180930701909306018093F7
:1012D000050110922D0180910701909108011816C7
:1012E000190654F081E090E0909308018093070183
:1012F0009093060180930501809107019091080168
:101300008F3F910509F00CF4B8CE8FEF90E09093E9
:10131000080180930701B1CF82309105E1F58091FA
:101320002E01882361F08091000190910101845F7A
:101330009140909301018093000110922E018091C1
:101340002D01882361F080910001909101018C5062
:101350009E4F909301018093000110922D01809186
:10136000000190910101843F914034F484EF91E0B9
:1013700090930101809300018091000190910101FF
:10138000813197420CF479CE80E197E2909301018C
:101390008093000172CE892B09F06FCE80912E01CF
:1013A000882381F08091030190910401845F914032
:1013B00090930401809303019093010180930001B5
:1013C00010922E0180912D01882381F080910301DC
:1013D000909104018C509E4F9093040180930301DF
:1013E000909301018093000110922D0180910301DF
:1013F00090910401843F914054F484EF91E09093E4
:101400000401809303019093010180930001809176
:10141000030190910401813197420CF42ECE80E1BA
:1014200097E29093040180930301B0CF833091053C
:1014300001F18430910509F038CE60E082E10E942C
:101440007E0261E081E11BC060E080E10E947E02DB
:1014500061E081E10E947E0261E082E10E947E0201
:101460008091280190912901009771F460E08FE04C
:101470002DCE60E081E10E947E0261E082E10E9467
:101480007E0261E080E1EACF81309105D1F4C23380
:10149000D10561F361E0C436D105C9F0FF91EF9148
:1014A000DF91CF91BF91AF919F918F917F916F917C
:1014B0005F914F913F912F910F900FBE0F901F9012
:1014C0001895029759F761E0E29789F660E08FE09E
:1014D0000E947E021092270110922601DFCF009712
:1014E00009F03FCDCACD2430310509F0C6CD809139
:1014F0002801909129018130910509F00DCF80914B
:101500002E01882361F08091030190910401845F92
:101510009140909304018093030110922E018091D9
:101520002D01882361F080910301909104018C507A
:101530009E4F909304018093030110922D0180919E
:10154000030190910401843F914034F484EF91E0D1
:101550009093040180930301809103019091040111
:10156000813197420CF489CD80E197E29093040198
:101570008093030182CD1F920F920FB60F92112418
:101580000F900FBE0F901F901895CF92DF92EF92A1
:10159000FF920F931F93CF93DF93EC016B01F42E17
:1015A000E52E198218861F86188A198A1A8A81E000
:1015B0008E878B871C8692E09D8788838B01000F26
:1015C000111F060F171F1D830C83C8010E94ED1108
:1015D0009A878987009789F1A80170E060E00E94EE
:1015E0001213DB82CA82FE82EF828981882341F056
:1015F00061E08F2D0E94CA0260E08F2D0E947E0262
:101600008F2D9E2DFC01EC55FE4FE491F0E0EE0F86
:10161000FF1FE656FE4F259134913C8B2B8BFC012E
:10162000EA57FE4FE491ED8BDF91CF911F910F911F
:10163000FF90EF90DF90CF9008951D821C821B8257
:101640001A82D1CF10924B0110924A0188EE93E09A
:10165000A0E0B0E080934C0190934D01A0934E0127
:10166000B0934F0188E191E0909349018093480144
:1016700085EC90E0909355018093540184EC90E0C8
:10168000909357018093560180EC90E0909359011C
:101690008093580181EC90E090935B0180935A0114
:1016A00082EC90E090935D0180935C0186EC90E089
:1016B00090935F0180935E0110926101109262012C
:1016C000109263011092640145E050E060E170E027
:1016D00085E992E00E94C50A46E050E060E170E0D2
:1016E0008FE792E00E94C50A47E050E060E170E0B9
:1016F00089E692E00E94C50A48E050E060E170E0AF
:1017000083E592E00E94C50AEBEFF1E081E02FEF64
:101710003FEF92E08083118213821282158214823D
:1017200037832683108612861186838714869587D1
:1017300086871786108A118A128A769642E0E335E8
:10174000F40741F749E050E068E070E085EE91E091
:101750000C94C50ACF93DF9300D000D000D0CDB752
:10176000DEB7789484B5826084BD84B5816084BD21
:1017700085B5826085BD85B5816085BD80916E002F
:10178000816080936E001092810080918100826060
:10179000809381008091810081608093810080919D
:1017A00080008160809380008091B100846080938C
:1017B000B1008091B00081608093B00080917A0088
:1017C000846080937A0080917A00826080937A00AE
:1017D00080917A00816080937A0080917A0080689D
:1017E00080937A001092C10090E080E00E94461140
:1017F0008D3009F42EC16DE090E080E00E944E1122
:101800006091020181E090E00E944E116091090117
:1018100082E090E00E944E116091070183E090E029
:101820000E944E116091050184E090E00E944E11EB
:10183000809103019091040164E670E00E94D3114D
:1018400085E090E00E944E1180910001909101018D
:1018500064E670E00E94D31186E090E00E944E1191
:10186000E0915801F091590182E08083E0915401A8
:10187000F09155011082E0915601F09157018FECE3
:10188000808310926001E0915C01F0915D0186E03F
:101890008083E0915A01F0915B01808180618083B7
:1018A000E0915A01F0915B01808188608083E09132
:1018B0005A01F0915B01808180688083E0915A0138
:1018C000F0915B0180818F7D808361E08FE00E94D9
:1018D000CA0261E081E10E94CA0261E080E10E94E7
:1018E000CA0261E082E10E94CA02F894109280006C
:1018F000109281001092B00081E08093700080937C
:101900006F00809181008160809381008091B1009F
:1019100081608093B100789486E1E5E9F2E0ABEF75
:10192000B1E001900D928A95E1F786E1EFE7F2E0F0
:10193000A1E1B2E001900D928A95E1F786E1E9E636
:10194000F2E0A7E2B2E001900D928A95E1F786E11C
:10195000E3E5F2E0ADE3B2E001900D928A95E1F7A4
:101960004BEF51E05A83498389819A810E94C904CF
:1019700089819A810E94F40362E389819A810E949D
:10198000460389819A8146969A838983835592403A
:1019900059F785EE91E00E94C90485EE91E00E941E
:1019A000F40362E385EE91E00E944603412C512C42
:1019B0003201639414E6212E312C309107013983D2
:1019C000632F8BEF91E00E944603698181E192E0F1
:1019D0000E944603698187E292E00E944603698182
:1019E0008DE392E00E9446036091050185EE91E04F
:1019F0000E944603C0900301D0900401960121503B
:101A000031098091420190914301821793070CF4B0
:101A10007EC00E94EE10CB010E9408010E942003AC
:101A20004B015C010E94EE1080910201EFEFE80F84
:101A3000E73008F040C30E2E000CFF0BEE5DF24FB6
:101A40000C94E711600D500E7C0EEA0E2B0F910FD7
:101A5000E70F81E090E00E9446118093020182E04E
:101A600090E00E9446118093090183E090E00E947B
:101A7000461190E0909308018093070184E090E084
:101A80000E94461190E0909306018093050185E045
:101A900090E00E94461124E6829FC0011124909399
:101AA00004018093030186E090E00E94461134E631
:101AB000839FC00111249093010180930001D0CE37
:101AC000462F50E05A8349838091FD019091FE0199
:101AD0008417950718F40E94EE10F2CF0BEF11E077
:101AE000A501940169817A81C8010E948803C80117
:101AF0000E94F403C8010E94DC040A5E1F4F52E0FA
:101B00000335150769F71092430110924201809145
:101B1000000190910101AC014150510920913C011B
:101B200030913D0124173507BCF120910901243083
:101B300009F0CEC220910201243009F0C9C24091BF
:101B4000FD015091FE0120913E0130913F0142176D
:101B5000530719F431E030933B0120913B012111EF
:101B60000E94E5048091E7019091E801019620919F
:101B70004401309145018217930751F485EE91E0BD
:101B80000E94DC0485EE91E00E94F40310923B0178
:101B900010923D0110923C0180913C0190913D01D9
:101BA000019690933D0180933C0180914201909178
:101BB00043010196909343018093420180913A0141
:101BC000882309F460C06DE090E080E00E944E112F
:101BD0006091020181E090E00E944E116091090144
:101BE00082E090E00E944E116091070183E090E056
:101BF0000E944E116091050184E090E00E944E1118
:101C00008091030190910401B1010E94D31185E0FC
:101C100090E00E944E118091000190910101B1016C
:101C20000E94D31186E090E00E944E11F89460E08B
:101C30008FE00E947E0260E080E10E947E0260E010
:101C400081E10E947E0260E082E10E947E024FEF0D
:101C500053ED80E3415050408040E1F700C0000068
:101C600061E08FE00E947E0261E080E10E947E02DE
:101C700061E081E10E947E0261E082E10E947E02D9
:101C800010923A01789420E030E0232B09F495CEAD
:101C90000E94DB01882309F490CE0E9400008DCEC3
:101CA000C090FD01D090FE01F12CE12CC114D104B3
:101CB000E104F10439F00E94EE10A70196010E94A0
:101CC0005C116B018BEF91E09A838983D12CA50184
:101CD0009401B60189819A810E94880389819A8141
:101CE0000E94F40329813A812A5E3F4F3A83298377
:101CF0002355324061F707CF10E000E00C2C000CB8
:101D0000DD08EE08FF081E830D832091FD01309150
:101D1000FE018D819E818217930730F18BEF91E058
:101D20000E94F40381E192E00E94F40387E292E0D2
:101D30000E94F4038DE392E00E94F403C301B20118
:101D4000A70196010E945C11809140019091410190
:101D5000280F391F30934101209340010F5F1F4F1F
:101D60000330110581F6CFCE4D815E81BA0190E03E
:101D700080E0CB017727662750E040E00E945C11AD
:101D80008091400190914101820F931F0E940801B0
:101D90000E94200369837A838B839C83ABEFAA2EF6
:101DA000A1E0BA2E29813A814B815C816D817E81CF
:101DB000C5010E94880356E1A50EB11C83E5A81653
:101DC00082E0B80679F72D813E812D5F3F4F3E833B
:101DD0002D839BCF8091FD019091FE010196209172
:101DE0003E0130913F018217930720F410923F018A
:101DF00010923E014BEF51E05A83498360913E01BE
:101E000070913F01A501940189819A810E94880304
:101E100060913E0170913F016150710920E030E016
:101E2000A90189819A810E94880389819A810E94EF
:101E3000F40389819A8146969A83898383559240D7
:101E4000E9F680913E0190913F01019690933F0108
:101E500080933E0158CE05E010E00E94EE1024E68B
:101E600030E040E050E00E945C115B01992488243E
:101E700088249924BB24CC24D62EE72EF82EEE24D9
:101E8000FF248C289D28AE28BF28862AC090FD01FB
:101E9000D090FE01F12CE12CC114D104E104F10435
:101EA00039F00E94EE10A70196010E945C116B01AF
:101EB0004BEF51E05A834983D12CA5019401B6011F
:101EC00089819A810E94880389819A8146969A83A2
:101ED00089838355924089F70150110909F0BDCFDC
:101EE0008BEF91E00E94F4038BEF91E00E94DC0401
:101EF00081E192E00E94F40381E192E00E94DC041F
:101F000087E292E00E94F40387E292E00E94DC0400
:101F10008DE392E00E94F4038DE392E00E94DC04E2
:101F2000F2CD10E000E01A8309838091FD019091C9
:101F3000FE0149815A8148175907B0F08BEF91E0B3
:101F40000E94F40381E192E00E94F40387E292E0B0
:101F50000E94F4038DE392E00E94F4030F5F1F4F91
:101F60000330110501F7CFCD0E94EE1024E630E0DA
:101F700040E050E00E945C115B0199248824882491
:101F80009924BB24CC24D62EE72EF82EEE24FF2451
:101F90008C289D28AE28BF28862A4BEFE42E41E0EE
:101FA000F42EA501940169817A81C7010E948803FA
:101FB00056E1E50EF11C83E5E81682E0F80689F7A4
:101FC00029813A812D5F3F4F3A832983AECF0BEFB2
:101FD00011E01A8219828091400190914101905C38
:101FE0000E9408010E9420039B01AC0169817A8153
:101FF000C8010E94880349815A814F5F5F4F5A830D
:1020000049834830510539F7809140019091410151
:1020100090580E9408010E9420039B01AC01698135
:102020007A81C8010E94880389819A8101969A83E6
:1020300089830E9749F78091400190914101905416
:102040000E9408010E9420039B01AC0169817A81F2
:10205000C8010E94880329813A812F5F3F4F3A834C
:1020600029832231310539F7C8010E94F4034091D8
:10207000400150914101505C5A8349835093410182
:10208000409340010A5E1F4F52E00335150709F0E7
:10209000A0CF2C2DCC0C330B440B550BC301B2013C
:1020A0000E945C1189819A81280F391F3093410168
:1020B0002093400128CD88301CF091E090930201DC
:1020C0008091020181111FCD27E0209302011BCDD9
:1020D0000E94E5045DCDCF93DF93EC0189859A855D
:1020E0000E9489128E819F8197FD05C060E0DF917B
:1020F000CF910C94CA02DF91CF91089585EE91E0C3
:102100000E946B108DE392E00E946B1087E292E0D8
:102110000E946B1081E192E00E946B108BEF91E0C6
:102120000E946B1083E592E00E946B1089E692E0BA
:102130000E946B108FE792E00E946B1085E992E09D
:102140000C946B108F929F92AF92BF92CF92DF92BE
:10215000EF92FF92CF93DF93EC01688179818A81BE
:102160009B81611571058105910521F464E279ED8A
:102170008BE597E02DE133EF41E050E00E945C11E8
:1021800049015A019B01AC01A7EAB1E40E947B110D
:102190006B017C01ACEEB4EFA50194010E948911A2
:1021A000C60ED71EE81EF91EF7FE06C081E0C81A4B
:1021B000D108E10880E8F80AC882D982EA82FB8265
:1021C000C701B6019F77DF91CF91FF90EF90DF902D
:1021D000CF90BF90AF909F908F9008958F929F92D5
:1021E000AF92BF92CF92DF92EF92FF9260910A017D
:1021F00070910B0180910C0190910D016115710599
:102200008105910521F464E279ED8BE597E02DE1FC
:1022100033EF41E050E00E945C1149015A019B01FB
:10222000AC01A7EAB1E40E947B116B017C01ACEE2A
:10223000B4EFA50194010E948911C60ED71EE81EB5
:10224000F91EF7FE06C081E0C81AD108E10880E84F
:10225000F80AC0920A01D0920B01E0920C01F092B0
:102260000D01C701B6019F77FF90EF90DF90CF90EF
:10227000BF90AF909F908F90089560930A017093E4
:102280000B0180930C0190930D010895F999FECFF5
:1022900092BD81BDF89A992780B50895262FF999A6
:1022A000FECF1FBA92BD81BD20BD0FB6F894FA9A39
:1022B000F99A0FBE01960895052E97FB1EF400941F
:1022C0000E94731157FD07D00E948E1107FC03D0A6
:1022D0004EF40C94731150954095309521953F4FD5
:1022E0004F4F5F4F089590958095709561957F4F02
:1022F0008F4F9F4F08950E94B011A59F900DB49FDE
:10230000900DA49F800D911D11240895B7FF0C948A
:102310007B110E947B11821B930B0895A1E21A2E60
:10232000AA1BBB1BFD010DC0AA1FBB1FEE1FFF1F79
:10233000A217B307E407F50720F0A21BB30BE40BC9
:10234000F50B661F771F881F991F1A9469F7609510
:102350007095809590959B01AC01BD01CF010895CA
:10236000A29FB001B39FC001A39F700D811D1124D6
:10237000911DB29F700D811D1124911D0895AA1BFE
:10238000BB1B51E107C0AA1FBB1FA617B70710F060
:10239000A61BB70B881F991F5A95A9F78095909592
:1023A000BC01CD01089597FB072E16F4009407D0C9
:1023B00077FD09D00E94BF1107FC05D03EF490952F
:1023C00081959F4F0895709561957F4F0895EE0F09
:1023D000FF1F0590F491E02D09940F931F93CF9365
:1023E000DF938230910510F482E090E0E091AD023D
:1023F000F091AE0230E020E0B0E0A0E0309799F438
:102400002115310509F44AC0281B390B2430310548
:10241000D8F58A819B816115710589F1FB01938350
:102420008283FE0111C040815181028113814817CE
:102430005907E0F04817590799F4109761F0129680
:102440000C93129713961C933296CF01DF91CF9184
:102450001F910F9108950093AD021093AE02F4CF37
:102460002115310551F04217530738F0A901DB015E
:102470009A01BD01DF01F801C1CFEF01F9CF9093BF
:10248000AE028093AD02CDCFFE01E20FF31F819328
:1024900091932250310939832883D7CF2091AB0201
:1024A0003091AC02232B41F42091100130911101A5
:1024B0003093AC022093AB0220910E0130910F01BA
:1024C0002115310541F42DB73EB7409112015091CD
:1024D0001301241B350BE091AB02F091AC02E21723
:1024E000F307A0F42E1B3F0B2817390778F0AC0137
:1024F0004E5F5F4F2417350748F04E0F5F1F509314
:10250000AC024093AB02819391939FCFF0E0E0E067
:102510009CCFCF93DF930097E9F0FC0132971382B1
:102520001282A091AD02B091AE02ED0130E020E048
:102530001097A1F420813181820F931F2091AB026B
:102540003091AC022817390709F061C0F093AC0252
:10255000E093AB02DF91CF910895EA01CE17DF0738
:10256000E8F54A815B819E0141155105B1F7E9010A
:10257000FB83EA8349915991C40FD51FEC17FD07DE
:1025800061F4808191810296840F951FE9019983FE
:102590008883828193819B838A83F0E0E0E01296B6
:1025A0008D919C9113970097B9F52D913C911197BE
:1025B000CD010296820F931F2091AB023091AC02A5
:1025C0002817390739F6309751F51092AE0210925C
:1025D000AD02B093AC02A093AB02BCCFD383C28355
:1025E00040815181840F951FC817D90761F44E5F50
:1025F0005F4F88819981480F591F518340838A8199
:102600009B81938382832115310509F0B0CFF0932C
:10261000AE02E093AD029ECFFD01DC01C0CF13827C
:102620001282D7CFDC0101C06D9341505040E0F7DA
:10263000089510E0CDEDD0E004C0FE010E94E71146
:102640002196CE3DD107C9F7F894FFCFE80304E8FF
:10265000033200320004010000000000AF028000DD
:1026600000000000110271019E015E02CF01AD0168
:02267000C101A6
:103800000C94341C0C94511C0C94511C0C94511CA1
:103810000C94511C0C94511C0C94511C0C94511C74
:103820000C94511C0C94511C0C94511C0C94511C64
:103830000C94511C0C94511C0C94511C0C94511C54
:103840000C94511C0C94511C0C94511C0C94511C44
:103850000C94511C0C94511C0C94511C0C94511C34
:103860000C94511C0C94511C11241FBECFEFD4E0BA
:10387000DEBFCDBF11E0A0E0B1E0E4EAFFE302C0AB
:1038800005900D92A230B107D9F712E0A2E0B1E0A5
:1038900001C01D92AD30B107E1F70E94361D0C94B6
:1038A000D01F0C94001C982F9595959595959595FE
:1038B000905D8F708A307CF0282F295A8091C0004B
:1038C00085FFFCCF9093C6008091C00085FFFCCFA0
:1038D0002093C6000895282F205DF0CF982F809167
:1038E000C00085FFFCCF9093C6000895EF92FF9231
:1038F0000F931F93EE24FF2487018091C00087FD62
:1039000017C00894E11CF11C011D111D81E4E8168B
:1039100082E4F8068FE0080780E0180770F3E09172
:103920000401F091050109958091C00087FFE9CF5E
:103930008091C6001F910F91FF90EF9008950E9413
:10394000761C982F8091C00085FFFCCF9093C60015
:1039500091362CF490330CF09053892F089597559D
:10396000892F08951F930E949F1C182F0E949F1C4F
:103970001295107F810F1F910895882351F0982F81
:1039800091508091C00087FFFCCF8091C6009923A1
:10399000B9F708951F93182F0E94761C803249F0C2
:1039A000809103018F5F809303018530C1F01F91E7
:1039B00008958091C00085FFFCCF84E18093C6000C
:1039C0008091C00085FFFCCF1093C6008091C0009D
:1039D00085FFFCCF80E18093C6001F910895E091A0
:1039E0000401F091050109951F9108950E94761C2C
:1039F000803241F0809103018F5F80930301853015
:103A000081F008958091C00085FFFCCF84E1809310
:103A1000C6008091C00085FFFCCF80E18093C60086
:103A20000895E0910401F09105010995089510921F
:103A30000A028823D1F090E040E951E02D9A28EE67
:103A400033E0FA013197F1F721503040D1F72D984A
:103A500028EE33E0FA013197F1F721503040D1F7E9
:103A60009F5F981758F380930A0208953F924F92F0
:103A70005F926F927F928F929F92AF92BF92CF92FE
:103A8000DF92EF92FF920F931F93CF93DF9300008B
:103A900083E38093C4001092C50088E18093C10045
:103AA00086E08093C2005098589A259A81E00E943F
:103AB000171D44E1F42E3EE1E32E24E9D22E96E0D8
:103AC000C92E80E1B82EAA24A39401E4902E16E515
:103AD000812EB2E57B2EA0E26A2EF9E45F2EE3E5AB
:103AE0004E2E70E5372E0E94761C8033B1F1813363
:103AF00009F441C0803409F479C0813409F48CC0E0
:103B0000823471F1853409F47BC0803531F182351E
:103B100021F1813511F1853509F48DC0863509F41F
:103B20009DC0843609F4AEC0843709F41BC18537C3
:103B300009F485C1863709F47AC0809103018F5F4B
:103B400080930301853079F6E0910401F09105013D
:103B500009950E94761C803351F60E94F61CC3CF53
:103B600093E18091C00087FFFCCF8091C60099232C
:103B7000A1F39150F6CF0E94761C8032F1F680912D
:103B8000C00085FFFCCFF092C6008091C00085FF89
:103B9000FCCF9092C6008091C00085FFFCCF809240
:103BA000C6008091C00085FFFCCF7092C600809156
:103BB000C00085FFFCCF6092C6008091C00085FFE9
:103BC000FCCF5092C6008091C00085FFFCCF409290
:103BD000C6008091C00085FFFCCF3092C600809166
:103BE000C00085FFFCCFB092C6007DCF0E94761C3E
:103BF000863808F4B2CF0E94761C0E94F61C73CF60
:103C000094E08091C00087FFFCCF8091C60099238B
:103C100009F4A3CF9150F5CF0E94761C8038D1F0E3
:103C2000813861F1823809F499C0883979F080E0EF
:103C30000E94CA1C58CF0E94761C809306010E94E5
:103C4000761C809307010E94F61C4DCF83E00E94F2
:103C5000CA1C49CF82E00E94CA1C45CF0E94761C34
:103C6000803309F486C192E08091C00087FFFCCFC9
:103C70008091C6009923D9F29150F6CF81E00E943D
:103C8000CA1C31CF0E94761C809309020E94761CC8
:103C90008093080280910C028E7F80930C020E9418
:103CA000761C853429F480910C02816080930C028B
:103CB0008091080290910902892B89F000E010E0C0
:103CC0000E94761CF801E85FFE4F80830F5F1F4F54
:103CD00080910802909109020817190788F30E9441
:103CE000761C803209F029CF80910C0280FFD1C070
:103CF0004091060150910701440F551F5093070151
:103D000040930601A0910802B09109021097C9F0F2
:103D1000E8E0F1E09A01BD016E0F7F1FF999FECF37
:103D200032BD21BD819180BDFA9AF99A2F5F3F4F34
:103D3000E617F70799F74A0F5B1F50930701409367
:103D400006018091C00085FFFCCFF092C6008091F3
:103D5000C00085FFFCCFB092C600C5CE80E10E94B6
:103D6000CA1CC1CE0E94761C809309020E94761C58
:103D7000809308028091060190910701880F991F96
:103D800090930701809306010E94761C853409F404
:103D90007AC080910C028E7F80930C020E94761C68
:103DA000803209F0A0CE8091C00085FFFCCFF09258
:103DB000C600A0910802B09109021097B9F1809154
:103DC0000C02182F1170082F0270E0910601F0917B
:103DD00007019F012F5F3F4FB90140E050E01123E1
:103DE000B1F4002339F494918091C00085FFFCCF99
:103DF0009093C6004F5F5F4FCB010196F9014A17C0
:103E00005B0780F4BC012F5F3F4F112351F3F999F9
:103E1000FECFF2BDE1BDF89A90B58091C00085FF5C
:103E2000FCCFE6CF70930701609306018091C0003C
:103E300085FDD9CE8091C00085FFF8CFD4CE0E94F9
:103E4000761C803209F079CE8091C00085FFFCCFCE
:103E5000F092C6008091C00085FFFCCFE092C600C2
:103E60008091C00085FFFCCFD092C6008091C00039
:103E700085FFFCCFC092C6008091C00085FFFCCFBB
:103E8000B092C60030CE80910C02816080930C020B
:103E900085CF809107018823880F880B8A21809322
:103EA0000B028091060190910701880F991F909352
:103EB0000701809306018091080280FF09C080916C
:103EC00008029091090201969093090280930802DA
:103ED000F894F999FECF1127E0910601F0910701BE
:103EE000C8E0D1E08091080290910902103091F46D
:103EF0000091570001700130D9F303E0009357009F
:103F0000E8950091570001700130D9F301E1009369
:103F10005700E89509901990009157000170013001
:103F2000D9F301E000935700E8951395103498F009
:103F300011270091570001700130D9F305E000937B
:103F40005700E8950091570001700130D9F301E165
:103F500000935700E8953296029709F0C7CF1030CA
:103F600011F00296E5CF11248091C00085FFE9CEC3
:103F7000ECCE0E94761C0E94761C182F0E94761CA4
:103F8000112351F0113021F086E00E94CA1CABCD04
:103F900084E90E94CA1CA7CD8EE10E94CA1CA3CD51
:063FA000F894FFCF800041
:00000001FF
