:100000000C9401010C9429010C9429010C942901F0
:100010000C9429010C9429010C9429010C942901B8
:100020000C9429010C9474100C9429010C9429014E
:100030000C9429010C94C20C0C9429010C942901F4
:100040000C94320C0C9429010C947C0C0C94290116
:100050000C9429010C9429010C9429010C94290178
:100060000C9429010C9429010000000000000000FC
:100070000000000000000000000000000000000080
:10008000010101010101010101010101020202025C
:10009000020202020303030303030404040405052C
:1000A00005050506060606070707080808090909E1
:1000B0000A0A0A0B0B0B0C0C0D0D0D0E0E0F0F1078
:1000C00010111112121313141415151616171818EF
:1000D00019191A1B1B1C1D1D1E1F1F202122222344
:1000E000242526262728292A2A2B2C2D2E2F30316D
:1000F00032333435363738393A3B3C3D3E3F404168
:10010000424445464748494B4C4D4E505152545538
:100110005658595A5C5D5E606163646667696A6CD3
:100120006D6F7072737577787A7C7D7F818284863B
:1001300088898B8D8F91929496989A9C9EA0A2A468
:10014000A6A8AAACAEB0B2B4B6B8BABCBFC1C3C55B
:10015000C7CACCCED1D3D5D7DADCDFE1E3E6E8EB12
:10016000EDF0F2F5F7FAFCFF0000FF0000FF0000E1
:10017000FF00000000000000240027002A0000000B
:1001800000002300260029000000000800020100F2
:100190000003040700000000000000000000FF0052
:1001A000007FFF0000FFFF0000FF7F0000FF000056
:1001B0007FFF0000FFFF0000FF7F0000FF00000046
:1001C000FF007F00FF00FF007F00FF000102040826
:1001D00010204080010204081020010204081020B1
:1001E00000000000250028002B000404040404047F
:1001F00004040202020202020303030303038D1834
:10020000EE1811241FBECFEFD4E0DEBFCDBF11E04A
:10021000A0E0B1E0E4E4F7E302C005900D92AE3255
:10022000B107D9F722E0AEE2B1E001C01D92A738D4
:10023000B207E1F710E0C0E0D1E004C02197FE0171
:100240000E94631ACF3FD107C9F70E9406120C948F
:10025000951B0C940000CF92DF92EF92FF920F93C8
:100260001F939C01AAEFB5E00E94201ADC01CB018C
:100270009058AF4FBF4FCD01BB2797FDB095AB2F27
:100280008E3F21E0920758F5282F8F3F910508F403
:1002900045C06EEF681B862F30E02FEF682F70E0AF
:1002A00090E080E0CB0177276627D12CF12CE12C60
:1002B000632B7D298E299F29022F10E030E020E05A
:1002C000322F212F102F0027602B712B822B932B85
:1002D0001F910F91FF90EF90DF90CF9008958C3F8A
:1002E00023E0920768F48D3F22E0920728F432E081
:1002F000380F2FEF80E0D2CF2CEF281B3FEFFACF43
:100300008A3F25E0920769F03AEF381B8B3F24E0E3
:10031000920740F48C5F3FEF20E0C0CF30E08FEFDA
:10032000BDCF30E020E0FBCF833081F028F4813076
:1003300099F08230A9F008958730A9F08830C9F08B
:100340008430B1F4809180008F7D03C08091800063
:100350008F7780938000089584B58F7784BD08954A
:1003600084B58F7DFBCF8091B0008F778093B000F4
:1003700008958091B0008F7DF9CFCF93DF93282F20
:1003800030E0F901E857FE4F8491F901E453FE4F44
:10039000D491F901E651FE4FC491CC23A1F0811113
:1003A0000E949401EC2FF0E0EE0FFF1FE258FE4F89
:1003B000A591B491EC91ED2381E090E009F480E007
:1003C000DF91CF91089580E090E0FACF1F93CF9313
:1003D000DF93282F30E0F901E857FE4F8491F901AF
:1003E000E453FE4FD491F901E651FE4FC491CC2362
:1003F000A9F0162F81110E949401EC2FF0E0EE0F6E
:10040000FF1FE052FE4FA591B4918FB7F894EC9185
:10041000111108C0D095DE23DC938FBFDF91CF91FF
:100420001F910895DE2BF8CFCF93DF9390E0FC016E
:10043000E453FE4F249186519E4FFC018491882302
:10044000C9F090E0880F991FFC01EC58FE4FA59170
:10045000B491FC01E052FE4FC591D49161110DC0E1
:100460009FB7F8948C91209582238C9388812823C0
:1004700028839FBFDF91CF910895623051F49FB7D9
:10048000F8943C91822F809583238C93E8812E2BC6
:10049000EFCF8FB7F894EC912E2B2C938FBFEACF30
:1004A0008E50806480937C0080917A008064809379
:1004B0007A0080917A0086FDFCCF8091780090913F
:1004C000790008953FB7F8948091E5019091E60195
:1004D000A091E701B091E80126B5A89B05C02F3F88
:1004E00019F00196A11DB11D3FBFBA2FA92F982F5A
:1004F0008827BC01CD01620F711D811D911D42E055
:10050000660F771F881F991F4A95D1F708958F921C
:100510009F92AF92BF92CF92DF92EF92FF920E9492
:1005200062024B015C0188EBC82E8BE0D82EE12CD7
:10053000F12C0E946202681979098A099B09683EB8
:10054000734081059105A8F321E0C21AD108E108A2
:10055000F10888EE880E83E0981EA11CB11CC1141E
:10056000D104E104F10429F7FF90EF90DF90CF90E0
:10057000BF90AF909F908F900895CF93DF9300D05E
:1005800000D0CDB7DEB769837A838B839C83DE018D
:100590001196CE010596ED91F0E0E859FF4F449198
:1005A0009D0121503109F90140838A179B0799F772
:1005B00069817A818B819C810F900F900F900F90B1
:1005C000DF91CF910895FF920F931F93CF93DF9305
:1005D000EC01FF24F394F60E28852F1581F109858F
:1005E0001A85215041F16F3FE1F430E050E040E0E6
:1005F0006FEF7FEF80E090E00E94CC19B901F80125
:100600004C815D81CF01801B910B84179507B0F45D
:100610004081469FC001479F900D112490833196E1
:10062000EFCF8F2D90E0982F88270197622F70E0F1
:100630000E943B1AE4CF70E060E0E1CFF886DF91E2
:10064000CF911F910F91FF9008954F925F926F92FB
:100650007F928F929F92AF92BF92EF92FF92CF9331
:10066000DF93DC0112968D919C911397681779079F
:1006700008F0E9C01E968C911E971B969C911B97C3
:1006800019964D915C911A9718968C901897282F6F
:1006900030E01C96EC911C97F0E01D96AC91B0E018
:1006A000891364C0CB01880F991F680F791F460F0B
:1006B000571F240F351FE9012881E40FF51FF08033
:1006C000A40FB51FCC91882009F445C0912CB12C02
:1006D000A12C622F70E0762F6627072E000C880B66
:1006E000990BA50194010E94FE1939015524442457
:1006F0006F2D70E0762F6627072E000C880B990B64
:10070000A50194010E94FE19B42FA32F922F8827D0
:10071000482A592A6A2A7B2A6C2F70E0762F66278E
:10072000072E000C880B990BA50194010E94FE195D
:10073000C301B201622B732B842B952BDF91CF91D8
:10074000FF90EF90BF90AF909F908F907F906F90B1
:100750005F904F9008956F2D70E090E080E0982FAB
:10076000872F762F6627822B6C2BE8CF660F771F9B
:10077000660F771F640F751F260F371FE901388139
:10078000EB01C90FD11DF880E60FF71FC081A60F3E
:10079000B71FEC90882009F44BC0912CB12CA12CF0
:1007A000632F70E0762F6627072E000C880B990BBD
:1007B000A50194010E94FE19722E6624552444243A
:1007C0006F2D70E0762F6627072E000C880B990B93
:1007D000A50194010E94FE19A90133272227422A6C
:1007E000532A642A752A6E2D70E0762F6627072E0D
:1007F000000C880B990BA50194010E94FE19422A56
:10080000532A642A752A6C2F70E0762F6627072EEC
:10081000000C880B990BA50194010E94FE19942FDE
:10082000832F722F6627642975298629972986CFF9
:100830006F2D70E090E080E0CB0177276627932B47
:100840006E297C2B7BCF60E070E0CB0177CF8F925D
:100850009F92AF92BF92CF92DF92EF92FF921F933F
:10086000CF93DF93FC018281938168177907A8F504
:100870004A01AA24BB24C82DC32ED42EE52EFF2462
:100880001C2DD22F8085882361F0889E4001112481
:10089000C92D8C9D600111241D2D829FD001112432
:1008A000DB2FA685E184F2849385A91322C0CB01B6
:1008B000880F991F680F791F6E0D7F1DA385A60FE6
:1008C000B72FB11DCC93A485A60FB72FB11D1C93D4
:1008D0008585680F711DFB01D083DF91CF911F913A
:1008E000FF90EF90DF90CF90BF90AF909F908F9050
:1008F0000895660F771F660F771F6E0D7F1D252FDA
:10090000332744275527882349F090E0829F7001C0
:10091000839FF00C929FF00C11242F2DA60FB72F60
:10092000B11D2C93CBCFCF92DF92EF92FF920F931A
:100930001F93CF93DF93CDB7DEB729970FB6F89407
:10094000DEBF0FBECDBF8C01DC0119968D919C914D
:10095000892B09F473C00E946202F801C784D08811
:10096000E188F2886C157D058E059F0520F4678768
:10097000708B818B928BF801C784D088E188F288D4
:100980006C197D098E099F096C32714081059105B2
:1009900010F3F894D80114968D919C9115979A8331
:1009A00089831996ED91FC917F01BFEFEB1AFB0A49
:1009B00080818987F80190810388F489E02DD8012E
:1009C00055968C91992309F448C09081982B98876B
:1009D0009081809589238F838F818C8388E08B839E
:1009E00058856F8149853B812C8189819A81D70106
:1009F000508347FD252F3A952083262F39F0441F39
:100A000000C000006083000000C0F2CF38E04D91CC
:100A100060830000019761F7D8015496FC93EE9330
:100A2000539749873B832C839A83898378940E94C8
:100A30006202F8016787708B818B928B29960FB6C3
:100A4000F894DEBF0FBECDBFDF91CF911F910F9104
:100A5000FF90EF90DF90CF9008959081982B98872A
:100A60009081809589238F838F818E8388E08D8309
:100A700058856F8149853D812E8189819A81D70171
:100A8000508347FD252F00C000C0208300C000C058
:100A900000C000C000C060830000262F3A9541F0DE
:100AA000441F000000C000C000C000C000C0E8CF6C
:100AB00038E04D9100C0608300C0019709F7D8016C
:100AC0005496FC93EE93539749873D832E83ACCF86
:100AD000CF93DF93EC018E819F8197FD07C061E08A
:100AE0000E94140260E08E810E94E60181E0898309
:100AF000DF91CF910895FC014481558170E060E061
:100B0000818592850C948E1BCF92DF92EF92FF929B
:100B10006B017C01C114D104E104F10441F00E9495
:100B20005E19A70196010E94CC196B017C01C701D7
:100B3000B601FF90EF90DF90CF9008958F929F9233
:100B4000AF92BF92CF92DF92EF92FF920F931F93DB
:100B5000CF93DF93EC010E945E19CB010E942B0121
:100B60000E94BD026B017C010E945E198881873062
:100B700009F4EAC10CF054C0833009F422C184F4B2
:100B8000813009F4DAC0823009F4FCC08D3014F0F1
:100B900081E08883888181114EC18CE088834BC1BC
:100BA000853009F489C10CF453C1D0E0C0E0C12CF8
:100BB000D12C7601CA9445E0B42E8E0180910C02AE
:100BC00090910D020817190708F0B4C10E945E1930
:100BD000A70196010E94CC19E62F462F572FBC0182
:100BE000DA019927882788279927BB27762F652F31
:100BF000542F4427662777279A01AB01282B392BDE
:100C00004A2B5B2B8E2F6B2D0E942F1AE81B2E2B4D
:100C1000B8018AE092E00E9427040D5F1F4FCECFFB
:100C20008A3009F4E7C10CF060C0883009F4C5C10E
:100C3000893009F0ABCF80912C0290912D02019662
:100C4000209106023091070282179307A0F41092B8
:100C50000702109206028AE092E00E947B058AE079
:100C600092E00E947B058AE092E00E947B058AE088
:100C700092E00E947B05C4E0D0E060910602709192
:100C8000070290E080E0CB017727662720910C02D5
:100C900030910D023695279550E040E00E94CC1926
:100CA0008091080290910902820F931F0E942B01EC
:100CB0000E94BD029B01AC01609106027091070287
:100CC0008AE092E00E9427048AE092E00E94930466
:100CD000219799F680910802909109028150984FCE
:100CE0009093090280930802DDC08C3009F4C8C1DA
:100CF0000CF49AC18D3409F049CFD0E0C0E0809166
:100D00000C0290910D02C817D90708F04AC08091D3
:100D100024022091250230E050E040E0542F432F80
:100D2000322F2227482B80912602282BBE018AE0F1
:100D300092E00E9427042196E2CF70E080910C029D
:100D400090910D028617970718F40E945E19F5CF4F
:100D5000A70196018AE092E00E9427048AE092E0CF
:100D60000E9493048AE092E0DF91CF911F910F914E
:100D7000FF90EF90DF90CF90BF90AF909F908F90BB
:100D80000C947B0560910C0270910D0290E080E064
:100D90000E94840570E0A70196018AE092E00E941B
:100DA00027048AE092E0DF91CF911F910F91FF908D
:100DB000EF90DF90CF90BF90AF909F908F900C946A
:100DC000930410E000E0E80120910C0230910D0244
:100DD000C217D307E8F4BE0190E080E0CB0177278B
:100DE000662750E040E00E94CC1980910802909163
:100DF0000902820F931F0E942B010E94BD029B01DA
:100E0000AC01BE018AE092E00E9427042396DCCF69
:100E10008AE092E00E949304809108029091090276
:100E200080589F4F90930902809308020F5F1F4FD5
:100E30000330110541F6DF91CF911F910F91FF9083
:100E4000EF90DF90CF90BF90AF909F908F900895DC
:100E5000209106023091070280910C0290910D02C0
:100E60008217930720F410920702109206026091F5
:100E7000060270910702A70196018AE092E00E94A3
:100E8000270460910602709107026150710920E009
:100E900030E0A9018AE092E00E9427048AE092E013
:100EA0000E9493048091060290910702019690930C
:100EB000070280930602BFCFC5E0D0E0C12CD12C41
:100EC0007601CA940BEA0E945E19A70196010E945E
:100ED000CC19B62E872E982EA92E609F812D112415
:100EE00086951B2D181B60910C0270910D0290E0ED
:100EF00080E00E9484058B2D982DA92DBA2DAC0180
:100F000033272227222733275527BA2FA92F982F97
:100F10008827AA27BB27822B932BA42BB52B9C01B8
:100F2000AD01212B70E08AE092E00E942704219716
:100F300051F614CF8AE092E00E9493042196C330C8
:100F4000D10509F03ACE77CFD0E0C0E08091080219
:100F5000909109020E942B010E94BD029B01AC01ED
:100F6000BE018AE092E00E9427042196C530D10597
:100F700069F780910802909109028D5C9C4C0E9457
:100F80002B010E94BD029B01AC01BE018AE092E0F0
:100F90000E9427042196CA30D10559F78AE092E0D1
:100FA0000E949304809108029091090280589F4FFB
:100FB00090930902809308023ECFD0E0C0E0809178
:100FC0000C0290910D02C817D90708F0EACEE09103
:100FD000820284E0E89FF0011124E456FE4F25913F
:100FE000359145915491BE018AE092E00E94270418
:100FF0002196E5CF60910C0270910D0290E080E0A7
:101000000E948405C62FD0E0BE018AE092E00E94D3
:101010002503672B682B692B19F0C12CD12C760185
:10102000A7019601BE01B9CED0E0C0E01AE08091E0
:101030000C0290910D02C817D90708F0FCCE65E4A8
:1010400070E080E090E00E948405DC01CB01019615
:10105000A11DB11D2227382F492F5A2F442755276C
:10106000612F0E942F1A282B4F6FBE018AE092E059
:101070000E9427048AE092E00E9493042196D7CF31
:10108000C3E0D0E032E0832E912CA12CB12C0E9441
:101090005E19A50194010E94CC198FEF662311F00F
:1010A00080E06FEF90E0B0E0A0E0CC24D82EE92EF5
:1010B000FA2EE62A60910C0270910D0290E080E019
:1010C0000E948405A70196018AE092E00E9427040D
:1010D0002197E9F643CE2F923F924F925F926F9203
:1010E0007F928F929F92BF92CF92DF92EF92FF9268
:1010F0000F931F93CF93DF93FC019081973009F4F6
:101100006EC20CF040C0933009F42BC184F49130CE
:1011100009F4CCC0923009F400C19D3014F081E094
:10112000808380818111E7C08CE08083E4C09530AA
:1011300009F4ADC10CF46BC110E000E0C12CD12C5E
:101140007601CA94D5E0BD2EE80180912C029091E1
:101150002D02C817D90708F40FC28AE292E00E9454
:10116000930480E492E00E94930486E592E00E945A
:1011700093048CE692E00E9493040F5F1F4F0330AC
:10118000110511F7B8C09A3009F4ABC20CF061C078
:10119000983009F47CC2993009F0BFCF80912C02BD
:1011A00090912D0201962091E9013091EA01821778
:1011B0009307A0F41092EA011092E9018AE292E00A
:1011C0000E947B0580E492E00E947B0586E592E028
:1011D0000E947B058CE692E00E947B05CAE2D2E089
:1011E0006091E9017091EA0190E080E0CB017727FE
:1011F000662720912C0230912D022F5F3F4F50E047
:1012000040E00E94CC198091EB019091EC01820F9B
:10121000931F0E942B010E94BD029B01AC016091B3
:10122000E9017091EA01CE010E942704CE010E94DB
:101230009304669682E0C238D80791F68091EB015C
:101240009091EC018150984F9093EC018093EB01C9
:1012500014C19C3009F4CAC20CF472C2CAE2D2E0D2
:101260009D3409F05ACFCE010E947B0510E000E0CA
:1012700080910402909105020817190708F0E8C24E
:10128000809124022091250230E050E040E0542F6C
:10129000432F322F2227482B80912602282BB8017A
:1012A000CE010E9427040F5F1F4FE2CFCAE2D2E0B7
:1012B00002E812E00E945E19CB010E942B010E94FD
:1012C000BD026B017C0160912C0270912D0290E0B7
:1012D00080E00E94840570E0A7019601CE010E9483
:1012E0002704CE010E949304CE010E947B056696DE
:1012F0000C171D07F9F6DF91CF911F910F91FF9009
:10130000EF90DF90CF90BF909F908F907F906F90E5
:101310005F904F903F902F90089560912C027091B4
:101320002D0290E080E00E948405062F0E945E1945
:10133000CB010E942B010E94BD026B017C01CAE21D
:10134000D2E010E0A7019601B801CE010E94270467
:10135000CE010E949304669622E0C238D20791F72C
:10136000CACF10E000E062E8C62E62E0D62EE801A7
:1013700020912C0230912D02C217D30700F18AE28E
:1013800092E00E94930480E492E00E94930486E538
:1013900092E00E9493048CE692E00E949304809174
:1013A000EB019091EC0180589F4F9093EC0180935A
:1013B000EB010F5F1F4F03301105C9F69CCFBE0133
:1013C00090E080E0CB017727662750E040E00E9464
:1013D000CC198091EB019091EC01820F931F0E9438
:1013E0002B010E94BD022B013C015AE2E52E52E086
:1013F000F52EA3019201BE01C7010E94270486E1D8
:10140000E80EF11CCE14DF04A1F72396B1CF809132
:101410002C0290912D0201962091E9013091EA0170
:101420008217930720F41092EA011092E901CAE2B0
:10143000D2E00E945E19CB010E942B010E94BD02E6
:101440009B01AC016091E9017091EA01CE010E941B
:1014500027046091E9017091EA016150710920E06F
:1014600030E0A901CE010E942704CE010E9493041E
:10147000669622E0C238D207E1F68091E9019091A8
:10148000EA0101969093EA018093E90134CFC3E029
:10149000D0E0C12CD12C7601CA9415E00E945E19CF
:1014A000A70196010E94CC199B01AB01BC012A0146
:1014B00033242224222433245524762F652F542FBD
:1014C000442766277727242A352A462A572A822F37
:1014D000612F0E942F1A281B222A60912C027091E2
:1014E0002D0290E080E00E9484059AE2692E92E04D
:1014F000792E862E912CA2019101B401C3010E9484
:10150000270486E1680E711C22E8621622E072064A
:1015100091F7219719F68AE292E00E9493048AE2F9
:1015200092E00E947B0580E492E00E94930480E4B4
:1015300092E00E947B0586E592E00E94930486E596
:1015400092E00E947B058CE692E00E9493048CE678
:1015500092E0DF91CF911F910F91FF90EF90DF907C
:10156000CF90BF909F908F907F906F905F904F90A3
:101570003F902F900C947B050E945E19A701960165
:101580000E94CC199B01AB01BC013A0155244424B3
:10159000442455247724762F652F542F442766271B
:1015A0007727442A552A662A772A822F6B2D0E9494
:1015B0002F1A281B422ABAE28B2EB2E09B2EA301DF
:1015C0009201BE01C4010E94270486E1880E911C8D
:1015D00022E8821622E0920691F72396B6CD0AE21F
:1015E00012E0D0E0C0E08091EB019091EC01905CC2
:1015F0000E942B010E94BD029B01AC01BE01C801EB
:101600000E9427042196C830D10569F78091EB012B
:101610009091EC0190580E942B010E94BD029B0109
:10162000AC01BE01C8010E9427042196CE30D1052D
:1016300069F78091EB019091EC0190540E942B018D
:101640000E94BD029B01AC01BE01C8010E9427049B
:101650002196C231D10569F7C8010E949304809197
:10166000EB019091EC019C01305C3093EC012093F4
:10167000EB010A5E1F4F22E00238120709F0B1CFDA
:1016800080589F4B9093EC018093EB0134CECAE2DB
:10169000D2E0CE010E947B0510E000E080910402C0
:1016A000909105020817190798F4E091030284E06D
:1016B000E89FF0011124E456FE4F259135914591A4
:1016C0005491B801CE010E9427040F5F1F4FE6CF4F
:1016D000CE010E949304669622E0C238D207C9F672
:1016E0000ACE60912C0270912D0290E080E00E9461
:1016F0008405062F0E945E19CB010E942B010E94D7
:10170000BD026B017C01CAE2D2E010E0B801CE015B
:101710000E942503672B682B692B19F0C12CD12C53
:101720007601A7019601B801CE010E942704CE01DF
:101730000E949304669622E0C238D20739F7DBCDC7
:10174000D0E0C0E01AE08091EF019091F001C8175D
:10175000D90708F18AE292E00E94930480E492E0C3
:101760000E94930486E592E00E9493048CE692E046
:10177000DF91CF911F910F91FF90EF90DF90CF906D
:10178000BF909F908F907F906F905F904F903F9011
:101790002F900C94930465E470E080E090E00E9448
:1017A0008405DC01CB010196A11DB11DCC24D82EEE
:1017B000E92EFA2EEE24FF24612F0E942F1AC82A48
:1017C000EE24EA945AE2852E52E0952EA701960166
:1017D000BE01C4010E94270486E1880E911C22E804
:1017E000821622E0920691F72196ADCF03E010E039
:1017F00032E0432E512C612C712C0E945E19A30102
:1018000092010E94CC198FEF662311F080E06FEFF8
:1018100090E0B0E0A0E0CC24D82EE92EFA2EE62A03
:10182000CAE2D2E06091EF017091F00190E080E0B7
:101830000E948405A7019601CE010E9427046696A6
:1018400082E0C238D80771F701501109B1F663CEB2
:10185000CE010E949304669622E0C238D20709F0B6
:1018600002CD49CD1F920F920FB60F9211242F93E4
:101870003F938F939F93AF93BF938091E10190919A
:10188000E201A091E301B091E4013091E00123E095
:10189000230F2D3758F50196A11DB11D2093E001AE
:1018A0008093E1019093E201A093E301B093E401FE
:1018B0008091E5019091E601A091E701B091E801E6
:1018C0000196A11DB11D8093E5019093E601A093BF
:1018D000E701B093E801BF91AF919F918F913F9144
:1018E0002F910F900FBE0F901F90189526E8230F91
:1018F0000296A11DB11DD2CF1F920F920FB60F926B
:1019000011248F939F93EF93FF938091CB018111CB
:1019100030C08091C600E0913C01F0913D01E95753
:10192000FE4F808380918701833239F480913B019F
:10193000811103C081E080933B0180913B018823AA
:1019400049F080913C0190913D01019690933D01B9
:1019500080933C0180913C0190913D01079749F4AF
:1019600010923D0110923C0181E08093CB011092D6
:101970003B01FF91EF919F918F910F900FBE0F90C0
:101980001F9018951F920F920FB60F9211242F934C
:101990003F934F935F936F937F938F939F93AF93F7
:1019A000BF93EF93FF938EE00E94500290933A0111
:1019B000809339018091390190913A0188349140A6
:1019C00074F08091390190913A01803791403CF454
:1019D00081E090E090933A018093390123C0809197
:1019E000390190913A018C3E914044F08091390147
:1019F00090913A01843192400CF4BDC0809139013C
:101A000090913A01803992400CF0B8C08091390130
:101A100090913A01823592400CF0BBC010923A018D
:101A20001092390180913801882319F081508093F8
:101A300038012091390130913A0180912102232B04
:101A400021F090913801992319F0882309F418C1E5
:101A50002091390130913A012430310519F492E393
:101A6000909338012091390130913A0122303105AB
:101A700031F491E09093370192E3909338012091F3
:101A8000390130913A012130310531F491E09093E0
:101A9000360192E3909338012091390130913A0157
:101AA0002330310541F491E0909335011092DE012D
:101AB00092E390933801833189F48091220281333B
:101AC00009F472C0823309F473C0803329F481E0D1
:101AD00080933501109224021092210280913501E9
:101AE000882379F0809133019091340184309105FD
:101AF0000CF062C0019690933401809333011092F0
:101B000035018091330190913401009709F059C05B
:101B10008091390190913A01049719F481E0809302
:101B2000C7011092370110923601809133019091D4
:101B300034018230910509F0CDC08091C8019091A7
:101B4000C9018130910509F082C080913701882355
:101B500039F0809101018F5F80930101109237016C
:101B600080913601882309F48BC080910101815056
:101B70008093010183C082E090E02CCF80913901F5
:101B800090913A01883B92400CF040CF83E090E086
:101B900021CF8091390190913A018A3792400CF01F
:101BA0003DCF84E090E016CF81E08093370192CF63
:101BB00081E0809336018ECF109234011092330170
:101BC0009ECF019709F0B1CF80918001882351F019
:101BD00083E08093010163E081E090E00E94BE1900
:101BE0001092800180913701882359F08091C801BB
:101BF0009091C90101969093C9018093C8011092F8
:101C0000370180913601882359F08091C801909165
:101C1000C90101979093C9018093C80110923601C0
:101C20008091C8019091C901039724F01092C901D5
:101C30001092C8018091C8019091C90197FF75CF9A
:101C400082E090E09093C9018093C8016ECF82300A
:101C5000910539F580913701882339F08091000191
:101C60008F5F8093000110923701809136018823A5
:101C700039F080910001815080930001109236016B
:101C8000FF91EF91BF91AF919F918F917F916F9154
:101C90005F914F913F912F910F900FBE0F901F902A
:101CA0001895892B69F780913701882349F0809135
:101CB00000018F5F80930001809301011092370132
:101CC000809136018823E1F2809100018150809358
:101CD00000014ECF8330910509F0BAC18091C8014F
:101CE0009091C90181309105D1F580913701882308
:101CF00059F080910801909109010896909309018B
:101D0000809308011092370180913601882359F0A1
:101D1000809108019091090108979093090180939F
:101D200008011092360180910801909109010897ED
:101D300030F488E090E0909309018093080180914D
:101D40000801909109018F3F910509F008F498CF9F
:101D50008FEF90E0909309018093080191CF82303A
:101D60009105D1F580913701882359F080910601C2
:101D700090910701089690930701809306011092B5
:101D8000370180913601882359F0809106019091A6
:101D9000070108979093070180930601109236017E
:101DA0008091060190910701089730F488E090E057
:101DB000909307018093060180910601909107019D
:101DC0008F3F910509F008F45BCF8FEF90E090937F
:101DD00007018093060154CF892B09F051CF8091E0
:101DE0003701882379F080910801909109010896C4
:101DF0009093090180930801909307018093060155
:101E00001092370180913601882379F08091080182
:101E1000909109010897909309018093080190938C
:101E2000070180930601109236018091080190917C
:101E30000901089750F488E090E09093090180939D
:101E40000801909307018093060180910801909109
:101E500009018F3F910509F008F412CF8FEF90E050
:101E60009093090180930801B2CF109203020CC134
:101E70008091020190910301885C91099093030184
:101E80008093020101C181500FC1809102019091A4
:101E9000030188539F4F909303018093020106C171
:101EA0008230910509F059C080913701882369F08B
:101EB000809100018830C9F5809182028F5F8C305B
:101EC00088F5809382021092370180913601882331
:101ED00069F0809100018830A9F58091820281111A
:101EE0002FC08BE080938202109236018091040112
:101EF00090910501883C910530F488EC90E0909336
:101F000005018093040180910401909105018132C3
:101F10009E4408F4B5CE80E29EE490930501809340
:101F20000401AECE10928202CECF80910401909136
:101F30000501885C91099093050180930401C3CF4A
:101F40008150D0CF809104019091050188539F4F1B
:101F50009093050180930401C7CF892B09F090CE9F
:101F6000809137018823D9F080910101883009F0F0
:101F700057C0809103028F5F8C3008F04EC0809371
:101F800003028091020190910301909305018093D7
:101F900004018091030280938202109237018091A4
:101FA00036018823D1F080910101883009F045C0C5
:101FB0008091030281113FC08BE0809303028091E6
:101FC0000201909103019093050180930401809197
:101FD0000302809382021092360180910201909157
:101FE0000301883C910550F488EC90E09093030144
:101FF0008093020190930501809304018091020176
:102000009091030181329E4408F43ACE80E29EE42E
:10201000909303018093020180CF10920302B1CF0D
:102020008091020190910301885C910990930301D2
:1020300080930201A6CF8150C0CF80910201909180
:10204000030188539F4F9093030180930201B7CF00
:10205000049709F015CE8091C8019091C901813093
:10206000910509F01DCF80913701882379F0809187
:102070000101883009F0FCCE809103028F5F8C3023
:1020800008F0F3CE8093030210923701809136015D
:10209000882371F080910101883009F0F6CE80919B
:1020A00003028111F0CE8BE080930302109236017F
:1020B0008091020190910301883C910530F488ECF5
:1020C00090E090930301809302018091020190912E
:1020D000030181329E4408F4D3CD80E29EE49093C4
:1020E000030180930201CCCD1F920F920FB60F9285
:1020F00011241F932F933F934F935F936F937F937D
:102100008F939F93AF93BF93CF93DF93EF93FF93FF
:102110008BE00E94BD01182F8CE00E94BD01EC01F4
:102120008DE00E94BD01CC0FDD1F880F991F880F25
:10213000991FC82BC12B87E090E0C23081F03CF49E
:1021400083E090E0C13059F082E190E008C08AE07D
:1021500090E0C33021F08FE090E0C430A9F7909375
:1021600005028093040280913201882311F180914D
:10217000DD01882309F473C09091D8018091810119
:1021800098136DC080918201909183010196909384
:102190008301809382010E945E1923E030E040E0D9
:1021A00050E00E94CC19609381011092DD011092E1
:1021B000320180913101882311F19091D8018091F1
:1021C000840198131CC08091DD01882309F458C054
:1021D000809185019091860101969093860180936C
:1021E00085010E945E1923E030E040E050E00E944B
:1021F000CC19609384011092DD011092310180911D
:102200003301909134018230910509F47BC00CF0C8
:1022100048C0009709F452C061E0019709F473C007
:102220002091C8013091C9012115310509F488C0F8
:10223000809130012130310509F07CC0823309F4EE
:102240007FC0853634F061E081E10E94E6011092A2
:102250003001809130018F5F809330013FC08091C9
:10226000820190918301892B09F49FCF8091820193
:10227000909183010197909383018093820195CF80
:102280008091850190918601892B09F4B4CF8091CA
:102290008501909186010197909386018093850135
:1022A000AACF83309105D9F1049709F0B9CF60E046
:1022B0008FE00E94E60161E082E137C061E081E1E8
:1022C0000E94E60161E080E10E94E60161E082E1B6
:1022D0000E94E60161E08FE00E94E601FF91EF912C
:1022E000DF91CF91BF91AF919F918F917F916F912E
:1022F0005F914F913F912F911F910F900FBE0F90C3
:102300001F90189560E080E10E94E60161E082E1A3
:102310000E94E60161E08FE00E94E60181CF60E06B
:1023200082E10E94E60161E08FE00E94E60161E047
:1023300080E1F2CF2230310509F08BCF823329F4CE
:1023400060E081E10E94E60184CF88330CF481CF04
:102350007ACFCF92DF92EF92FF920F931F93CF939A
:10236000DF93EC016B01F42EE52E198218861F868F
:10237000188A198A1A8A81E08E878B871C8692E0D8
:102380009D8788838B01000F111F060F171F1D8368
:102390000C83C8010E94691A9A878987009789F17E
:1023A000A80170E060E00E948E1BDB82CA82FE8280
:1023B000EF828981882341F061E08F2D0E94140211
:1023C00060E08F2D0E94E6018F2D9E2DFC01E651CD
:1023D000FE4FE491F0E0EE0FFF1FE052FE4F25911B
:1023E00034913C8B2B8BFC01E453FE4FE491ED8B3D
:1023F000DF91CF911F910F91FF90EF90DF90CF90E1
:1024000008951D821C821B821A82D1CFCF93DF9345
:10241000CDB7DEB769970FB6F894DEBF0FBECDBF5C
:10242000789484B5826084BD84B5816084BD85B5AF
:10243000826085BD85B5816085BD80916E008160BB
:1024400080936E0010928100809181008260809361
:102450008100809181008160809381008091800063
:102460008160809380008091B10084608093B1008E
:102470008091B00081608093B00080917A00846088
:1024800080937A0080917A00826080937A008091B4
:102490007A00816080937A0080917A0080688093CE
:1024A0007A001092C10090E080E00E94B6198D3051
:1024B00009F404C16DE090E080E00E94BE196091D3
:1024C000010181E090E00E94BE196091000182E06C
:1024D00090E00E94BE196091080183E090E00E94A4
:1024E000BE196091060184E090E00E94BE198091BF
:1024F00002019091030104E610E0B8010E943B1A2A
:1025000085E090E00E94BE19809104019091050140
:10251000B8010E943B1A86E090E00E94BE196091CB
:10252000C80187E090E00E94BE196091030288E034
:1025300090E00E94BE196091820289E090E00E94C2
:10254000BE1980910101803F19F481E080938001E0
:1025500061E081E10E94140261E082E10E941402C4
:1025600061E080E10E94140261E08FE00E941402A9
:1025700062E080E00E94140261E081E00E941402A7
:1025800062E08BE00E94140262E08CE00E94140280
:1025900062E08DE00E941402F89410928000109284
:1025A00081001092B00081E08093700080936F00F2
:1025B000809181008160809381008091B100816071
:1025C0008093B100789486E1EDEEF1E0AAE2B2E00A
:1025D00001900D928A95E1F786E1EAE6F1E0A0E448
:1025E000B2E001900D928A95E1F786E1E4E5F1E031
:1025F000A6E5B2E001900D928A95E1F786E1EEE35F
:10260000F1E0ACE6B2E001900D928A95E1F70AE2C2
:1026100012E0C8010E946805C8010E94930462E3A9
:10262000C8010E94E3020A5E1F4F22E0023812072F
:1026300081F78AE092E00E9468058AE092E00E94B9
:10264000930462E38AE092E00E94E30280918001B9
:10265000882309F4B2C06AEA8AE292E00E94E302A7
:102660006AEA80E492E00E94E3026AEA86E592E088
:102670000E94E3026AEA8CE692E00E94E3026AEAC0
:102680008AE092E00E94E302BAE2EB2EB2E0FB2E77
:10269000D12CC12C80912C0290912D02C816D90604
:1026A00008F057C02FEF3FEF4FEF50E0B601C701E2
:1026B0000E9427044FEFC41AD40AECCF81E090E0C7
:1026C0000E94B6198093010182E090E00E94B61941
:1026D0008093000183E090E00E94B61990E090930F
:1026E00009018093080184E090E00E94B61990E00F
:1026F000909307018093060185E090E00E94B6194F
:1027000014E6819FC001112490930301809302017C
:1027100086E090E00E94B619819FC0011124909339
:1027200005018093040187E090E00E94B61990E0D3
:102730009093C9018093C80188E090E00E94B61987
:102740008093030289E090E00E94B6198093820290
:10275000F8CE86E1E80EF11C92E8E91692E0F9065F
:1027600009F096CFF12CE12C80910C0290910D0292
:10277000E816F906A8F08AE292E00E94930480E449
:1027800092E00E94930486E592E00E9493048CE616
:1027900092E00E9493048AE092E00E94930456CF54
:1027A0002FEF3FEF4FEF50E0B7018AE092E00E9439
:1027B0002704AFEFEA1AFA0AD7CF83E10E9450024A
:1027C000BC01990F880B990B611571058105910565
:1027D00011F00E94AD190E945E1920ED37E040E033
:1027E00050E00E94CC197093DA016093D9010E94E5
:1027F0005E19A3E0CA2ED12CE12CF12CA701960181
:102800000E94CC196093D8010E945E19A70196011D
:102810000E94CC19609384010E945E19A701960161
:102820000E94CC19609381011092C50087E68093C5
:10283000C4008091C10088698093C1008091C2006A
:1028400086608093C20029E1E4E1F1E0CE010196C7
:10285000DC0101900D922A95E1F7DC01FC01019069
:102860000020E9F73197E81BF90B9D01281B390B74
:102870002E173F0740F42091C00025FFFCCF2D917B
:102880002093C600EBCFE0ED4E2EE7E05E2E612CEC
:10289000712CF0E22F2EFEE43F2EDD24D39474E65B
:1028A000C72E8091DF0181111AC1F09008016F2DB0
:1028B0008AE292E00E94E3026F2D80E492E00E949F
:1028C000E3026F2D86E592E00E94E3026F2D8CE615
:1028D00092E00E94E302609106018AE092E00E9489
:1028E000E3028091DE01882309F412C38091DD01A7
:1028F000811122C06AE2E62E62E0F62EF7018280A4
:1029000093808114910479F0B12CA12C20E030E067
:10291000A901B501C7010E942704FFEFAF1ABF0A42
:102920008A149B0499F7C7010E94930426E1E20EE2
:10293000F11C0E151F0511F7E090DB01F090DC0192
:102940008091D9019091DA01E816F90671F5D092DB
:10295000DD01E091D80144E0E49FF0011124E85941
:10296000FE4F2591359145915491E091D601F0911A
:10297000D7016091D4017091D501A6E1AE9FC0014D
:10298000AF9F900D1124865D9D4F0E9427042091DA
:10299000D6013091D701E6E1E29FC001E39F900D9F
:1029A0001124865D9D4F0E9493048091D9019091DE
:1029B000DA0188519C4FE816F90609F054C01092CC
:1029C000DD010E945E1924E030E040E050E00E940A
:1029D000CC197093D7016093D6010E945E1922E151
:1029E00030E040E050E00E94CC197093D501609334
:1029F000D4010E945E19A30192010E94CC19709328
:102A0000DA016093D9010E945E1923E030E040E0D2
:102A100050E00E94CC196093D8015AE2E52E52E0B2
:102A2000F52EF701828093808114910479F0B12C06
:102A3000A12C20E030E0A901B501C7010E942704C4
:102A4000FFEFAF1ABF0A8A149B0499F7C7010E94CF
:102A5000930426E1E20EF11C0E151F0511F71092EA
:102A6000DC011092DB018091DB019091DC0189385F
:102A7000934120F01092DC011092DB018AE092E099
:102A80000E947B05F12CE12C8091850190918601BB
:102A90008E159F0508F439C0E114F10459F020E0C7
:102AA00030E740E750E0B701615071098AE092E0F9
:102AB0000E942704E091840184E0E89FF001112442
:102AC000E859FE4F2591359145915491B7018AE01F
:102AD00092E00E9427049FEFE91AF90AD5CF60E03F
:102AE0008AE292E00E94E30260E080E492E00E94C9
:102AF000E30260E086E592E00E94E30260E08CE69B
:102B000092E00E94E30260E0E8CE45E0E42EF12C82
:102B1000809182019091830105968E159F0520F189
:102B2000A5E0EA16F10459F020E730E740E050E074
:102B3000B701615071098AE092E00E942704E09198
:102B4000810124E0E29FF0011124E859FE4F259114
:102B5000359145915491B7018AE092E00E94270493
:102B60004FEFE41AF40AD4CF8AE092E00E94930473
:102B70008091850190918601059708F459C03AE249
:102B8000E32E32E0F32EB12CA12C80912C029091F7
:102B90002D02A816B90660F420E030E740E750E0C7
:102BA000B501C7010E9427048FEFA81AB80AEDCF1C
:102BB000C7010E94930496E1E90EF11C0E151F0552
:102BC00011F71092860110928501109283011092E4
:102BD00082011092DE010E945E19A30192010E94FF
:102BE000CC197093DA016093D9010E9487022AE21E
:102BF000A22E22E0B22E912C812C80912C02909159
:102C00002D028816990658F420E030E0A901B4019D
:102C1000C5010E942704AFEF8A1A9A0AEECFC501B8
:102C20000E949304E6E1AE0EB11CAE14BF0419F786
:102C30008091820190918301059708F459C09AE22E
:102C4000E92E92E0F92EB12CA12C80912C029091CA
:102C50002D02A816B90660F420E730E740E050E006
:102C6000B501C7010E942704FFEFAF1ABF0AEDCFDD
:102C7000C7010E94930426E1E20EF11C0E151F0508
:102C800011F7109283011092820110928601109226
:102C900085011092DE010E945E19A30192010E943B
:102CA000CC197093DA016093D9010E9487028AE2FD
:102CB000A82E82E0B82E912C812C80912C0290912C
:102CC0002D028816990658F420E030E0A901B401DD
:102CD000C5010E9427044FEF841A940AEECFC50164
:102CE0000E94930486E1A80EB11CEA14FB0419F7B4
:102CF0008091DB019091DC0101969093DC0180933F
:102D0000DB018091CC019091CD01019739F5809143
:102D1000CB018823F9F08091880180932102909162
:102D2000890190932202811173C181E0809388010F
:102D3000809187019091C00095FFFCCF8093C600E1
:102D4000809188019091C00095FFFCCF8093C600D0
:102D50001092CB011092CD011092CC018091CC0148
:102D60009091CD0101969093CD018093CC018091FB
:102D7000CA01882309F44BC081E090E00E94B61993
:102D80008093010182E090E00E94B61980930001D7
:102D900083E090E00E94B61990E09093090180933F
:102DA000080184E090E00E94B61990E0909307013A
:102DB0008093060185E090E00E94B6198C9DC001C9
:102DC0001124909303018093020186E090E00E9419
:102DD000B6198C9DC00111249093050180930401C4
:102DE00087E090E00E94B61990E09093C90180932B
:102DF000C80188E090E00E94B6198093030289E040
:102E000090E00E94B619809382021092CA018091CC
:102E1000C701882309F474C06DE090E080E00E944F
:102E2000BE196091010181E090E00E94BE1960919D
:102E3000000182E090E00E94BE196091080183E0E9
:102E400090E00E94BE196091060184E090E00E942B
:102E5000BE19809102019091030164E670E00E9426
:102E60003B1A85E090E00E94BE1980910401909188
:102E7000050164E670E00E943B1A86E090E00E9443
:102E8000BE196091C80187E090E00E94BE19609170
:102E9000030288E090E00E94BE196091820289E0FE
:102EA00090E00E94BE19F89460E081E10E94E60182
:102EB00060E080E10E94E60160E082E10E94E601BC
:102EC00060E08FE00E94E601EFEFF3ED20E3E150D8
:102ED000F0402040E1F700C0000061E081E10E9485
:102EE000E60161E080E10E94E60161E082E10E948A
:102EF000E60161E08FE00E94E6011092C70178943C
:102F000080E090E0892B09F4CCCC0E940000C5CC75
:102F10008091D3018D3449F483ED91E00E949E05A8
:102F200083ED91E00E946B08ECCE2091020130917C
:102F300003018091D1019091D2018217930750F043
:102F400081E091E00E946B08E1E0F0E0F093D201B3
:102F5000E093D10120910401309105018091CF01CE
:102F60009091D00182179307D8F1809100018430AD
:102F700009F049C080910101843009F044C02091DA
:102F80002C0230912D028091E9019091EA012817DD
:102F9000390711F4D092CE018091CE01882321F01F
:102FA00080E091E00E949E0580910C0290910D02BC
:102FB000019620910602309107028217930751F47F
:102FC0008AE092E00E947B058AE092E00E949304EE
:102FD0001092CE0181E090E09093D0018093CF01D8
:102FE0008091CF019091D00101969093D001809370
:102FF000CF018091D1019091D20101969093D2019D
:103000008093D1017ECE80E091E00E949E05E2CFC8
:10301000833189F164F48131E1F1823109F085CEA7
:103020001092D301943379F5D092C7012AC084312C
:10303000D9F1853109F079CE1092D30160918A01DE
:1030400060932302933209F44EC00CF03FC09132DA
:1030500009F44CC0923209F068CE8FEF860F8436A7
:1030600008F063CE70E0C1010E944F1A7093030113
:103070006093020106C01092D30181E0913309F000
:1030800055CE80E053CE933309F04FCED092CA0193
:10309000F8CF903419F4D092DF01F3CF913409F0D6
:1030A00044CE1092DF01EDCFADE4A093D301909315
:1030B000240280918A018093250280918B01809364
:1030C000260280918C0180932702DBCF9233B9F0E6
:1030D000933391F0913309F028CE70E0709307019B
:1030E00060930601CECF60930101CBCF70E0709367
:1030F000090160930801C5CF60930001C2CF8FEF33
:10310000860F843608F011CE70E0C1010E944F1A7C
:103110007093050160930401B4CF109224021092C1
:103120002502109226021092270248E050E062E148
:1031300070E08DEE91E00E94A91147E050E062E15D
:1031400070E08AE691E00E94A91146E050E062E159
:1031500070E084E591E00E94A91145E050E062E151
:1031600070E08EE391E00E94A911EAE2F2E081E0D2
:103170002FEF3FEF92E0808311821382128215823B
:1031800014823783268310861286118683871486DD
:10319000958786871786108A118A128A769642E06A
:1031A000E238F40741F749E050E06AE070E08AE075
:1031B00092E00C94A911CF93DF93EC0189859A8555
:1031C0000E94051B8E819F8197FD05C060E0DF9105
:1031D000CF910C941402DF91CF9108958AE092E090
:1031E0000E94DB188CE692E00E94DB1886E592E0F4
:1031F0000E94DB1880E492E00E94DB188AE292E0F1
:103200000E94DB188EE391E00E94DB1884E591E0D8
:103210000E94DB188AE691E00E94DB188DEE91E0B7
:103220000C94DB188F929F92AF92BF92CF92DF9255
:10323000EF92FF92CF93DF93EC01688179818A81CD
:103240009B81611571058105910521F464E279ED99
:103250008BE597E02DE133EF41E050E00E94CC197F
:1032600049015A019B01AC01A7EAB1E40E94EB19A4
:103270006B017C01ACEEB4EFA50194010E94F91939
:10328000C60ED71EE81EF91EF7FE06C081E0C81A5A
:10329000D108E10880E8F80AC882D982EA82FB8274
:1032A000C701B6019F77DF91CF91FF90EF90DF903C
:1032B000CF90BF90AF909F908F9008958F929F92E4
:1032C000AF92BF92CF92DF92EF92FF9260910A018C
:1032D00070910B0180910C0190910D0161157105A8
:1032E0008105910521F464E279ED8BE597E02DE10C
:1032F00033EF41E050E00E94CC1949015A019B0193
:10330000AC01A7EAB1E40E94EB196B017C01ACEEC1
:10331000B4EFA50194010E94F919C60ED71EE81E4C
:10332000F91EF7FE06C081E0C81AD108E10880E85E
:10333000F80AC0920A01D0920B01E0920C01F092BF
:103340000D01C701B6019F77FF90EF90DF90CF90FE
:10335000BF90AF909F908F90089560930A017093F3
:103360000B0180930C0190930D010895F999FECF04
:1033700092BD81BDF89A992780B50895262FF999B5
:10338000FECF1FBA92BD81BD20BD0FB6F894FA9A48
:10339000F99A0FBE01960895052E97FB1EF400942E
:1033A0000E94E31957FD07D00E94FE1907FC03D0C5
:1033B0004EF40C94E31950954095309521953F4F6C
:1033C0004F4F5F4F089590958095709561957F4F11
:1033D0008F4F9F4F08950E94201AA59F900DB49F74
:1033E000900DA49F800D911D11240895B7FF0C949A
:1033F000EB190E94EB19821B930B0895A1E21A2E80
:10340000AA1BBB1BFD010DC0AA1FBB1FEE1FFF1F88
:10341000A217B307E407F50720F0A21BB30BE40BD8
:10342000F50B661F771F881F991F1A9469F760951F
:103430007095809590959B01AC01BD01CF010895D9
:10344000A29FB001B39FC001A39F700D811D1124E5
:10345000911DB29F700D811D1124911D0895991B1E
:1034600079E004C0991F961708F0961B881F7A957B
:10347000C9F780950895AA1BBB1B51E107C0AA1F7D
:10348000BB1FA617B70710F0A61BB70B881F991F05
:103490005A95A9F780959095BC01CD01089597FBA9
:1034A000072E16F4009407D077FD09D00E943B1A2E
:1034B00007FC05D03EF4909581959F4F0895709537
:1034C00061957F4F0895EE0FFF1F0590F491E02D59
:1034D00009940F931F93CF93DF938230910510F4DB
:1034E00082E090E0E0918502F091860230E020E0F9
:1034F000B0E0A0E0309799F42115310509F44AC0F5
:10350000281B390B24303105D8F58A819B81611540
:10351000710589F1FB0193838283FE0111C0408113
:1035200051810281138148175907E0F04817590764
:1035300099F4109761F012960C93129713961C93BE
:103540003296CF01DF91CF911F910F910895009393
:10355000850210938602F4CF2115310551F04217F0
:10356000530738F0A901DB019A01BD01DF01F80121
:10357000C1CFEF01F9CF9093860280938502CDCF22
:10358000FE01E20FF31F8193919322503109398399
:103590002883D7CF2091830230918402232B41F4DA
:1035A0002091100130911101309384022093830205
:1035B00020910E0130910F012115310541F42DB7F5
:1035C0003EB74091120150911301241B350BE0913D
:1035D0008302F0918402E217F307A0F42E1B3F0B45
:1035E0002817390778F0AC014E5F5F4F2417350775
:1035F00048F04E0F5F1F50938402409383028193E3
:1036000091939FCFF0E0E0E09CCFCF93DF930097C2
:10361000E9F0FC01329713821282A0918502B091E9
:103620008602ED0130E020E01097A1F42081318185
:10363000820F931F2091830230918402281739074B
:1036400009F061C0F0938402E0938302DF91CF918F
:103650000895EA01CE17DF07E8F54A815B819E01F4
:1036600041155105B1F7E901FB83EA83499159916D
:10367000C40FD51FEC17FD0761F48081918102967C
:10368000840F951FE90199838883828193819B83AD
:103690008A83F0E0E0E012968D919C911397009759
:1036A000B9F52D913C911197CD010296820F931F90
:1036B00020918302309184022817390739F6309718
:1036C00051F51092860210928502B0938402A09365
:1036D0008302BCCFD383C28340815181840F951F65
:1036E000C817D90761F44E5F5F4F88819981480FF1
:1036F000591F518340838A819B8193838283211543
:10370000310509F0B0CFF0938602E09385029ECF99
:10371000FD01DC01C0CF13821282D7CFDC0101C0D2
:103720006D9341505040E0F7089511E0C0E0D1E0C2
:1037300004C0FE010E94631A2196C130D107C9F767
:04374000F894FFCF2B
:103744000404E803E8033200320001000000000032
:1037540087028000584D6173747265652076332E3C
:0E3764003020627920417574686F720A00008F
:00000001FF
