:020000040000FA
:100000000C94DE000C9406010C9406010C9406017D
:100010000C9406010C9406010C9406010C94060144
:100020000C9406010C94460A0C9406010C940601EB
:100030000C9406010C947B070C9406010C940601A9
:100040000C9431070C9406010C94FF060C94D9060D
:100050000C9406010C9406010C9406010C94060104
:100060000C9406010C940601000000000000000042
:100070000000000000000000000000000000000080
:10008000010101010101010101010101020202025C
:10009000020202020303030303030404040405052C
:1000A00005050506060606070707080808090909E1
:1000B0000A0A0A0B0B0B0C0C0D0D0D0E0E0F0F1078
:1000C00010111112121313141415151616171818EF
:1000D00019191A1B1B1C1D1D1E1F1F202122222344
:1000E000242526262728292A2A2B2C2D2E2F30316D
:1000F00032333435363738393A3B3C3D3E3F404168
:10010000424445464748494B4C4D4E505152545538
:100110005658595A5C5D5E606163646667696A6CD3
:100120006D6F7072737577787A7C7D7F818284863B
:1001300088898B8D8F91929496989A9C9EA0A2A468
:10014000A6A8AAACAEB0B2B4B6B8BABCBFC1C3C55B
:10015000C7CACCCED1D3D5D7DADCDFE1E3E6E8EB12
:10016000EDF0F2F5F7FAFCFF000000002400270094
:100170002A0000000008000201000003040700003C
:10018000000000000000010204081020408001026D
:1001900004081020010204081020000000002500BF
:1001A00028002B00040404040404040402020202D4
:1001B0000202030303030303360B7D1011241FBE49
:1001C000CFEFD4E0DEBFCDBF11E0A0E0B1E0E2E6CA
:1001D000F6E202C005900D92A632B107D9F722E0EF
:1001E000A6E2B1E001C01D92AD3AB207E1F710E01E
:1001F000CDEDD0E004C02197FE010E94F211CC3D6C
:10020000D107C9F70E94BE0B0C9424130C94000074
:10021000CF92DF92EF92FF920F931F939C01AAEF70
:10022000B5E00E94AF11DC01CB019058AF4FBF4F3A
:10023000CD01BB2797FDB095AB2F8E3F21E09207F4
:1002400058F5282F8F3F910508F445C06EEF681BC5
:10025000862F30E02FEF682F70E090E080E0CB0138
:1002600077276627D12CF12CE12C632B7D298E2951
:100270009F29022F10E030E020E0322F212F102F95
:100280000027602B712B822B932B1F910F91FF90D6
:10029000EF90DF90CF9008958C3F23E0920768F4B1
:1002A0008D3F22E0920728F432E0380F2FEF80E0F4
:1002B000D2CF2CEF281B3FEFFACF8A3F25E09207E1
:1002C00069F03AEF381B8B3F24E0920740F48C5FD3
:1002D0003FEF20E0C0CF30E08FEFBDCF30E020E037
:1002E000FBCFAF92BF92CF92DF92EF92FF920F932C
:1002F0001F93CF93DF936C017B018B01040F151FBC
:10030000EB015E01AE18BF08C017D10759F0699123
:10031000D601ED91FC910190F081E02DC601099587
:10032000892B79F7C501DF91CF911F910F91FF9034
:10033000EF90DF90CF90BF90AF900895FC01538D68
:10034000448D252F30E0842F90E0821B930B5417AF
:1003500010F0CF96089501970895FC01918D828D3C
:10036000981761F0A28DAE0FBF2FB11D5D968C91D5
:10037000928D9F5F9F73928F90E008958FEF9FEF14
:100380000895FC01918D828D981731F0828DE80FD0
:10039000F11D858D90E008958FEF9FEF0895FC018A
:1003A000918D228D892F90E0805C9F4F821B910957
:1003B0008F739927089586E491E00E94CF0121E090
:1003C000892B09F420E0822F089580E090E0892BAA
:1003D00029F00E94DB0181110C9400000895FC01BA
:1003E000A48DA80FB92FB11DA35ABF4F2C91848D96
:1003F00090E001968F739927848FA689B7892C93F3
:10040000A089B1898C91837080648C93938D848D45
:10041000981306C00288F389E02D80818F7D808348
:100420000895EF92FF920F931F93CF93DF93EC0108
:1004300081E0888F9B8D8C8D98131AC0E889F9898B
:10044000808185FF15C09FB7F894EE89FF8960838E
:10045000E889F98980818370806480839FBF81E00F
:1004600090E0DF91CF911F910F91FF90EF90089551
:10047000F62E0B8D10E00F5F1F4F0F731127E02E2C
:100480008C8D8E110CC00FB607FCFACFE889F98964
:10049000808185FFF5CFCE010E94EF01F1CFEB8D7A
:1004A000EC0FFD2FF11DE35AFF4FF0829FB7F89438
:1004B0000B8FEA89FB8980818062CFCFCF93DF9356
:1004C000EC01888D8823B9F0AA89BB89E889F9896C
:1004D0008C9185FD03C0808186FD0DC00FB607FCA1
:1004E000F7CF8C9185FFF2CF808185FFEDCFCE01D4
:1004F0000E94EF01E9CFDF91CF91089590E0FC01D8
:10050000EE58FE4F2491FC01EA57FE4F3491FC0156
:10051000EC55FE4FE491EE23C9F0222339F023304D
:1005200001F1A8F4213019F1223029F1F0E0EE0FA9
:10053000FF1FE656FE4FA591B4918FB7F894EC914A
:10054000611126C030953E233C938FBF089527301C
:10055000A9F02830C9F0243049F7809180008F7DC0
:1005600003C0809180008F7780938000DFCF84B5B7
:100570008F7784BDDBCF84B58F7DFBCF8091B000BA
:100580008F778093B000D2CF8091B0008F7DF9CF6C
:100590003E2BDACFCF93DF9390E0FC01EA57FE4F7A
:1005A00024918C559E4FFC0184918823D1F090E0DA
:1005B000880F991FFC01E859FE4FA591B491FC01E9
:1005C000E656FE4FC591D49161110EC09FB7F894C5
:1005D0008C91E22FE0958E238C932881E223E8838F
:1005E0009FBFDF91CF9108958FB7F894EC91E22BE4
:1005F000EC938FBFF6CF3FB7F89480913401909180
:100600003501A0913601B091370126B5A89B05C0F0
:100610002F3F19F00196A11DB11D3FBFBA2FA92F81
:10062000982F8827BC01CD01620F711D811D911D7E
:1006300042E0660F771F881F991F4A95D1F70895EA
:10064000CF93DF9300D000D0CDB7DEB769837A8334
:100650008B839C83DE011196CE010596ED91F0E02F
:10066000E859FF4F44919D0121503109F901408320
:100670008A179B0799F769817A818B819C810F90FA
:100680000F900F900F90DF91CF910895FF920F93ED
:100690001F93CF93DF93EC01FF24F394F60E28858C
:1006A0002F1581F109851A85215041F16F3FE1F441
:1006B00030E050E040E06FEF7FEF80E090E00E949C
:1006C0005B11B901F8014C815D81CF01801B910B59
:1006D00084179507B0F44081469FC001479F900D55
:1006E000112490833196EFCF8F2D90E0982F88279B
:1006F0000197622F70E00E94CA11E4CF70E060E0C1
:10070000E1CFF886DF91CF911F910F91FF9008956F
:100710008F929F92AF92BF92CF92DF92EF92FF9211
:100720001F93CF93DF93FC01828193816817790730
:10073000A8F54A01AA24BB24C82DC32ED42EE52E29
:10074000FF241C2DD22F8085882361F0889E4001D4
:100750001124C92D8C9D600111241D2D829FD00173
:100760001124DB2FA685E184F2849385A91322C08E
:10077000CB01880F991F680F791F6E0D7F1DA38510
:10078000A60FB72FB11DCC93A485A60FB72FB11D0F
:100790001C938585680F711DFB01D083DF91CF917C
:1007A0001F91FF90EF90DF90CF90BF90AF909F9000
:1007B0008F900895660F771F660F771F6E0D7F1D50
:1007C000252F332744275527882349F090E0829F1F
:1007D0007001839FF00C929FF00C11242F2DA60F17
:1007E000B72FB11D2C93CBCFCF92DF92EF92FF9218
:1007F0000F931F93CF93DF93CDB7DEB729970FB633
:10080000F894DEBF0FBECDBF8C01DC0119968D912F
:100810009C91892B09F473C00E94FB02F801C784E4
:10082000D088E188F2886C157D058E059F0520F43F
:100830006787708B818B928BF801C784D088E188A1
:10084000F2886C197D098E099F096C32714081050F
:10085000910510F3F894D80114968D919C911597F9
:100860009A8389831996ED91FC917F01BFEFEB1A72
:10087000FB0A80818987F80190810388F489E02D43
:10088000D80155968C91992309F448C09081982BF2
:1008900098879081809589238F838F818C8388E0CE
:1008A0008B8358856F8149853B812C8189819A8111
:1008B000D701508347FD252F3A952083262F39F005
:1008C000441F00C000006083000000C0F2CF38E089
:1008D0004D9160830000019761F7D8015496FC9315
:1008E000EE93539749873B832C839A83898378942B
:1008F0000E94FB02F8016787708B818B928B29968F
:100900000FB6F894DEBF0FBECDBFDF91CF911F9120
:100910000F91FF90EF90DF90CF9008959081982BEA
:1009200098879081809589238F838F818E8388E03B
:100930008D8358856F8149853D812E8189819A817A
:10094000D701508347FD252F00C000C0208300C081
:1009500000C000C000C000C060830000262F3A9590
:1009600041F0441F000000C000C000C000C000C033
:10097000E8CF38E04D9100C0608300C0019709F7CF
:10098000D8015496FC93EE93539749873D832E8369
:10099000ACCFCF93DF93EC018E819F8197FD07C091
:1009A00061E00E94CA0260E08E810E947E0281E0C6
:1009B0008983DF91CF910895FC014481558170E0D6
:1009C00060E0818592850C941D134F925F926F9227
:1009D0007F928F929F92AF92BF92CF92DF92EF92CF
:1009E000FF920F931F93CF93DF938C010E94ED1022
:1009F000CB010E9408010E9420034B015C010E9470
:100A0000ED1080910901EFEFE80FE73008F0C4C165
:100A10000E2E000CFF0BE15FFA4F0C94F21116053D
:100A20003F056D05C905FD054606890670E0809104
:100A3000E5019091E6018617970718F40E94ED10E2
:100A4000F5CFA501940183EE91E00E94880383EE27
:100A500091E00E94F40383EE91E0DF91CF911F912A
:100A60000F91FF90EF90DF90CF90BF90AF909F904D
:100A70008F907F906F905F904F900C94DC04C090AB
:100A8000E501D090E601F12CE12CC114D104E10480
:100A9000F10439F00E94ED10A70196010E945B114C
:100AA0006B016C2D70E0A501940183EE91E00E9432
:100AB000880383EE91E0DF91CF911F910F91FF901A
:100AC000EF90DF90CF90BF90AF909F908F907F90EE
:100AD0006F905F904F900C94F403F12CE12C48013F
:100AE000110FAA08BB08412C512C32016394E70175
:100AF0002091E5013091E601C217D307E8F4BE0169
:100B000090E080E0CB017727662750E040E00E942C
:100B10005B118091440190914501820F931F0E94C7
:100B200008010E9420039B01AC01BE0183EE91E00D
:100B30000E9488032396DCCF83EE91E00E94F403A9
:100B4000C301B201A50194010E945B11809144018F
:100B500090914501280F391F30934501209344019E
:100B60008FEFE81AF80A83E0E816F10409F0BFCF26
:100B7000DF91CF911F910F91FF90EF90DF90CF9079
:100B8000BF90AF909F908F907F906F905F904F90AD
:100B9000089520914201309143018091E5019091A7
:100BA000E6018217930720F410924301109242014C
:100BB0006091420170914301A501940183EE91E09F
:100BC0000E94880360914201709143016150710954
:100BD00020E030E0A90183EE91E00E94880383EEDB
:100BE00091E00E94F40380914201909143010196AB
:100BF0009093430180934201BBCFC5E0D0E0412CEC
:100C0000512C32014A94EBEA8E2E0E94ED10A30182
:100C100092010E945B11162F972E5C01689D812D19
:100C200011248695012F081BC090E501D090E601A4
:100C3000F12CE12CC114D104E104F10439F00E943B
:100C4000ED10A70196010E945B116B01812F992D78
:100C5000D501AC0133272227222733275527BA2F66
:100C6000A92F982F8827AA27BB27822B932BA42B49
:100C7000B52B9C01AD01202B6C2D70E083EE91E033
:100C80000E948803219709F0C0CFE1CED0E0C0E0F8
:100C9000C12CD12C7601CA9445E0B42E8E018091EE
:100CA000E5019091E6010817190750F50E94ED1033
:100CB000A70196010E945B11E62F462F572FBC011A
:100CC000DA019927882788279927BB27762F652F50
:100CD000542F4427662777279A01AB01282B392BFD
:100CE0004A2B5B2B8E2F6B2D0E94BE11E81B2E2BE7
:100CF000B80183EE91E00E9488030D5F1F4FCFCFB4
:100D000083EE91E00E94F4032196C330D10531F6C1
:100D10002FCFD0E0C0E080914401909145010E9426
:100D200008010E9420039B01AC01BE0183EE91E00B
:100D30000E9488032196C530D10569F7809144014E
:100D4000909145018D5C9C4C0E9408010E942003FB
:100D50009B01AC01BE0183EE91E00E9488032196C5
:100D6000CA30D10559F783EE91E00E94F40398014F
:100D7000110F440B550B60E070E081E090E00E94A1
:100D80005B118091440190914501280F391F3093E8
:100D9000450120934401ECCE87301CF081E0809324
:100DA0000901809109018111E3CE87E08093090157
:100DB000DFCE1F920F920FB60F9211242F933F9305
:100DC0004F935F936F937F938F939F93AF93BF9353
:100DD000EF93FF9386E491E00E94EF01FF91EF9182
:100DE000BF91AF919F918F917F916F915F914F9143
:100DF0003F912F910F900FBE0F901F9018951F924B
:100E00000F920FB60F9211242F938F939F93EF930E
:100E1000FF93E0915601F09157018081E0915C01D0
:100E2000F0915D0182FD1BC0908180915F018F5F19
:100E30008F7320916001821741F0E0915F01F0E033
:100E4000EA5BFE4F958F80935F01FF91EF919F9139
:100E50008F912F910F900FBE0F901F90189580814A
:100E6000F4CF1F920F920FB60F9211242F933F933E
:100E70008F939F93AF93BF938091300190913101F5
:100E8000A0913201B091330130912F0123E0230F63
:100E90002D3758F50196A11DB11D20932F01809388
:100EA000300190933101A0933201B09333018091CE
:100EB000340190913501A0913601B091370101962E
:100EC000A11DB11D8093340190933501A09336018B
:100ED000B0933701BF91AF919F918F913F912F9127
:100EE0000F900FBE0F901F90189526E8230F0296C3
:100EF000A11DB11DD2CF1F920F920FB60F921124D8
:100F00002F933F938F939F9380E480937C008091F5
:100F10007A00806480937A0080917A0086FDFCCF0D
:100F200090917800809179008927982789279C01E2
:100F3000285431402832310508F44AC0245A310976
:100F40002832310508F447C0245A310928323105C6
:100F500008F444C082559240889708F042C084E06B
:100F600090E020912E01222309F444C221502093C5
:100F70002E01009709F48AC0211188C084309105A0
:100F800099F524E620932E0120912B01222379F05C
:100F90002091290130912A0124303105DCF52F5FA1
:100FA0003F4F30932A012093290110922B01209169
:100FB000290130912A012115310589F5049719F489
:100FC00081E08093380110922D0110922C015EC0B7
:100FD00081E090E0C6CF82E090E0C3CF83E090E074
:100FE000C0CF90E080E0BDCF8130910521F421E0B9
:100FF00020932D01C6CF8330910521F421E0209369
:101000002C01BFCF8230910509F0BECF21E02093A3
:101010002B01B7CF10922A0110922901C6CF21309F
:101020003105E9F580912D01882359F08091270140
:1010300090912801019690932801809327011092A6
:101040002D0180912C01882359F0809127019091E6
:1010500028010197909328018093270110922C0179
:101060008091270190912801039724F01092280184
:1010700010922701809127019091280197FF06C0C7
:1010800082E090E090932801809327019F918F91B7
:101090003F912F910F900FBE0F901F901895223007
:1010A000310509F04FC080912701909128018130CE
:1010B0009105A9F480912D01882339F080910201D6
:1010C0008F5F8093020110922D0180912C01882363
:1010D000E9F28091020181508093020176CF823043
:1010E0009105A9F480912D01882339F0809109019F
:1010F0008F5F8093090110922D0180912C0188232C
:1011000029F2809109018150809309015ECF892BDA
:1011100009F0BCCF80912D01882349F0809109010D
:101120008F5F809309018093020110922D018091BD
:101130002C01882309F4AACF809109018150809362
:101140000901CACF2330310509F058C18091270128
:101150009091280181309105D9F580912D01882346
:1011600059F0809107019091080108969093080129
:101170008093070110922D0180912C01882359F052
:10118000809107019091080108979093080180933E
:10119000070110922C018091070190910801181607
:1011A000190634F081E090E09093080180930701E4
:1011B00080910701909108018F3F910509F00CF48F
:1011C00065CF8FEF90E090930801809307015ECF89
:1011D00082309105D9F580912D01882359F08091B5
:1011E00005019091060108969093060180930501F0
:1011F00010922D0180912C01882359F080910501D6
:101200009091060108979093060180930501109232
:101210002C0180910501909106011816190634F0F1
:1012200081E090E090930601809305018091050193
:10123000909106018F3F910509F00CF427CF8FEFB5
:1012400090E0909306018093050120CF892B09F04F
:101250001DCF80912D01882379F080910701909115
:101260000801089690930801809307019093060166
:101270008093050110922D0180912C01882379F033
:10128000809107019091080108979093080180933D
:101290000701909306018093050110922C01809123
:1012A0000701909108011816190654F081E090E0AA
:1012B00090930801809307019093060180930501A4
:1012C00080910701909108018F3F910509F00CF47E
:1012D000DDCE8FEF90E09093080180930701B1CFAE
:1012E00082309105E1F580912D01882361F0809194
:1012F000000190910101845F9140909301018093DE
:10130000000110922D0180912C01882361F08091C1
:101310000001909101018C509E4F909301018093A8
:10132000000110922C018091000190910101843FF5
:10133000914034F484EF91E0909301018093000197
:101340008091000190910101813197420CF49ECE71
:1013500080E197E2909301018093000197CE892B61
:1013600009F094CE80912D01882381F080910301B2
:1013700090910401845F9140909304018093030154
:10138000909301018093000110922D0180912C0116
:10139000882381F080910301909104018C509E4F2D
:1013A00090930401809303019093010180930001C5
:1013B00010922C018091030190910401843F91408F
:1013C00054F484EF91E0909304018093030190938F
:1013D000010180930001809103019091040181310A
:1013E00097420CF453CE80E197E2909304018093EE
:1013F0000301B0CF009709F0C1CD48CE24303105AC
:1014000009F044CE80912701909128018130910507
:1014100009F066CF80912D01882361F0809103014E
:1014200090910401845F91409093040180930301A3
:1014300010922D0180912C01882361F0809103018D
:10144000909104018C509E4F90930401809303016E
:1014500010922C018091030190910401843F9140EE
:1014600034F484EF91E09093040180930301809120
:10147000030190910401813197420CF407CE80E181
:1014800097E2909304018093030100CE1F920F9284
:101490000FB60F9211242F933F934F935F936F9347
:1014A0007F938F939F93AF93BF93EF93FF9380911D
:1014B000290190912A018230910509F453C02CF53D
:1014C000009779F161E0019709F44DC0209127015F
:1014D000309128012115310509F462C0809126015F
:1014E0002130310509F056C0823309F459C08536E0
:1014F00034F061E08FE00E947E021092260180911C
:1015000026018F5F809326011CC083309105B9F1BD
:101510000497E1F660E082E10E947E0261E081E1F1
:1015200034C061E08FE00E947E0261E080E10E94B1
:101530007E0261E081E10E947E0261E082E10E9420
:101540007E02FF91EF91BF91AF919F918F917F911B
:101550006F915F914F913F912F910F900FBE0F9020
:101560001F90189560E080E10E947E0261E081E1B9
:101570000E947E0261E082E10E947E02A7CF60E0CD
:1015800081E10E947E0261E082E10E947E0261E0D0
:1015900080E1F2CF2230310509F0B1CF823329F456
:1015A00060E08FE00E947E02AACF88330CF4A7CFC0
:1015B000A0CFCF92DF92EF92FF920F931F93CF9322
:1015C000DF93EC016B01F42EE52E198218861F863D
:1015D000188A198A1A8A81E08E878B871C8692E086
:1015E0009D8788838B01000F111F060F171F1D8316
:1015F0000C83C8010E94F8119A878987009789F1A6
:10160000A80170E060E00E941D13DB82CA82FE82A6
:10161000EF828981882341F061E08F2D0E94CA0208
:1016200060E08F2D0E947E028F2D9E2DFC01EC55D7
:10163000FE4FE491F0E0EE0FFF1FE656FE4F2591BE
:1016400034913C8B2B8BFC01EA57FE4FE491ED8BE0
:10165000DF91CF911F910F91FF90EF90DF90CF908E
:1016600008951D821C821B821A82D1CF10924901DB
:101670001092480188EE93E0A0E0B0E080934A0128
:1016800090934B01A0934C01B0934D0188E191E000
:10169000909347018093460185EC90E0909353012D
:1016A0008093520184EC90E0909355018093540113
:1016B00080EC90E0909357018093560181EC90E08C
:1016C000909359018093580182EC90E090935B01D4
:1016D00080935A0186EC90E090935D0180935C01C9
:1016E00010925F01109260011092610110926201EC
:1016F00045E050E062E170E083E992E00E94D90A9F
:1017000046E050E062E170E08DE792E00E94D90A85
:1017100047E050E062E170E087E692E00E94D90A7B
:1017200048E050E062E170E081E592E00E94D90A71
:10173000E9EFF1E081E02FEF3FEF92E0808311824B
:1017400013821282158214823783268310861286B2
:10175000118683871486958786871786108A118A53
:10176000128A769642E0E135F40741F749E050E00D
:101770006AE070E083EE91E00C94D90A789484B525
:10178000826084BD84B5816084BD85B5826085BD7D
:1017900085B5816085BD80916E00816080936E000B
:1017A00010928100809181008260809381008091FD
:1017B00081008160809381008091800081608093AE
:1017C00080008091B10084608093B1008091B0006E
:1017D00081608093B00080917A00846080937A0069
:1017E00080917A00826080937A0080917A00816093
:1017F00080937A0080917A00806880937A001092BA
:10180000C10090E080E00E9445118D3009F41BC1B9
:101810006DE090E080E00E944D116091020181E056
:1018200090E00E944D116091090182E090E00E94D9
:101830004D116091070183E090E00E944D1160918D
:10184000050184E090E00E944D1180910301909188
:101850000401C4E6D0E0BE010E94DE1185E090E004
:101860000E944D118091000190910101BE010E94E2
:10187000DE1186E090E00E944D11E0915601F0915A
:10188000570182E08083E0915201F0915301108270
:10189000E0915401F09155018FEC808310925E012C
:1018A000E0915A01F0915B0186E08083E09158015C
:1018B000F0915901808180618083E0915801F0911D
:1018C0005901808188608083E0915801F09159012D
:1018D000808180688083E0915801F0915901808176
:1018E0008F7D808361E08FE00E94CA0261E081E128
:1018F0000E94CA0261E080E10E94CA0261E082E1C6
:101900000E94CA02F89410928000109281001092F6
:10191000B00081E08093700080936F00809181001F
:101920008160809381008091B10081608093B100DB
:10193000789486E1E3E9F2E0A9EFB1E001900D923D
:101940008A95E1F786E1EDE7F2E0AFE0B2E00190E1
:101950000D928A95E1F786E1E7E6F2E0A5E2B2E0D2
:1019600001900D928A95E1F786E1E1E5F2E0ABE3C3
:10197000B2E001900D928A95E1F701E512E0C9EF1E
:10198000D1E0CE010E94C904CE010E94F40362E3BB
:10199000CE010E94460366960C171D0791F783EE51
:1019A00091E00E94C90483EE91E00E94F40362E397
:1019B00083EE91E00E9446032AE0222E312C109102
:1019C0000701612F89EF91E00E944603612F8FE0AC
:1019D00092E00E944603612F85E292E00E94460356
:1019E000612F8BE392E00E9446036091050183EE34
:1019F00091E00E9446038091030190910401AC01A3
:101A0000415051092091400130914101241735077F
:101A100008F482C0B1010E94DE112B018091020105
:101A2000EFEFE80FE73008F041C30E2E000CFF0B7C
:101A3000E45EF24F0C94F211590D5C0E8C0EED0E1B
:101A40002D0F9A0FF00F81E090E00E9445118093D6
:101A5000020182E090E00E9445118093090183E039
:101A600090E00E94451190E0909308018093070157
:101A700084E090E00E94451190E0909306018093ED
:101A8000050185E090E00E944511C4E68C9FC001ED
:101A90001124909304018093030186E090E00E945A
:101AA00045118C9FC0011124909301018093000186
:101AB000E4CE09EF11E00E94ED10CB010E94080175
:101AC0000E9420034B015C01C090FB01D090FC01FF
:101AD000F12CE12CC114D104E104F10439F00E948D
:101AE000ED10A70196010E945B116B016C2D70E057
:101AF000A5019401C8010E948803C8010E94F40353
:101B0000C8010E94DC040A5E1F4F0C171D0799F6DE
:101B100010924101109240018091000190910101C9
:101B2000AC014150510920913A0130913B012417F9
:101B30003507E0F120910901243009F0C4C2209159
:101B40000201243009F0BFC24091FB015091FC0119
:101B500020913C0130913D014217530719F421E0D7
:101B60002093390120913901222331F0B1010E94E3
:101B7000DE11CB010E94E5048091E5019091E60120
:101B8000019620914201309143018217930751F44D
:101B900083EE91E00E94DC0483EE91E00E94F40366
:101BA0001092390110923B0110923A0180913A0152
:101BB00090913B01019690933B0180933A01809173
:101BC0004001909141010196909341018093400121
:101BD00080913801882309F462C06DE090E080E0D4
:101BE0000E944D116091020181E090E00E944D1130
:101BF0006091090182E090E00E944D11609107011F
:101C000083E090E00E944D116091050184E090E036
:101C10000E944D11809103019091040164E670E0EF
:101C20000E94DE1185E090E00E944D11809100013C
:101C30009091010164E670E00E94DE1186E090E080
:101C40000E944D11F89460E08FE00E947E0260E0F7
:101C500080E10E947E0260E081E10E947E0260E0FD
:101C600082E10E947E028FEF93ED20E3815090404D
:101C70002040E1F700C0000061E08FE00E947E029A
:101C800061E080E10E947E0261E081E10E947E02CB
:101C900061E082E10E947E0210923801789480E037
:101CA00090E0892B09F48BCE0E94DB01882309F494
:101CB00086CE0E94000083CEC090FB01D090FC0134
:101CC000F12CE12CC114D104E104F10439F00E949B
:101CD000ED10A70196010E945B116B010E94ED10AF
:101CE000CB010E9408010E9420034B015C0199EF87
:101CF000E92E91E0F92ED12CA5019401B601C7017E
:101D00000E948803C7010E94F40326E1E20EF11C41
:101D1000EC16FD0689F7FCCEF12CE12C052C000C0D
:101D20006608770887012091FB013091FC010217BA
:101D3000130750F189EF91E00E94F4038FE092E0E5
:101D40000E94F40385E292E00E94F4038BE392E0A8
:101D50000E94F40360E070E081E090E0A301920152
:101D60000E945B1180913E0190913F01280F391F25
:101D700030933F0120933E018FEFE81AF80A93E079
:101D8000E916F10479F6C4CEB80190E080E0CB0109
:101D90007727662750E040E00E945B1180913E016A
:101DA00090913F01820F931F0E9408010E9420031F
:101DB0004B015C0189EFC82E81E0D82EA50194016A
:101DC000B801C6010E94880326E1C20ED11CCC15C1
:101DD000DD05A1F70D5F1F4FA6CF8091FB0190910C
:101DE000FC01019620913C0130913D01821793073F
:101DF00020F410923D0110923C0109EF11E00E9485
:101E0000ED10CB010E9408010E9420039B01AC0150
:101E100060913C0170913D01C8010E94880360916E
:101E20003C0170913D016150710920E030E0A90151
:101E3000C8010E948803C8010E94F4030A5E1F4F74
:101E40000C171D07E1F680913C0190913D01019630
:101E500090933D0180933C015BCEA3E0CA2ED12C30
:101E60000E94ED102FEF30E040E050E00E945B1147
:101E70009B01AB01BC01DA019927882788279927A4
:101E8000BB278824942EA52EB62EAA24BB24882AEC
:101E9000992AAA2ABB2A822F65E00E94BE11281B1C
:101EA000822A4090FB015090FC01712C612C41145E
:101EB00051046104710439F00E94ED10A3019201F4
:101EC0000E945B112B0159EFE52E51E0F52E512CAC
:101ED000A5019401B201C7010E94880386E1E80EC2
:101EE000F11CEC16FD06A1F791E0C91AD10809F022
:101EF000B7CF89EF91E00E94F40389EF91E00E944F
:101F0000DC048FE092E00E94F4038FE092E00E94F4
:101F1000DC0485E292E00E94F40385E292E00E94F4
:101F2000DC048BE392E00E94F4038BE392E00E94D6
:101F3000DC04EECDF12CE12C87018091FB01909126
:101F4000FC0108171907C0F089EF91E00E94F40323
:101F50008FE092E00E94F40385E292E00E94F40395
:101F60008BE392E00E94F4032FEFE21AF20A83E07F
:101F7000E816F10409F7CCCD0E94ED102FEF30E008
:101F800040E050E00E945B119B01AB01BC01DA0113
:101F90009927882788279927BB278824942EA52E40
:101FA000B62EAA24BB24882A992AAA2ABB2A822FC1
:101FB00065E00E94BE11281B822A49EFC42E41E031
:101FC000D42EA5019401B801C6010E94880396E1B0
:101FD000C90ED11CCC16DD06A1F70D5F1F4FADCF8A
:101FE00089EFE82E81E0F82E10E000E080913E01BC
:101FF00090913F01905C0E9408010E9420039B0188
:10200000AC01B801C7010E9488030F5F1F4F083061
:10201000110561F780913E0190913F0190580E9417
:1020200008010E9420039B01AC01B801C7010E9476
:1020300088030F5F1F4F0E30110561F780913E013D
:1020400090913F0190540E9408010E9420039B013F
:10205000AC01B801C7010E9488030F5F1F4F023116
:10206000110561F7C7010E94F40300913E01109130
:102070003F01105C10933F0100933E0126E1E20E08
:10208000F11CEC16FD0609F0AFCF9201550C440B84
:10209000550B60E070E081E090E00E945B11200F42
:1020A000311F30933F0120933E0132CD88301CF028
:1020B00081E08093020180910201811129CD97E096
:1020C0009093020125CDB1010E94DE11CB010E9447
:1020D000E50468CDCF93DF93EC0189859A850E9452
:1020E00094128E819F8197FD05C060E0DF91CF91B2
:1020F0000C94CA02DF91CF91089583EE91E00E9483
:102100006A108BE392E00E946A1085E292E00E94DE
:102110006A108FE092E00E946A1089EF91E00E94BD
:102120006A1081E592E00E946A1087E692E00E94C0
:102130006A108DE792E00E946A1083E992E00C94A5
:102140006A108F929F92AF92BF92CF92DF92EF92DE
:10215000FF92CF93DF93EC01688179818A819B8123
:10216000611571058105910521F464E279ED8BE536
:1021700097E02DE133EF41E050E00E945B1149010F
:102180005A019B01AC01A7EAB1E40E947A116B01EC
:102190007C01ACEEB4EFA50194010E948811C60E3B
:1021A000D71EE81EF91EF7FE06C081E0C81AD10846
:1021B000E10880E8F80AC882D982EA82FB82C70176
:1021C000B6019F77DF91CF91FF90EF90DF90CF9096
:1021D000BF90AF909F908F9008958F929F92AF92F3
:1021E000BF92CF92DF92EF92FF9260910A017091BD
:1021F0000B0180910C0190910D0161157105810514
:10220000910521F464E279ED8BE597E02DE133EF60
:1022100041E050E00E945B1149015A019B01AC0171
:10222000A7EAB1E40E947A116B017C01ACEEB4EF35
:10223000A50194010E948811C60ED71EE81EF91E42
:10224000F7FE06C081E0C81AD108E10880E8F80A64
:10225000C0920A01D0920B01E0920C01F0920D01A4
:10226000C701B6019F77FF90EF90DF90CF90BF90AE
:10227000AF909F908F90089560930A0170930B0127
:1022800080930C0190930D010895F999FECF92BDB2
:1022900081BDF89A992780B50895262FF999FECF28
:1022A0001FBA92BD81BD20BD0FB6F894FA9AF99A73
:1022B0000FBE01960895052E97FB1EF400940E9410
:1022C000721157FD07D00E948D1107FC03D04EF408
:1022D0000C94721150954095309521953F4F4F4F7A
:1022E0005F4F089590958095709561957F4F8F4FC2
:1022F0009F4F08950E94AF11A59F900DB49F900D20
:10230000A49F800D911D11240895B7FF0C947A119C
:102310000E947A11821B930B0895A1E21A2EAA1B28
:10232000BB1BFD010DC0AA1FBB1FEE1FFF1FA21785
:10233000B307E407F50720F0A21BB30BE40BF50B82
:10234000661F771F881F991F1A9469F7609570950B
:10235000809590959B01AC01BD01CF010895A29F8E
:10236000B001B39FC001A39F700D811D1124911D69
:10237000B29F700D811D1124911D0895991B79E064
:1023800004C0991F961708F0961B881F7A95C9F705
:1023900080950895AA1BBB1B51E107C0AA1FBB1F54
:1023A000A617B70710F0A61BB70B881F991F5A95E1
:1023B000A9F780959095BC01CD01089597FB072E54
:1023C00016F4009407D077FD09D00E94CA1107FCCB
:1023D00005D03EF4909581959F4F08957095619535
:1023E0007F4F0895EE0FFF1F0590F491E02D0994A3
:1023F0000F931F93CF93DF938230910510F482E007
:1024000090E0E091AB02F091AC0230E020E0B0E06F
:10241000A0E0309799F42115310509F44AC0281B32
:10242000390B24303105D8F58A819B8161157105FE
:1024300089F1FB0193838283FE0111C040815181A8
:102440000281138148175907E0F04817590799F49A
:10245000109761F012960C93129713961C93329674
:10246000CF01DF91CF911F910F9108950093AB029F
:102470001093AC02F4CF2115310551F042175307E8
:1024800038F0A901DB019A01BD01DF01F801C1CFDC
:10249000EF01F9CF9093AC028093AB02CDCFFE0158
:1024A000E20FF31F819391932250310939832883DE
:1024B000D7CF2091A9023091AA02232B41F4209179
:1024C0001001309111013093AA022093A9022091AA
:1024D0000E0130910F012115310541F42DB73EB7A2
:1024E0004091120150911301241B350BE091A90278
:1024F000F091AA02E217F307A0F42E1B3F0B281756
:10250000390778F0AC014E5F5F4F2417350748F06C
:102510004E0F5F1F5093AA024093A902819391939B
:102520009FCFF0E0E0E09CCFCF93DF930097E9F0FE
:10253000FC01329713821282A091AB02B091AC02DF
:10254000ED0130E020E01097A1F420813181820F6D
:10255000931F2091A9023091AA022817390709F088
:1025600061C0F093AA02E093A902DF91CF91089590
:10257000EA01CE17DF07E8F54A815B819E0141152C
:102580005105B1F7E901FB83EA8349915991C40FE1
:10259000D51FEC17FD0761F4808191810296840FAD
:1025A000951FE90199838883828193819B838A8324
:1025B000F0E0E0E012968D919C9113970097B9F5A9
:1025C0002D913C911197CD010296820F931F20917E
:1025D000A9023091AA022817390739F6309751F528
:1025E0001092AC021092AB02B093AA02A093A9027F
:1025F000BCCFD383C28340815181840F951FC817FC
:10260000D90761F44E5F5F4F88819981480F591F48
:10261000518340838A819B81938382832115310575
:1026200009F0B0CFF093AC02E093AB029ECFFD0176
:10263000DC01C0CF13821282D7CFDC0101C06D93C1
:1026400041505040E0F7089510E0CDEDD0E004C0D7
:10265000FE010E94F2112196CE3DD107C9F7F894F0
:10266000FFCFE80304E80332003200040100000059
:102670000000AD02800000000000110271019E0107
:082680005E02CF01AD01C101B2
:103800000C94341C0C94511C0C94511C0C94511CA1
:103810000C94511C0C94511C0C94511C0C94511C74
:103820000C94511C0C94511C0C94511C0C94511C64
:103830000C94511C0C94511C0C94511C0C94511C54
:103840000C94511C0C94511C0C94511C0C94511C44
:103850000C94511C0C94511C0C94511C0C94511C34
:103860000C94511C0C94511C11241FBECFEFD4E0BA
:10387000DEBFCDBF11E0A0E0B1E0E4EAFFE302C0AB
:1038800005900D92A230B107D9F712E0A2E0B1E0A5
:1038900001C01D92AD30B107E1F70E94361D0C94B6
:1038A000D01F0C94001C982F9595959595959595FE
:1038B000905D8F708A307CF0282F295A8091C0004B
:1038C00085FFFCCF9093C6008091C00085FFFCCFA0
:1038D0002093C6000895282F205DF0CF982F809167
:1038E000C00085FFFCCF9093C6000895EF92FF9231
:1038F0000F931F93EE24FF2487018091C00087FD62
:1039000017C00894E11CF11C011D111D81E4E8168B
:1039100082E4F8068FE0080780E0180770F3E09172
:103920000401F091050109958091C00087FFE9CF5E
:103930008091C6001F910F91FF90EF9008950E9413
:10394000761C982F8091C00085FFFCCF9093C60015
:1039500091362CF490330CF09053892F089597559D
:10396000892F08951F930E949F1C182F0E949F1C4F
:103970001295107F810F1F910895882351F0982F81
:1039800091508091C00087FFFCCF8091C6009923A1
:10399000B9F708951F93182F0E94761C803249F0C2
:1039A000809103018F5F809303018530C1F01F91E7
:1039B00008958091C00085FFFCCF84E18093C6000C
:1039C0008091C00085FFFCCF1093C6008091C0009D
:1039D00085FFFCCF80E18093C6001F910895E091A0
:1039E0000401F091050109951F9108950E94761C2C
:1039F000803241F0809103018F5F80930301853015
:103A000081F008958091C00085FFFCCF84E1809310
:103A1000C6008091C00085FFFCCF80E18093C60086
:103A20000895E0910401F09105010995089510921F
:103A30000A028823D1F090E040E951E02D9A28EE67
:103A400033E0FA013197F1F721503040D1F72D984A
:103A500028EE33E0FA013197F1F721503040D1F7E9
:103A60009F5F981758F380930A0208953F924F92F0
:103A70005F926F927F928F929F92AF92BF92CF92FE
:103A8000DF92EF92FF920F931F93CF93DF9300008B
:103A900083E38093C4001092C50088E18093C10045
:103AA00086E08093C2005098589A259A81E00E943F
:103AB000171D44E1F42E3EE1E32E24E9D22E96E0D8
:103AC000C92E80E1B82EAA24A39401E4902E16E515
:103AD000812EB2E57B2EA0E26A2EF9E45F2EE3E5AB
:103AE0004E2E70E5372E0E94761C8033B1F1813363
:103AF00009F441C0803409F479C0813409F48CC0E0
:103B0000823471F1853409F47BC0803531F182351E
:103B100021F1813511F1853509F48DC0863509F41F
:103B20009DC0843609F4AEC0843709F41BC18537C3
:103B300009F485C1863709F47AC0809103018F5F4B
:103B400080930301853079F6E0910401F09105013D
:103B500009950E94761C803351F60E94F61CC3CF53
:103B600093E18091C00087FFFCCF8091C60099232C
:103B7000A1F39150F6CF0E94761C8032F1F680912D
:103B8000C00085FFFCCFF092C6008091C00085FF89
:103B9000FCCF9092C6008091C00085FFFCCF809240
:103BA000C6008091C00085FFFCCF7092C600809156
:103BB000C00085FFFCCF6092C6008091C00085FFE9
:103BC000FCCF5092C6008091C00085FFFCCF409290
:103BD000C6008091C00085FFFCCF3092C600809166
:103BE000C00085FFFCCFB092C6007DCF0E94761C3E
:103BF000863808F4B2CF0E94761C0E94F61C73CF60
:103C000094E08091C00087FFFCCF8091C60099238B
:103C100009F4A3CF9150F5CF0E94761C8038D1F0E3
:103C2000813861F1823809F499C0883979F080E0EF
:103C30000E94CA1C58CF0E94761C809306010E94E5
:103C4000761C809307010E94F61C4DCF83E00E94F2
:103C5000CA1C49CF82E00E94CA1C45CF0E94761C34
:103C6000803309F486C192E08091C00087FFFCCFC9
:103C70008091C6009923D9F29150F6CF81E00E943D
:103C8000CA1C31CF0E94761C809309020E94761CC8
:103C90008093080280910C028E7F80930C020E9418
:103CA000761C853429F480910C02816080930C028B
:103CB0008091080290910902892B89F000E010E0C0
:103CC0000E94761CF801E85FFE4F80830F5F1F4F54
:103CD00080910802909109020817190788F30E9441
:103CE000761C803209F029CF80910C0280FFD1C070
:103CF0004091060150910701440F551F5093070151
:103D000040930601A0910802B09109021097C9F0F2
:103D1000E8E0F1E09A01BD016E0F7F1FF999FECF37
:103D200032BD21BD819180BDFA9AF99A2F5F3F4F34
:103D3000E617F70799F74A0F5B1F50930701409367
:103D400006018091C00085FFFCCFF092C6008091F3
:103D5000C00085FFFCCFB092C600C5CE80E10E94B6
:103D6000CA1CC1CE0E94761C809309020E94761C58
:103D7000809308028091060190910701880F991F96
:103D800090930701809306010E94761C853409F404
:103D90007AC080910C028E7F80930C020E94761C68
:103DA000803209F0A0CE8091C00085FFFCCFF09258
:103DB000C600A0910802B09109021097B9F1809154
:103DC0000C02182F1170082F0270E0910601F0917B
:103DD00007019F012F5F3F4FB90140E050E01123E1
:103DE000B1F4002339F494918091C00085FFFCCF99
:103DF0009093C6004F5F5F4FCB010196F9014A17C0
:103E00005B0780F4BC012F5F3F4F112351F3F999F9
:103E1000FECFF2BDE1BDF89A90B58091C00085FF5C
:103E2000FCCFE6CF70930701609306018091C0003C
:103E300085FDD9CE8091C00085FFF8CFD4CE0E94F9
:103E4000761C803209F079CE8091C00085FFFCCFCE
:103E5000F092C6008091C00085FFFCCFE092C600C2
:103E60008091C00085FFFCCFD092C6008091C00039
:103E700085FFFCCFC092C6008091C00085FFFCCFBB
:103E8000B092C60030CE80910C02816080930C020B
:103E900085CF809107018823880F880B8A21809322
:103EA0000B028091060190910701880F991F909352
:103EB0000701809306018091080280FF09C080916C
:103EC00008029091090201969093090280930802DA
:103ED000F894F999FECF1127E0910601F0910701BE
:103EE000C8E0D1E08091080290910902103091F46D
:103EF0000091570001700130D9F303E0009357009F
:103F0000E8950091570001700130D9F301E1009369
:103F10005700E89509901990009157000170013001
:103F2000D9F301E000935700E8951395103498F009
:103F300011270091570001700130D9F305E000937B
:103F40005700E8950091570001700130D9F301E165
:103F500000935700E8953296029709F0C7CF1030CA
:103F600011F00296E5CF11248091C00085FFE9CEC3
:103F7000ECCE0E94761C0E94761C182F0E94761CA4
:103F8000112351F0113021F086E00E94CA1CABCD04
:103F900084E90E94CA1CA7CD8EE10E94CA1CA3CD51
:063FA000F894FFCF800041
:00000001FF
