:100000000C9415010C943D010C943D010C943D01A0
:100010000C943D010C943D010C943D010C943D0168
:100020000C943D010C94DA070C943D010C943D01B5
:100030000C943D010C941A040C943D010C943D0168
:100040000C941A0D0C943D010C943D010C943D014F
:100050000C943D010C943D010C943D010C943D0128
:100060000C943D010C943D018611B711E9113E122B
:100070007512D11226138D13B5131914D109E30982
:10008000FB09350A600AB90AFA0ACE09500BB30B0C
:100090000000FF0000FF0000FF0000000000000063
:1000A0000000000000000000000000000000000050
:1000B0000000000001010101010101010101010134
:1000C0000202020202020202030303030303040406
:1000D00004040505050505060606060707070808C2
:1000E000080909090A0A0A0B0B0B0C0C0D0D0D0E61
:1000F0000E0F0F10101111121213131414151516E0
:100100001617181819191A1B1B1C1D1D1E1F1F203E
:1001100021222223242526262728292A2A2B2C2D72
:100120002E2F303132333435363738393A3B3C3D77
:100130003E3F4041424445464748494B4C4D4E5056
:10014000515254555658595A5C5D5E6061636466FD
:1001500067696A6C6D6F7072737577787A7C7D7F72
:100160008182848688898B8D8F91929496989A9CAF
:100170009EA0A2A4A6A8AAACAEB0B2B4B6B8BABCAF
:10018000BFC1C3C5C7CACCCED1D3D5D7DADCDFE176
:10019000E3E6E8EBEDF0F2F5F7FAFCFF0000000013
:1001A000240027002A000000000023002600290068
:1001B0000000000800020100000304070000000026
:1001C000000000000000FF00007FFF0000FFFF00B4
:1001D00000FF7F0000FF00007FFF0000FFFF000026
:1001E000FF7F0000FF000000FF007F00FF00FF0016
:1001F0007F00FF0001020408102040800102040873
:100200001020010204081020000000002500280032
:100210002B00040404040404040402020202020287
:100220000303030303037B15571511241FBECFEFF0
:10023000D4E0DEBFCDBF11E0A0E0B1E0E8E2F1E341
:1002400002C005900D92A431B107D9F722E0A4E1D4
:10025000B1E001C01D92A731B207E1F711E0C4E19E
:10026000D1E004C02197FE010E945917C331D10784
:10027000C9F70E94640D0C9487180C9400004F92EB
:100280005F926F927F928F929F92AF92BF92CF9226
:10029000DF92EF92FF920F931F93CF93DF93FC01B6
:1002A0008685C3844185528580841485E82EF12C8F
:1002B0000585EB018C1163C0CC0FDD1FC60FD71F66
:1002C000C40FD51F882009F443C0912CA12CB12C58
:1002D000FE01E10FF11D608170E0762F6627072E89
:1002E000000C880B990BA50194010E940817442467
:1002F000522E632E742EFE01EE0DFF1D608170E004
:10030000762F6627072E000C880B990BA501940108
:100310000E940817D9019927882773016201C82A0A
:10032000D92AEA2AFB2AC00FD11D688170E0762FF6
:100330006627072E000C880B990BA50194010E94DB
:100340000817C701B601622B732B842B952B94C021
:10035000FE01E10FF11D2081FE01EE0DFF1D608108
:10036000862F90E0A0E0B0E0DC0199278827922B4F
:10037000C00FD11D2881BC01CD01622B7DC0CC0FE7
:10038000DD1FCC0FDD1FC40FD51FD12C882009F431
:1003900058C0912CA12CB12CFE01EE0DFF1D6081E7
:1003A00070E0762F6627072E000C880B990BA501AD
:1003B00094010E940817722E662455244424FE01DD
:1003C000EC0DFD1D608170E0762F6627072E000C76
:1003D000880B990BA50194010E9408177901DD246F
:1003E000CC24C428D528E628F728FE01E00FF11D0B
:1003F000608170E0762F6627072E000C880B990B22
:10040000A50194010E940817C22AD32AE42AF52ADA
:10041000C10FD11D688170E0762F6627072E000C72
:10042000880B990BA50194010E940817B42FA32FE4
:10043000922F8827BC01CD016C297D298E299F2907
:100440001BC0FE01EE0DFF1D2081FE01EC0DFD1D08
:100450006081862F90E0A0E0B0E0DC01992788273A
:10046000B22BFE01E00FF11D2081822BC10FD11DA7
:100470002881BC01CD01722BDF91CF911F910F918B
:10048000FF90EF90DF90CF90BF90AF909F908F90B4
:100490007F906F905F904F900895CF93DF9300D03F
:1004A00000D0CDB7DEB769837A838B839C83DE016E
:1004B0001196CE010596EC91F0E0E456FF4FE491E1
:1004C000ED93A817B907B9F769817A818B819C816F
:1004D0000F900F900F900F90DF91CF910895FC0136
:1004E0004481558160E070E0818592850C9480188C
:1004F000FF920F931F93CF93DF93EC01FF24F394AC
:10050000F60E2885F21679F109851A852150B9F081
:100510006F3F59F430E040E050E06FEF7FEF80E054
:1005200090E00E94D616B9010CC08F2D90E0982F54
:1005300088270197622F70E00E94451702C060E093
:1005400070E0F8014C815D81CF01801B910B841715
:10055000950740F44081469FC001479F900D1124AC
:100560009193F0CFF886DF91CF911F910F91FF907B
:1005700008957F928F929F92AF92BF92CF92DF9217
:10058000EF92FF920F931F93CF93DF93FC01828131
:1005900093816817790708F053C04A01AA24BB2445
:1005A000782CC32ED42EE52EFF24BC2DA22F8085BF
:1005B000882361F0889E40011124792C8C9D600174
:1005C0001124BD2D829F70011124AF2D9685D385F6
:1005D000E184F2849D1308C0CB01880F991F680F36
:1005E000791F6E0D7F1D1CC0660F771F660F771F6A
:1005F0006E0D7F1D052F1127222733277B01E90E62
:10060000F11C811102C0202F09C090E0809F600181
:10061000819FD00C909FD00C11242D2DE7012883B1
:1006200083859B01280F311DE90178828485EB01C8
:10063000C80FD11DB8838585FB01E80FF11DA0838C
:10064000DF91CF911F910F91FF90EF90DF90CF90AE
:10065000BF90AF909F908F907F900895CF92DF9240
:10066000EF92FF920F931F93CF93DF93CDB7DEB737
:1006700029970FB6F894DEBF0FBECDBF8C01DC0109
:1006800019968D919C911A97892B09F4B1C00E94FB
:10069000BD0CF801C784D088E188F2886C157D050F
:1006A0008E059F0520F46787708B818B928BF801F4
:1006B000C784D088E188F288DC01CB018C199D09C0
:1006C000AE09BF098C329140A105B10500F3F89441
:1006D000D80114968D919C9115979A8389831996C8
:1006E000ED91FC911A977F01BFEFEB1AFB0A808115
:1006F0008987F80190810388F489E02DD801559607
:100700008C91992309F430C09081982B988790811F
:10071000809589238F838F818C8388E08B83588594
:100720006F8149853B812C8189819A81D7015083D2
:1007300047FD252F3A952083262F39F0441F00C00E
:1007400000006083000000C0F2CF38E04D9160836C
:100750000000019761F7D8015496FC93EE935397EC
:1007600049873B832C833AC09081982B988790814E
:10077000809589238F838F818E8388E08D83588530
:100780006F8149853D812E8189819A81D70150836E
:1007900047FD252F00C000C0208300C000C000C05E
:1007A00000C000C060830000262F3A9541F0441F2E
:1007B000000000C000C000C000C000C0E8CF38E0AA
:1007C0004D9100C0608300C0019709F7D80154968D
:1007D000FC93EE93539749873D832E839A838983B5
:1007E00078940E94BD0CF8016787708B818B928B87
:1007F00029960FB6F894DEBF0FBECDBFDF91CF9123
:100800001F910F91FF90EF90DF90CF900895CF93BD
:10081000DF93EC018E819F8197FD07C061E00E940C
:100820006A0C60E08E810E943B0C81E08983DF913D
:10083000CF9108951F920F920FB60F9211242F930C
:100840003F934F935F936F937F938F939F93AF9358
:10085000BF93CF93DF93EF93FF938EE00E94A60C9C
:100860009C01285431402832310588F0245A31093E
:100870002832310578F0245A31092832310568F0E0
:1008800082559240889760F0C0E0D0E00BC0C1E094
:10089000D0E008C0C2E0D0E005C0C3E0D0E002C0B4
:1008A000C4E0D0E080919601882319F081508093B4
:1008B000960180E00E94120C892B79F480919601B8
:1008C00081110BC080918001882309F4C6C181E0A9
:1008D0008093950182E38093960181E00E94120C3F
:1008E000892B31F480919601882309F4E2C14FC32A
:1008F000209709F44CC380919601811148C3C430FC
:10090000D105B1F0C230D10521F481E0809393018B
:100910000FC0C130D10521F481E08093920108C05D
:10092000C330D10541F481E08093910110928001A0
:1009300082E38093960180919101882399F08091C0
:100940008F01909190018430910534F40196909339
:10095000900180938F0104C01092900110928F013A
:100960001092910180918F0190919001009751F424
:10097000249719F481E080937601109293011092EC
:10098000920145C0019709F042C080916C01882313
:1009900051F085E08093020165E081E090E00E94E3
:1009A000C81610926C0180919301882359F08091B0
:1009B0007401909175010196909375018093740173
:1009C0001092930180919201882359F080917401D3
:1009D0009091750101979093750180937401109225
:1009E00092018091740190917501039724F0109207
:1009F000750110927401809174019091750197FFB7
:100A000006C082E090E0909375018093740180911C
:100A10008F01909190018230910509F053C080912F
:100A200074019091750181309105A1F48091930139
:100A3000882339F0809102018F5F80930201109228
:100A4000930180919201882309F4A1C2809102014F
:100A5000815035C082309105C1F480919301882383
:100A600039F0809109018F5F809309011092930101
:100A700080919201882309F48AC2809109018150F2
:100A8000809309011092920182C2892B09F07FC2E2
:100A900080919301882349F0809109018F5F8093B1
:100AA00009018093020110929301809192018823A1
:100AB00009F46DC2809109018150809309018093EE
:100AC0000201E0CF8330910509F02AC180917401C1
:100AD0009091750181309105D1F580919301882322
:100AE00059F08091070190910801089690930801B0
:100AF000809307011092930180919201882359F00D
:100B000080910701909108010897909308018093C4
:100B100007011092920180910701909108010897B6
:100B200030F488E090E09093080180930701809171
:100B30000701909108018F3F910509F008F427C241
:100B40008FEF90E0909308018093070120C28230DC
:100B50009105B1F580919301882359F080910501A9
:100B600090910601089690930601809305011092DA
:100B7000930180919201882359F080910501909111
:100B80000601089790930601809305011092920147
:100B90008091050190910601089730F488E090E07B
:100BA00090930601809305018091050190910601C3
:100BB0008F3F910509F008F4EAC18FEF90E048C03B
:100BC000892B09F0E4C180919301882379F0809109
:100BD00007019091080108969093080180930701FE
:100BE00090930601809305011092930180919201E8
:100BF000882379F0809107019091080108979093DC
:100C000008018093070190930601809305011092DB
:100C100092018091070190910801089750F488E0B3
:100C200090E09093080180930701909306018093D0
:100C3000050180910701909108018F3F910509F00E
:100C400008F4A5C18FEF90E090930801809307010D
:100C500090930601809305019AC181E08093800101
:100C60000E94691622E130E040E050E00E94D61672
:100C700070937A01609379010E94691624E030E054
:100C800040E050E00E94D61670937801609377019F
:100C90000E94691623E030E040E050E00E94D61642
:100CA00060937B0170937C0180937D0190937E0122
:100CB00011CE80918001882321F081E080939401FE
:100CC0002BC081E0809380010E94691622E130E010
:100CD00040E050E00E94D61670937A01609379014B
:100CE0000E94691624E030E040E050E00E94D616F1
:100CF00070937801609377010E94691623E030E0D9
:100D000040E050E00E94D61660937B0170937C0116
:100D100080937D0190937E0182E38093960137C199
:100D2000049709F034C1809174019091750181306C
:100D3000910509F059C0809193018823D9F08091E1
:100D40000201883059F4809173018F5F8C3018F460
:100D5000809373010DC0109273010AC0809103014A
:100D600090910401845F914090930401809303016A
:100D700010929301809192018823D1F08091020119
:100D8000883051F480917301811102C08BE001C061
:100D90008150809373010AC08091030190910401F6
:100DA0008C509E4F90930401809303011092920106
:100DB0008091030190910401843F914030F484EFCD
:100DC00091E090930401809303018091030190913D
:100DD00004018131974208F4DAC080E197E29093F0
:100DE000040180930301D3C08230910509F055C0FE
:100DF000809193018823D9F080910901883059F4BA
:100E000080910D028F5F8C3018F480930D020DC01D
:100E100010920D020AC08091000190910101845F3F
:100E20009140909301018093000110929301809171
:100E300092018823D1F080910901883051F480918A
:100E40000D02811102C08BE001C0815080930D0220
:100E50000AC080910001909101018C509E4F9093A7
:100E60000101809300011092920180910001909104
:100E70000101843F914030F484EF91E090930101AF
:100E8000809300018091000190910101813197428E
:100E900008F47DC080E197E276C0892B09F077C025
:100EA00080919301882339F180910201883059F4AF
:100EB000809173018F5F8C3018F4809373010DC0A3
:100EC000109273010AC08091030190910401845F24
:100ED00091409093040180930301809103019091CC
:100EE000040190930101809300018091730180932C
:100EF0000D021092930180919201882331F180912B
:100F00000201883051F480917301811102C08BE09D
:100F100001C08150809373010AC0809103019091B8
:100F200004018C509E4F90930401809303018091A3
:100F3000030190910401909301018093000180913D
:100F4000730180930D0210929201809103019091A0
:100F50000401843F914050F484EF91E090930401A8
:100F6000809303019093010180930001809103011C
:100F7000909104018131974250F080E197E2909383
:100F80000401809303019093010180930001FF917C
:100F9000EF91DF91CF91BF91AF919F918F917F9111
:100FA0006F915F914F913F912F910F900FBE0F90D6
:100FB0001F9018951F920F920FB60F9211242F9326
:100FC0003F934F935F936F937F938F939F93AF93D1
:100FD000BF93EF93FF9380919501882379F18091DE
:100FE0007F01882309F4A5C080916D0140917B01A8
:100FF00050917C0160917D0170917E0190E0A0E0B4
:10100000B0E084179507A607B70709F092C0809152
:101010006E0190916F01019690936F0180936E0124
:101020000E94691623E030E040E050E00E94D616AE
:1010300060936D0110927F0110929501809194014F
:10104000882371F18091700140917B0150917C0166
:1010500060917D0170917E0190E0A0E0B0E0841786
:101060009507A607B707E1F480917F01882309F46B
:1010700071C08091710190917201019690937201FB
:10108000809371010E94691623E030E040E050E057
:101090000E94D6166093700110927F011092940105
:1010A00080918F01909190018230910531F13CF453
:1010B000009791F081309105C1F561E01FC0833048
:1010C000910531F18430910581F560E08FE00E9457
:1010D0003B0C61E082E122C061E081E10E943B0CB7
:1010E00061E080E10E943B0C61E082E10E943B0CE8
:1010F00061E08FE00E943B0C7BC060E080E10E94D9
:101100003B0C61E082E10E943B0C61E08FE00AC091
:1011100060E082E10E943B0C61E08FE00E943B0CAA
:1011200061E080E10E943B0C26C0892B09F460C07D
:1011300022C080916E0190916F01892B09F47ACFC2
:1011400080916E0190916F01019790936F01809350
:101150006E0170CF8091710190917201892B09F419
:101160009BCF8091710190917201019790937201D0
:101170008093710191CF8091740190917501892BB9
:1011800021F460E081E10E943B0C80917401909118
:101190007501019789F480918E01823329F460E012
:1011A00081E10E943B0C08C0853634F061E081E1AA
:1011B0000E943B0C10928E018091740190917501F8
:1011C000029789F480918E01823329F460E081E1F5
:1011D0000E943B0C08C0883334F061E081E10E943A
:1011E0003B0C10928E0180918E018F5F80938E0157
:1011F000FF91EF91BF91AF919F918F917F916F91EF
:101200005F914F913F912F910F900FBE0F901F90C4
:101210001895833081F028F4813099F08230A1F064
:1012200008958730A9F08830B9F08430D1F48091E6
:1012300080008F7D03C0809180008F778093800035
:10124000089584B58F7702C084B58F7D84BD0895DD
:101250008091B0008F7703C08091B0008F7D809324
:10126000B00008950F931F939C01AAEFB5E00E9470
:101270002A17DC01CB019058AF4FBF4FCD01BB27E0
:1012800097FDB095AB2F8E3F01E0900760F48F3F44
:10129000910518F4682F80E029C06EEF962F981BF7
:1012A00080E06FEF24C08C3F13E0910760F48D3F26
:1012B00042E0940718F48E5F6FEF03C06CEF681B79
:1012C0008FEF90E014C08A3F05E0900769F08B3FF4
:1012D00014E0910728F494E0980F8FEF60E007C0C6
:1012E0006AEF681B862F01C080E060E09FEF292F26
:1012F00030E0E62FF0E0482F50E0CF01A0E0B0E072
:10130000BA2FA92F982F88278827AA27BB2760E004
:1013100070E0482B592B6A2B7B2BC901A0E0B0E071
:10132000DC019927882788279927BB278A019B01F9
:10133000082B192B2A2B3B2BC901B8011F910F91A8
:1013400008954F925F926F927F928F929F92AF9289
:10135000BF92CF92DF92EF92FF920F931F93CF93A2
:10136000DF930E946916CB010E9432090E944D0250
:101370004B015C010E94691620910901822F022E07
:10138000000C990BAA0BBB0BFC013197EA30F1055D
:1013900008F02BC2E25CFF4F0C945917C0E0D0E07C
:1013A00064C170E08091A1019091A2018617970716
:1013B00018F40E946916F5CFA50194018FE991E018
:1013C0000E94B902BEC0C090A101D090A201E12C40
:1013D000F12CC114D104E104F10441F00E9469161A
:1013E000A70196010E94D6166B017C016C2D70E05E
:1013F000A5019401E2C100E010E0E8012091A10103
:101400003091A201C217D307E0F4CE01A0E0B0E012
:101410007727662740E050E00E94D61680919D0114
:1014200090919E01820F931F0E9432090E944D02EB
:101430009B01AC01BE018FE991E00E94B9022396A5
:10144000DDCF8FE991E00E942E0380919D01909164
:101450009E0180589F4F90939E0180939D010F5F46
:101460001F4F0330110549F6CCC120919B013091EB
:101470009C018091A1019091A2018217930720F411
:1014800010929C0110929B0160919B0170919C01B4
:10149000A50194018FE991E00E94B90260919B013E
:1014A00070919C016150710920E030E0A9018FE941
:1014B00091E00E94B9028FE991E00E942E0349C198
:1014C000C5E0D0E0412C512C32014A940BEA0E9435
:1014D0006916A30192010E94D6166B017C01609FE0
:1014E000812D112486951C2D181B8090A1019090B0
:1014F000A201A12CB12C81149104A104B10441F0EA
:101500000E946916A50194010E94D6164B015C0148
:10151000DD24EE24FF24D60199278827FE2CED2C0C
:10152000DC2CCC248C299D29AE29BF299C01AD013E
:10153000212B682D70E08FE991E00E94B90221977C
:1015400031F68FE991E00E942E038FE991E0DF915F
:10155000CF911F910F91FF90EF90DF90CF90BF90B0
:10156000AF909F908F907F906F905F904F900C9472
:101570006F02C0E0D0E0C12CD12C7601CA94A5E066
:10158000BA2E8E018091A1019091A201081719072E
:1015900040F50E946916A70196010E94D6162B01FC
:1015A0003C01DC01CB019927AA27BB27BC015527A9
:1015B0004427BA2FA92F982F88279A01AB01282BEF
:1015C000392B4A2B5B2B842D6B2D0E943917481A1F
:1015D0002429B8018FE991E00E94B9020D5F1F4FE5
:1015E000D1CF8FE991E00E942E032196C330D1051F
:1015F00041F607C1C0E0D0E080919D0190919E012D
:101600000E9432090E944D029B01AC01BE018FE98C
:1016100091E00E94B9022196C530D10569F7C5E075
:10162000D0E080919D0190919E018D5C9C4C0E9428
:1016300032090E944D029B01AC01BE018FE991E08D
:101640000E94B9022196CA30D10559F78FE991E07D
:101650000E942E0380919D0190919E0180589F4F82
:1016600090939E0180939D01CCC08091A1019091A7
:10167000A201C817D90708F0A4C0E0910D0284E0C8
:10168000E89FF0011124EC53FE4F259135914591CF
:101690005491BE018FE991E00E94B9022196E5CFF5
:1016A0008091B7019091B801019620919B013091F2
:1016B0009C0182179307A0F410929C0110929B0149
:1016C0008FE991E00E946F028FE991E00E946F0222
:1016D0008FE991E00E946F028FE991E00E946F0212
:1016E000C4E0D0E060919B0170919C01CB01A0E02F
:1016F000B0E0772766272091A1013091A2013695AD
:10170000279540E050E00E94D61680919D0190916F
:101710009E01820F931F0E9432090E944D029B017D
:10172000AC0160919B0170919C018FE991E00E9456
:10173000B9028FE991E00E942E03219799F68091DA
:101740009D0190919E018150984F90939E018093AE
:101750009D0180919B0190919C01019690939C0129
:1017600080939B014EC0C090A101D090A201E12CBA
:10177000F12CC114D104E104F10441F00E94691676
:10178000A70196010E94D6166B017C01D12C809195
:10179000A1019091A201C816D90660F4B6018FE9A3
:1017A00091E00E943F01672B682B692B19F0812C77
:1017B000912C5401A5019401B6018FE991E00E949A
:1017C000B9028FE991E0DF91CF911F910F91FF90C6
:1017D000EF90DF90CF90BF90AF909F908F907F90D1
:1017E0006F905F904F900C942E032B301CF081E093
:1017F0008093090180910901811103C08AE08093DF
:101800000901DF91CF911F910F91FF90EF90DF9031
:10181000CF90BF90AF909F908F907F906F905F9090
:101820004F900895CF93DF93282F30E0F901E055D2
:10183000FE4F8491F901EC50FE4FD491F901EE5E18
:10184000FD4FC491CC2391F081110E940909EC2F26
:10185000F0E0EE0FFF1FEA55FE4FA591B491EC9119
:10186000ED2381E090E021F480E002C080E090E090
:10187000DF91CF9108951F93CF93DF93282F30E00E
:10188000F901E055FE4F8491F901EC50FE4FD491DF
:10189000F901EE5EFD4FC491CC23C1F0162F8111EA
:1018A0000E940909EC2FF0E0EE0FFF1FE85FFD4FEB
:1018B000A591B4919FB7F894111104C08C91D09563
:1018C000D82302C0EC91DE2BDC939FBFDF91CF9138
:1018D0001F910895CF93DF9390E0FC01EC50FE4FF1
:1018E0002491FC01EE5EFD4F8491882361F190E02C
:1018F000880F991FFC01E456FE4FC591D491FC015D
:10190000E85FFD4FA591B491611109C09FB7F894AC
:101910008881209582238883EC912E230BC062302E
:1019200061F49FB7F8948881322F309583238883A0
:10193000EC912E2B2C939FBF06C08FB7F894E881B3
:101940002E2B28838FBFDF91CF9108958E3008F022
:101950008E508770806480937C0080917A008064D0
:1019600080937A0080917A0086FDFCCF8091780088
:101970002091790090E0922B08953FB7F8948091E0
:10198000970190919801A0919901B0919A0126B583
:10199000A89B05C02F3F19F00196A11DB11D3FBFA7
:1019A000BA2FA92F982F8827820F911DA11DB11D35
:1019B000BC01CD0142E0660F771F881F991F4A9531
:1019C000D1F708958F929F92AF92BF92CF92DF92FC
:1019D000EF92FF920E94BD0C4B015C0188EBC82E78
:1019E0008BE0D82EE12CF12C0E94BD0CDC01CB0148
:1019F00088199909AA09BB09883E9340A105B10538
:101A000098F321E0C21AD108E108F10888EE880EA7
:101A100083E0981EA11CB11CC114D104E104F1049F
:101A200019F7FF90EF90DF90CF90BF90AF909F900D
:101A30008F9008951F920F920FB60F9211242F933B
:101A40003F938F939F93AF93BF9380910F02909199
:101A50001002A0911102B091120230910E0223E007
:101A6000230F2D3720F40196A11DB11D05C026E8D6
:101A7000230F0296A11DB11D20930E0280930F0229
:101A800090931002A0931102B093120280919701DB
:101A900090919801A0919901B0919A010196A11D90
:101AA000B11D8093970190939801A0939901B093F1
:101AB0009A01BF91AF919F918F913F912F910F907C
:101AC0000FBE0F901F901895789484B5826084BDE6
:101AD00084B5816084BD85B5826085BD85B5816032
:101AE00085BD80916E00816080936E0010928100B0
:101AF000809181008260809381008091810081606B
:101B0000809381008091800081608093800080912B
:101B1000B10084608093B1008091B00081608093B7
:101B2000B00080917A00846080937A0080917A007E
:101B3000826080937A0080917A00816080937A003D
:101B400080917A00806880937A001092C10080E0D2
:101B500090E00E94C0168D3009F448C06DE080E02E
:101B600090E00E94C8166091020181E090E00E941E
:101B7000C8166091090182E090E00E94C816609149
:101B8000070183E090E00E94C8166091050184E09F
:101B900090E00E94C8168091030190910401C4E670
:101BA000D0E0BE010E94451785E090E00E94C81673
:101BB0008091000190910101BE010E94451786E0CD
:101BC00090E00E94C8166091740187E090E00E9446
:101BD000C8166091730188E090E00E94C816609179
:101BE0000D0289E090E00E94C8164BC081E090E0B1
:101BF0000E94C0168093020182E090E00E94C0160D
:101C00008093090183E090E00E94C01690E09093D9
:101C100008018093070184E090E00E94C01690E0E4
:101C2000909306018093050185E090E00E94C01624
:101C300024E6829FC0011124909304018093030144
:101C400086E090E00E94C016E4E68E9FC001112459
:101C5000909301018093000187E090E00E94C016FC
:101C600090E0909375018093740188E090E00E9469
:101C7000C0168093730189E090E00E94C0168093A3
:101C80000D0280910201803F19F481E080936C0184
:101C900061E081E10E946A0C61E082E10E946A0CCD
:101CA00061E080E10E946A0C61E08FE00E946A0CB2
:101CB00062E080E00E946A0C62E081E00E946A0CAF
:101CC000F89410928000109281001092B00081E090
:101CD0008093700080936F00809181008160809379
:101CE00081008091B10081608093B100789486E199
:101CF000E6E5F1E0A5EBB1E001900D928A95E1F700
:101D000086E1E0E4F1E0ABECB1E001900D928A9560
:101D1000E1F786E1EAE2F1E0A1EEB1E001900D9297
:101D20008A95E1F786E1E4E1F1E0A7EFB1E0019007
:101D30000D928A95E1F7CDE0D2E005EB11E0C80104
:101D40000E940704C8010E942E0362E3C8010E949A
:101D500078020A5E1F4FC017D10789F78FE991E01B
:101D60000E9407048FE991E00E942E0362E38FE94D
:101D700091E00E94780280916C01882309F457C099
:101D800005EB11E06AEAC8010E9478020A5E1F4F63
:101D9000C017D107B9F76AEA8FE991E00E9478028B
:101DA00005EB11E0E12CF12C8091B7019091B80185
:101DB000E816F90660F42FEF3FEF4FEF50E0B70160
:101DC000C8010E94B902FFEFEF1AFF0AEDCF0A5EC9
:101DD0001F4F22E00D30120729F700E010E080913C
:101DE000A1019091A2010817190760F42FEF3FEFAE
:101DF0004FEF50E0B8018FE991E00E94B9020F5F08
:101E00001F4FEDCF85EB91E00E942E038BEC91E00C
:101E10000E942E0381EE91E00E942E0387EF91E055
:101E20000E942E038FE991E00E942E03A4CF83E14C
:101E30000E94A60CBC01990F880B990B61157105C6
:101E40008105910511F00E94B7160E94691620EDD8
:101E500037E040E050E00E94D61670938B0160930B
:101E60008A010E94691613E0C12ED12CE12CF12CBD
:101E7000A70196010E94D61660937B0170937C01A6
:101E800080937D0190937E010E946916A7019601BF
:101E90000E94D616609370010E946916A7019601F0
:101EA0000E94D61660936D01B4E62B2E312C05EB03
:101EB00011E060910701C8010E9478020A5E1F4F7D
:101EC000C017D107B1F7609105018FE991E00E9439
:101ED000780280918001882309F4FAC180917F0102
:101EE000882309F443C000918C0110918D018091E9
:101EF0008A0190918B010817190709F057C081E0FA
:101F000080937F0180917B0190917C01A0917D0164
:101F1000B0917E01FC01EE0FFF1FEE0FFF1FE05797
:101F2000FF4F2591359145915491609179017091C0
:101F30007A01E0917701F0917801A6E1FA2EFE9EF8
:101F4000C001FF9E900D11248B549E4F0E94B90238
:101F50002091770130917801F29EC001F39E900D9F
:101F600011248B549E4F0E942E0320C005EB11E0DC
:101F7000F801C280D380C114D10479F0E12CF12C96
:101F800020E030E0A901B701C8010E94B902FFEFCB
:101F9000EF1AFF0ACE14DF0499F7C8010E942E033E
:101FA0000A5E1F4FC017D10719F79DCF80918A0194
:101FB00090918B0188519C4F0817190709F059C05F
:101FC00010927F010E94691624E030E040E050E06A
:101FD0000E94D61670937801609377010E9469166B
:101FE00022E130E040E050E00E94D61670937A0182
:101FF000609379010E94691620ED37E040E050E0DF
:102000000E94D61670938B0160938A010E94691614
:1020100023E030E040E050E00E94D61660937B0160
:1020200070937C0180937D0190937E0105EB11E01C
:10203000F801C280D380C114D10479F0E12CF12CD5
:1020400020E030E0A901B701C8010E94B902FFEF0A
:10205000EF1AFF0ACE14DF0499F7C8010E942E037D
:102060000A5E1F4FC017D10719F710928D01109209
:102070008C0180918C0190918D018938934120F0E1
:1020800010928D0110928C018FE991E00E946F02F5
:1020900000E010E08091710190917201801791072A
:1020A00018F405E010E043C00115110559F020E0D7
:1020B00030E740E750E0B801615071098FE991E0E5
:1020C0000E94B902E091700184E0E89FF0011124C0
:1020D000E057FF4F2591359145915491B8018FE913
:1020E00091E00E94B9020F5F1F4FD4CF0530110558
:1020F00059F020E730E740E050E0B8016150710945
:102100008FE991E00E94B902E0916D0194E0E99FAE
:10211000F0011124E057FF4F2591359145915491DD
:10212000B8018FE991E00E94B9020F5F1F4F8091C3
:102130006E0190916F01059680179107B8F68FE9AF
:1021400091E00E942E038091710190917201059798
:1021500040F480916E0190916F01059708F06AC07C
:102160005FC005EB11E0E12CF12C8091B70190915B
:10217000B801E816F90660F420E030E740E750E0E7
:10218000B701C8010E94B902EFEFEE1AFE0AEDCFC7
:10219000C8010E942E030A5E1F4FC017D10719F70E
:1021A000109272011092710110926F0110926E01E3
:1021B000109280010E94691620ED37E040E050E067
:1021C0000E94D61670938B0160938A010E94E20CE4
:1021D00005EB11E0E12CF12C8091B7019091B80151
:1021E000E816F90658F420E030E0A901B701C8016B
:1021F0000E94B902FFEFEF1AFF0AEECFC8010E945A
:102200002E030A5E1F4FC017D10721F7A2CFC801C6
:102210000E942E030A5E1F4FC017D10709F043C06A
:1022200080918C0190918D01019690938D01809306
:102230008C0122C405EB11E0E12CF12C8091B70157
:102240009091B801E816F90660F420E730E740E025
:1022500050E0B701C8010E94B9022FEFE21AF20A5A
:10226000EDCFC8010E942E030A5E1F4FC017D10791
:1022700019F710926F0110926E0110927201109274
:102280007101109280010E94691620ED37E040E054
:1022900050E00E94D61670938B0160938A010E94D1
:1022A000E20C05EB11E0E12CF12C8091B70190914B
:1022B000B801E816F90608F0AACF20E030E0A9013D
:1022C000B701C8010E94B9028FEFE81AF80AEDCFF2
:1022D000209103013091040180918801909189013E
:1022E0002817390709F0FAC220910201822F022E25
:1022F000000C990BAA0BBB0BFC013197EA30F105DE
:1023000008F0DAC2EC5CFF4F0C94591705EB11E0B2
:102310000E946916CB010E9432090E944D024B01B6
:102320005C01C090B701D090B801E12CF12CC11430
:10233000D104E104F10441F00E946916A70196015D
:102340000E94D6166B017C016C2D70E0A5019401F2
:10235000C8010E94B902C8010E942E03C8010E9450
:102360006F020A5E1F4FC017D10791F6B1C2C0902D
:10237000B701D090B801E12CF12CC114D104E104D3
:10238000F10441F00E946916A70196010E94D61639
:102390006B017C010E946916CB010E9432090E94E8
:1023A0004D024B015C0165EBE62E61E0F62E0C2D33
:1023B00010E0A5019401B801C7010E94B902C7014C
:1023C0000E942E0396E1E90EF11CCE15DF0589F778
:1023D0007FC2E12CF12C87012091B7013091B80127
:1023E0000217130740F5C801A0E0B0E07727662781
:1023F00040E050E00E94D6168091860190918701BE
:10240000820F931F0E9432090E944D024B015C0112
:1024100055EBC52E51E0D52EA5019401B801C6019A
:102420000E94B902E6E1CE0ED11CCC15DD05A1F764
:102430000D5F1F4FD1CF85EB91E00E942E038BECF7
:1024400091E00E942E0381EE91E00E942E0387EF1F
:1024500091E00E942E03809186019091870180581F
:102460009F4F9093870180938601FFEFEF1AFF0A39
:1024700023E0E216F10409F0AECF2AC28091B70141
:102480009091B801019620918401309185018217C5
:10249000930720F4109285011092840105EB11E05E
:1024A0000E946916CB010E9432090E944D029B01D5
:1024B000AC016091840170918501C8010E94B9024C
:1024C00060918401709185016150710920E030E0D4
:1024D000A901C8010E94B902C8010E942E030A5E28
:1024E0001F4FC017D107E1F69AC133E0C32ED12C9C
:1024F0000E9469162FEF30E040E050E00E94D616AF
:102500008B019C01DC01CB019927AA27BB27BC01C9
:10251000552744278824982EA92EBA2E842A952A36
:10252000A62AB72A802F65E00E943917081B802A47
:102530000091B7011091B8012801612C712C411450
:1025400051046104710441F00E946916A3019201D3
:102550000E94D6162B013C01A5EBEA2EA1E0FA2E33
:10256000042D10E0A5019401B801C7010E94B90231
:1025700086E1E80EF11CCE15DF05A1F791E0C91A3E
:10258000D10809F0B5CF05EB11E0C8010E942E0378
:10259000C8010E946F020A5E1F4FC017D107A9F73A
:1025A00097C100E010E078018091B7019091B801E7
:1025B000E816F906A0F50E9469162FEF30E040E01A
:1025C00050E00E94D6162B013C01DC01CB0199277B
:1025D000AA27BB27BC01552744278824982EA92E5B
:1025E000BA2E842A952AA62AB72A842D65E00E944D
:1025F0003917481A8428F5EBCF2EF1E0DF2EA5011C
:102600009401B701C6010E94B902E6E1CE0ED11CC9
:10261000CC15DD05A1F7F3E0EF0EF11CC5CF85EB7E
:1026200091E00E942E038BEC91E00E942E0381EE3C
:1026300091E00E942E0387EF91E00E942E030F5F2E
:102640001F4F0330110509F0AECF42C105EB11E079
:10265000E12CF12C8091860190918701905C0E9481
:1026600032090E944D029B01AC01B701C8010E94D2
:10267000B9022FEFE21AF20A88E0E816F10451F7E6
:1026800048E0E42EF12C80918601909187019058CA
:102690000E9432090E944D029B01AC01B701C801A2
:1026A0000E94B9029FEFE91AF90AEEE0EE16F10472
:1026B00051F73EE0E32EF12C809186019091870145
:1026C00090540E9432090E944D029B01AC01B70157
:1026D000C8010E94B902FFEFEF1AFF0A22E1E216D9
:1026E000F10451F7C8010E942E0380918601909158
:1026F00087019C01305C30938701209386010A5E3C
:102700001F4FE2E00D301E0709F0A2CF80589F4B0B
:102710009093870180938601DBC005EB11E0E12CEB
:10272000F12C8091B7019091B801E816F906A0F458
:10273000E091730124E0E29FF0011124EC53FE4F7D
:102740002591359145915491B701C8010E94B90274
:102750008FEFE81AF80AE5CFC8010E942E030A5E3F
:102760001F4FC017D107D9F6B3C08091B701909120
:10277000B801019620918401309185018217930759
:10278000A0F4109285011092840185EB91E00E94E3
:102790006F028BEC91E00E946F0281EE91E00E944B
:1027A0006F0287EF91E00E946F0205EB11E06091EC
:1027B000840170918501CB01A0E0B0E07727662706
:1027C0002091B7013091B8012F5F3F4F40E050E0BA
:1027D0000E94D6168091860190918701820F931FE7
:1027E0000E9432090E944D029B01AC01609184015C
:1027F00070918501C8010E94B902C8010E942E0390
:102800000A5E1F4FC017D10791F680918601909103
:1028100087018150984F9093870180938601809122
:1028200084019091850101969093850180938401A4
:102830004FC0C090B701D090B801E12CF12CC11469
:10284000D104E104F10441F00E946916A701960148
:102850000E94D6166B017C010E946916CB010E9472
:1028600032090E944D024B015C0185EBE82E81E0AC
:10287000F82E0C2D10E0F7018281938108171907BB
:1028800058F4B801C7010E943F01672B682B692BE0
:1028900019F0812C912C5401A5019401B801C701B4
:1028A0000E94B902C7010E942E03F6E1EF0EF11C4F
:1028B000CE15DF0501F70CC02B301CF081E08093B2
:1028C000020180910201811103C08AE0809302011C
:1028D00081E090E09093890180938801209100012C
:1028E000309101018091820190918301281739076D
:1028F000D1F580910901843071F580910201843015
:1029000051F52091B7013091B801809184019091E7
:1029100085012817390719F481E08093810180919E
:10292000810181110E94A1098091A1019091A201D0
:10293000019620919B0130919C018217930769F4C5
:102940008FE991E00E946F028FE991E00E942E03CF
:102950001092810102C00E94A10981E090E0909351
:10296000830180938201809182019091830101967D
:1029700090938301809382018091880190918901D5
:102980000196909389018093880180917601882334
:1029900009F472C06DE080E090E00E94C81660917A
:1029A000020181E090E00E94C8166091090182E076
:1029B00090E00E94C8166091070183E090E00E94B9
:1029C000C8166091050184E090E00E94C8168091CD
:1029D000030190910401B1010E94451785E090E048
:1029E0000E94C8168091000190910101B1010E94DE
:1029F000451786E090E00E94C8166091740187E058
:102A000090E00E94C8166091730188E090E00E94F7
:102A1000C81660910D0289E090E00E94C816F894F3
:102A200060E081E10E943B0C60E080E10E943B0C91
:102A300060E082E10E943B0C60E08FE00E943B0C72
:102A40002FEF83ED90E3215080409040E1F700C0EC
:102A5000000061E081E10E943B0C61E080E10E94A6
:102A60003B0C61E082E10E943B0C61E08FE00E9440
:102A70003B0C10927601789480E090E0892B09F469
:102A800016CA0E94000010CACF93DF93EC0189851B
:102A90009A850E94F7178E819F8197FD05C060E09F
:102AA000DF91CF910C946A0CDF91CF9108958FE95B
:102AB00091E00E94441587EF91E00E94441581EE59
:102AC00091E00E9444158BEC91E00E94441585EB47
:102AD00091E00E94441584E191E00E9444158AE24D
:102AE00091E00E94441580E491E00E94441586E53F
:102AF00091E00C94441548E050E062E170E086E516
:102B000091E00E94C11547E050E062E170E080E48E
:102B100091E00E94C11546E050E062E170E08AE277
:102B200091E00E94C11545E050E062E170E084E16F
:102B300091E00E94C115E5EBF1E081E02FEF3FEF5E
:102B400092E080831182138212821582148237836D
:102B5000268310861286118683871486958786873A
:102B60001786108A118A128A769642E0ED30F407B1
:102B700041F749E050E06AE070E08FE991E00C94A1
:102B8000C115CF92DF92EF92FF920F931F93CF93D5
:102B9000DF93EC016B01F42EE52E198218861F8657
:102BA000188A198A1A8A81E08E878B871C8692E0A0
:102BB0009D8788838B01000F111F060F171F1D8330
:102BC0000C83C8010E945F179A878987009741F09C
:102BD000A80160E070E00E948018DB82CA8204C015
:102BE0001D821C821B821A82FE82EF8289818823C9
:102BF00041F061E08F2D0E946A0C60E08F2D0E94F1
:102C00003B0C8F2D9E2DFC01EE5EFD4FE491F0E01C
:102C1000EE0FFF1FE85FFD4F259134913C8B2B8B0E
:102C2000FC01EC50FE4FE491ED8BDF91CF911F91B1
:102C30000F91FF90EF90DF90CF9008958F929F9229
:102C4000AF92BF92CF92DF92EF92FF92CF93DF933A
:102C5000EC01688179818A819B816115710581050B
:102C6000910521F464E279ED8BE597E02DE133EFF6
:102C700041E050E00E94D61649015A019B01AC0187
:102C8000A7EAB1E40E94F5166B017C01ACEEB4EF4B
:102C9000A50194010E940317DC01CB018C0D9D1D41
:102CA000AE1DBF1DB7FF03C00197A109B0488883BF
:102CB0009983AA83BB83BC01CD019F77DF91CF911C
:102CC000FF90EF90DF90CF90BF90AF909F908F904C
:102CD00008958F929F92AF92BF92CF92DF92EF9220
:102CE000FF9260910A0170910B0180910C0190910B
:102CF0000D01611571058105910521F464E279EDFD
:102D00008BE597E02DE133EF41E050E00E94D616CD
:102D100049015A019B01AC01A7EAB1E40E94F516F2
:102D20006B017C01ACEEB4EFA50194010E94031786
:102D3000DC01CB018C0D9D1DAE1DBF1DB7FF03C077
:102D40000197A109B04880930A0190930B01A093C9
:102D50000C01B0930D01BC01CD019F77FF90EF9066
:102D6000DF90CF90BF90AF909F908F900895609329
:102D70000A0170930B0180930C0190930D0108954B
:102D8000F999FECF92BD81BDF89A992780B5089533
:102D9000262FF999FECF1FBA92BD81BD20BD0FB677
:102DA000F894FA9AF99A0FBE01960895052E97FBAA
:102DB0001EF400940E94ED1657FD07D00E940817DC
:102DC00007FC03D04EF40C94ED16509540953095C9
:102DD00021953F4F4F4F5F4F089590958095709587
:102DE00061957F4F8F4F9F4F08950E942A17A59F8F
:102DF000900DB49F900DA49F800D911D11240895F6
:102E0000B7FF0C94F5160E94F516821B930B0895DC
:102E1000A1E21A2EAA1BBB1BFD010DC0AA1FBB1FDE
:102E2000EE1FFF1FA217B307E407F50720F0A21B50
:102E3000B30BE40BF50B661F771F881F991F1A94BD
:102E400069F760957095809590959B01AC01BD01E7
:102E5000CF010895A29FB001B39FC001A39F700D41
:102E6000811D1124911DB29F700D811D1124911D92
:102E70000895991B79E004C0991F961708F0961BD6
:102E8000881F7A95C9F780950895AA1BBB1B51E14D
:102E900007C0AA1FBB1FA617B70710F0A61BB70BCA
:102EA000881F991F5A95A9F780959095BC01CD016F
:102EB0000895EE0FFF1F0590F491E02D09940F93F4
:102EC0001F93CF93DF938230910510F482E090E05E
:102ED000E0911502F091160220E030E0A0E0B0E0B1
:102EE000309719F1408151810281138148175907A8
:102EF000C8F08417950769F4109731F012960C9377
:102F0000129713961C9327C0009315021093160274
:102F100022C02115310519F04217530718F49A0100
:102F2000BD01EF01DF01F801DBCF21153105F9F01B
:102F3000281B390B2430310580F48A819B8161156F
:102F4000710521F0FB019383828304C090931602E4
:102F500080931502FE01329644C0FE01E20FF31F7A
:102F60008193919322503109398328833AC020916B
:102F7000130230911402232B41F42091100130915F
:102F80001101309314022093130220910E0130910D
:102F90000F012115310541F42DB73EB740911201C3
:102FA00050911301241B350BE0911302F091140290
:102FB000E217F307A0F42E1B3F0B2817390778F010
:102FC000AC014E5F5F4F2417350748F04E0F5F1F6F
:102FD00050931402409313028193919302C0E0E056
:102FE000F0E0CF01DF91CF911F910F910895CF9322
:102FF000DF93009709F481C0FC013297138212829B
:10300000A0911502B0911602109781F420813181B0
:10301000820F931F20911302309114022817390751
:1030200051F5F0931402E093130267C0ED0120E024
:1030300030E0CE17DF0740F44A815B819E014115E5
:103040005105F1F0EA01F5CFD383C283408151816C
:10305000840F951FC817D90759F488819981840F67
:10306000951F0296918380838A819B8193838283BB
:103070002115310529F4F0931602E09315023DC0A5
:10308000E901FB83EA8349915991C40FD51FEC17DD
:10309000FD0761F480819181840F951F0296E901FB
:1030A00099838883828193819B838A83E0E0F0E027
:1030B00012968D919C911397009719F0FD01DC01F8
:1030C000F7CF8D919C9111979D012E5F3F4F820FFD
:1030D000931F20911302309114022817390769F4C5
:1030E000309729F4109216021092150202C0138232
:1030F0001282B0931402A0931302DF91CF9108952E
:10310000DC0101C06D9341505040E0F7089511E09B
:10311000C4E1D1E004C0FE010E9459172196C531D7
:08312000D107C9F7F894FFCFB5
:10312800E80304E803320032000401000000000054
:04313800170220005A
:00000001FF
