:020000040000FA
:100000000C94DE000C9406010C9406010C9406017D
:100010000C9406010C9406010C9406010C94060144
:100020000C9406010C94500A0C9406010C940601E1
:100030000C9406010C947B070C9406010C940601A9
:100040000C9431070C9406010C94FF060C94D9060D
:100050000C9406010C9406010C9406010C94060104
:100060000C9406010C940601000000000000000042
:100070000000000000000000000000000000000080
:10008000010101010101010101010101020202025C
:10009000020202020303030303030404040405052C
:1000A00005050506060606070707080808090909E1
:1000B0000A0A0A0B0B0B0C0C0D0D0D0E0E0F0F1078
:1000C00010111112121313141415151616171818EF
:1000D00019191A1B1B1C1D1D1E1F1F202122222344
:1000E000242526262728292A2A2B2C2D2E2F30316D
:1000F00032333435363738393A3B3C3D3E3F404168
:10010000424445464748494B4C4D4E505152545538
:100110005658595A5C5D5E606163646667696A6CD3
:100120006D6F7072737577787A7C7D7F818284863B
:1001300088898B8D8F91929496989A9C9EA0A2A468
:10014000A6A8AAACAEB0B2B4B6B8BABCBFC1C3C55B
:10015000C7CACCCED1D3D5D7DADCDFE1E3E6E8EB12
:10016000EDF0F2F5F7FAFCFF000000002400270094
:100170002A0000000008000201000003040700003C
:10018000000000000000010204081020408001026D
:1001900004081020010204081020000000002500BF
:1001A00028002B00040404040404040402020202D4
:1001B00002020303030303034B0BDC1011241FBED5
:1001C000CFEFD4E0DEBFCDBF11E0A0E0B1E0E0E2D0
:1001D000F7E202C005900D92A632B107D9F722E0EE
:1001E000A6E2B1E001C01D92AF3AB207E1F710E01C
:1001F000CDEDD0E004C02197FE010E945112CC3D0C
:10020000D107C9F70E94D30B0C9483130C94000000
:10021000CF92DF92EF92FF920F931F939C01AAEF70
:10022000B5E00E940E12DC01CB019058AF4FBF4FDA
:10023000CD01BB2797FDB095AB2F8E3F21E09207F4
:1002400058F5282F8F3F910508F445C06EEF681BC5
:10025000862F30E02FEF682F70E090E080E0CB0138
:1002600077276627D12CF12CE12C632B7D298E2951
:100270009F29022F10E030E020E0322F212F102F95
:100280000027602B712B822B932B1F910F91FF90D6
:10029000EF90DF90CF9008958C3F23E0920768F4B1
:1002A0008D3F22E0920728F432E0380F2FEF80E0F4
:1002B000D2CF2CEF281B3FEFFACF8A3F25E09207E1
:1002C00069F03AEF381B8B3F24E0920740F48C5FD3
:1002D0003FEF20E0C0CF30E08FEFBDCF30E020E037
:1002E000FBCFAF92BF92CF92DF92EF92FF920F932C
:1002F0001F93CF93DF936C017B018B01040F151FBC
:10030000EB015E01AE18BF08C017D10759F0699123
:10031000D601ED91FC910190F081E02DC601099587
:10032000892B79F7C501DF91CF911F910F91FF9034
:10033000EF90DF90CF90BF90AF900895FC01538D68
:10034000448D252F30E0842F90E0821B930B5417AF
:1003500010F0CF96089501970895FC01918D828D3C
:10036000981761F0A28DAE0FBF2FB11D5D968C91D5
:10037000928D9F5F9F73928F90E008958FEF9FEF14
:100380000895FC01918D828D981731F0828DE80FD0
:10039000F11D858D90E008958FEF9FEF0895FC018A
:1003A000918D228D892F90E0805C9F4F821B910957
:1003B0008F739927089588E491E00E94CF0121E08E
:1003C000892B09F420E0822F089580E090E0892BAA
:1003D00029F00E94DB0181110C9400000895FC01BA
:1003E000A48DA80FB92FB11DA35ABF4F2C91848D96
:1003F00090E001968F739927848FA689B7892C93F3
:10040000A089B1898C91837080648C93938D848D45
:10041000981306C00288F389E02D80818F7D808348
:100420000895EF92FF920F931F93CF93DF93EC0108
:1004300081E0888F9B8D8C8D98131AC0E889F9898B
:10044000808185FF15C09FB7F894EE89FF8960838E
:10045000E889F98980818370806480839FBF81E00F
:1004600090E0DF91CF911F910F91FF90EF90089551
:10047000F62E0B8D10E00F5F1F4F0F731127E02E2C
:100480008C8D8E110CC00FB607FCFACFE889F98964
:10049000808185FFF5CFCE010E94EF01F1CFEB8D7A
:1004A000EC0FFD2FF11DE35AFF4FF0829FB7F89438
:1004B0000B8FEA89FB8980818062CFCFCF93DF9356
:1004C000EC01888D8823B9F0AA89BB89E889F9896C
:1004D0008C9185FD03C0808186FD0DC00FB607FCA1
:1004E000F7CF8C9185FFF2CF808185FFEDCFCE01D4
:1004F0000E94EF01E9CFDF91CF91089590E0FC01D8
:10050000EE58FE4F2491FC01EA57FE4F3491FC0156
:10051000EC55FE4FE491EE23C9F0222339F023304D
:1005200001F1A8F4213019F1223029F1F0E0EE0FA9
:10053000FF1FE656FE4FA591B4918FB7F894EC914A
:10054000611126C030953E233C938FBF089527301C
:10055000A9F02830C9F0243049F7809180008F7DC0
:1005600003C0809180008F7780938000DFCF84B5B7
:100570008F7784BDDBCF84B58F7DFBCF8091B000BA
:100580008F778093B000D2CF8091B0008F7DF9CF6C
:100590003E2BDACFCF93DF9390E0FC01EA57FE4F7A
:1005A00024918C559E4FFC0184918823D1F090E0DA
:1005B000880F991FFC01E859FE4FA591B491FC01E9
:1005C000E656FE4FC591D49161110EC09FB7F894C5
:1005D0008C91E22FE0958E238C932881E223E8838F
:1005E0009FBFDF91CF9108958FB7F894EC91E22BE4
:1005F000EC938FBFF6CF3FB7F8948091360190917E
:100600003701A0913801B091390126B5A89B05C0EA
:100610002F3F19F00196A11DB11D3FBFBA2FA92F81
:10062000982F8827BC01CD01620F711D811D911D7E
:1006300042E0660F771F881F991F4A95D1F70895EA
:10064000CF93DF9300D000D0CDB7DEB769837A8334
:100650008B839C83DE011196CE010596ED91F0E02F
:10066000E859FF4F44919D0121503109F901408320
:100670008A179B0799F769817A818B819C810F90FA
:100680000F900F900F90DF91CF910895FF920F93ED
:100690001F93CF93DF93EC01FF24F394F60E28858C
:1006A0002F1581F109851A85215041F16F3FE1F441
:1006B00030E050E040E06FEF7FEF80E090E00E949C
:1006C000BA11B901F8014C815D81CF01801B910BFA
:1006D00084179507B0F44081469FC001479F900D55
:1006E000112490833196EFCF8F2D90E0982F88279B
:1006F0000197622F70E00E942912E4CF70E060E061
:10070000E1CFF886DF91CF911F910F91FF9008956F
:100710008F929F92AF92BF92CF92DF92EF92FF9211
:100720001F93CF93DF93FC01828193816817790730
:10073000A8F54A01AA24BB24C82DC32ED42EE52E29
:10074000FF241C2DD22F8085882361F0889E4001D4
:100750001124C92D8C9D600111241D2D829FD00173
:100760001124DB2FA685E184F2849385A91322C08E
:10077000CB01880F991F680F791F6E0D7F1DA38510
:10078000A60FB72FB11DCC93A485A60FB72FB11D0F
:100790001C938585680F711DFB01D083DF91CF917C
:1007A0001F91FF90EF90DF90CF90BF90AF909F9000
:1007B0008F900895660F771F660F771F6E0D7F1D50
:1007C000252F332744275527882349F090E0829F1F
:1007D0007001839FF00C929FF00C11242F2DA60F17
:1007E000B72FB11D2C93CBCFCF92DF92EF92FF9218
:1007F0000F931F93CF93DF93CDB7DEB729970FB633
:10080000F894DEBF0FBECDBF8C01DC0119968D912F
:100810009C91892B09F473C00E94FB02F801C784E4
:10082000D088E188F2886C157D058E059F0520F43F
:100830006787708B818B928BF801C784D088E188A1
:10084000F2886C197D098E099F096C32714081050F
:10085000910510F3F894D80114968D919C911597F9
:100860009A8389831996ED91FC917F01BFEFEB1A72
:10087000FB0A80818987F80190810388F489E02D43
:10088000D80155968C91992309F448C09081982BF2
:1008900098879081809589238F838F818C8388E0CE
:1008A0008B8358856F8149853B812C8189819A8111
:1008B000D701508347FD252F3A952083262F39F005
:1008C000441F00C000006083000000C0F2CF38E089
:1008D0004D9160830000019761F7D8015496FC9315
:1008E000EE93539749873B832C839A83898378942B
:1008F0000E94FB02F8016787708B818B928B29968F
:100900000FB6F894DEBF0FBECDBFDF91CF911F9120
:100910000F91FF90EF90DF90CF9008959081982BEA
:1009200098879081809589238F838F818E8388E03B
:100930008D8358856F8149853D812E8189819A817A
:10094000D701508347FD252F00C000C0208300C081
:1009500000C000C000C000C060830000262F3A9590
:1009600041F0441F000000C000C000C000C000C033
:10097000E8CF38E04D9100C0608300C0019709F7CF
:10098000D8015496FC93EE93539749873D832E8369
:10099000ACCFCF93DF93EC018E819F8197FD07C091
:1009A00061E00E94CA0260E08E810E947E0281E0C6
:1009B0008983DF91CF910895FC014481558170E0D6
:1009C00060E0818592850C947C134F925F926F92C8
:1009D0007F928F929F92AF92BF92CF92DF92EF92CF
:1009E000FF920F931F93CF93DF938C010E944C11C2
:1009F000CB010E9408010E9420034B015C010E9470
:100A00004C1180910901EFEFE80FE73008F0C4C105
:100A10000E2E000CFF0BE15FFA4F0C9451121605DD
:100A20003F056D05C905FD054606890670E0809104
:100A3000E7019091E8018617970718F40E944C117E
:100A4000F5CFA501940185EE91E00E94880385EE23
:100A500091E00E94F40385EE91E0DF91CF911F9128
:100A60000F91FF90EF90DF90CF90BF90AF909F904D
:100A70008F907F906F905F904F900C94DC04C090AB
:100A8000E701D090E801F12CE12CC114D104E1047C
:100A9000F10439F00E944C11A70196010E94BA118D
:100AA0006B016C2D70E0A501940185EE91E00E9430
:100AB000880385EE91E0DF91CF911F910F91FF9018
:100AC000EF90DF90CF90BF90AF909F908F907F90EE
:100AD0006F905F904F900C94F403F12CE12C48013F
:100AE000110FAA08BB08412C512C32016394E70175
:100AF0002091E7013091E801C217D307E8F4BE0165
:100B000090E080E0CB017727662750E040E00E942C
:100B1000BA118091460190914701820F931F0E9464
:100B200008010E9420039B01AC01BE0185EE91E00B
:100B30000E9488032396DCCF85EE91E00E94F403A7
:100B4000C301B201A50194010E94BA11809146012E
:100B500090914701280F391F309347012093460198
:100B60008FEFE81AF80A83E0E816F10409F0BFCF26
:100B7000DF91CF911F910F91FF90EF90DF90CF9079
:100B8000BF90AF909F908F907F906F905F904F90AD
:100B9000089520914401309145018091E7019091A1
:100BA000E8018217930720F4109245011092440146
:100BB0006091440170914501A501940185EE91E099
:100BC0000E94880360914401709145016150710950
:100BD00020E030E0A90185EE91E00E94880385EED7
:100BE00091E00E94F40380914401909145010196A7
:100BF0009093450180934401BBCFC5E0D0E0412CE8
:100C0000512C32014A94EBEA8E2E0E944C11A30122
:100C100092010E94BA11162F972E5C01689D812DBA
:100C200011248695012F081BC090E701D090E801A0
:100C3000F12CE12CC114D104E104F10439F00E943B
:100C40004C11A70196010E94BA116B01812F992DB9
:100C5000D501AC0133272227222733275527BA2F66
:100C6000A92F982F8827AA27BB27822B932BA42B49
:100C7000B52B9C01AD01202B6C2D70E085EE91E031
:100C80000E948803219709F0C0CFE1CED0E0C0E0F8
:100C9000C12CD12C7601CA9445E0B42E8E018091EE
:100CA000E7019091E8010817190750F50E944C11CF
:100CB000A70196010E94BA11E62F462F572FBC01BB
:100CC000DA019927882788279927BB27762F652F50
:100CD000542F4427662777279A01AB01282B392BFD
:100CE0004A2B5B2B8E2F6B2D0E941D12E81B2E2B87
:100CF000B80185EE91E00E9488030D5F1F4FCFCFB2
:100D000085EE91E00E94F4032196C330D10531F6BF
:100D10002FCFD0E0C0E080914601909147010E9422
:100D200008010E9420039B01AC01BE0185EE91E009
:100D30000E9488032196C530D10569F7809146014C
:100D4000909147018D5C9C4C0E9408010E942003F9
:100D50009B01AC01BE0185EE91E00E9488032196C3
:100D6000CA30D10559F785EE91E00E94F40398014D
:100D7000110F440B550B60E070E081E090E00E94A1
:100D8000BA118091460190914701280F391F309385
:100D9000470120934601ECCE87301CF081E0809320
:100DA0000901809109018111E3CE87E08093090157
:100DB000DFCE1F920F920FB60F9211242F933F9305
:100DC0004F935F936F937F938F939F93AF93BF9353
:100DD000EF93FF9388E491E00E94EF01FF91EF9180
:100DE000BF91AF919F918F917F916F915F914F9143
:100DF0003F912F910F900FBE0F901F9018951F924B
:100E00000F920FB60F9211242F938F939F93EF930E
:100E1000FF93E0915801F09159018081E0915E01CA
:100E2000F0915F0182FD1BC09081809161018F5F15
:100E30008F7320916201821741F0E0916101F0E02F
:100E4000E85BFE4F958F80936101FF91EF919F9139
:100E50008F912F910F900FBE0F901F90189580814A
:100E6000F4CF1F920F920FB60F9211242F933F933E
:100E70008F939F93AF93BF938091320190913301F1
:100E8000A0913401B09135013091310123E0230F5D
:100E90002D3758F50196A11DB11D20933101809386
:100EA000320190933301A0933401B09335018091C6
:100EB000360190913701A0913801B0913901019626
:100EC000A11DB11D8093360190933701A093380185
:100ED000B0933901BF91AF919F918F913F912F9125
:100EE0000F900FBE0F901F90189526E8230F0296C3
:100EF000A11DB11DD2CF1F920F920FB60F921124D8
:100F00002F933F938F939F9380E480937C008091F5
:100F10007A00806480937A0080917A0086FDFCCF0D
:100F200090917800809179008927982789279C01E2
:100F3000285431402832310508F454C0245A31096C
:100F40002832310508F451C0245A310928323105BC
:100F500008F44EC082559240889708F04CC084E057
:100F600090E020912F01309130012115310509F4D5
:100F70004BC2215031093093300120932F0100974B
:100F800009F48EC0232B09F08BC084309105B1F594
:100F900024E630E03093300120932F0120912C0182
:100FA000222379F020912A0130912B012430310540
:100FB000DCF52F5F3F4F30932B0120932A011092D5
:100FC0002C0120912A0130912B012115310589F541
:100FD000049719F481E080933A0110922E01109247
:100FE0002D015EC081E090E0BCCF82E090E0B9CFFF
:100FF00083E090E0B6CF90E080E0B3CF8130910500
:1010000021F421E020932E01C3CF8330910521F4F8
:1010100021E020932D01BCCF8230910509F0BECF95
:1010200021E020932C01B4CF10922B0110922A01C1
:10103000C6CF21303105E9F580912E01882359F082
:101040008091280190912901019690932901809324
:10105000280110922E0180912D01882359F0809152
:1010600028019091290101979093290180932801EB
:1010700010922D018091280190912901039724F06D
:101080001092290110922801809128019091290144
:1010900097FF06C082E090E0909329018093280199
:1010A0009F918F913F912F910F900FBE0F901F90A6
:1010B00018952230310509F04FC080912801909198
:1010C000290181309105A9F480912E01882339F0FE
:1010D000809102018F5F8093020110922E01809116
:1010E0002D018823E9F28091020181508093020151
:1010F00076CF82309105A9F480912E01882339F0B2
:10110000809109018F5F8093090110922E018091D7
:101110002D01882329F280910901815080930901D2
:101120005ECF892B09F0BCCF80912E01882349F036
:10113000809109018F5F80930901809302011092D1
:101140002E0180912D01882309F4AACF80910901F5
:10115000815080930901CACF2330310509F058C16D
:10116000809128019091290181309105D9F58091D4
:101170002E01882359F0809107019091080108966B
:10118000909308018093070110922E0180912D0108
:10119000882359F080910701909108010897909356
:1011A00008018093070110922D0180910701909111
:1011B00008011816190634F081E090E090930801B8
:1011C0008093070180910701909108018F3F91055D
:1011D00009F00CF465CF8FEF90E0909308018093B5
:1011E00007015ECF82309105D9F580912E018823C9
:1011F00059F080910501909106010896909306019F
:101200008093050110922E0180912D01882359F0C1
:1012100080910501909106010897909306018093B3
:10122000050110922D01809105019091060118167B
:10123000190634F081E090E0909306018093050157
:1012400080910501909106018F3F910509F00CF402
:1012500027CF8FEF90E0909306018093050120CF78
:10126000892B09F01DCF80912E01882379F0809180
:101270000701909108010896909308018093070157
:10128000909306018093050110922E0180912D010B
:10129000882379F080910701909108010897909335
:1012A0000801809307019093060180930501109235
:1012B0002D0180910701909108011816190654F02C
:1012C00081E090E0909308018093070190930601DC
:1012D0008093050180910701909108018F3F91054E
:1012E00009F00CF4DDCE8FEF90E09093080180932D
:1012F0000701B1CF82309105E1F580912E0188235D
:1013000061F08091000190910101845F9140909380
:1013100001018093000110922E0180912D018823FC
:1013200061F080910001909101018C509E4F90934B
:1013300001018093000110922D0180910001909194
:101340000101843F914034F484EF91E090930101D6
:1013500080930001809100019091010181319742B9
:101360000CF49ECE80E197E29093010180930001FE
:1013700097CE892B09F094CE80912E01882381F09D
:101380008091030190910401845F91409093040146
:1013900080930301909301018093000110922E012C
:1013A00080912D01882381F08091030190910401A7
:1013B0008C509E4F90930401809303019093010100
:1013C0008093000110922D018091030190910401FE
:1013D000843F914054F484EF91E090930401809312
:1013E000030190930101809300018091030190918A
:1013F0000401813197420CF453CE80E197E290933F
:10140000040180930301B0CF009709F0BECD48CE10
:101410002430310509F044CE8091280190912901B2
:101420008130910509F066CF80912E01882361F00B
:101430008091030190910401845F91409093040195
:101440008093030110922E0180912D01882361F079
:1014500080910301909104018C509E4F9093040160
:101460008093030110922D0180910301909104015A
:10147000843F914034F484EF91E090930401809391
:1014800003018091030190910401813197420CF492
:1014900007CE80E197E2909304018093030100CE90
:1014A0001F920F920FB60F9211242F933F934F93D9
:1014B0005F936F937F938F939F93AF93BF93EF93BC
:1014C000FF9380912A0190912B018230910509F4BC
:1014D0005DC07CF50097C9F161E0019709F457C040
:1014E00020912801309129012115310509F46DC0A1
:1014F00080912601909127012130310509F05EC0CD
:101500008233910509F461C08536910544F061E0AC
:101510008FE00E947E021092270110922601809196
:10152000260190912701019690932701809326012F
:101530001CC083309105B9F1049791F660E082E117
:101540000E947E0261E081E134C061E08FE00E9490
:101550007E0261E080E10E947E0261E081E10E9402
:101560007E0261E082E10E947E02FF91EF91BF91D5
:10157000AF919F918F917F916F915F914F913F912B
:101580002F910F900FBE0F901F90189560E080E193
:101590000E947E0261E081E10E947E0261E082E1C0
:1015A0000E947E029DCF60E081E10E947E0261E0A8
:1015B00082E10E947E0261E080E1F2CF22303105BB
:1015C00009F0ADCF8233910529F460E08FE00E94ED
:1015D0007E02A5CFC8970CF4A2CF99CFCF92DF920D
:1015E000EF92FF920F931F93CF93DF93EC016B0168
:1015F000F42EE52E198218861F86188A198A1A8AEF
:1016000081E08E878B871C8692E09D8788838B0183
:10161000000F111F060F171F1D830C83C8010E94A6
:1016200057129A878987009789F1A80170E060E0D6
:101630000E947C13DB82CA82FE82EF82898188232A
:1016400041F061E08F2D0E94CA0260E08F2D0E9460
:101650007E028F2D9E2DFC01EC55FE4FE491F0E0B3
:10166000EE0FFF1FE656FE4F259134913C8B2B8BDE
:10167000FC01EA57FE4FE491ED8BDF91CF911F9172
:101680000F91FF90EF90DF90CF9008951D821C8204
:101690001B821A82D1CF10924B0110924A0188EE20
:1016A00093E0A0E0B0E080934C0190934D01A093B3
:1016B0004E01B0934F0188E191E0909349018093EE
:1016C000480185EC90E0909355018093540184EC9F
:1016D00090E0909357018093560180EC90E09093B6
:1016E00059018093580181EC90E090935B018093C5
:1016F0005A0182EC90E090935D0180935C0186EC4E
:1017000090E090935F0180935E01109261011092CE
:101710006201109263011092640145E050E062E1C1
:1017200070E085E992E00E94EE0A46E050E062E156
:1017300070E08FE792E00E94EE0A47E050E062E13D
:1017400070E089E692E00E94EE0A48E050E062E133
:1017500070E083E592E00E94EE0AEBEFF1E081E0B9
:101760002FEF3FEF92E08083118213821282158265
:101770001482378326831086128611868387148607
:10178000958786871786108A118A128A769642E094
:10179000E335F40741F749E050E06AE070E085EE98
:1017A00091E00C94EE0ACF93DF9300D000D000D0EC
:1017B000CDB7DEB7789484B5826084BD84B581608E
:1017C00084BD85B5826085BD85B5816085BD80910C
:1017D0006E00816080936E00109281008091810084
:1017E000826080938100809181008160809381007C
:1017F000809180008160809380008091B10084603E
:101800008093B1008091B00081608093B00080919E
:101810007A00846080937A0080917A00826080935D
:101820007A0080917A00816080937A0080917A00BA
:10183000806880937A001092C10090E080E00E945E
:10184000A4118D3009F427C16DE090E080E00E9482
:10185000AC116091020181E090E00E94AC116091B6
:10186000090182E090E00E94AC116091070183E0E1
:1018700090E00E94AC116091050184E090E00E942C
:10188000AC11809103019091040164E670E00E9424
:101890003D1285E090E00E94AC1180910001909192
:1018A000010164E670E00E943D1286E090E00E9433
:1018B000AC11E0915801F091590182E08083E091F0
:1018C0005401F09155011082E0915601F0915701B9
:1018D0008FEC808310926001E0915C01F0915D01DA
:1018E00086E08083E0915A01F0915B018081806104
:1018F0008083E0915A01F0915B0180818860808350
:10190000E0915A01F0915B01808180688083E091D1
:101910005A01F0915B0180818F7D808361E08FE0CF
:101920000E94CA0261E081E10E94CA0261E080E196
:101930000E94CA0261E082E10E94CA02F8941092F9
:101940008000109281001092B00081E080937000BE
:1019500080936F00809181008160809381008091ED
:10196000B10081608093B100789486E1E5E9F2E00E
:10197000ABEFB1E001900D928A95E1F786E1EFE7D8
:10198000F2E0A1E1B2E001900D928A95E1F786E1E3
:10199000E9E6F2E0A7E2B2E001900D928A95E1F764
:1019A00086E1E3E5F2E0ADE3B2E001900D928A95C5
:1019B000E1F74BEF51E05A83498389819A810E9474
:1019C000C90489819A810E94F40362E389819A8122
:1019D0000E94460389819A8146969A83898383551A
:1019E000924059F785EE91E00E94C90485EE91E09E
:1019F0000E94F40362E385EE91E00E9446031AE040
:101A0000212E312C412C512C32016394309107014D
:101A10003983632F8BEF91E00E944603698181E156
:101A200092E00E944603698187E292E00E944603A9
:101A300069818DE392E00E9446036091050185EE85
:101A400091E00E9446038091030190910401AC0152
:101A5000415051092091420130914301241735072B
:101A60000CF48BC0B1010E943D126B018091020108
:101A7000EFEFE80FE73008F078C30E2E000CFF0BF5
:101A8000EC5BF24F0C945112820D8D0EC10E2E0F95
:101A9000760FE40F421081E090E00E94A411809341
:101AA000020182E090E00E94A4118093090183E08A
:101AB00090E00E94A41190E09093080180930701A8
:101AC00084E090E00E94A41190E09093060180933E
:101AD000050185E090E00E94A41124E6829FC001E8
:101AE0001124909304018093030186E090E00E940A
:101AF000A41134E6839FC0011124909301018093C7
:101B00000001D7CE4BEF51E05A8349830E944C111C
:101B1000CB010E9408010E9420034B015C01C09090
:101B2000FD01D090FE01F12CE12CC114D104E1049F
:101B3000F10439F00E944C11A70196010E94BA11DC
:101B40006B016C2D70E0A501940189819A810E943E
:101B5000880389819A810E94F40389819A810E9475
:101B6000DC0489819A8146969A83898383559240C1
:101B700069F6109243011092420180910001909108
:101B80000101AC014150510920913C0130913D01CE
:101B900024173507E4F120910901243009F0F2C23D
:101BA00020910201243009F0EDC24091FD015091D5
:101BB000FE0120913E0130913F014217530719F475
:101BC00031E030933B0120913B01222331F0B10100
:101BD0000E943D12CB010E94E5048091E7019091A3
:101BE000E801019620914401309145018217930745
:101BF00051F485EE91E00E94DC0485EE91E00E94B4
:101C0000F40310923B0110923D0110923C0180912F
:101C10003C0190913D01019690933D0180933C01E0
:101C200080914201909143010196909343018093EA
:101C3000420180913A01882309F462C06DE090E08E
:101C400080E00E94AC116091020181E090E00E946E
:101C5000AC116091090182E090E00E94AC116091AA
:101C6000070183E090E00E94AC116091050184E0DF
:101C700090E00E94AC11809103019091040164E610
:101C800070E00E943D1285E090E00E94AC118091CE
:101C900000019091010164E670E00E943D1286E02F
:101CA00090E00E94AC11F89460E08FE00E947E0208
:101CB00060E080E10E947E0260E081E10E947E029D
:101CC00060E082E10E947E024FEF53ED80E34150DD
:101CD00050408040E1F700C0000061E08FE00E94CA
:101CE0007E0261E080E10E947E0261E081E10E946B
:101CF0007E0261E082E10E947E0210923A017894B5
:101D000020E030E0232B09F481CE0E94DB01882300
:101D100009F47CCE0E94000079CEC090FD01D090E5
:101D2000FE01F12CE12CC114D104E104F10439F0DD
:101D30000E944C11A70196010E94BA116B01C98241
:101D40000E944C11CB010E9408010E9420036B01EC
:101D50007C010BEF11E05981452F50E05A834983F4
:101D6000A701960169817A81C8010E948803C80190
:101D70000E94F4030A5E1F4F82E00335180781F7C3
:101D8000F8CE10E000E00D2C000CEE08FF081E83DA
:101D90000D832091FD013091FE014D815E8142173E
:101DA000530730F18BEF91E00E94F40381E192E060
:101DB0000E94F40387E292E00E94F4038DE392E034
:101DC0000E94F403C301B201A70196010E94BA1157
:101DD0008091400190914101280F391F30934101BA
:101DE000209340010F5F1F4F0330110581F6C1CED4
:101DF0004D815E81BA0190E080E0CB0177276627B4
:101E000050E040E00E94BA11809140019091410160
:101E1000820F931F0E9408010E94200369837A8326
:101E20008B839C83BBEFAB2EB1E0BB2E29813A8123
:101E30004B815C816D817E81C5010E94880356E1E2
:101E4000A50EB11C83E5A81682E0B80679F72D81AE
:101E50003E812D5F3F4F3E832D839BCF8091FD01BF
:101E60009091FE01019620913E0130913F01821731
:101E7000930720F410923F0110923E014BEF51E086
:101E80005A8349830E944C11CB010E9408010E9491
:101E900020039B01AC0160913E0170913F0189815B
:101EA0009A810E94880360913E0170913F016150C8
:101EB000710920E030E0A90189819A810E9488039C
:101EC00089819A810E94F40389819A8146969A8336
:101ED000898383559240B1F680913E0190913F01F4
:101EE000019690933F0180933E0143CE03E010E0C2
:101EF0000E944C112FEF30E040E050E00E94BA11F8
:101F00009B01AB01BC01DA01992788278827992713
:101F1000BB27CC24D42EE52EF62EEE24FF24C82A8F
:101F2000D92AEA2AFB2A822F65E00E941D12281B6B
:101F3000C22A8090FD019090FE01B12CA12C811449
:101F40009104A104B10439F00E944C11A50194013F
:101F50000E94BA114B014BEF51E05A834983912CF7
:101F6000A7019601B40189819A810E948803898121
:101F70009A8146969A8389838355924089F70150C6
:101F8000110909F0B5CF8BEF91E00E94F4038BEFBC
:101F900091E00E94DC0481E192E00E94F40381E17F
:101FA00092E00E94DC0487E292E00E94F40387E260
:101FB00092E00E94DC048DE392E00E94F4038DE342
:101FC00092E00E94DC04D5CD10E000E01A83098382
:101FD0008091FD019091FE0149815A81481759076E
:101FE000B0F08BEF91E00E94F40381E192E00E9457
:101FF000F40387E292E00E94F4038DE392E00E94F2
:10200000F4030F5F1F4F0330110501F7B2CD0E949B
:102010004C112FEF30E040E050E00E94BA119B01DC
:10202000AB01BC01DA019927882788279927BB27AC
:102030008824942EA52EB62EAA24BB24882A992A59
:10204000AA2ABB2A822F65E00E941D12281B822A21
:102050004BEFE42E41E0F42EA501940169817A81D1
:10206000C7010E94880356E1E50EF11C83E5E816DE
:1020700082E0F80689F729813A812D5F3F4F3A8344
:102080002983A6CF0BEF11E01A82198280914001BB
:1020900090914101905C0E9408010E9420039B01E5
:1020A000AC0169817A81C8010E94880349815A8103
:1020B0004F5F5F4F5A8349834830510539F780910C
:1020C00040019091410190580E9408010E94200314
:1020D0009B01AC0169817A81C8010E9488038981D2
:1020E0009A8101969A8389830E9749F780914001DE
:1020F0009091410190540E9408010E9420039B018D
:10210000AC0169817A81C8010E94880329813A81E2
:102110002F5F3F4F3A8329832231310539F7C801B8
:102120000E94F4034091400150914101505C5A8358
:10213000498350934101409340010A5E1F4F52E092
:102140000335150709F0A0CF9601DD0C440B550BA4
:10215000C301B2010E94BA1189819A81280F391FE7
:10216000309341012093400104CD88301CF091E070
:1021700090930201809102018111FBCC27E0209312
:102180000201F7CCB1010E943D12CB010E94E5048F
:102190003ACDCF93DF93EC0189859A850E94F312A3
:1021A0008E819F8197FD05C060E0DF91CF910C94F7
:1021B000CA02DF91CF91089585EE91E00E94C91087
:1021C0008DE392E00E94C91087E292E00E94C9105C
:1021D00081E192E00E94C9108BEF91E00E94C9104A
:1021E00083E592E00E94C91089E692E00E94C9103E
:1021F0008FE792E00E94C91085E992E00C94C91023
:102200008F929F92AF92BF92CF92DF92EF92FF9206
:10221000CF93DF93EC01688179818A819B8161157D
:1022200071058105910521F464E279ED8BE597E074
:102230002DE133EF41E050E00E94BA1149015A010B
:102240009B01AC01A7EAB1E40E94D9116B017C01AA
:10225000ACEEB4EFA50194010E94E711C60ED71EA3
:10226000E81EF91EF7FE06C081E0C81AD108E10891
:1022700080E8F80AC882D982EA82FB82C701B601E7
:102280009F77DF91CF91FF90EF90DF90CF90BF903D
:10229000AF909F908F9008958F929F92AF92BF9230
:1022A000CF92DF92EF92FF9260910A0170910B0141
:1022B00080910C0190910D016115710581059105C9
:1022C00021F464E279ED8BE597E02DE133EF41E015
:1022D00050E00E94BA1149015A019B01AC01A7EAE2
:1022E000B1E40E94D9116B017C01ACEEB4EFA50101
:1022F00094010E94E711C60ED71EE81EF91EF7FED4
:1023000006C081E0C81AD108E10880E8F80AC09246
:102310000A01D0920B01E0920C01F0920D01C7016D
:10232000B6019F77FF90EF90DF90CF90BF90AF9076
:102330009F908F90089560930A0170930B01809392
:102340000C0190930D010895F999FECF92BD81BDC6
:10235000F89A992780B50895262FF999FECF1FBACC
:1023600092BD81BD20BD0FB6F894FA9AF99A0FBEBE
:1023700001960895052E97FB1EF400940E94D1113A
:1023800057FD07D00E94EC1107FC03D04EF40C94CB
:10239000D11150954095309521953F4F4F4F5F4F4C
:1023A000089590958095709561957F4F8F4F9F4FC1
:1023B00008950E940E12A59F900DB49F900DA49FAA
:1023C000800D911D11240895B7FF0C94D9110E941E
:1023D000D911821B930B0895A1E21A2EAA1BBB1BD5
:1023E000FD010DC0AA1FBB1FEE1FFF1FA217B307E1
:1023F000E407F50720F0A21BB30BE40BF50B661FF7
:10240000771F881F991F1A9469F7609570958095BA
:1024100090959B01AC01BD01CF010895A29FB00131
:10242000B39FC001A39F700D811D1124911DB29F08
:10243000700D811D1124911D0895991B79E004C030
:10244000991F961708F0961B881F7A95C9F78095F3
:102450000895AA1BBB1B51E107C0AA1FBB1FA617EB
:10246000B70710F0A61BB70B881F991F5A95A9F73D
:1024700080959095BC01CD01089597FB072E16F429
:10248000009407D077FD09D00E94291207FC05D0DF
:102490003EF4909581959F4F0895709561957F4F7B
:1024A0000895EE0FFF1F0590F491E02D09940F930E
:1024B0001F93CF93DF938230910510F482E090E078
:1024C000E091AD02F091AE0230E020E0B0E0A0E09B
:1024D000309799F42115310509F44AC0281B390BAE
:1024E00024303105D8F58A819B816115710589F108
:1024F000FB0193838283FE0111C0408151810281DF
:10250000138148175907E0F04817590799F41097B5
:1025100061F012960C93129713961C933296CF018A
:10252000DF91CF911F910F9108950093AD02109309
:10253000AE02F4CF2115310551F04217530738F0A0
:10254000A901DB019A01BD01DF01F801C1CFEF0153
:10255000F9CF9093AE028093AD02CDCFFE01E20F92
:10256000F31F819391932250310939832883D7CF68
:102570002091AB023091AC02232B41F42091100149
:10258000309111013093AC022093AB0220910E01E7
:1025900030910F012115310541F42DB73EB740911F
:1025A000120150911301241B350BE091AB02F09105
:1025B000AC02E217F307A0F42E1B3F0B28173907D4
:1025C00078F0AC014E5F5F4F2417350748F04E0F8F
:1025D0005F1F5093AC024093AB02819391939FCFC6
:1025E000F0E0E0E09CCFCF93DF930097E9F0FC01AF
:1025F000329713821282A091AD02B091AE02ED012A
:1026000030E020E01097A1F420813181820F931FE8
:102610002091AB023091AC022817390709F061C054
:10262000F093AC02E093AB02DF91CF910895EA0101
:10263000CE17DF07E8F54A815B819E014115510500
:10264000B1F7E901FB83EA8349915991C40FD51F82
:10265000EC17FD0761F4808191810296840F951F2C
:10266000E90199838883828193819B838A83F0E047
:10267000E0E012968D919C9113970097B9F52D91FA
:102680003C911197CD010296820F931F2091AB02CE
:102690003091AC022817390739F6309751F510926E
:1026A000AE021092AD02B093AC02A093AB02BCCFCD
:1026B000D383C28340815181840F951FC817D907E6
:1026C00061F44E5F5F4F88819981480F591F518394
:1026D00040838A819B81938382832115310509F090
:1026E000B0CFF093AE02E093AD029ECFFD01DC01CE
:1026F000C0CF13821282D7CFDC0101C06D9341504D
:102700005040E0F7089510E0CDEDD0E004C0FE01A8
:102710000E9451122196CE3DD107C9F7F894FFCF00
:10272000E80304E803320032000401000000000066
:10273000AF02800000000000110271019E015E02E4
:06274000CF01AD01C10153
:103800000C94341C0C94511C0C94511C0C94511CA1
:103810000C94511C0C94511C0C94511C0C94511C74
:103820000C94511C0C94511C0C94511C0C94511C64
:103830000C94511C0C94511C0C94511C0C94511C54
:103840000C94511C0C94511C0C94511C0C94511C44
:103850000C94511C0C94511C0C94511C0C94511C34
:103860000C94511C0C94511C11241FBECFEFD4E0BA
:10387000DEBFCDBF11E0A0E0B1E0E4EAFFE302C0AB
:1038800005900D92A230B107D9F712E0A2E0B1E0A5
:1038900001C01D92AD30B107E1F70E94361D0C94B6
:1038A000D01F0C94001C982F9595959595959595FE
:1038B000905D8F708A307CF0282F295A8091C0004B
:1038C00085FFFCCF9093C6008091C00085FFFCCFA0
:1038D0002093C6000895282F205DF0CF982F809167
:1038E000C00085FFFCCF9093C6000895EF92FF9231
:1038F0000F931F93EE24FF2487018091C00087FD62
:1039000017C00894E11CF11C011D111D81E4E8168B
:1039100082E4F8068FE0080780E0180770F3E09172
:103920000401F091050109958091C00087FFE9CF5E
:103930008091C6001F910F91FF90EF9008950E9413
:10394000761C982F8091C00085FFFCCF9093C60015
:1039500091362CF490330CF09053892F089597559D
:10396000892F08951F930E949F1C182F0E949F1C4F
:103970001295107F810F1F910895882351F0982F81
:1039800091508091C00087FFFCCF8091C6009923A1
:10399000B9F708951F93182F0E94761C803249F0C2
:1039A000809103018F5F809303018530C1F01F91E7
:1039B00008958091C00085FFFCCF84E18093C6000C
:1039C0008091C00085FFFCCF1093C6008091C0009D
:1039D00085FFFCCF80E18093C6001F910895E091A0
:1039E0000401F091050109951F9108950E94761C2C
:1039F000803241F0809103018F5F80930301853015
:103A000081F008958091C00085FFFCCF84E1809310
:103A1000C6008091C00085FFFCCF80E18093C60086
:103A20000895E0910401F09105010995089510921F
:103A30000A028823D1F090E040E951E02D9A28EE67
:103A400033E0FA013197F1F721503040D1F72D984A
:103A500028EE33E0FA013197F1F721503040D1F7E9
:103A60009F5F981758F380930A0208953F924F92F0
:103A70005F926F927F928F929F92AF92BF92CF92FE
:103A8000DF92EF92FF920F931F93CF93DF9300008B
:103A900083E38093C4001092C50088E18093C10045
:103AA00086E08093C2005098589A259A81E00E943F
:103AB000171D44E1F42E3EE1E32E24E9D22E96E0D8
:103AC000C92E80E1B82EAA24A39401E4902E16E515
:103AD000812EB2E57B2EA0E26A2EF9E45F2EE3E5AB
:103AE0004E2E70E5372E0E94761C8033B1F1813363
:103AF00009F441C0803409F479C0813409F48CC0E0
:103B0000823471F1853409F47BC0803531F182351E
:103B100021F1813511F1853509F48DC0863509F41F
:103B20009DC0843609F4AEC0843709F41BC18537C3
:103B300009F485C1863709F47AC0809103018F5F4B
:103B400080930301853079F6E0910401F09105013D
:103B500009950E94761C803351F60E94F61CC3CF53
:103B600093E18091C00087FFFCCF8091C60099232C
:103B7000A1F39150F6CF0E94761C8032F1F680912D
:103B8000C00085FFFCCFF092C6008091C00085FF89
:103B9000FCCF9092C6008091C00085FFFCCF809240
:103BA000C6008091C00085FFFCCF7092C600809156
:103BB000C00085FFFCCF6092C6008091C00085FFE9
:103BC000FCCF5092C6008091C00085FFFCCF409290
:103BD000C6008091C00085FFFCCF3092C600809166
:103BE000C00085FFFCCFB092C6007DCF0E94761C3E
:103BF000863808F4B2CF0E94761C0E94F61C73CF60
:103C000094E08091C00087FFFCCF8091C60099238B
:103C100009F4A3CF9150F5CF0E94761C8038D1F0E3
:103C2000813861F1823809F499C0883979F080E0EF
:103C30000E94CA1C58CF0E94761C809306010E94E5
:103C4000761C809307010E94F61C4DCF83E00E94F2
:103C5000CA1C49CF82E00E94CA1C45CF0E94761C34
:103C6000803309F486C192E08091C00087FFFCCFC9
:103C70008091C6009923D9F29150F6CF81E00E943D
:103C8000CA1C31CF0E94761C809309020E94761CC8
:103C90008093080280910C028E7F80930C020E9418
:103CA000761C853429F480910C02816080930C028B
:103CB0008091080290910902892B89F000E010E0C0
:103CC0000E94761CF801E85FFE4F80830F5F1F4F54
:103CD00080910802909109020817190788F30E9441
:103CE000761C803209F029CF80910C0280FFD1C070
:103CF0004091060150910701440F551F5093070151
:103D000040930601A0910802B09109021097C9F0F2
:103D1000E8E0F1E09A01BD016E0F7F1FF999FECF37
:103D200032BD21BD819180BDFA9AF99A2F5F3F4F34
:103D3000E617F70799F74A0F5B1F50930701409367
:103D400006018091C00085FFFCCFF092C6008091F3
:103D5000C00085FFFCCFB092C600C5CE80E10E94B6
:103D6000CA1CC1CE0E94761C809309020E94761C58
:103D7000809308028091060190910701880F991F96
:103D800090930701809306010E94761C853409F404
:103D90007AC080910C028E7F80930C020E94761C68
:103DA000803209F0A0CE8091C00085FFFCCFF09258
:103DB000C600A0910802B09109021097B9F1809154
:103DC0000C02182F1170082F0270E0910601F0917B
:103DD00007019F012F5F3F4FB90140E050E01123E1
:103DE000B1F4002339F494918091C00085FFFCCF99
:103DF0009093C6004F5F5F4FCB010196F9014A17C0
:103E00005B0780F4BC012F5F3F4F112351F3F999F9
:103E1000FECFF2BDE1BDF89A90B58091C00085FF5C
:103E2000FCCFE6CF70930701609306018091C0003C
:103E300085FDD9CE8091C00085FFF8CFD4CE0E94F9
:103E4000761C803209F079CE8091C00085FFFCCFCE
:103E5000F092C6008091C00085FFFCCFE092C600C2
:103E60008091C00085FFFCCFD092C6008091C00039
:103E700085FFFCCFC092C6008091C00085FFFCCFBB
:103E8000B092C60030CE80910C02816080930C020B
:103E900085CF809107018823880F880B8A21809322
:103EA0000B028091060190910701880F991F909352
:103EB0000701809306018091080280FF09C080916C
:103EC00008029091090201969093090280930802DA
:103ED000F894F999FECF1127E0910601F0910701BE
:103EE000C8E0D1E08091080290910902103091F46D
:103EF0000091570001700130D9F303E0009357009F
:103F0000E8950091570001700130D9F301E1009369
:103F10005700E89509901990009157000170013001
:103F2000D9F301E000935700E8951395103498F009
:103F300011270091570001700130D9F305E000937B
:103F40005700E8950091570001700130D9F301E165
:103F500000935700E8953296029709F0C7CF1030CA
:103F600011F00296E5CF11248091C00085FFE9CEC3
:103F7000ECCE0E94761C0E94761C182F0E94761CA4
:103F8000112351F0113021F086E00E94CA1CABCD04
:103F900084E90E94CA1CA7CD8EE10E94CA1CA3CD51
:063FA000F894FFCF800041
:00000001FF
