:100000000C940D010C9435010C9435010C943501C0
:100010000C9435010C9435010C9435010C94350188
:100020000C9435010C94A4060C9435010C94350104
:100030000C9435010C9404030C9435010C94350197
:100040000C94420B0C9435010C9435010C94350141
:100050000C9435010C9435010C9435010C94350148
:100060000C9435010C9435013A0F6B0F9C0FF00F77
:1000700027107C10D1102F11561144085608720811
:10008000AC08D708300971094108DA0900000000FE
:100090000000000000000000000000000000000060
:1000A0000000000001010101010101010101010144
:1000B0000202020202020202030303030303040416
:1000C00004040505050505060606060707070808D2
:1000D000080909090A0A0A0B0B0B0C0C0D0D0D0E71
:1000E0000E0F0F10101111121213131414151516F0
:1000F0001617181819191A1B1B1C1D1D1E1F1F204F
:1001000021222223242526262728292A2A2B2C2D82
:100110002E2F303132333435363738393A3B3C3D87
:100120003E3F4041424445464748494B4C4D4E5066
:10013000515254555658595A5C5D5E60616364660D
:1001400067696A6C6D6F7072737577787A7C7D7F82
:100150008182848688898B8D8F91929496989A9CBF
:100160009EA0A2A4A6A8AAACAEB0B2B4B6B8BABCBF
:10017000BFC1C3C5C7CACCCED1D3D5D7DADCDFE186
:10018000E3E6E8EBEDF0F2F5F7FAFCFF0000000023
:10019000240027002A000000000023002600290078
:1001A0000000000800020100000304070000000036
:1001B000000000000000FF00007FFF0000FFFF00C4
:1001C00000FF7F0000FF00007FFF0000FFFF000036
:1001D000FF7F0000FF000000FF007F00FF00FF0026
:1001E0007F00FF0001020408102040800102040883
:1001F0001020010204081020000000002500280043
:100200002B00040404040404040402020202020297
:10021000030303030303B912951211241FBECFEF8A
:10022000D4E0DEBFCDBF11E0A0E0B1E0E4EAFBE244
:1002300002C005900D92A431B107D9F722E0A4E1E4
:10024000B1E001C01D92A131B207E1F711E0CCE0AD
:10025000D1E004C02197FE010E949714CB30D10752
:10026000C9F70E948C0B0C94C5150C940000CF9319
:10027000DF9300D000D0CDB7DEB769837A838B835C
:100280009C83DE011196CE010596EC91F0E0E457D7
:10029000FF4FE491ED93A817B907B9F769817A8107
:1002A0008B819C810F900F900F900F90DF91CF91D9
:1002B0000895FC014481558160E070E0818592855C
:1002C0000C94BE15FF920F931F93CF93DF93EC0115
:1002D000FF24F394F60E2885F21679F109851A8524
:1002E0002150B9F06F3F59F430E040E050E06FEF3B
:1002F0007FEF80E090E00E941414B9010CC08F2DB4
:1003000090E0982F88270197622F70E00E94831455
:1003100002C060E070E0F8014C815D81CF01801B7C
:10032000910B8417950740F44081469FC001479F79
:10033000900D11249193F0CFF886DF91CF911F910A
:100340000F91FF9008957F928F929F92AF92BF92EC
:10035000CF92DF92EF92FF920F931F93CF93DF9391
:10036000FC01828193816817790708F053C04A0124
:10037000AA24BB24782CC32ED42EE52EFF24BC2D1A
:10038000A22F8085882361F0889E40011124792C5A
:100390008C9D60011124BD2D829F70011124AF2D11
:1003A0009685D385E184F2849D1308C0CB01880F24
:1003B000991F680F791F6E0D7F1D1CC0660F771F78
:1003C000660F771F6E0D7F1D052F112722273327FC
:1003D0007B01E90EF11C811102C0202F09C090E0C1
:1003E000809F6001819FD00C909FD00C11242D2DF7
:1003F000E701288383859B01280F311DE90178825D
:100400008485EB01C80FD11DB8838585FB01E80FFA
:10041000F11DA083DF91CF911F910F91FF90EF907D
:10042000DF90CF90BF90AF909F908F907F90089576
:10043000CF92DF92EF92FF920F931F93CF93DF93B0
:10044000CDB7DEB729970FB6F894DEBF0FBECDBF8C
:100450008C01DC0119968D919C911A97892B09F4D6
:10046000B1C00E94E50AF801C784D088E188F2880B
:100470006C157D058E059F0520F46787708B818B39
:10048000928BF801C784D088E188F288DC01CB0127
:100490008C199D09AE09BF098C329140A105B105A7
:1004A00000F3F894D80114968D919C9115979A8336
:1004B00089831996ED91FC911A977F01BFEFEB1A92
:1004C000FB0A80818987F80190810388F489E02DF7
:1004D000D80155968C91992309F430C09081982BBE
:1004E00098879081809589238F838F818C8388E082
:1004F0008B8358856F8149853B812C8189819A81C5
:10050000D701508347FD252F3A952083262F39F0B8
:10051000441F00C000006083000000C0F2CF38E03C
:100520004D9160830000019761F7D8015496FC93C8
:10053000EE93539749873B832C833AC09081982B45
:1005400098879081809589238F838F818E8388E01F
:100550008D8358856F8149853D812E8189819A815E
:10056000D701508347FD252F00C000C0208300C065
:1005700000C000C000C000C060830000262F3A9574
:1005800041F0441F000000C000C000C000C000C017
:10059000E8CF38E04D9100C0608300C0019709F7B3
:1005A000D8015496FC93EE93539749873D832E834D
:1005B0009A83898378940E94E50AF8016787708B93
:1005C000818B928B29960FB6F894DEBF0FBECDBFFC
:1005D000DF91CF911F910F91FF90EF90DF90CF901F
:1005E0000895CF93DF93EC018E819F8197FD07C023
:1005F00061E00E94920A60E08E810E94630A81E0BD
:100600008983DF91CF9108951F920F920FB60F92B9
:1006100011242F933F934F935F936F937F938F9307
:100620009F93AF93BF93CF93DF93EF93FF938EE0AE
:100630000E94CE0A9C01285431402832310588F0AE
:10064000245A31092832310578F0245A31092832E8
:10065000310568F082559240889760F0C0E0D0E0A4
:100660000BC0C1E0D0E008C0C2E0D0E005C0C3E0EC
:10067000D0E002C0C4E0D0E080919001882319F05E
:1006800081508093900180E00E943A0A892B79F48E
:100690008091900181110BC080917A01882309F427
:1006A000C6C181E080938F0182E38093900181E055
:1006B0000E943A0A892B31F480919001882309F431
:1006C000D2C12FC3209709F42CC3809190018111CE
:1006D00028C3C430D105B1F0C230D10521F481E086
:1006E00080938D010FC0C130D10521F481E080934A
:1006F0008C0108C0C330D10541F481E080938B01A7
:1007000010927A0182E38093900180918B0188237B
:1007100099F08091890190918A018430910534F497
:10072000019690938A018093890104C010928A01F6
:100730001092890110928B018091890190918A0118
:10074000009751F4249719F481E08093740110927A
:100750008D0110928C0145C0019709F042C0809133
:100760006C01882351F085E08093020165E081E00F
:1007700090E00E94061410926C0180918D018823F4
:1007800059F08091720190917301019690937301D9
:100790008093720110928D0180918C01882359F011
:1007A00080917201909173010197909373018093EE
:1007B000720110928C0180917201909173010397E4
:1007C00024F0109273011092720180917201909145
:1007D000730197FF06C082E090E0909373018093CD
:1007E00072018091890190918A018230910509F00E
:1007F00053C0809172019091730181309105A1F4F1
:1008000080918D01882339F0809102018F5F809360
:10081000020110928D0180918C01882309F481C21C
:1008200080910201815035C082309105C1F48091E0
:100830008D01882339F0809109018F5F8093090130
:1008400010928D0180918C01882309F46AC28091F5
:10085000090181508093090110928C0162C2892B99
:1008600009F05FC280918D01882349F080910901D0
:100870008F5F809309018093020110928D01809116
:100880008C01882309F44DC2809109018150809325
:10089000090180930201E0CF8330910509F00AC17C
:1008A000809172019091730181309105D1F5809111
:1008B0008D01882359F080910701909108010896D5
:1008C000909308018093070110928D0180918C0113
:1008D000882359F08091070190910801089790931F
:1008E00008018093070110928C018091070190917B
:1008F0000801089730F488E090E090930801809315
:10090000070180910701909108018F3F910509F03F
:1009100008F407C28FEF90E09093080180930701DD
:1009200000C282309105B1F580918D01882359F084
:10093000809105019091060108969093060180939D
:10094000050110928D0180918C01882359F08091CE
:100950000501909106010897909306018093050187
:1009600010928C018091050190910601089730F456
:1009700088E090E090930601809305018091050145
:10098000909106018F3F910509F008F4CAC18FEFDD
:1009900090E048C0892B09F0C4C180918D01882363
:1009A00079F08091070190910801089690930801D1
:1009B00080930701909306018093050110928D01A9
:1009C00080918C01882379F0809107019091080132
:1009D00008979093080180930701909306018093F4
:1009E000050110928C0180910701909108010897F0
:1009F00050F488E090E09093080180930701909371
:100A000006018093050180910701909108018F3FB5
:100A1000910509F008F485C18FEF90E090930801EB
:100A20008093070190930601809305017AC181E0CC
:100A300080937A010E94A71322E130E040E050E069
:100A40000E94141470937801609377010E94A71399
:100A500022E030E040E050E00E94141470937601F0
:100A60006093750121CE80917A01882321F081E085
:100A700080938E011BC081E080937A010E94A713AE
:100A800022E130E040E050E00E94141470937801BD
:100A9000609377010E94A71322E030E040E050E02D
:100AA0000E941414709376016093750182E3809321
:100AB000900137C1049709F034C18091720190917F
:100AC00073018130910509F059C080918D0188230F
:100AD000D9F080910201883059F4809171018F5FC3
:100AE0008C3018F4809371010DC0109271010AC00E
:100AF0008091030190910401845F914090930401DF
:100B00008093030110928D0180918C018823D1F094
:100B100080910201883051F480917101811102C0ED
:100B20008BE001C08150809371010AC08091030164
:100B3000909104018C509E4F909304018093030187
:100B400010928C018091030190910401843F9140A7
:100B500030F484EF91E0909304018093030180913D
:100B60000301909104018131974208F4DAC080E1D9
:100B700097E29093040180930301D3C082309105E2
:100B800009F055C080918D018823D9F08091090129
:100B9000883059F4809103028F5F8C3018F4809371
:100BA00003020DC0109203020AC0809100019091CF
:100BB0000101845F914090930101809300011092A4
:100BC0008D0180918C018823D1F0809109018830BA
:100BD00051F480910302811102C08BE001C0815069
:100BE000809303020AC080910001909101018C5012
:100BF0009E4F909301018093000110928C0180918F
:100C0000000190910101843F914030F484EF91E024
:100C10009093010180930001809100019091010166
:100C20008131974208F47DC080E197E276C0892B3C
:100C300009F077C080918D01882339F180910201FC
:100C4000883059F4809171018F5F8C3018F4809353
:100C500071010DC0109271010AC080910301909141
:100C60000401845F9140909304018093030180917B
:100C70000301909104019093010180930001809100
:100C800071018093030210928D0180918C01882361
:100C900031F180910201883051F48091710181110C
:100CA00002C08BE001C08150809371010AC0809125
:100CB0000301909104018C509E4F90930401809306
:100CC00003018091030190910401909301018093AD
:100CD0000001809171018093030210928C01809138
:100CE000030190910401843F914050F484EF91E01E
:100CF000909304018093030190930101809300017C
:100D000080910301909104018131974250F080E17C
:100D100097E29093040180930301909301018093E3
:100D20000001FF91EF91DF91CF91BF91AF919F9122
:100D30008F917F916F915F914F913F912F910F9084
:100D40000FBE0F901F9018951F920F920FB60F9223
:100D500011242F933F934F935F936F937F938F93C0
:100D60009F93AF93BF93EF93FF9380918F0188235D
:100D7000A9F02091790180916D0190916E0122235B
:100D800011F0019603C0009729F0019790936E012E
:100D900080936D011092790110928F0180918E01E4
:100DA0008823A9F02091790180916F0190917001C1
:100DB000222311F0019603C0009729F00197909328
:100DC000700180936F011092790110928E018091D1
:100DD000890190918A018230910531F13CF40097AC
:100DE00091F081309105C1F561E01FC0833091051C
:100DF00031F18430910581F560E08FE00E94630A53
:100E000061E082E122C061E081E10E94630A61E069
:100E100080E10E94630A61E082E10E94630A61E06E
:100E20008FE00E94630A57C060E080E10E94630A7D
:100E300061E082E10E94630A61E08FE00AC060E045
:100E400082E10E94630A61E08FE00E94630A61E030
:100E500080E10E94630A02C0892BE9F1809172014E
:100E600090917301892B21F460E081E10E94630A73
:100E70008091720190917301019789F480918801AA
:100E8000823329F460E081E10E94630A08C085365C
:100E900034F061E081E10E94630A10928801809140
:100EA000720190917301029789F4809188018233D5
:100EB00029F460E081E10E94630A08C0883334F0BD
:100EC00061E081E10E94630A1092880180918801AB
:100ED0008F5F80938801FF91EF91BF91AF919F91B8
:100EE0008F917F916F915F914F913F912F910F90D3
:100EF0000FBE0F901F901895833081F028F4813039
:100F000099F08230A1F008958730A9F08830B9F0C7
:100F10008430D1F4809180008F7D03C08091800067
:100F20008F7780938000089584B58F7702C084B551
:100F30008F7D84BD08958091B0008F7703C080912C
:100F4000B0008F7D8093B00008950F931F939C0194
:100F5000AAEFB5E00E946814DC01CB019058AF4FB6
:100F6000BF4FCD01BB2797FDB095AB2F8E3F01E062
:100F7000900760F48F3F910518F4682F80E029C036
:100F80006EEF962F981B80E06FEF24C08C3F13E02C
:100F9000910760F48D3F42E0940718F48E5F6FEF85
:100FA00003C06CEF681B8FEF90E014C08A3F05E030
:100FB000900769F08B3F14E0910728F494E0980FB4
:100FC0008FEF60E007C06AEF681B862F01C080E0EA
:100FD00060E09FEF292F30E0E62FF0E0482F50E04F
:100FE000CF01A0E0B0E0BA2FA92F982F882788273B
:100FF000AA27BB2760E070E0482B592B6A2B7B2B7C
:10100000C901A0E0B0E0DC0199278827882799274B
:10101000BB278A019B01082B192B2A2B3B2BC901CB
:10102000B8011F910F9108954F925F926F927F9236
:101030008F929F92AF92BF92CF92DF92EF92FF92E8
:101040000F931F93CF93DF930E94A713CB010E94AE
:10105000A5070E9437014B015C010E94A713209154
:101060000901822F022E000C990BAA0BBB0BFC016D
:101070003197E930F10508F0E0C1E35CFF4F0C94D3
:101080009714C0E0D0E068C170E080919701909122
:1010900098018617970718F40E94A713F5CFA501AA
:1010A000940185E991E00E94A301C2C0C09097011C
:1010B000D0909801E12CF12CC114D104E104F10489
:1010C00041F00E94A713A70196010E9414146B011E
:1010D0007C016C2D70E0A501940185E991E00E94EE
:1010E000A30154C100E010E0E80120919701309184
:1010F0009801C217D307E0F4CE01A0E0B0E0772753
:10110000662740E050E00E94141480919301909172
:101110009401820F931F0E94A5070E9437019B0133
:10112000AC01BE0185E991E00E94A3012396DDCFC9
:1011300085E991E00E9418028091930190919401B9
:1011400080589F4F90939401809393010F5F1F4F9E
:101150000330110549F67DC1209191013091920132
:1011600080919701909198018217930720F4109233
:101170009201109291016091910170919201A501EB
:10118000940185E991E00E94A30160919101709121
:1011900092016150710920E030E0A90185E991E0F8
:1011A0000E94A30185E991E00E9418023CC1C5E0BC
:1011B000D0E0412C512C32014A940BEA0E94A71333
:1011C000A30192010E9414146B017C01609F812D88
:1011D000112486951C2D181B8090970190909801E2
:1011E000A12CB12C81149104A104B10441F00E94FE
:1011F000A713A50194010E9414144B015C01DD2486
:10120000EE24FF24D60199278827FE2CED2CDC2C18
:10121000CC248C299D29AE29BF299C01AD01212B0D
:10122000682D70E085E991E00E94A301219731F6D5
:1012300085E991E00E94180285E991E0DF91CF9164
:101240001F910F91FF90EF90DF90CF90BF90AF90E4
:101250009F908F907F906F905F904F900C9459016A
:10126000C0E0D0E0C12CD12C7601CA9455E0B52E57
:101270008E0180919701909198010817190740F508
:101280000E94A713A70196010E9414142B013C0190
:10129000DC01CB019927AA27BB27BC01552744278E
:1012A000BA2FA92F982F88279A01AB01282B392B09
:1012B0004A2B5B2B842D6B2D0E947714481A24290E
:1012C000B80185E991E00E94A3010D5F1F4FD1CFC6
:1012D00085E991E00E9418022196C330D10541F6BC
:1012E000B8C0C0E0D0E080919301909194010E9439
:1012F000A5070E9437019B01AC01BE0185E991E081
:101300000E94A3012196C530D10569F7C5E0D0E060
:1013100080919301909194018D5C9C4C0E94A50753
:101320000E9437019B01AC01BE0185E991E00E945A
:10133000A3012196CA30D10559F785E991E00E94B1
:101340001802809193019091940180589F4F90933F
:101350009401809393017DC08091970190919801B1
:10136000C817D90798F4E091030284E0E89FF001E0
:101370001124EC54FE4F2591359145915491BE01B5
:1013800085E991E00E94A3012196E6CF85E991E0ED
:10139000DF91CF911F910F91FF90EF90DF90CF9051
:1013A000BF90AF909F908F907F906F905F904F9085
:1013B0000C9418028091AD019091AE01019620919C
:1013C00091013091920182179307A0F4109292013B
:1013D0001092910185E991E00E94590185E991E01F
:1013E0000E94590185E991E00E94590185E991E047
:1013F0000E945901C4E0D0E00E94A713CB010E94D3
:10140000A5070E9437019B01AC0160919101709189
:10141000920185E991E00E94A30185E991E00E9493
:101420001802219749F780919101909192010196BC
:1014300090939201809391010CC02A301CF081E0BE
:101440008093090180910901811103C089E0809393
:101450000901DF91CF911F910F91FF90EF90DF90E5
:10146000CF90BF90AF909F908F907F906F905F9044
:101470004F900895CF93DF93282F30E0F901E05685
:10148000FE4F8491F901EC51FE4FD491F901EE5FCA
:10149000FD4FC491CC2391F081110E947C07EC2F69
:1014A000F0E0EE0FFF1FEA56FE4FA591B491EC91CC
:1014B000ED2381E090E021F480E002C080E090E044
:1014C000DF91CF9108951F93CF93DF93282F30E0C2
:1014D000F901E056FE4F8491F901EC51FE4FD49191
:1014E000F901EE5FFD4FC491CC23C1F0162F81119D
:1014F0000E947C07EC2FF0E0EE0FFF1FE850FE4F3C
:10150000A591B4919FB7F894111104C08C91D09516
:10151000D82302C0EC91DE2BDC939FBFDF91CF91EB
:101520001F910895CF93DF9390E0FC01EC51FE4FA3
:101530002491FC01EE5FFD4F8491882361F190E0DE
:10154000880F991FFC01E457FE4FC591D491FC010F
:10155000E850FE4FA591B491611109C09FB7F8946E
:101560008881209582238883EC912E230BC06230E2
:1015700061F49FB7F8948881322F30958323888354
:10158000EC912E2B2C939FBF06C08FB7F894E88167
:101590002E2B28838FBFDF91CF9108958E3008F0D6
:1015A0008E508770806480937C0080917A00806484
:1015B00080937A0080917A0086FDFCCF809178003C
:1015C0002091790090E0922B08953FB7F894809194
:1015D000090290910A02A0910B02B0910C0226B56B
:1015E000A89B05C02F3F19F00196A11DB11D3FBF5B
:1015F000BA2FA92F982F8827820F911DA11DB11DE9
:10160000BC01CD0142E0660F771F881F991F4A95E4
:10161000D1F708958F929F92AF92BF92CF92DF92AF
:10162000EF92FF920E94E50A4B015C0188EBC82E05
:101630008BE0D82EE12CF12C0E94E50ADC01CB01D5
:1016400088199909AA09BB09883E9340A105B105EB
:1016500098F321E0C21AD108E108F10888EE880E5B
:1016600083E0981EA11CB11CC114D104E104F10453
:1016700019F7FF90EF90DF90CF90BF90AF909F90C1
:101680008F9008951F920F920FB60F9211242F93EF
:101690003F938F939F93AF93BF9380910502909157
:1016A0000602A0910702B09108023091040223E0E3
:1016B000230F2D3720F40196A11DB11D05C026E88A
:1016C000230F0296A11DB11D2093040280930502F1
:1016D00090930602A0930702B0930802809109023A
:1016E00090910A02A0910B02B0910C020196A11DEB
:1016F000B11D8093090290930A02A0930B02B0934C
:101700000C02BF91AF919F918F913F912F910F90BC
:101710000FBE0F901F901895789484B5826084BD99
:1017200084B5816084BD85B5826085BD85B58160E5
:1017300085BD80916E00816080936E001092810063
:10174000809181008260809381008091810081601E
:1017500080938100809180008160809380008091DF
:10176000B10084608093B1008091B000816080936B
:10177000B00080917A00846080937A0080917A0032
:10178000826080937A0080917A00816080937A00F1
:1017900080917A00806880937A001092C10080E086
:1017A00090E00E94FE138D3009F448C06DE080E0A7
:1017B00090E00E9406146091020181E090E00E9496
:1017C00006146091090182E090E00E940614609185
:1017D000070183E090E00E9406146091050184E017
:1017E00090E00E9406148091030190910401C4E6E8
:1017F000D0E0BE010E94831485E090E00E940614B0
:101800008091000190910101BE010E94831486E045
:1018100090E00E9406146091720187E090E00E94BF
:1018200006146091710188E090E00E9406146091B6
:10183000030289E090E00E9406144BC081E090E032
:101840000E94FE138093020182E090E00E94FE134A
:101850008093090183E090E00E94FE1390E0909352
:1018600008018093070184E090E00E94FE1390E05D
:10187000909306018093050185E090E00E94FE139D
:1018800024E6829FC00111249093040180930301F8
:1018900086E090E00E94FE1334E6839FC00111248D
:1018A000909301018093000187E090E00E94FE1375
:1018B00090E0909373018093720188E090E00E9421
:1018C000FE138093710189E090E00E94FE138093E3
:1018D000030280910201803F19F481E080936C0142
:1018E00061E081E10E94920A61E082E10E94920A35
:1018F00061E080E10E94920A61E08FE00E94920A1A
:1019000062E080E00E94920A62E081E00E94920A16
:10191000F89410928000109281001092B00081E043
:101920008093700080936F0080918100816080932C
:1019300081008091B10081608093B100789486E14C
:10194000E6E5F1E0ABEAB1E001900D928A95E1F7AE
:1019500086E1E0E4F1E0A1ECB1E001900D928A951E
:10196000E1F786E1EAE2F1E0A7EDB1E001900D9246
:101970008A95E1F786E1E4E1F1E0ADEEB1E00190B6
:101980000D928A95E1F7CBEAD1E0CE010E94F102F7
:10199000CE010E94180262E3CE010E9462016696A7
:1019A00082E0C330D80789F785E991E00E94F1020F
:1019B00085E991E00E94180262E385E991E00E94C6
:1019C000620180916C01882309F454C0CBEAD1E014
:1019D0006AEACE010E946201669692E0C330D9079E
:1019E000B9F76AEA85E991E00E946201CBEAD1E0A9
:1019F00000E010E08091AD019091AE010817190749
:101A000058F42FEF3FEF4FEF50E0B801CE010E94A6
:101A1000A3010F5F1F4FEECF669622E0C330D207BF
:101A200039F7C0E0D0E08091970190919801C817F4
:101A3000D90758F42FEF3FEF4FEF50E0BE0185E993
:101A400091E00E94A3012196EECF8BEA91E00E94E3
:101A5000180281EC91E00E94180287ED91E00E944B
:101A600018028DEE91E00E94180285E991E00E9433
:101A70001802A7CF83E10E94CE0ABC01990F880B00
:101A8000990B611571058105910511F00E94F513FF
:101A90000E94A71328E833E140E050E00E941414AC
:101AA0007093850160938401B4E62B2E312CC8E835
:101AB0004C2EC3E15C2E612C712CCBEAD1E06091FD
:101AC0000701CE010E946201669683E092E08C17C6
:101AD0009D07A9F76091050185E991E00E946201E7
:101AE00080917A01882309F4A7C180917901882324
:101AF00009F442C0C0908601D0908701C091840152
:101B0000D0918501CC16DD0609F054C081E08093A8
:101B10007901A0907701B090780100917501109142
:101B2000760126E1209FC001219F900D11249C0188
:101B300025553E4F79012FEF30E040E050E0B501F0
:101B4000C7010E94A301C801029636E1389F8001B7
:101B5000399F100D112405551E4F2FEF30E040E046
:101B600050E0B501C8010E94A301C7010E941802FC
:101B7000C8010E9418021EC0CBEAD1E0EA80FB80B7
:101B8000E114F10471F000E010E020E030E0A90180
:101B9000B801CE010E94A3010F5F1F4FE016F106AE
:101BA000A1F7CE010E941802669692E0C330D907D1
:101BB00029F7A0CFC851DC4FCC16DD0609F045C08F
:101BC000109279010E94A71322E030E040E050E03B
:101BD0000E94141470937601609375010E94A713FC
:101BE00022E130E040E050E00E941414709378014C
:101BF000609377010E94A713A30192010E9414141D
:101C00007093850160938401CBEAD1E0EA80FB8088
:101C1000E114F10471F000E010E020E030E0A901EF
:101C2000B801CE010E94A3010F5F1F4FE016F1061D
:101C3000A1F7CE010E941802669682E0C330D80751
:101C400029F7109287011092860180918601909168
:101C500087018131974220F010928701109286010E
:101C600085E991E00E945901C0E0D0E000916F0148
:101C700010917001C017D10718F0C5E0D0E00BC07B
:101C800020E030E04FEF50E0BE0185E991E00E9496
:101C9000A3012196EBCF80916D0190916E01059685
:101CA000C817D90758F420E03FEF40E050E0BE01EC
:101CB00085E991E00E94A3012196EDCF85E991E0AD
:101CC0000E9418020530110540F480916D01909139
:101CD0006E01059708F066C05BC0CBEAD1E000E07A
:101CE00010E08091AD019091AE010817190758F4EA
:101CF00020E030E04FEF50E0B801CE010E94A30198
:101D00000F5F1F4FEECFCE010E941802669632E0A1
:101D1000C330D30721F71092700110926F01109217
:101D20006E0110926D0110927A010E94A713A30117
:101D300092010E94141470938501609384010E94A3
:101D40000A0BCBEAD1E000E010E08091AD01909168
:101D5000AE010817190750F420E030E0A901B801DE
:101D6000CE010E94A3010F5F1F4FEFCFCE010E9453
:101D70001802669682E0C330D80729F7A6CFCE01B5
:101D80000E941802669622E0C330D20709F040C0D4
:101D900080918601909187010196909387018093AD
:101DA0008601A8C3CBEAD1E000E010E08091AD014C
:101DB0009091AE010817190758F420E03FEF40E07A
:101DC00050E0B801CE010E94A3010F5F1F4FEECF7C
:101DD000CE010E941802669692E0C330D90721F71F
:101DE00010926E0110926D011092700110926F01AD
:101DF00010927A010E94A713A30192010E94141469
:101E000070938501609384010E940A0BCBEAD1E0B4
:101E100000E010E08091AD019091AE010817190724
:101E200008F0ADCF20E030E0A901B801CE010E945A
:101E3000A3010F5F1F4FEECF2091030130910401EA
:101E400080918201909183012817390709F084C29B
:101E500020910201822F022E000C990BAA0BBB0BC2
:101E6000FC013197E930F10508F064C2EC5CFF4FEA
:101E70000C949714CBEAD1E00E94A713CB010E94E7
:101E8000A5070E9437014B015C01C090AD01D090C5
:101E9000AE01E12CF12CC114D104E104F10441F0B4
:101EA0000E94A713A70196010E9414146B017C01E4
:101EB0006C2D70E0A5019401CE010E94A301CE011A
:101EC0000E941802CE010E945901669632E0C3308A
:101ED000D30791F63BC2C091AD01D091AE016E0126
:101EE000E12CF12CC114D104E104F10441F00E9471
:101EF000A713A70196010E9414146B017C01CC2D3D
:101F00000E94A713CB010E94A5070E9437016B0115
:101F10007C010BEA11E0D0E0A7019601BE01C801E7
:101F20000E94A301C8010E9418020A5E1F4F82E0AE
:101F30000330180789F70AC200E010E0E801209199
:101F4000AD013091AE01C217D30748F5CE01A0E034
:101F5000B0E07727662740E050E00E94141480919B
:101F6000800190918101820F931F0E94A5070E941A
:101F700037014B015C01ABEAEA2EA1E0FA2EA50184
:101F80009401BE01C7010E94A30196E1E90EF11C74
:101F900023E0E21622E0F20691F72396D0CF8BEAF7
:101FA00091E00E94180281EC91E00E94180287EDF6
:101FB00091E00E9418028DEE91E00E94180280913B
:101FC00080019091810180589F4F9093810180936F
:101FD00080010F5F1F4F0330110509F0AFCFB6C16D
:101FE0008091AD019091AE01019620917E013091DA
:101FF0007F018217930720F410927F0110927E01D7
:10200000CBEAD1E00E94A713CB010E94A5070E9452
:1020100037019B01AC0160917E0170917F01CE017F
:102020000E94A30160917E0170917F01615071094E
:1020300020E030E0A901CE010E94A301CE010E9460
:102040001802669632E0C330D307E1F669C103E0B7
:1020500010E00E94A7132FEF30E040E050E00E9414
:1020600014146B017C01DC01CB019927AA27BB2743
:10207000BC01552744278824982EA92EBA2E842ADD
:10208000952AA62AB72A8C2D65E00E947714C81AD3
:102090008C28C090AD01D090AE01E12CF12CC11480
:1020A000D104E104F10441F00E94A713A7019601B5
:1020B0000E9414146B017C01CBEAD1E0D12CA50164
:1020C0009401B601CE010E94A301669682E0C3305E
:1020D000D807A9F70150110909F0BBCFCBEAD1E02D
:1020E000CE010E941802CE010E945901669692E02C
:1020F000C330D907A9F72AC1C0E0D0E08E01809192
:10210000AD019091AE0108171907A8F50E94A71319
:102110002FEF30E040E050E00E9414146B017C018E
:10212000DC01CB019927AA27BB27BC0155274427EF
:102130008824982EA92EBA2E842A952AA62AB72A50
:102140008C2D65E00E947714C81A8C284BEAE42E87
:1021500041E0F42EA5019401B801C7010E94A3013A
:1021600026E1E20EF11C33E0E31632E0F30691F7CC
:102170000D5F1F4FC4CF8BEA91E00E94180281ECE3
:1021800091E00E94180287ED91E00E9418028DEE06
:1021900091E00E9418022196C330D10509F0AECF1C
:1021A000D5C0CBEAD1E000E010E0809180019091B1
:1021B0008101905C0E94A5070E9437019B01AC0140
:1021C000B801CE010E94A3010F5F1F4F0830110517
:1021D00061F708E010E080918001909181019058B2
:1021E0000E94A5070E9437019B01AC01B801CE01F6
:1021F0000E94A3010F5F1F4F0E30110561F70EE023
:1022000010E0809180019091810190540E94A50777
:102210000E9437019B01AC01B801CE010E94A301CD
:102220000F5F1F4F0231110561F7CE010E941802A6
:1022300080918001909181019C01305C30938101FB
:1022400020938001669622E0C330D20709F0ABCF1D
:1022500080589F4B909381018093800177C0CBEA97
:10226000D1E000E010E08091AD019091AE0108173F
:10227000190798F4E091710134E0E39FF001112413
:10228000EC54FE4F2591359145915491B801CE0102
:102290000E94A3010F5F1F4FE6CFCE010E941802DC
:1022A000669682E0C330D807E1F650C08091AD0158
:1022B0009091AE01019620917E0130917F018217AD
:1022C0009307A0F410927F0110927E018BEA91E0B7
:1022D0000E94590181EC91E00E94590187ED91E043
:1022E0000E9459018DEE91E00E945901CBEAD1E0A4
:1022F0000E94A713CB010E94A5070E9437019B01F2
:10230000AC0160917E0170917F01CE010E94A3011A
:10231000CE010E941802669692E0C330D90741F7B9
:1023200080917E0190917F01019690937F0180932F
:102330007E010CC02A301CF081E080930201809164
:102340000201811103C029E02093020181E090E0A5
:1023500090938301809382012091000130910101CB
:1023600080917C0190917D0128173907D1F58091EA
:102370000901843071F580910201843051F520917A
:10238000AD013091AE0180917E0190917F012817BF
:10239000390719F481E080937B0180917B018111E1
:1023A0000E941408809197019091980101962091C4
:1023B0009101309192018217930769F485E991E0C8
:1023C0000E94590185E991E00E94180210927B0158
:1023D00002C00E94140881E090E090937D018093F8
:1023E0007C0180917C0190917D01019690937D010B
:1023F00080937C018091820190918301019690935A
:1024000083018093820180917401882309F472C052
:102410006DE080E090E00E9406146091020181E08E
:1024200090E00E9406146091090182E090E00E9411
:1024300006146091070183E090E00E940614609109
:10244000050184E090E00E940614809103019091C0
:102450000401B1010E94831485E090E00E940614FB
:102460008091000190910101B1010E94831486E0E6
:1024700090E00E9406146091720187E090E00E9453
:1024800006146091710188E090E00E94061460914A
:10249000030289E090E00E940614F89460E081E174
:1024A0000E94630A60E080E10E94630A60E082E1CA
:1024B0000E94630A60E08FE00E94630A3FEF83EDB1
:1024C00090E3315080409040E1F700C0000061E0AF
:1024D00081E10E94630A61E080E10E94630A61E099
:1024E00082E10E94630A61E08FE00E94630A109219
:1024F0007401789420E030E0232B09F4DECA0E94B6
:102500000000DBCACF93DF93EC0189859A850E9496
:1025100035158E819F8197FD05C060E0DF91CF91D9
:102520000C94920ADF91CF91089585E991E00E9481
:1025300082128DEE91E00E94821287ED91E00E945E
:10254000821281EC91E00E9482128BEA91E00E945B
:10255000821284E191E00E9482128AE291E00E945C
:10256000821280E491E00E94821286E591E00C9450
:10257000821248E050E062E170E086E591E00E945E
:10258000FF1247E050E062E170E080E491E00E94D9
:10259000FF1246E050E062E170E08AE291E00E94C2
:1025A000FF1245E050E062E170E084E191E00E94BA
:1025B000FF12EBEAF1E081E02FEF3FEF92E0808342
:1025C0001182138212821582148237832683108629
:1025D0001286118683871486958786871786108AC8
:1025E000118A128A769642E0E330F40741F749E017
:1025F00050E06AE070E085E991E00C94FF12CF9220
:10260000DF92EF92FF920F931F93CF93DF93EC0132
:102610006B01F42EE52E198218861F86188A198AF6
:102620001A8A81E08E878B871C8692E09D8788833B
:102630008B01000F111F060F171F1D830C83C8018C
:102640000E949D149A878987009741F0A80160E055
:1026500070E00E94BE15DB82CA8204C01D821C820B
:102660001B821A82FE82EF828981882341F061E019
:102670008F2D0E94920A60E08F2D0E94630A8F2D99
:102680009E2DFC01EE5FFD4FE491F0E0EE0FFF1F89
:10269000E850FE4F259134913C8B2B8BFC01EC5183
:1026A000FE4FE491ED8BDF91CF911F910F91FF9041
:1026B000EF90DF90CF9008958F929F92AF92BF924C
:1026C000CF92DF92EF92FF92CF93DF93EC0168817C
:1026D00079818A819B81611571058105910521F4BC
:1026E00064E279ED8BE597E02DE133EF41E050E0D6
:1026F0000E94141449015A019B01AC01A7EAB1E4FC
:102700000E9433146B017C01ACEEB4EFA50194017F
:102710000E944114DC01CB018C0D9D1DAE1DBF1D1F
:10272000B7FF03C00197A109B04888839983AA83A2
:10273000BB83BC01CD019F77DF91CF91FF90EF90DC
:10274000DF90CF90BF90AF909F908F9008958F9221
:102750009F92AF92BF92CF92DF92EF92FF926091E1
:102760000A0170910B0180910C0190910D0161158E
:1027700071058105910521F464E279ED8BE597E01F
:102780002DE133EF41E050E00E94141449015A0159
:102790009B01AC01A7EAB1E40E9433146B017C01F8
:1027A000ACEEB4EFA50194010E944114DC01CB0111
:1027B0008C0D9D1DAE1DBF1DB7FF03C00197A10964
:1027C000B04880930A0190930B01A0930C01B09341
:1027D0000D01BC01CD019F77FF90EF90DF90CF906E
:1027E000BF90AF909F908F90089560930A0170936F
:1027F0000B0180930C0190930D010895F999FECF80
:1028000092BD81BDF89A992780B50895262FF99930
:10281000FECF1FBA92BD81BD20BD0FB6F894FA9AC3
:10282000F99A0FBE01960895052E97FB1EF40094A9
:102830000E942B1457FD07D00E94461407FC03D0BA
:102840004EF40C942B1450954095309521953F4FA4
:102850004F4F5F4F089590958095709561957F4F8C
:102860008F4F9F4F08950E946814A59F900DB49FAD
:10287000900DA49F800D911D11240895B7FF0C9415
:1028800033140E943314821B930B0895A1E21A2E75
:10289000AA1BBB1BFD010DC0AA1FBB1FEE1FFF1F04
:1028A000A217B307E407F50720F0A21BB30BE40B54
:1028B000F50B661F771F881F991F1A9469F760959B
:1028C0007095809590959B01AC01BD01CF01089555
:1028D000A29FB001B39FC001A39F700D811D112461
:1028E000911DB29F700D811D1124911D0895991B9A
:1028F00079E004C0991F961708F0961B881F7A95F7
:10290000C9F780950895AA1BBB1B51E107C0AA1FF8
:10291000BB1FA617B70710F0A61BB70B881F991F80
:102920005A95A9F780959095BC01CD010895EE0FB9
:10293000FF1F0590F491E02D09940F931F93CF93FF
:10294000DF938230910510F482E090E0E0910F0275
:10295000F091100220E030E0A0E0B0E0309719F1F3
:10296000408151810281138148175907C8F08417AB
:10297000950769F4109731F012960C9312971396FD
:102980001C9327C000930F021093100222C0211540
:10299000310519F04217530718F49A01BD01EF01F0
:1029A000DF01F801DBCF21153105F9F0281B390BC8
:1029B0002430310580F48A819B816115710521F0F5
:1029C000FB019383828304C09093100280930F02D3
:1029D000FE01329644C0FE01E20FF31F81939193F2
:1029E00022503109398328833AC020910D02309159
:1029F0000E02232B41F420911001309111013093EC
:102A00000E0220930D0220910E0130910F0121152D
:102A1000310541F42DB73EB7409112015091130199
:102A2000241B350BE0910D02F0910E02E217F30723
:102A3000A0F42E1B3F0B2817390778F0AC014E5F2E
:102A40005F4F2417350748F04E0F5F1F50930E025B
:102A500040930D028193919302C0E0E0F0E0CF013A
:102A6000DF91CF911F910F910895CF93DF9300973E
:102A700009F481C0FC01329713821282A0910F02E7
:102A8000B0911002109781F420813181820F931F41
:102A900020910D0230910E022817390751F5F0935D
:102AA0000E02E0930D0267C0ED0120E030E0CE178A
:102AB000DF0740F44A815B819E0141155105F1F029
:102AC000EA01F5CFD383C28340815181840F951FE2
:102AD000C817D90759F488819981840F951F0296E8
:102AE000918380838A819B81938382832115310521
:102AF00029F4F0931002E0930F023DC0E901FB833B
:102B0000EA8349915991C40FD51FEC17FD0761F471
:102B100080819181840F951F0296E90199838883B2
:102B2000828193819B838A83E0E0F0E012968D910D
:102B30009C911397009719F0FD01DC01F7CF8D915F
:102B40009C9111979D012E5F3F4F820F931F209103
:102B50000D0230910E022817390769F4309729F4D5
:102B60001092100210920F0202C013821282B093D0
:102B70000E02A0930D02DF91CF910895DC0101C0F8
:102B80006D9341505040E0F7089511E0CCE0D1E062
:102B900004C0FE010E9497142196CD30D107C9F7D9
:042BA000F894FFCFD7
:102BA400E80304E8033200320004010000000000DE
:042BB40011022000EA
:00000001FF
