:100000000C94EC000C9414010C9414010C94140145
:100010000C9414010C9414010C9414010C9414010C
:100020000C9414010C94A3070C9414010C94140167
:100030000C9414010C944D040C9414010C941401B0
:100040000C94AA0A0C9414010C94A2020C947C0245
:100050000C9414010C9414010C9414010C941401CC
:100060000C9414010C941401C20CE50C0A0D6C0DD7
:10007000A50DFD0D500E48085A088708D20806093C
:100080005C099C0900000000000000000000000066
:10009000000000000000000000000000010101015C
:1000A0000101010101010101020202020202020238
:1000B00003030303030304040404050505050506FF
:1000C0000606060707070808080909090A0A0A0BAD
:1000D0000B0B0C0C0D0D0D0E0E0F0F10101111123D
:1000E00012131314141515161617181819191A1BAC
:1000F0001B1C1D1D1E1F1F202122222324252626F6
:100100002728292A2A2B2C2D2E2F30313233343513
:10011000363738393A3B3C3D3E3F40414244454604
:100120004748494B4C4D4E50515254555658595AC8
:100130005C5D5E606163646667696A6C6D6F707256
:10014000737577787A7C7D7F8182848688898B8DB0
:100150008F91929496989A9C9EA0A2A4A6A8AAACCD
:10016000AEB0B2B4B6B8BABCBFC1C3C5C7CACCCEB4
:10017000D1D3D5D7DADCDFE1E3E6E8EBEDF0F2F559
:10018000F7FAFCFF00000000240027002A0000000E
:100190000008000201000003040700000000000046
:1001A0000000010204081020408001020408102011
:1001B00001020408102000000000250028002B0088
:1001C00004040404040404040202020202020303FD
:1001D00003030303910F070B11241FBECFEFD4E0DD
:1001E000DEBFCDBF11E0A0E0B1E0E2EFF5E202C07A
:1001F00005900D92A632B107D9F722E0A6E2B1E050
:1002000001C01D92AF3AB207E1F710E0CBEED0E0AB
:1002100004C02197FE010E94B911CA3ED107C9F757
:100220000E942B0B0C94EC120C940000CF92DF92E6
:10023000EF92FF920F931F93CF93DF936C017A019C
:100240008B01C0E0D0E0CE15DF0581F0D8016D91C3
:100250008D01D601ED91FC910190F081E02DC60158
:100260000995892B11F02196EECF7E01C701DF9110
:10027000CF911F910F91FF90EF90DF90CF90089555
:10028000089580E090E00895FC01538D448D252F62
:1002900030E0842F90E0821B930B541710F0CF9620
:1002A000089501970895FC01918D828D981761F052
:1002B000828DDF01A80FB11D5D968C91928D9F5F9D
:1002C0009F73928F90E008958FEF9FEF0895FC0148
:1002D000918D828D981731F0828DE80FF11D858DFB
:1002E00090E008958FEF9FEF0895FC01918D228D8E
:1002F000892F90E0805C9F4F821B91098F73992713
:1003000008958FE391E00E94750121E0892B09F4A3
:1003100020E0822F0895FC01848DDF01A80FB11D1C
:10032000A35ABF4F2C91848D90E001968F7399272B
:10033000848FA689B7892C93A089B1898C91837009
:1003400080648C93938D848D981306C00288F38902
:10035000E02D80818F7D80830895EF92FF920F932F
:100360001F93CF93DF93EC0181E0888F9B8D8C8D61
:10037000981305C0E889F989808185FD26C0F62E8D
:100380000B8D10E00F5F1F4F0F731127E02E8C8D28
:10039000E8120CC00FB607FCFACFE889F989808112
:1003A00085FFF5CFCE010E948B01F1CF8B8DFE0131
:1003B000E80FF11DE35AFF4FF0829FB7F8940B8FBF
:1003C000EA89FB89808180620AC09FB7F894EE8930
:1003D000FF896083E889F9898081837080648083E4
:1003E0009FBF81E090E0DF91CF911F910F91FF902F
:1003F000EF900895CF93DF93EC01888D8823C9F0A7
:10040000EA89FB89808185FD05C0A889B9898C911D
:1004100086FD0FC00FB607FCF5CF808185FFF2CFB8
:10042000A889B9898C9185FFEDCFCE010E948B01FF
:10043000E7CFDF91CF91089580E090E0892B29F0FC
:100440000E94810181110C9400000895FF920F9386
:100450001F93CF93DF93EC01FF24F394F60E2885CE
:10046000F21679F109851A852150B9F06F3F59F4D8
:1004700030E040E050E06FEF7FEF80E090E00E94DE
:100480002E11B9010CC08F2D90E0982F882701976D
:10049000622F70E00E94911102C060E070E0F801EC
:1004A0004C815D81CF01801B910B8417950740F42F
:1004B0004081469FC001479F900D11249193F0CF3A
:1004C000F886DF91CF911F910F91FF900895CF9300
:1004D000DF93EC018E819F8197FD07C061E00E9450
:1004E000490A60E08E810E94FC0981E08983DF91E6
:1004F000CF9108950E94E0121F920F920FB60F92B3
:1005000011242F933F934F935F936F937F938F9318
:100510009F93AF93BF93EF93FF938FE391E00E947C
:100520008B01FF91EF91BF91AF919F918F917F913F
:100530006F915F914F913F912F910F900FBE0F9050
:100540001F9018951F920F920FB60F9211242F93A0
:100550008F939F93EF93FF93E0914F01F0915001A0
:100560008081E0915501F091560182FD12C0908189
:10057000809158018F5F8F7320915901821751F03C
:10058000E0915801F0E0E15CFE4F958F80935801B7
:1005900001C08081FF91EF919F918F912F910F90DA
:1005A0000FBE0F901F901895CF93DF9300D000D00F
:1005B000CDB7DEB769837A838B839C83DE01119686
:1005C000CE010596EC91F0E0EC57FF4FE491ED93EE
:1005D000A817B907B9F769817A818B819C810F903F
:1005E0000F900F900F90DF91CF910895FC014481FF
:1005F000558160E070E0818592850C94E5127F92D0
:100600008F929F92AF92BF92CF92DF92EF92FF9222
:100610000F931F93CF93DF93FC018281938168171F
:10062000790708F053C04A01AA24BB24782CC32EB2
:10063000D42EE52EFF24BC2DA22F8085882361F0C7
:10064000889E40011124792C8C9D60011124BD2DC0
:10065000829F70011124AF2D9685D385E184F284A9
:100660009D1308C0CB01880F991F680F791F6E0D6D
:100670007F1D1CC0660F771F660F771F6E0D7F1DD5
:10068000052F1127222733277B01E90EF11C811149
:1006900002C0202F09C090E0809F6001819FD00C94
:1006A000909FD00C11242D2DE701288383859B0179
:1006B000280F311DE90178828485EB01C80FD11D17
:1006C000B8838585FB01E80FF11DA083DF91CF91F1
:1006D0001F910F91FF90EF90DF90CF90BF90AF9060
:1006E0009F908F907F900895CF92DF92EF92FF922C
:1006F0000F931F93CF93DF93CDB7DEB729970FB634
:10070000F894DEBF0FBECDBF8C01DC0119968D9130
:100710009C911A97892B09F4B1C00E94850AF801AF
:10072000C784D088E188F2886C157D058E059F0509
:1007300020F46787708B818B928BF801C784D088F7
:10074000E188F288DC01CB018C199D09AE09BF0953
:100750008C329140A105B10500F3F894D8011496AC
:100760008D919C9115979A8389831996ED91FC91AF
:100770001A977F01BFEFEB1AFB0A80818987F80186
:1007800090810388F489E02DD80155968C919923A6
:1007900009F430C09081982B9887908180958923A7
:1007A0008F838F818C8388E08B8358856F81498507
:1007B0003B812C8189819A81D701508347FD252F68
:1007C0003A952083262F39F0441F00C00000608333
:1007D000000000C0F2CF38E04D9160830000019727
:1007E00061F7D8015496FC93EE93539749873B8366
:1007F0002C833AC09081982B98879081809589238B
:100800008F838F818E8388E08D8358856F814985A2
:100810003D812E8189819A81D701508347FD252F03
:1008200000C000C0208300C000C000C000C000C0E5
:1008300060830000262F3A9541F0441F000000C05D
:1008400000C000C000C000C0E8CF38E04D9100C03B
:10085000608300C0019709F7D8015496FC93EE938A
:10086000539749873D832E839A83898378940E9486
:10087000850AF8016787708B818B928B29960FB65A
:10088000F894DEBF0FBECDBFDF91CF911F910F91C6
:10089000FF90EF90DF90CF9008951F920F920FB6C8
:1008A0000F9211242F933F934F935F936F937F93F6
:1008B0008F939F93AF93BF93CF93DF93EF93FF9368
:1008C00080E480937C0080917A00806480937A0039
:1008D00080917A0086FDFCCF80917800209179008C
:1008E00090E0922B9C01285431402832310588F049
:1008F000245A31092832310578F0245A3109283236
:10090000310568F082559240889760F484E090E069
:100910000BC081E090E008C082E090E005C083E079
:1009200090E002C080E090E020912F0130913001F2
:100930002115310509F466C2215031093093300187
:1009400020932F01009709F4EAC1232B09F0E7C196
:1009500084309105A1F08130910521F421E02093AC
:100960002E010DC08330910521F421E020932D014B
:1009700006C08230910549F421E020932C0124E641
:1009800030E03093300120932F0120912C0122235D
:10099000A1F020912A0130912B01243031053CF443
:1009A0002F5F3F4F30932B0120932A0104C01092F8
:1009B0002B0110922A0110922C0120912A013091D2
:1009C0002B012115310541F4049719F481E080933E
:1009D000310110922E0158C021303105A9F58091C6
:1009E0002E01882359F080912801909129010196C8
:1009F000909329018093280110922E0180912D015E
:100A0000882359F0809128019091290101979093B2
:100A100029018093280110922D0180912801909145
:100A20002901039724F01092290110922801809146
:100A300028019091290197FF2CC182E090E09093CA
:100A40002901809328016BC12230310509F053C080
:100A5000809128019091290181309105C1F4809104
:100A60002E01882339F0809102018F5F809302016B
:100A700010922E0180912D01882309F450C180919C
:100A8000020181508093020110922D0148C18230F1
:100A90009105B1F480912E01882339F080910901EC
:100AA0008F5F8093090110922E0180912D01882380
:100AB00009F4EFC080910901815080930901E4CFCE
:100AC000892B09F02CC180912E01882349F0809157
:100AD00009018F5F809309018093020110922E011A
:100AE00080912D01882309F41AC180910901815058
:100AF00080930901C7CF2330310509F0CAC0809126
:100B000028019091290181309105D9F580912E011C
:100B1000882359F080910701909108010C969093D9
:100B200008018093070110922E0180912D018823E6
:100B300059F080910701909108010C97909308015A
:100B40008093070110922D01809107019091080177
:100B50001816190634F081E090E090930801809314
:100B6000070180910701909108018F3F910509F0DD
:100B70000CF4D5C08FEF90E09093080180930701AB
:100B8000CEC082309105B9F580912E01882359F0AD
:100B900080910501909106010C9690930601809337
:100BA000050110922E0180912D01882359F080912A
:100BB0000501909106010C97909306018093050121
:100BC00010922D01809105019091060118161906C9
:100BD00034F081E090E090930601809305018091CC
:100BE0000501909106018F3F910509F00CF497C023
:100BF0008FEF90E049C0892B09F091C080912E01C0
:100C0000882379F080910701909108010C969093C8
:100C100008018093070190930601809305011092CB
:100C20002E0180912D01882379F080910701909108
:100C300008010C9790930801809307019093060197
:100C40008093050110922D01809107019091080178
:100C50001816190654F081E090E0909308018093F3
:100C600007019093060180930501809107019091FF
:100C700008018F3F910509F00CF451C08FEF90E00F
:100C800090930801809307019093060180930501DA
:100C900046C02430310509F042C08091280190916E
:100CA00029018130910509F0B1C080912E0188237E
:100CB00061F08091030190910401845F91409093D1
:100CC00004018093030110922E0180912D0188234D
:100CD00061F080910301909104018C509E4F90939C
:100CE00004018093030110922D01809103019091E2
:100CF0000401843F914034F484EF91E09093040127
:100D00008093030180910301909104018131974206
:100D100034F080E197E29093040180930301C09145
:100D20002601D09127012196D0932701C093260157
:100D300080912A0190912B018230910599F02CF439
:100D40008130910539F561E00EC083309105A9F03D
:100D500084309105F9F460E082E10E94FC0961E0D1
:100D600081E111C060E080E10E94FC0961E081E165
:100D70000E94FC0961E082E10AC060E081E10E941A
:100D8000FC0961E082E10E94FC0961E080E10E94CF
:100D9000FC0911C0892B79F461E08FE00E94FC0905
:100DA00061E080E10E94FC0961E081E10E94FC09B0
:100DB00061E082E10EC080912801909129010097A5
:100DC00031F08130910571F4C233D10529F460E02E
:100DD0008FE00E94FC09A4C0C436D10509F0A0C070
:100DE00061E006C0029709F09BC0E29749F460E019
:100DF0008FE00E94FC09109227011092260190C0FA
:100E000061E0E6CF009709F0A3CD89CF823091054C
:100E1000C1F580912E01882361F0809100019091AD
:100E20000101845F91409093010180930001109231
:100E30002E0180912D01882361F080910001909115
:100E400001018C509E4F90930101809300011092FC
:100E50002D018091000190910101843F914034F473
:100E600084EF91E090930101809300018091000153
:100E700090910101813197420CF451CF80E197E2CA
:100E80004AC0892B09F04BCF80912E01882381F035
:100E90008091030190910401845F9140909304013B
:100EA00080930301909301018093000110922E0121
:100EB00080912D01882381F080910301909104019C
:100EC0008C509E4F909304018093030190930101F5
:100ED0008093000110922D018091030190910401F3
:100EE000843F914054F484EF91E090930401809307
:100EF000030190930101809300018091030190917F
:100F00000401813197420CF40ACF80E197E290937B
:100F10000401809303019093010180930001FFCEAF
:100F2000FF91EF91DF91CF91BF91AF919F918F9101
:100F30007F916F915F914F913F912F910F900FBED5
:100F40000F901F9018951F920F920FB60F921124B9
:100F50000F900FBE0F901F9018950F931F939C0139
:100F6000AAEFB5E00E948211DC01CB019058AF4F8F
:100F7000BF4FCD01BB2797FDB095AB2F8E3F01E052
:100F8000900760F48F3F910518F4682F80E029C026
:100F90006EEF962F981B80E06FEF24C08C3F13E01C
:100FA000910760F48D3F42E0940718F48E5F6FEF75
:100FB00003C06CEF681B8FEF90E014C08A3F05E020
:100FC000900769F08B3F14E0910728F494E0980FA4
:100FD0008FEF60E007C06AEF681B862F01C080E0DA
:100FE00060E09FEF292F30E0E62FF0E0482F50E03F
:100FF000CF01A0E0B0E0BA2FA92F982F882788272B
:10100000AA27BB2760E070E0482B592B6A2B7B2B6B
:10101000C901A0E0B0E0DC0199278827882799273B
:10102000BB278A019B01082B192B2A2B3B2BC901BB
:10103000B8011F910F9108954F925F926F927F9226
:101040008F929F92AF92BF92CF92DF92EF92FF92D8
:10105000CF93DF93C82E0E94C110CB010E94AD0731
:101060000E94D4024B015C010E94C1102091090131
:10107000822F022E000C990BAA0BBB0BFC0131979F
:10108000E730F10508F09DC1E55CFF4F0C94B91104
:1010900070E08091DE019091DF018617970718F4C8
:1010A0000E94C110F5CFA50194018CED91E00E9442
:1010B000FF02ECC0C090DE01D090DF01E12CF12CEA
:1010C000C114D104E104F10441F00E94C110A70150
:1010D00096010E942E116B017C016C2D70E0A50120
:1010E00094018CED91E00E94FF028CED91E0DF9184
:1010F000CF91FF90EF90DF90CF90BF90AF909F90F7
:101100008F907F906F905F904F900C947403A12C00
:10111000B12C0C2C000CDD08EE08FF08412C512CE2
:1011200032016394E5012091DE013091DF01C217A5
:10113000D307E0F4CE01A0E0B0E07727662740E0D7
:1011400050E00E942E1180913D0190913E01820F4E
:10115000931F0E94AD070E94D4029B01AC01BE0107
:101160008CED91E00E94FF022396DDCF8CED91E0A3
:101170000E947403C301B201A70196010E942E11BF
:1011800080913D0190913E01280F391F30933E011F
:1011900020933D018FEFA81AB80A83E0A816B10486
:1011A00009F61BC120913B0130913C018091DE0189
:1011B0009091DF018217930720F410923C01109266
:1011C0003B0160913B0170913C01A50194018CEDC4
:1011D00091E00E94FF0260913B0170913C016150DF
:1011E000710920E030E0A9018CED91E00E94FF023E
:1011F0008CED91E00E94740380913B0190913C0141
:10120000019690933C0180933B01E7C0C5E0D0E09C
:10121000F4E68F2E912CA12CB12C0E94C110A501B7
:1012200094010E942E112B013C01C090DE01D09050
:10123000DF01E12CF12CC114D104E104F10441F0EF
:101240000E94C110A70196010E942E116B017C0122
:10125000D301C2019927AA27BB27BC0155274427E0
:101260004424582E692E7A2E442955296629772937
:101270009A01AB01282B392B4A2B5B2B6C2D70E08C
:101280008CED91E00E94FF02219739F68CED91E000
:101290000E9474038CED91E0DF91CF91FF90EF906D
:1012A000DF90CF90BF90AF909F908F907F906F9086
:1012B0005F904F900C94F602E12CF12C44E6842EC2
:1012C000912CA12CB12C67018091DE019091DF015E
:1012D000C816D90628F50E94C110A50194010E94E4
:1012E0002E11DC01CB019927AA27BB27BC0155276A
:1012F00044274424582E692E7A2E442955296629DC
:1013000077299A01AB01282B392B4A2B5B2BB6018D
:101310008CED91E00E94FF0283E0C80ED11CD4CF77
:101320008CED91E00E9474038FEFE81AF80A83E0D5
:10133000E816F10441F651C0C0E0D0E080913D01D3
:1013400090913E010E94AD070E94D4029B01AC0126
:10135000BE018CED91E00E94FF022196C530D105BF
:1013600069F7C5E0D0E080913D0190913E01905831
:101370000E94AD070E94D4029B01AC01BE018CED1E
:1013800091E00E94FF022196CA30D10561F78CEDF1
:1013900091E00E9474032C2DCC0C330B440B550BA5
:1013A00060E070E081E090E00E942E1180913D01AC
:1013B00090913E01280F391F30933E0120933D014B
:1013C0000CC027301CF081E0809309018091090155
:1013D000811103C086E080930901DF91CF91FF90D6
:1013E000EF90DF90CF90BF90AF909F908F907F90C5
:1013F0006F905F904F90089590E0FC01E257FE4F90
:101400002491FC01EE55FE4F3491FC01E054FE4F57
:10141000E491EE2309F43CC0222339F1233091F00A
:1014200038F42130A9F0223001F584B58F7D12C047
:10143000273091F02830A1F02430B9F48091800059
:101440008F7D03C0809180008F77809380000DC0D6
:1014500084B58F7784BD09C08091B0008F7703C0B9
:101460008091B0008F7D8093B000F0E0EE0FFF1F01
:10147000EA54FE4FA591B4919FB7F894611104C04E
:101480008C913095382302C0EC913E2B3C939FBF4A
:101490000895CF93DF9390E0FC01EE55FE4F249129
:1014A000FC01E054FE4F8491882361F190E0880FA5
:1014B000991FFC01EC57FE4FC591D491FC01EA54F1
:1014C000FE4FA591B491611109C09FB7F89488812E
:1014D000209582238883EC912E230BC0623061F427
:1014E0009FB7F8948881322F309583238883EC91BD
:1014F0002E2B2C939FBF06C08FB7F894E8812E2B1C
:1015000028838FBFDF91CF9108953FB7F8948091E2
:10151000A7029091A802A091A902B091AA0226B5B3
:10152000A89B05C02F3F19F00196A11DB11D3FBF1B
:10153000BA2FA92F982F8827820F911DA11DB11DA9
:10154000BC01CD0142E0660F771F881F991F4A95A5
:10155000D1F708951F920F920FB60F9211242F9377
:101560003F938F939F93AF93BF938091A3029091EA
:10157000A402A091A502B091A6023091A20223E09C
:10158000230F2D3720F40196A11DB11D05C026E8BB
:10159000230F0296A11DB11D2093A2028093A302E6
:1015A0009093A402A093A502B093A6028091A702F3
:1015B0009091A802A091A902B091AA020196A11D42
:1015C000B11D8093A7029093A802A093A902B093A3
:1015D000AA02BF91AF919F918F913F912F910F9050
:1015E0000FBE0F901F901895CF93DF93EC01898564
:1015F0009A850E9457128E819F8197FD05C060E0F9
:10160000DF91CF910C94490ADF91CF9108958CED31
:1016100091E00E94F40A84E392E00E94F40A8EE1D1
:1016200092E00E94F40A88E092E00E94F40A82EFBD
:1016300091E00E94F40A8AE492E00E94F40A80E6B3
:1016400092E00E94F40A86E792E00E94F40A8CE895
:1016500092E00C94F40A789484B5826084BD84B5D9
:10166000816084BD85B5826085BD85B5816085BD9D
:1016700080916E00816080936E0010928100809155
:1016800081008260809381008091810081608093DD
:101690008100809180008160809380008091B10002
:1016A00084608093B1008091B00081608093B0002D
:1016B00080917A00846080937A0080917A008260C1
:1016C00080937A0080917A00816080937A00809183
:1016D0007A00806880937A001092C10080E090E0E8
:1016E0000E9418118D30B1F16DE080E090E00E9411
:1016F00020116091020181E090E00E942011609130
:10170000090182E090E00E9420116091070183E0CE
:1017100090E00E9420116091050184E090E00E9419
:1017200020118091030190910401C4E6D0E0BE0134
:101730000E94A51185E090E00E9420118091000197
:1017400090910101BE010E94A51186E090E00E94E7
:10175000201136C081E090E00E94181180930201B0
:1017600082E090E00E9418118093090183E090E0EC
:101770000E94181190E0909308018093070184E083
:1017800090E00E94181190E090930601809305016B
:1017900085E090E00E94181124E6829FC001112488
:1017A000909304018093030186E090E00E94181159
:1017B00024E6829FC00111249093010180930001CF
:1017C000E0914F01F091500182E08083E0914B0164
:1017D000F0914C011082E0914D01F0914E018FEC9F
:1017E000808310925701E0915301F091540186E0FB
:1017F0008083E0915101F09152018081806180836A
:10180000E0915101F0915201808188608083E091E4
:101810005101F0915201808180688083E0915101F3
:10182000F091520180818F7D808361E08FE00E9482
:10183000490A61E081E10E94490A61E080E10E9479
:10184000490A61E082E10E94490AF89410928000FE
:10185000109281001092B00081E08093700080931C
:101860006F00809181008160809381008091B10040
:1018700081608093B100789486E1ECE8F2E0A2EF19
:10188000B1E001900D928A95E1F786E1E6E7F2E09A
:10189000A8E0B2E001900D928A95E1F786E1E0E6DA
:1018A000F2E0AEE1B2E001900D928A95E1F786E1B7
:1018B000EAE4F2E0A4E3B2E001900D928A95E1F748
:1018C000CAE4D2E002EF11E0C8010E946702C80139
:1018D0000E94740362E3C8010E9426020A5E1F4F41
:1018E00082E00A34180781F78CED91E00E946702CC
:1018F0008CED91E00E94740362E38CED91E00E9414
:10190000260214E6212E312C02EF11E0609107012E
:10191000C8010E9426020A5E1F4FC017D107B1F707
:10192000609105018CED91E00E9426024090030138
:101930005090040192012150310980913901909118
:101940003A01821793070CF42CC20E94C110CB01FC
:101950000E94AD070E94D4024B015C010E94C1109D
:1019600080910201082F082E000C110B220B330B63
:10197000F8013197E730F10508F003C2EC5CFF4F46
:101980000C94B911062F10E08091F4019091F501AB
:101990008017910718F40E94C110F4CFB2EFEB2E1C
:1019A000B1E0FB2EA5019401B801C7010E94FF021E
:1019B000C7010E947403C7010E94F60296E1E90E76
:1019C000F11CCE15DF0571F7E8C1C090F401D0908D
:1019D000F501E12CF12CC114D104E104F10441F032
:1019E0000E94C110A70196010E942E116B017C017B
:1019F00002EF11E0D12CA5019401B601C8010E94AB
:101A0000FF02C8010E9474030A5E1F4FC017D1076E
:101A100091F7C3C1E12CF12C042C000C5508660889
:101A2000770887012091F4013091F501021713071F
:101A300040F5C801A0E0B0E07727662740E050E01D
:101A40000E942E118091370190913801820F931FCF
:101A50000E94AD070E94D4024B015C01A2EFCA2E86
:101A6000A1E0DA2EA5019401B801C6010E94FF028F
:101A700026E1C20ED11CCC15DD05A1F70D5F1F4F6D
:101A8000D1CF82EF91E00E94740388E092E00E943F
:101A900074038EE192E00E94740384E392E00E945A
:101AA000740360E070E081E090E0A30192010E9485
:101AB0002E118091370190913801280F391F3093F2
:101AC0003801209337018FEFE81AF80A93E0E916FE
:101AD000F10409F0A6CF61C18091F4019091F50164
:101AE000019620913501309136018217930720F439
:101AF000109236011092350102EF11E0609135012C
:101B000070913601A5019401C8010E94FF02609105
:101B10003501709136016150710920E030E0A90172
:101B2000C8010E94FF02C8010E9474030A5E1F4F91
:101B3000C017D10719F780913501909136010196B0
:101B4000909336018093350128C1E5E0CE2ED12C4B
:101B50000E94C11024E630E040E050E00E942E11C7
:101B6000DC01CB019927AA27BB275C019924882493
:101B70000027182F292F3A2F802A912AA22AB32A28
:101B8000882A992AAA2ABB2A0091F4011091F5010A
:101B90002801612C712C411451046104710441F03D
:101BA0000E94C110A30192010E942E112B013C0141
:101BB00052EFE52E51E0F52E042D10E0A501940121
:101BC000B801C7010E94FF0226E1E20EF11CCE150A
:101BD000DF05A1F781E0C81AD10809F0B9CF02EFFB
:101BE00011E0C8010E947403C8010E94F6020A5E57
:101BF0001F4FC017D107A9F7D0C000E010E078014F
:101C00008091F4019091F501E816F90690F50E9493
:101C1000C11024E630E040E050E00E942E11DC01CB
:101C2000CB019927AA27BB273C01552444248824AB
:101C3000982EA92EBA2E84289528A628B728882A57
:101C4000992AAA2ABB2A42EFC42E41E0D42EA5012C
:101C50009401B701C6010E94FF0296E1C90ED11C92
:101C60002AE4C21622E0D20691F783E0E80EF11CC6
:101C7000C7CF82EF91E00E94740388E092E00E9457
:101C800074038EE192E00E94740384E392E00E9468
:101C900074030F5F1F4F0330110509F0B0CF7DC0F3
:101CA00002EF11E0E12CF12C809137019091380185
:101CB000905C0E94AD070E94D4029B01AC01B70169
:101CC000C8010E94FF029FEFE91AF90A28E0E21614
:101CD000F10451F798E0E92EF12C809137019091B1
:101CE000380190580E94AD070E94D4029B01AC01BC
:101CF000B701C8010E94FF028FEFE81AF80A9EE0C0
:101D0000E916F10451F78EE0E82EF12C80913701AD
:101D10009091380190540E94AD070E94D4029B011B
:101D2000AC01B701C8010E94FF022FEFE21AF20ACC
:101D300082E1E816F10451F7C8010E947403E090B3
:101D40003701F090380190ECF91AF0923801E092E6
:101D500037010A5E1F4FC017D10709F0A3CF242D0A
:101D6000440C330B440B550B60E070E081E090E0D5
:101D70000E942E112E0D3F1D309338012093370104
:101D80000CC088301CF021E02093020180910201F8
:101D9000811103C087E08093020110923A011092F2
:101DA00039018091000190910101AC01415051092C
:101DB000209133013091340124173507C4F120916B
:101DC0000901243071F520910201243051F5409130
:101DD000F4015091F50120913501309136014217FF
:101DE000530719F421E0209332012091320121118F
:101DF0000E941C088091DE019091DF0101962091E4
:101E00003B0130913C018217930769F48CED91E01E
:101E10000E94F6028CED91E00E9474031092320150
:101E200002C00E941C08109234011092330180916C
:101E300033019091340101969093340180933301E2
:101E40008091390190913A01019690933A018093E3
:101E5000390180913101882309F460C06DE080E090
:101E600090E00E9420116091020181E090E00E94C8
:101E700020116091090182E090E00E9420116091A0
:101E8000070183E090E00E9420116091050184E049
:101E900090E00E9420118091030190910401B10112
:101EA0000E94A51185E090E00E9420118091000120
:101EB00090910101B1010E94A51186E090E00E947D
:101EC0002011F89460E08FE00E94FC0960E080E15E
:101ED0000E94FC0960E081E10E94FC0960E082E16F
:101EE0000E94FC098FEF93ED20E381509040204049
:101EF000E1F700C0000061E08FE00E94FC0961E0B2
:101F000080E10E94FC0961E081E10E94FC0961E03E
:101F100082E10E94FC091092310178940E941C0217
:101F2000F3CC109242011092410188EE93E0A0E0C0
:101F3000B0E08093430190934401A0934501B09396
:101F4000460188E191E09093400180933F0185EC48
:101F500090E090934C0180934B0184EC90E090933F
:101F60004E0180934D0180EC90E09093500180935E
:101F70004F0181EC90E0909352018093510182ECEB
:101F800090E0909354018093530186EC90E09093FD
:101F900056018093550110925801109259011092E8
:101FA0005A0110925B0145E050E060E170E08CE87E
:101FB00092E00E94191046E050E060E170E086E790
:101FC00092E00E94191047E050E060E170E080E686
:101FD00092E00E94191048E050E060E170E08AE46D
:101FE00092E00E941910E2EFF1E081E02FEF3FEF65
:101FF00092E08083118213821282158214823783C9
:102000002683108612861186838714869587868795
:102010001786108A118A128A769642E0EA34F4070B
:1020200041F749E050E068E070E08CED91E00C94FD
:102030001910CF92DF92EF92FF920F931F93CF93DD
:10204000DF93EC016B01F42EE52E198218861F86B2
:10205000188A198A1A8A81E08E878B871C8692E0FB
:102060009D8788838B01000F111F060F171F1D838B
:102070000C83C8010E94BF119A878987009741F09D
:10208000A80160E070E00E94E512DB82CA8204C011
:102090001D821C821B821A82FE82EF828981882324
:1020A00041F061E08F2D0E94490A60E08F2D0E946F
:1020B000FC098F2D9E2DFC01E054FE4FE491F0E0D1
:1020C000EE0FFF1FEA54FE4F259134913C8B2B8B72
:1020D000FC01EE55FE4FE491ED8BDF91CF911F9106
:1020E0000F91FF90EF90DF90CF9008958F929F9285
:1020F000AF92BF92CF92DF92EF92FF92CF93DF9396
:10210000EC01688179818A819B8161157105810566
:10211000910521F464E279ED8BE597E02DE133EF51
:1021200041E050E00E942E1149015A019B01AC018F
:10213000A7EAB1E40E944D116B017C01ACEEB4EF53
:10214000A50194010E945B11DC01CB018C0D9D1D4A
:10215000AE1DBF1DB7FF03C00197A109B04888831A
:102160009983AA83BB83BC01CD019F77DF91CF9177
:10217000FF90EF90DF90CF90BF90AF909F908F90A7
:1021800008958F929F92AF92BF92CF92DF92EF927B
:10219000FF9260910A0170910B0180910C01909166
:1021A0000D01611571058105910521F464E279ED58
:1021B0008BE597E02DE133EF41E050E00E942E11D6
:1021C00049015A019B01AC01A7EAB1E40E944D11FB
:1021D0006B017C01ACEEB4EFA50194010E945B1190
:1021E000DC01CB018C0D9D1DAE1DBF1DB7FF03C0D3
:1021F0000197A109B04880930A0190930B01A09325
:102200000C01B0930D01BC01CD019F77FF90EF90C1
:10221000DF90CF90BF90AF909F908F900895609384
:102220000A0170930B0180930C0190930D010895A6
:10223000F999FECF92BD81BDF89A992780B508958E
:10224000262FF999FECF1FBA92BD81BD20BD0FB6D2
:10225000F894FA9AF99A0FBE01960895052E97FB05
:102260001EF400940E94451157FD07D00E94601192
:1022700007FC03D04EF40C944511509540953095D1
:1022800021953F4F4F4F5F4F0895909580957095E2
:1022900061957F4F8F4F9F4F08950E948211A59F98
:1022A000900DB49F900DA49F800D911D1124089551
:1022B000B7FF0C944D110E944D11821B930B089592
:1022C000A1E21A2EAA1BBB1BFD010DC0AA1FBB1F3A
:1022D000EE1FFF1FA217B307E407F50720F0A21BAC
:1022E000B30BE40BF50B661F771F881F991F1A9419
:1022F00069F760957095809590959B01AC01BD0143
:10230000CF010895A29FB001B39FC001A39F700D9C
:10231000811D1124911DB29F700D811D1124911DED
:102320000895AA1BBB1B51E107C0AA1FBB1FA6171C
:10233000B70710F0A61BB70B881F991F5A95A9F76E
:1023400080959095BC01CD01089597FB072E16F45A
:10235000009407D077FD09D00E94911107FC05D0A9
:102360003EF4909581959F4F0895709561957F4FAC
:102370000895EE0FFF1F0590F491E02D09940F933F
:102380001F93CF93DF938230910510F482E090E0A9
:10239000E091AD02F091AE0220E030E0A0E0B0E0CC
:1023A000309719F1408151810281138148175907F3
:1023B000C8F08417950769F4109731F012960C93C2
:1023C000129713961C9327C00093AD021093AE0290
:1023D00022C02115310519F04217530718F49A014C
:1023E000BD01EF01DF01F801DBCF21153105F9F067
:1023F000281B390B2430310580F48A819B816115BB
:10240000710521F0FB019383828304C09093AE0297
:102410008093AD02FE01329644C0FE01E20FF31F2D
:102420008193919322503109398328833AC02091B6
:10243000AB023091AC02232B41F42091100130917A
:1024400011013093AC022093AB0220910E01309128
:102450000F012115310541F42DB73EB7409112010E
:1024600050911301241B350BE091AB02F091AC02AB
:10247000E217F307A0F42E1B3F0B2817390778F05B
:10248000AC014E5F5F4F2417350748F04E0F5F1FBA
:102490005093AC024093AB028193919302C0E0E071
:1024A000F0E0CF01DF91CF911F910F910895CF936D
:1024B000DF93009709F481C0FC01329713821282E6
:1024C000A091AD02B091AE02109781F420813181CC
:1024D000820F931F2091AB023091AC02281739076D
:1024E00051F5F093AC02E093AB0267C0ED0120E040
:1024F00030E0CE17DF0740F44A815B819E01411531
:102500005105F1F0EA01F5CFD383C28340815181B7
:10251000840F951FC817D90759F488819981840FB2
:10252000951F0296918380838A819B819383828306
:102530002115310529F4F093AE02E093AD023DC0C0
:10254000E901FB83EA8349915991C40FD51FEC1728
:10255000FD0761F480819181840F951F0296E90146
:1025600099838883828193819B838A83E0E0F0E072
:1025700012968D919C911397009719F0FD01DC0143
:10258000F7CF8D919C9111979D012E5F3F4F820F48
:10259000931F2091AB023091AC022817390769F4E0
:1025A000309729F41092AE021092AD0202C013824D
:1025B0001282B093AC02A093AB02DF91CF91089549
:1025C00081E090E0F8940C94EC12DC0101C06D9372
:1025D00041505040E0F7089510E0CBEED0E004C049
:1025E000FE010E94B9112196CC3ED107C9F7F8949B
:0225F000FFCF1B
:1025F200E80304E803320032000401000000000096
:10260200AF02200000000000AD0116014401FA01F2
:0626120075015301670190
:00000001FF
