:100000000C94FB000C9423010C9423010C94230109
:100010000C9423010C9423010C9423010C942301D0
:100020000C9423010C9442100C9423010C94230192
:100030000C9423010C948A0C0C9423010C9423013E
:100040000C94FA0B0C9423010C94440C0C94230193
:100050000C9423010C9423010C9423010C94230190
:100060000C9423010C942301000000000000000008
:100070000000000000000000000000000000000080
:10008000010101010101010101010101020202025C
:10009000020202020303030303030404040405052C
:1000A00005050506060606070707080808090909E1
:1000B0000A0A0A0B0B0B0C0C0D0D0D0E0E0F0F1078
:1000C00010111112121313141415151616171818EF
:1000D00019191A1B1B1C1D1D1E1F1F202122222344
:1000E000242526262728292A2A2B2C2D2E2F30316D
:1000F00032333435363738393A3B3C3D3E3F404168
:10010000424445464748494B4C4D4E505152545538
:100110005658595A5C5D5E606163646667696A6CD3
:100120006D6F7072737577787A7C7D7F818284863B
:1001300088898B8D8F91929496989A9C9EA0A2A468
:10014000A6A8AAACAEB0B2B4B6B8BABCBFC1C3C55B
:10015000C7CACCCED1D3D5D7DADCDFE1E3E6E8EB12
:10016000EDF0F2F5F7FAFCFF000000002400270094
:100170002A000000000023002600290000000008DB
:10018000000201000003040700000000000000005E
:100190000000FF00007FFF0000FFFF0000FF7F0066
:1001A00000FF00007FFF0000FFFF0000FF7F000056
:1001B000FF000000FF007F00FF00FF007F00FF0046
:1001C00001020408102040800102040810200102EE
:1001D0000408102000000000250028002B00040463
:1001E00004040404040402020202020203030303DF
:1001F0000303F316541711241FBECFEFD4E0DEBF64
:10020000CDBF11E0A0E0B1E0E0E1F4E302C0059071
:100210000D92AE32B107D9F722E0AEE2B1E001C0F3
:100220001D92A938B207E1F710E0CAEFD0E004C090
:100230002197FE010E94C918C93FD107C9F70E9442
:10024000D4110C94FB190C940000CF92DF92EF9222
:10025000FF920F931F939C01AAEFB5E00E948618AE
:10026000DC01CB019058AF4FBF4FCD01BB2797FDAD
:10027000B095AB2F8E3F21E0920758F5282F8F3F86
:10028000910508F445C06EEF681B862F30E02FEF14
:10029000682F70E090E080E0CB0177276627D12CB3
:1002A000F12CE12C632B7D298E299F29022F10E050
:1002B00030E020E0322F212F102F0027602B712BF0
:1002C000822B932B1F910F91FF90EF90DF90CF9097
:1002D00008958C3F23E0920768F48D3F22E0920757
:1002E00028F432E0380F2FEF80E0D2CF2CEF281B1C
:1002F0003FEFFACF8A3F25E0920769F03AEF381BCB
:100300008B3F24E0920740F48C5F3FEF20E0C0CFAA
:1003100030E08FEFBDCF30E020E0FBCF833081F0C5
:1003200028F4813099F08230A9F008958730A9F03F
:100330008830C9F08430B1F4809180008F7D03C093
:10034000809180008F7780938000089584B58F77A7
:1003500084BD089584B58F7DFBCF8091B0008F77E9
:100360008093B00008958091B0008F7DF9CFCF9336
:10037000DF93282F30E0F901E458FE4F8491F90112
:10038000E054FE4FD491F901E252FE4FC491CC23C8
:10039000A1F081110E948E01EC2FF0E0EE0FFF1F03
:1003A000EE58FE4FA591B491EC91ED2381E090E0E1
:1003B00009F480E0DF91CF91089580E090E0FACFDA
:1003C0001F93CF93DF93282F30E0F901E458FE4FBD
:1003D0008491F901E054FE4FD491F901E252FE4FAD
:1003E000C491CC23A9F0162F81110E948E01EC2F0D
:1003F000F0E0EE0FFF1FEC52FE4FA591B4918FB7C6
:10040000F894EC91111108C0D095DE23DC938FBFD6
:10041000DF91CF911F910895DE2BF8CFCF93DF931B
:1004200090E0FC01E054FE4F249182529E4FFC016B
:1004300084918823C9F090E0880F991FFC01E85946
:10044000FE4FA591B491FC01EC52FE4FC591D491A1
:1004500061110DC09FB7F8948C91209582238C93E5
:100460008881282328839FBFDF91CF910895623030
:1004700051F49FB7F8943C91822F809583238C93FD
:10048000E8812E2BEFCF8FB7F894EC912E2B2C9385
:100490008FBFEACF8E50806480937C0080917A0079
:1004A000806480937A0080917A0086FDFCCF8091F1
:1004B00078009091790008953FB7F8948091E70112
:1004C0009091E801A091E901B091EA0126B5A89BBD
:1004D00005C02F3F19F00196A11DB11D3FBFBA2FD6
:1004E000A92F982F8827BC01CD01620F711D811D96
:1004F000911D42E0660F771F881F991F4A95D1F71B
:100500000895CF93DF9300D000D0CDB7DEB76983D5
:100510007A838B839C83DE011196CE010596ED9143
:10052000F0E0E859FF4F44919D0121503109F90154
:1005300040838A179B0799F769817A818B819C8117
:100540000F900F900F900F90DF91CF910895FF9231
:100550000F931F93CF93DF93EC01FF24F394F60ED8
:1005600028852F1581F109851A85215041F16F3FAA
:10057000E1F430E050E040E06FEF7FEF80E090E0AA
:100580000E943218B901F8014C815D81CF01801BB6
:10059000910B84179507B0F44081469FC001479F97
:1005A000900D112490833196EFCF8F2D90E0982FEE
:1005B00088270197622F70E00E94A118E4CF70E0B5
:1005C00060E0E1CFF886DF91CF911F910F91FF900E
:1005D00008954F925F926F927F928F929F92AF9207
:1005E000BF92EF92FF92CF93DF93DC0112968D9131
:1005F0009C9113976817790708F0E9C01E968C91B3
:100600001E971B969C911B9719964D915C911A977A
:1006100018968C901897282F30E01C96EC911C9718
:10062000F0E01D96AC91B0E0891364C0CB01880F57
:10063000991F680F791F460F571F240F351FE901B7
:100640002881E40FF51FF080A40FB51FCC918820FE
:1006500009F445C0912CB12CA12C622F70E0762FAB
:100660006627072E000C880B990BA50194010E94A8
:1006700064183901552444246F2D70E0762F6627C5
:10068000072E000C880B990BA50194010E94641899
:10069000B42FA32F922F8827482A592A6A2A7B2A07
:1006A0006C2F70E0762F6627072E000C880B990BB5
:1006B000A50194010E946418C301B201622B732B3F
:1006C000842B952BDF91CF91FF90EF90BF90AF904F
:1006D0009F908F907F906F905F904F9008956F2DB7
:1006E00070E090E080E0982F872F762F6627822B8E
:1006F0006C2BE8CF660F771F660F771F640F751F8F
:10070000260F371FE9013881EB01C90FD11DF88091
:10071000E60FF71FC081A60FB71FEC90882009F4E1
:100720004BC0912CB12CA12C632F70E0762F662743
:10073000072E000C880B990BA50194010E946418E8
:10074000722E6624552444246F2D70E0762F662780
:10075000072E000C880B990BA50194010E946418C8
:10076000A90133272227422A532A642A752A6E2D8B
:1007700070E0762F6627072E000C880B990BA501D9
:1007800094010E946418422A532A642A752A6C2F05
:1007900070E0762F6627072E000C880B990BA501B9
:1007A00094010E946418942F832F722F6627642966
:1007B00075298629972986CF6F2D70E090E080E01B
:1007C000CB0177276627932B6E297C2B7BCF60E0AC
:1007D00070E0CB0177CF8F929F92AF92BF92CF9272
:1007E000DF92EF92FF921F93CF93DF93FC01828100
:1007F000938168177907A8F54A01AA24BB24C82D5C
:10080000C32ED42EE52EFF241C2DD22F80858823C5
:1008100061F0889E40011124C92D8C9D6001112436
:100820001D2D829FD0011124DB2FA685E184F28447
:100830009385A91322C0CB01880F991F680F791FD8
:100840006E0D7F1DA385A60FB72FB11DCC93A48578
:10085000A60FB72FB11D1C938585680F711DFB0175
:10086000D083DF91CF911F91FF90EF90DF90CF90D9
:10087000BF90AF909F908F900895660F771F660F7F
:10088000771F6E0D7F1D252F33274427552788237B
:1008900049F090E0829F7001839FF00C929FF00CD2
:1008A00011242F2DA60FB72FB11D2C93CBCFCF9294
:1008B000DF92EF92FF920F931F93CF93DF93CDB709
:1008C000DEB729970FB6F894DEBF0FBECDBF8C01FF
:1008D000DC0119968D919C91892B09F473C00E94BB
:1008E0005C02F801C784D088E188F2886C157D0528
:1008F0008E059F0520F46787708B818B928BF801A2
:10090000C784D088E188F2886C197D098E099F0917
:100910006C3271408105910510F3F894D80114965A
:100920008D919C9115979A8389831996ED91FC91ED
:100930007F01BFEFEB1AFB0A80818987F801908164
:100940000388F489E02DD80155968C91992309F4F8
:1009500048C09081982B98879081809589238F83B8
:100960008F818C8388E08B8358856F8149853B819B
:100970002C8189819A81D701508347FD252F3A9593
:100980002083262F39F0441F00C000006083000040
:1009900000C0F2CF38E04D9160830000019761F70D
:1009A000D8015496FC93EE93539749873B832C834D
:1009B0009A83898378940E945C02F8016787708B20
:1009C000818B928B29960FB6F894DEBF0FBECDBFF8
:1009D000DF91CF911F910F91FF90EF90DF90CF901B
:1009E00008959081982B98879081809589238F8393
:1009F0008F818E8388E08D8358856F8149853D8105
:100A00002E8189819A81D701508347FD252F00C00F
:100A100000C0208300C000C000C000C000C06083D0
:100A20000000262F3A9541F0441F000000C000C08E
:100A300000C000C000C0E8CF38E04D9100C0608326
:100A400000C0019709F7D8015496FC93EE93539791
:100A500049873D832E83ACCFCF93DF93EC018E810A
:100A60009F8197FD07C061E00E940E0260E08E81C9
:100A70000E94E00181E08983DF91CF910895FC011C
:100A80004481558170E060E0818592850C94F41971
:100A9000CF92DF92EF92FF926B017C01C114D104DF
:100AA000E104F10441F00E94C417A70196010E94DD
:100AB00032186B017C01C701B601FF90EF90DF9007
:100AC000CF9008958F929F92AF92BF92CF92DF9274
:100AD000EF92FF920F931F93CF93DF93EC010E944D
:100AE000C417CB010E9425010E9481026B017C0189
:100AF0000E94C4178881873009F4ECC10CF054C0FF
:100B0000833009F424C184F4813009F4DCC08230DC
:100B100009F4FEC08D3014F081E088838881811152
:100B200050C18CE088834DC1853009F48BC10CF431
:100B300055C1D0E0C0E0C12CD12C7601CA9445E06B
:100B4000B42E8E0180910E0290910F0208171907A2
:100B500008F0B6C10E94C417A70196010E9432187E
:100B6000E62F462F572FBC01DA01992788278827BF
:100B70009927BB27762F652F542F44276627772781
:100B80009A01AB01282B392B4A2B5B2B8E2F6B2D17
:100B90000E949518E81B2E2BB8018CE092E00E9471
:100BA000EB030D5F1F4FCECF8A3009F4E9C10CF083
:100BB00060C0883009F4C7C1893009F0ABCF80919B
:100BC0002E0290912F020196209108023091090285
:100BD00082179307A0F410920902109208028CE089
:100BE00092E00E943F058CE092E00E943F058CE07D
:100BF00092E00E943F058CE092E00E943F05C4E035
:100C0000D0E0609108027091090290E080E0CB0191
:100C10007727662720910E0230910F02369527958F
:100C200050E040E00E94321880910A0290910B023D
:100C3000820F931F0E9425010E9481029B01AC013B
:100C400060910802709109028CE092E00E94EB032F
:100C50008CE092E00E945704219799F680910A0255
:100C600090910B028150984F90930B0280930A024F
:100C7000DFC08C3009F4CAC10CF49CC18D3409F07A
:100C800049CFD0E0C0E080910E0290910F02C817CA
:100C9000D90708F04CC0809129022091260230E04B
:100CA00050E040E0A90133272227582B80912802E9
:100CB000282B80912702382BBE018CE092E00E9405
:100CC000EB032196E0CF70E080910E0290910F022D
:100CD0008617970718F40E94C417F5CFA70196014D
:100CE0008CE092E00E94EB038CE092E00E945704BB
:100CF0008CE092E0DF91CF911F910F91FF90EF90E8
:100D0000DF90CF90BF90AF909F908F900C943F0555
:100D100060910E0270910F0290E080E00E94480501
:100D200070E0A70196018CE092E00E94EB038CE05A
:100D300092E0DF91CF911F910F91FF90EF90DF90A4
:100D4000CF90BF90AF909F908F900C94570410E07D
:100D500000E0E80120910E0230910F02C217D30784
:100D6000E8F4BE0190E080E0CB017727662750E0F1
:100D700040E00E94321880910A0290910B02820F8B
:100D8000931F0E9425010E9481029B01AC01BE01BC
:100D90008CE092E00E94EB032396DCCF8CE092E0A3
:100DA0000E94570480910A0290910B0280589F4F35
:100DB00090930B0280930A020F5F1F4F03301105BF
:100DC00041F6DF91CF911F910F91FF90EF90DF904F
:100DD000CF90BF90AF909F908F9008952091080280
:100DE0003091090280910E0290910F0282179307B1
:100DF00020F410920902109208026091080270918A
:100E00000902A70196018CE092E00E94EB03609139
:100E10000802709109026150710920E030E0A901D7
:100E20008CE092E00E94EB038CE092E00E94570479
:100E30008091080290910902019690930902809393
:100E40000802BFCFC5E0D0E0C12CD12C7601CA94F6
:100E50000BEA0E94C417A70196010E943218B62E11
:100E6000872E982EA92E609F812D112486951B2DEB
:100E7000181B60910E0270910F0290E080E00E94BA
:100E800048058B2D982DA92DBA2DAC01332722278B
:100E9000222733275527BA2FA92F982F8827AA272B
:100EA000BB27822B932BA42BB52B9C01AD01212BAF
:100EB00070E08CE092E00E94EB03219751F614CF92
:100EC0008CE092E00E9457042196C330D10509F0CE
:100ED00038CE77CFD0E0C0E080910A0290910B022B
:100EE0000E9425010E9481029B01AC01BE018CE0A1
:100EF00092E00E94EB032196C530D10569F78091FD
:100F00000A0290910B028D5C9C4C0E9425010E946C
:100F100081029B01AC01BE018CE092E00E94EB03D8
:100F20002196CA30D10559F78CE092E00E9457040F
:100F300080910A0290910B0280589F4F90930B0270
:100F400080930A023ECFD0E0C0E080910E029091E3
:100F50000F02C817D90708F0EACEE091840284E0B6
:100F6000E89FF0011124E057FE4F259135914591FE
:100F70005491BE018CE092E00E94EB032196E5CFF4
:100F800060910E0270910F0290E080E00E9448058F
:100F9000C62FD0E0BE018CE092E00E94E902672BF0
:100FA000682B692B19F0C12CD12C7601A701960171
:100FB000BE01B9CED0E0C0E01AE080910E0290915F
:100FC0000F02C817D90708F0FCCE65E470E080E096
:100FD00090E00E944805DC01CB010196A11DB11DE6
:100FE0002227382F492F5A2F44275527612F0E9437
:100FF0009518282B4F6FBE018CE092E00E94EB0306
:101000008CE092E00E9457042196D7CFC3E0D0E055
:1010100032E0832E912CA12CB12C0E94C417A50183
:1010200094010E9432188FEF662311F080E06FEF79
:1010300090E0B0E0A0E0CC24D82EE92EFA2EE62AEB
:1010400060910E0270910F0290E080E00E944805CE
:10105000A70196018CE092E00E94EB032197E9F64C
:1010600043CE2F923F924F925F926F927F928F92D8
:101070009F92BF92CF92DF92EF92FF920F931F93B6
:10108000CF93DF93FC019081973009F470C20CF08C
:1010900040C0933009F42DC184F4913009F4CEC0DE
:1010A000923009F402C19D3014F081E08083808188
:1010B0008111E9C08CE08083E6C0953009F4AFC1AE
:1010C0000CF46DC110E000E0C12CD12C7601CA9463
:1010D000D5E0BD2EE80180912E0290912F02C81715
:1010E000D90708F411C28CE292E00E94570482E40E
:1010F00092E00E94570488E592E00E9457048EE631
:1011000092E00E9457040F5F1F4F0330110511F743
:10111000BAC09A3009F4ADC20CF061C0983009F43D
:101120007EC2993009F0BFCF80912E0290912F029C
:1011300001962091EB013091EC0182179307A0F406
:101140001092EC011092EB018CE292E00E943F05BC
:1011500082E492E00E943F0588E592E00E943F050C
:101160008EE692E00E943F05CCE2D2E06091EB0176
:101170007091EC0190E080E0CB0177276627209109
:101180002E0230912F022F5F3F4F50E040E00E942F
:1011900032188091ED019091EE01820F931F0E9411
:1011A00025010E9481029B01AC016091EB017091CD
:1011B000EC01CE010E94EB03CE010E94570466961B
:1011C00082E0C438D80791F68091ED019091EE014C
:1011D0008150984F9093EE018093ED0116C19C30A1
:1011E00009F4CCC20CF474C2CCE2D2E09D3409F014
:1011F0005ACFCE010E943F0510E000E08091060228
:10120000909107020817190708F0EAC28091290295
:101210002091260230E050E040E0A9013327222748
:10122000582B80912802282B80912702382BB80157
:10123000CE010E94EB030F5F1F4FE0CFCCE2D2E064
:1012400004E812E00E94C417CB010E9425010E940D
:1012500081026B017C0160912E0270912F0290E05F
:1012600080E00E94480570E0A7019601CE010E942F
:10127000EB03CE010E945704CE010E943F05669603
:101280000C171D07F9F6DF91CF911F910F91FF9079
:10129000EF90DF90CF90BF909F908F907F906F9056
:1012A0005F904F903F902F90089560912E02709123
:1012B0002F0290E080E00E944805062F0E94C4178C
:1012C000CB010E9425010E9481026B017C01CCE2CE
:1012D000D2E010E0A7019601B801CE010E94EB0315
:1012E000CE010E945704669622E0C438D20791F7D7
:1012F000CACF10E000E064E8C62E62E0D62EE80116
:1013000020912E0230912F02C217D30700F18CE2F8
:1013100092E00E94570482E492E00E94570488E51C
:1013200092E00E9457048EE692E00E94570480915A
:10133000ED019091EE0180589F4F9093EE018093C4
:10134000ED010F5F1F4F03301105C9F69CCFBE01A1
:1013500090E080E0CB017727662750E040E00E94D4
:1013600032188091ED019091EE01820F931F0E943F
:1013700025010E9481022B013C015CE2E52E52E036
:10138000F52EA3019201BE01C7010E94EB0386E185
:10139000E80EF11CCE14DF04A1F72396B1CF8091A3
:1013A0002E0290912F0201962091EB013091EC01D9
:1013B0008217930720F41092EC011092EB01CCE21B
:1013C000D2E00E94C417CB010E9425010E94810235
:1013D0009B01AC016091EB017091EC01CE010E9488
:1013E000EB036091EB017091EC016150710920E019
:1013F00030E0A901CE010E94EB03CE010E94570408
:10140000669622E0C438D207E1F68091EB01909114
:10141000EC0101969093EC018093EB0134CFC3E093
:10142000D0E0C12CD12C7601CA9415E00E94C417DB
:10143000A70196010E9432189B01AB01BC012A0151
:1014400033242224222433245524762F652F542F2D
:10145000442766277727242A352A462A572A822FA7
:10146000612F0E949518281B222A60912E027091EC
:101470002F0290E080E00E9448059CE2692E92E0F5
:10148000792E862E912CA2019101B401C3010E94F4
:10149000EB0386E1680E711C24E8621622E07206F6
:1014A00091F7219719F68CE292E00E9457048CE2A2
:1014B00092E00E943F0582E492E00E94570482E499
:1014C00092E00E943F0588E592E00E94570488E57B
:1014D00092E00E943F058EE692E00E9457048EE65D
:1014E00092E0DF91CF911F910F91FF90EF90DF90ED
:1014F000CF90BF909F908F907F906F905F904F9014
:101500003F902F900C943F050E94C417A7019601AD
:101510000E9432189B01AB01BC013A0155244424BE
:10152000442455247724762F652F542F442766278B
:101530007727442A552A662A772A822F6B2D0E9404
:101540009518281B422ABCE28B2EB2E09B2EA301E9
:101550009201BE01C4010E94EB0386E1880E911C3A
:1015600024E8821622E0920691F72396B4CD0CE28D
:1015700012E0D0E0C0E08091ED019091EE01905C2E
:101580000E9425010E9481029B01AC01BE01C8019D
:101590000E94EB032196C830D10569F78091ED01D7
:1015A0009091EE0190580E9425010E9481029B01BA
:1015B000AC01BE01C8010E94EB032196CE30D105DB
:1015C00069F78091ED019091EE0190540E94250100
:1015D0000E9481029B01AC01BE01C8010E94EB0385
:1015E0002196C231D10569F7C8010E945704809144
:1015F000ED019091EE019C01305C3093EE0120935F
:10160000ED010A5E1F4F22E00438120709F0B1CF46
:1016100080589F4B9093EE018093ED0134CECCE245
:10162000D2E0CE010E943F0510E000E0809106026A
:10163000909107020817190798F4E091050284E0D9
:10164000E89FF0011124E057FE4F25913591459117
:101650005491B801CE010E94EB030F5F1F4FE6CFFC
:10166000CE010E945704669622E0C438D207C9F61C
:101670000ACE60912E0270912F0290E080E00E94CD
:101680004805062F0E94C417CB010E9425010E9425
:1016900081026B017C01CCE2D2E010E0B801CE0106
:1016A0000E94E902672B682B692B19F0C12CD12C01
:1016B0007601A7019601B801CE010E94EB03CE018D
:1016C0000E945704669622E0C438D20739F7DBCD72
:1016D000D0E0C0E01AE08091F1019091F201C817CA
:1016E000D90708F18CE292E00E94570482E492E06C
:1016F0000E94570488E592E00E9457048EE692E02B
:10170000DF91CF911F910F91FF90EF90DF90CF90DD
:10171000BF909F908F907F906F905F904F903F9081
:101720002F900C94570465E470E080E090E00E94F4
:101730004805DC01CB010196A11DB11DCC24D82E9A
:10174000E92EFA2EEE24FF24612F0E949518C82A54
:10175000EE24EA945CE2852E52E0952EA7019601D4
:10176000BE01C4010E94EB0386E1880E911C24E8AF
:10177000821622E0920691F72196ADCF03E010E0A9
:1017800032E0432E512C612C712C0E94C417A3010E
:1017900092010E9432188FEF662311F080E06FEF04
:1017A00090E0B0E0A0E0CC24D82EE92EFA2EE62A74
:1017B000CCE2D2E06091F1017091F20190E080E022
:1017C0000E944805A7019601CE010E94EB03669690
:1017D00082E0C438D80771F701501109B1F663CE21
:1017E000CE010E945704669622E0C438D20709F061
:1017F00000CD49CD1F920F920FB60F9211242F9357
:101800003F938F939F93AF93BF938091E301909108
:10181000E401A091E501B091E6013091E20123E0FD
:10182000230F2D3758F50196A11DB11D2093E2011C
:101830008093E3019093E401A093E501B093E60166
:101840008091E7019091E801A091E901B091EA014E
:101850000196A11DB11D8093E7019093E801A0932B
:10186000E901B093EA01BF91AF919F918F913F91B0
:101870002F910F900FBE0F901F90189526E8230F01
:101880000296A11DB11DD2CF1F920F920FB60F92DB
:1018900011248F939F93EF93FF938091D301811134
:1018A00030C08091C600E0914501F0914601E157BA
:1018B000FE4F808380918F01833239F480914401FF
:1018C000811103C081E08093440180914401882309
:1018D00049F080914501909146010196909346010F
:1018E000809345018091450190914601079749F405
:1018F000109246011092450181E08093D30110922D
:101900004401FF91EF919F918F910F900FBE0F9027
:101910001F9018951F920F920FB60F9211242F93BC
:101920003F934F935F936F937F938F939F93AF9367
:10193000BF93EF93FF938EE00E944A02909343017E
:1019400080934201809142019091430188349140FB
:1019500074F08091420190914301803791403CF4B2
:1019600081E090E0909343018093420123C08091F5
:101970004201909143018C3E914044F0809142019C
:1019800090914301843192400CF4C3C08091420194
:1019900090914301803992400CF0BEC08091420189
:1019A00090914301823592400CF0C1C010924301E6
:1019B0001092420180914101882319F08150809357
:1019C0004101209142013091430180912302232B58
:1019D00021F090914101992319F0882309F41EC147
:1019E00020914201309143012430310519F492E3F2
:1019F0009093410120914201309143012230310501
:101A000041F41092DF0191E09093400192E39093B2
:101A1000410120914201309143012130310541F4CF
:101A20001092DF0191E090933F0192E39093410186
:101A300020914201309143012330310551F410923D
:101A4000DF0191E090933E011092E00192E39093C8
:101A50004101833189F480912402813309F472C0F9
:101A6000823309F473C0803329F481E080933E010E
:101A7000109226021092230280913E01882379F071
:101A800080913C0190913D01843091050CF062C041
:101A9000019690933D0180933C0110923E0180910C
:101AA0003C0190913D01009709F059C0809142019D
:101AB00090914301049719F481E08093CF01109233
:101AC000400110923F0180913C0190913D01823094
:101AD000910509F0CDC08091D0019091D101813064
:101AE000910509F082C080914001882339F08091EE
:101AF00001018F5F809301011092400180913F01AD
:101B0000882309F48BC080910101815080930101E9
:101B100083C082E090E026CF809142019091430102
:101B2000883B92400CF03ACF83E090E01BCF80914D
:101B30004201909143018A3792400CF037CF84E004
:101B400090E010CF81E08093400192CF81E08093BC
:101B50003F018ECF10923D0110923C019ECF019724
:101B600009F0B1CF80918E01882351F083E08093FA
:101B7000010163E081E090E00E94241810928E0140
:101B800080914001882359F08091D0019091D1013A
:101B900001969093D1018093D001109240018091E1
:101BA0003F01882359F08091D0019091D101019794
:101BB0009093D1018093D00110923F018091D00188
:101BC0009091D101039724F01092D1011092D0018D
:101BD0008091D0019091D10197FF75CF82E090E084
:101BE0009093D1018093D0016ECF8230910539F569
:101BF00080914001882339F0809100018F5F8093AC
:101C000000011092400180913F01882339F08091BA
:101C1000000181508093000110923F01FF91EF91EC
:101C2000BF91AF919F918F917F916F915F914F91F4
:101C30003F912F910F900FBE0F901F901895892BF9
:101C400069F780914001882349F0809100018F5FFE
:101C500080930001809301011092400180913F0127
:101C60008823E1F2809100018150809300014ECFE2
:101C70008330910509F0BAC18091D0019091D101D2
:101C800081309105D1F580914001882359F08091F0
:101C90000801909109010896909309018093080129
:101CA0001092400180913F01882359F080910801F2
:101CB000909109010897909309018093080110926F
:101CC0003F018091080190910901089730F488E064
:101CD00090E0909309018093080180910801909110
:101CE00009018F3F910509F008F498CF8FEF90E03C
:101CF000909309018093080191CF82309105D1F52D
:101D000080914001882359F080910601909107014C
:101D100008969093070180930601109240018091EC
:101D20003F01882359F0809106019091070108979F
:101D3000909307018093060110923F018091060164
:101D400090910701089730F488E090E090930701A4
:101D50008093060180910601909107018F3F9105C4
:101D600009F008F45BCF8FEF90E090930701809328
:101D7000060154CF892B09F051CF8091400188236F
:101D800079F08091080190910901089690930901DA
:101D900080930801909307018093060110924001FF
:101DA00080913F01882379F0809108019091090189
:101DB00008979093090180930801909307018093FD
:101DC000060110923F018091080190910901089746
:101DD00050F488E090E0909309018093080190937B
:101DE00007018093060180910801909109018F3FBE
:101DF000910509F008F412CF8FEF90E0909309015C
:101E000080930801B2CF109205020CC180910201AB
:101E100090910301885C91099093030180930201E2
:101E200001C181500FC1809102019091030188533B
:101E30009F4F909303018093020106C18230910568
:101E400009F059C080914001882369F08091000118
:101E50008830C9F5809184028F5F8C3088F580933B
:101E600084021092400180913F01882369F08091A3
:101E700000018830A9F58091840281112FC08BE088
:101E80008093840210923F0180910401909105019A
:101E9000883C910530F488EC90E0909305018093A4
:101EA0000401809104019091050181329E4408F45F
:101EB000B5CE80E29EE49093050180930401AECEFE
:101EC00010928402CECF8091040190910501885C2C
:101ED00091099093050180930401C3CF8150D0CF25
:101EE000809104019091050188539F4F90930501C3
:101EF00080930401C7CF892B09F090CE80914001D7
:101F00008823D9F080910101883009F057C0809171
:101F100005028F5F8C3008F04EC0809305028091DF
:101F20000201909103019093050180930401809137
:101F30000502809384021092400180913F01882322
:101F4000D1F080910101883009F045C080910502EF
:101F500081113FC08BE08093050280910201909136
:101F60000301909305018093040180910502809301
:101F7000840210923F018091020190910301883CFC
:101F8000910550F488EC90E0909303018093020156
:101F900090930501809304018091020190910301C7
:101FA00081329E4408F43ACE80E29EE4909303018D
:101FB0008093020180CF10920502B1CF809102017F
:101FC00090910301885C9109909303018093020131
:101FD000A6CF8150C0CF8091020190910301885318
:101FE0009F4F9093030180930201B7CF049709F0AC
:101FF00015CE8091D0019091D1018130910509F0E9
:102000001DCF80914001882379F0809101018830B3
:1020100009F0FCCE809105028F5F8C3008F0F3CE82
:10202000809305021092400180913F01882371F056
:1020300080910101883009F0F6CE8091050281116E
:10204000F0CE8BE08093050210923F018091020157
:1020500090910301883C910530F488EC90E09093D6
:10206000030180930201809102019091030181326A
:102070009E4408F4D3CD80E29EE4909303018093C4
:102080000201CCCD1F920F920FB60F9211241F9315
:102090002F933F934F935F936F937F938F939F9370
:1020A000AF93BF93CF93DF93EF93FF938BE00E94A7
:1020B000B701182F8CE00E94B701EC018DE00E945F
:1020C000B701CC0FDD1F880F991F880F991FC82BF0
:1020D000C12B87E090E0C23081F03CF483E090E0D7
:1020E000C13059F082E190E008C08AE090E0C3304E
:1020F00021F08FE090E0C430A9F79093070280931D
:10210000060280913B01882311F180913A018823D6
:1021100009F473C0909149018091470198136DC0F3
:102120008091380190913901019690933901809303
:1021300038010E94C41723E030E040E050E00E94E4
:1021400032186093470110923A0110923B0180913E
:102150003701882311F1909149018091480198132A
:102160001CC080913A01882309F458C08091350140
:1021700090913601019690933601809335010E942B
:10218000C41723E030E040E050E00E943218609332
:10219000480110923A011092370180913C019091D0
:1021A0003D018230910509F47BC00CF048C00097D6
:1021B00009F452C061E0019709F473C02091D00185
:1021C0003091D1012115310509F488C08091340185
:1021D0002130310509F07CC0823309F47FC0853697
:1021E00034F061E081E10E94E001109234018091BD
:1021F00034018F5F809334013FC08091380190910A
:102200003901892B09F49FCF8091380190913901D0
:102210000197909339018093380195CF80913501D2
:1022200090913601892B09F4B4CF809135019091BA
:10223000360101979093360180933501AACF833000
:102240009105D9F1049709F0B9CF60E08FE00E94C1
:10225000E00161E082E137C061E081E10E94E001DC
:1022600061E080E10E94E00161E082E10E94E00122
:1022700061E08FE00E94E001FF91EF91DF91CF914B
:10228000BF91AF919F918F917F916F915F914F918E
:102290003F912F911F910F900FBE0F901F90189597
:1022A00060E080E10E94E00161E082E10E94E001E3
:1022B00061E08FE00E94E00181CF60E082E10E9456
:1022C000E00161E08FE00E94E00161E080E1F2CF97
:1022D0002230310509F08BCF823329F460E081E1AF
:1022E0000E94E00184CF88330CF481CF7ACFCF9263
:1022F000DF92EF92FF920F931F93CF93DF93EC0146
:102300006B01F42EE52E198218861F86188A198A09
:102310001A8A81E08E878B871C8692E09D8788834E
:102320008B01000F111F060F171F1D830C83C8019F
:102330000E94CF189A878987009789F1A80170E0D9
:1023400060E00E94F419DB82CA82FE82EF828981FA
:10235000882341F061E08F2D0E940E0260E08F2DF6
:102360000E94E0018F2D9E2DFC01E252FE4FE49170
:10237000F0E0EE0FFF1FEC52FE4F259134913C8BA5
:102380002B8BFC01E054FE4FE491ED8BDF91CF915C
:102390001F910F91FF90EF90DF90CF9008951D82D5
:1023A0001C821B821A82D1CFCF93DF93CDB7DEB7C9
:1023B00069970FB6F894DEBF0FBECDBF789484B591
:1023C000826084BD84B5816084BD85B5826085BD31
:1023D00085B5816085BD80916E00816080936E00BF
:1023E00010928100809181008260809381008091B1
:1023F0008100816080938100809180008160809362
:1024000080008091B10084608093B1008091B00021
:1024100081608093B00080917A00846080937A001C
:1024200080917A00826080937A0080917A00816046
:1024300080937A0080917A00806880937A0010926D
:10244000C10090E080E00E941C188D3009F407C1A3
:102450006DE090E080E00E9424186091010181E02D
:1024600090E00E9424186091000182E090E00E94B8
:1024700024186091080183E090E00E942418609184
:10248000060184E090E00E9424188091020190915E
:10249000030104E610E0B8010E94A11885E090E075
:1024A0000E9424188091040190910501B8010E94B6
:1024B000A11886E090E00E9424186091D00187E086
:1024C00090E00E9424186091050288E090E00E944C
:1024D00024186091840289E090E00E942418809181
:1024E0000101803F19F481E080938E0161E081E178
:1024F0000E940E0261E082E10E940E0261E080E132
:102500000E940E0261E08FE00E940E0262E080E015
:102510000E940E0261E081E00E940E0262E08BE008
:102520000E940E0262E08CE00E940E0262E08DE0EA
:102530000E940E02F8941092800010928100109276
:10254000B00081E08093700080936F0080918100E3
:102550008160809381008091B10081608093B1009F
:10256000789486E1EFEEF1E0ACE2B2E001900D92FA
:102570008A95E1F786E1E8E7F1E0A2E4B2E00190B4
:102580000D928A95E1F786E1E2E6F1E0A8E5B2E096
:1025900001900D928A95E1F786E1ECE4F1E0AEE678
:1025A000B2E001900D928A95E1F744E8E42E42E012
:1025B000F42E0CE212E0C8010E942C05C8010E9412
:1025C000570462E3C8010E94A7020A5E1F4FE0168B
:1025D000F10689F78CE092E00E942C058CE092E0F5
:1025E0000E94570462E38CE092E00E94A70280916F
:1025F0008E01882309F4B0C06AEA8CE292E00E945E
:10260000A7026AEA82E492E00E94A7026AEA88E5E9
:1026100092E00E94A7026AEA8EE692E00E94A70278
:102620006AEA8CE092E00E94A7023CE2E32E32E0EC
:10263000F32ED12CC12C80912E0290912F02C8161E
:10264000D90608F057C02FEF3FEF4FEF50E0B6012B
:10265000C7010E94EB032FEFC21AD20AECCF81E030
:1026600090E00E941C188093010182E090E00E949B
:102670001C188093000183E090E00E941C1890E0F9
:10268000909309018093080184E090E00E941C1857
:1026900090E0909307018093060185E090E00E940E
:1026A0001C1814E6819FC0011124909303018093AC
:1026B000020186E090E00E941C18819FC001112455
:1026C000909305018093040187E090E00E941C181C
:1026D00090E09093D1018093D00188E090E00E9437
:1026E0001C188093050289E090E00E941C188093DA
:1026F0008402F5CE86E1E80EF11C0E151F0509F0E7
:1027000098CFF12CE12C80910E0290910F02E816E7
:10271000F906A8F08CE292E00E94570482E492E06D
:102720000E94570488E592E00E9457048EE692E0EA
:102730000E9457048CE092E00E94570458CF2FEF7C
:102740003FEF4FEF50E0B7018CE092E00E94EB03C7
:102750009FEFE91AF90AD7CF83E10E944A02BC0130
:10276000990F880B990B611571058105910511F081
:102770000E9413180E94C41720ED37E040E050E09B
:102780000E94321870934B0160934A010E94C41753
:1027900023E0C22ED12CE12CF12CA70196010E943E
:1027A0003218609349010E94C417A70196010E9444
:1027B0003218609348010E94C417A70196010E9435
:1027C0003218609347011092C50083E38093C400E0
:1027D0008091C10088698093C1008091C2008660A9
:1027E0008093C20029E1E4E1F1E0CE010196DC0131
:1027F00001900D922A95E1F7DC01FC010190002087
:10280000E9F73197E81BF90B9D01281B390B2E17AF
:102810003F0740F42091C00025FFFCCF2D9120936D
:10282000C600EBCFB6E14B2E10E2C12E1EE4D12E36
:1028300004E6A02EB12C80E0682E80E0782E88245B
:102840008394912C11E00EE4EFE43E2EFDE42F2E54
:10285000A4E65A2E8091E101811131C1F090080166
:102860006F2D8CE292E00E94A7026F2D82E492E02D
:102870000E94A7026F2D88E592E00E94A7026F2DAB
:102880008EE692E00E94A702609106018CE092E041
:102890000E94A7028091E00181110DC08091DF01AB
:1028A0008D3409F022C18FED91E00E9462058FED19
:1028B00091E00E9431088091D4019091D501019757
:1028C00039F58091D3018823F9F0E0919001E093EC
:1028D00023029091910190932402E111D3C181E0F0
:1028E0008093900180918F019091C00095FFFCCF63
:1028F0008093C600809190019091C00095FFFCCF1D
:102900008093C6001092D3011092D5011092D40189
:102910008091D4019091D50101969093D501809337
:10292000D4018091D201882309F44BC081E090E06A
:102930000E941C188093010182E090E00E941C1804
:102940008093000183E090E00E941C1890E0909337
:1029500009018093080184E090E00E941C1890E037
:10296000909307018093060185E090E00E941C1877
:10297000859DC0011124909303018093020186E09C
:1029800090E00E941C18859DC001112490930501C0
:102990008093040187E090E00E941C1890E09093DF
:1029A000D1018093D00188E090E00E941C188093B0
:1029B000050289E090E00E941C1880938402109226
:1029C000D2018091CF01882309F472C06DE090E0BC
:1029D00080E00E9424186091010181E090E00E9453
:1029E00024186091000182E090E00E942418609118
:1029F000080183E090E00E9424186091060184E0C1
:102A000090E00E9424188091020190910301B50189
:102A10000E94A11885E090E00E9424188091040192
:102A200090910501B5010E94A11886E090E00E94F6
:102A300024186091D00187E090E00E9424186091F2
:102A4000050288E090E00E9424186091840289E0E9
:102A500090E00E942418F89460E081E10E94E00177
:102A600060E080E10E94E00160E082E10E94E0011C
:102A700060E08FE00E94E0019FEF23ED80E3915042
:102A800020408040E1F700C0000061E081E10E9449
:102A9000E00161E080E10E94E00161E082E10E94EA
:102AA000E00161E08FE00E94E0011092CF01789494
:102AB0006114710409F4CECE0E940000C5CE60E01E
:102AC0008CE292E00E94A70260E082E492E00E9421
:102AD000A70260E088E592E00E94A70260E08EE62F
:102AE00092E00E94A70260E0D1CE8E3479F5809109
:102AF000DD019091DE01609127022091260230E0F5
:102B000050E040E0A90133272227362B60912802AC
:102B1000262B6091DB017091DC018430910549F432
:102B20008CE092E00E94EB038CE092E00E9457045C
:102B3000C2CE489EF001499EF00D1124CF01845D64
:102B40009D4F7C010E94EB03C701F0CF8F3459F5F4
:102B50008CE092E00E943F058CE092E00E945704D6
:102B60008CE292E00E943F058CE292E00E945704C2
:102B700082E492E00E943F0582E492E00E945704C2
:102B800088E592E00E943F0588E592E00E945704A4
:102B90008EE692E00E943F058EE692E00E94570486
:102BA0000093DF0188CE20910201309103018091D2
:102BB000D9019091DA018217930740F081E091E00A
:102BC0000E9431089092DA018092D901209104018B
:102BD000309105018091D7019091D8018217930718
:102BE000C8F180910001843009F047C08091010153
:102BF000843009F042C020912E0230912F02809142
:102C0000EB019091EC012817390711F41093D601CC
:102C10008091D601882321F080E091E00E94620536
:102C200080910E0290910F0201962091080230913E
:102C300009028217930751F48CE092E00E943F054D
:102C40008CE092E00E9457041092D6019092D80135
:102C50008092D7018091D7019091D80101969093ED
:102C6000D8018093D7018091D9019091DA01019622
:102C70009093DA018093D9011ECE80E091E00E940A
:102C80006205E4CFE151E73008F029CE0E2E000CAA
:102C9000FF0BE35BF94E0C94C91869165C165416C9
:102CA00074168516C816EA161092DF0181E091337A
:102CB00009F016CE80E014CE1092DF01943319F49F
:102CC0001093CF01F7CF933309F009CE1093D201BF
:102CD000F1CF903419F41093E101ECCF913409F065
:102CE000FECD1092E101E6CF2092DF019093260203
:102CF0008091920180932702809193018093280212
:102D00008091940180932902D5CF1092DF016091C8
:102D1000920160932502933209F19CF4913209F1FA
:102D2000923209F0DCCD8FEF860F843608F0D7CDD4
:102D300070E0C6010E94B518709303016093020110
:102D4000B9CF9233B9F0933391F0913309F0C7CDF5
:102D500070E07093070160930601ACCF60930101AE
:102D6000A9CF70E07093090160930801A3CF60932D
:102D70000001A0CF8FEF860F843608F0B0CD70E051
:102D8000C6010E94B518709305016093040192CFAB
:102D90000093DF0180919401809329029093260291
:102DA0009091920190932702909193019093280221
:102DB000282F2F7130E03093DC012093DB0190E06D
:102DC00025E0959587952A95E1F79093DE0180930C
:102DD000DD0170CF10922602109227021092280275
:102DE0003092DF0167CF10922602109227021092D4
:102DF00028021092290248E050E062E170E08FEE74
:102E000091E00E94771147E050E062E170E088E7CE
:102E100091E00E94771146E050E062E170E082E6C6
:102E200091E00E94771145E050E062E170E08CE4AF
:102E300091E00E947711ECE2F2E081E02FEF3FEFAA
:102E400092E080831182138212821582148237836A
:102E50002683108612861186838714869587868737
:102E60001786108A118A128A769642E0E438F407AF
:102E700041F749E050E06AE070E08CE092E00C94A9
:102E80007711CF93DF93EC0189859A850E946B19A6
:102E90008E819F8197FD05C060E0DF91CF910C94FA
:102EA0000E02DF91CF9108958CE092E00E944117CD
:102EB0008EE692E00E94411788E592E00E94411759
:102EC00082E492E00E9441178CE292E00E94411756
:102ED0008CE491E00E94411782E691E00E94411744
:102EE00088E791E00E9441178FEE91E00C94411722
:102EF0008F929F92AF92BF92CF92DF92EF92FF920A
:102F0000CF93DF93EC01688179818A819B81611580
:102F100071058105910521F464E279ED8BE597E077
:102F20002DE133EF41E050E00E94321849015A018F
:102F30009B01AC01A7EAB1E40E9451186B017C012E
:102F4000ACEEB4EFA50194010E945F18C60ED71E27
:102F5000E81EF91EF7FE06C081E0C81AD108E10894
:102F600080E8F80AC882D982EA82FB82C701B601EA
:102F70009F77DF91CF91FF90EF90DF90CF90BF9040
:102F8000AF909F908F9008958F929F92AF92BF9233
:102F9000CF92DF92EF92FF9260910A0170910B0144
:102FA00080910C0190910D016115710581059105CC
:102FB00021F464E279ED8BE597E02DE133EF41E018
:102FC00050E00E94321849015A019B01AC01A7EA66
:102FD000B1E40E9451186B017C01ACEEB4EFA50185
:102FE00094010E945F18C60ED71EE81EF91EF7FE58
:102FF00006C081E0C81AD108E10880E8F80AC0924A
:103000000A01D0920B01E0920C01F0920D01C70170
:10301000B6019F77FF90EF90DF90CF90BF90AF9079
:103020009F908F90089560930A0170930B01809395
:103030000C0190930D010895F999FECF92BD81BDC9
:10304000F89A992780B50895262FF999FECF1FBACF
:1030500092BD81BD20BD0FB6F894FA9AF99A0FBEC1
:1030600001960895052E97FB1EF400940E944918BE
:1030700057FD07D00E94641807FC03D04EF40C944F
:10308000491850954095309521953F4F4F4F5F4FD0
:10309000089590958095709561957F4F8F4F9F4FC4
:1030A00008950E948618A59F900DB49F900DA49F2F
:1030B000800D911D11240895B7FF0C9451180E94A2
:1030C0005118821B930B0895A1E21A2EAA1BBB1B59
:1030D000FD010DC0AA1FBB1FEE1FFF1FA217B307E4
:1030E000E407F50720F0A21BB30BE40BF50B661FFA
:1030F000771F881F991F1A9469F7609570958095BE
:1031000090959B01AC01BD01CF010895A29FB00134
:10311000B39FC001A39F700D811D1124911DB29F0B
:10312000700D811D1124911D0895991B79E004C033
:10313000991F961708F0961B881F7A95C9F78095F6
:103140000895AA1BBB1B51E107C0AA1FBB1FA617EE
:10315000B70710F0A61BB70B881F991F5A95A9F740
:1031600080959095BC01CD01089597FB072E16F42C
:10317000009407D077FD09D00E94A11807FC05D064
:103180003EF4909581959F4F0895709561957F4F7E
:103190000895EE0FFF1F0590F491E02D09940F9311
:1031A0001F93CF93DF938230910510F482E090E07B
:1031B000E0918702F091880230E020E0B0E0A0E0EA
:1031C000309799F42115310509F44AC0281B390BB1
:1031D00024303105D8F58A819B816115710589F10B
:1031E000FB0193838283FE0111C0408151810281E2
:1031F000138148175907E0F04817590799F41097B9
:1032000061F012960C93129713961C933296CF018D
:10321000DF91CF911F910F91089500938702109332
:103220008802F4CF2115310551F04217530738F0C9
:10323000A901DB019A01BD01DF01F801C1CFEF0156
:10324000F9CF9093880280938702CDCFFE01E20FE1
:10325000F31F819391932250310939832883D7CF6B
:103260002091850230918602232B41F42091100198
:1032700030911101309386022093850220910E0136
:1032800030910F012115310541F42DB73EB7409122
:10329000120150911301241B350BE0918502F0912E
:1032A0008602E217F307A0F42E1B3F0B28173907FD
:1032B00078F0AC014E5F5F4F2417350748F04E0F92
:1032C0005F1F5093860240938502819391939FCF15
:1032D000F0E0E0E09CCFCF93DF930097E9F0FC01B2
:1032E000329713821282A0918702B0918802ED0179
:1032F00030E020E01097A1F420813181820F931FEC
:1033000020918502309186022817390709F061C0A3
:10331000F0938602E0938502DF91CF910895EA0150
:10332000CE17DF07E8F54A815B819E014115510503
:10333000B1F7E901FB83EA8349915991C40FD51F85
:10334000EC17FD0761F4808191810296840F951F2F
:10335000E90199838883828193819B838A83F0E04A
:10336000E0E012968D919C9113970097B9F52D91FD
:103370003C911197CD010296820F931F20918502F7
:10338000309186022817390739F6309751F5109297
:10339000880210928702B0938602A0938502BCCF68
:1033A000D383C28340815181840F951FC817D907E9
:1033B00061F44E5F5F4F88819981480F591F518397
:1033C00040838A819B81938382832115310509F093
:1033D000B0CFF0938802E09387029ECFFD01DC011D
:1033E000C0CF13821282D7CFDC0101C06D93415050
:1033F0005040E0F7089510E0CAEFD0E004C0FE01AD
:103400000E94C9182196CB3FD107C9F7F894FFCF86
:103410000404E803E8033200320001000000000069
:1034200089028000584D6173747265652076332E71
:0E3430003020627920417574686F720A0000C6
:00000001FF
