:020000040000FA
:100000000C94DE000C9406010C9406010C9406017D
:100010000C9406010C9406010C9406010C94060144
:100020000C9406010C94130A0C9406010C9406011E
:100030000C9406010C94A4070C9406010C94060180
:100040000C945A070C9406010C9428070C94020790
:100050000C9406010C9406010C9406010C94060104
:100060000C9406010C940601000000000000000042
:100070000000000000000000000000000000000080
:10008000010101010101010101010101020202025C
:10009000020202020303030303030404040405052C
:1000A00005050506060606070707080808090909E1
:1000B0000A0A0A0B0B0B0C0C0D0D0D0E0E0F0F1078
:1000C00010111112121313141415151616171818EF
:1000D00019191A1B1B1C1D1D1E1F1F202122222344
:1000E000242526262728292A2A2B2C2D2E2F30316D
:1000F00032333435363738393A3B3C3D3E3F404168
:10010000424445464748494B4C4D4E505152545538
:100110005658595A5C5D5E606163646667696A6CD3
:100120006D6F7072737577787A7C7D7F818284863B
:1001300088898B8D8F91929496989A9C9EA0A2A468
:10014000A6A8AAACAEB0B2B4B6B8BABCBFC1C3C55B
:10015000C7CACCCED1D3D5D7DADCDFE1E3E6E8EB12
:10016000EDF0F2F5F7FAFCFF000000002400270094
:100170002A0000000008000201000003040700003C
:10018000000000000000010204081020408001026D
:1001900004081020010204081020000000002500BF
:1001A00028002B00040404040404040402020202D4
:1001B0000202030303030303030B611011241FBE98
:1001C000CFEFD4E0DEBFCDBF11E0A0E0B1E0E2E0D0
:1001D000F6E202C005900D92A432B107D9F722E0F1
:1001E000A4E2B1E001C01D92AB3AB207E1F710E022
:1001F000CDEDD0E004C02197FE010E94C211CC3D9C
:10020000D107C9F70E948B0B0C94F4120C940000D8
:10021000CF92DF92EF92FF920F931F939C01AAEF70
:10022000B5E00E949311DC01CB019058AF4FBF4F56
:10023000CD01BB2797FDB095AB2F8E3F21E09207F4
:1002400058F5282F8F3F910508F445C06EEF681BC5
:10025000862F30E02FEF682F70E090E080E0CB0138
:1002600077276627D12CF12CE12C632B7D298E2951
:100270009F29022F10E030E020E0322F212F102F95
:100280000027602B712B822B932B1F910F91FF90D6
:10029000EF90DF90CF9008958C3F23E0920768F4B1
:1002A0008D3F22E0920728F432E0380F2FEF80E0F4
:1002B000D2CF2CEF281B3FEFFACF8A3F25E09207E1
:1002C00069F03AEF381B8B3F24E0920740F48C5FD3
:1002D0003FEF20E0C0CF30E08FEFBDCF30E020E037
:1002E000FBCFAF92BF92CF92DF92EF92FF920F932C
:1002F0001F93CF93DF936C017B018B01040F151FBC
:10030000EB015E01AE18BF08C017D10759F0699123
:10031000D601ED91FC910190F081E02DC601099587
:10032000892B79F7C501DF91CF911F910F91FF9034
:10033000EF90DF90CF90BF90AF900895FC01538D68
:10034000448D252F30E0842F90E0821B930B5417AF
:1003500010F0CF96089501970895FC01918D828D3C
:10036000981761F0A28DAE0FBF2FB11D5D968C91D5
:10037000928D9F5F9F73928F90E008958FEF9FEF14
:100380000895FC01918D828D981731F0828DE80FD0
:10039000F11D858D90E008958FEF9FEF0895FC018A
:1003A000918D228D892F90E0805C9F4F821B910957
:1003B0008F739927089584E491E00E94CF0121E092
:1003C000892B09F420E0822F089580E090E0892BAA
:1003D00029F00E94DB0181110C9400000895FC01BA
:1003E000A48DA80FB92FB11DA35ABF4F2C91848D96
:1003F00090E001968F739927848FA689B7892C93F3
:10040000A089B1898C91837080648C93938D848D45
:10041000981306C00288F389E02D80818F7D808348
:100420000895EF92FF920F931F93CF93DF93EC0108
:1004300081E0888F9B8D8C8D98131AC0E889F9898B
:10044000808185FF15C09FB7F894EE89FF8960838E
:10045000E889F98980818370806480839FBF81E00F
:1004600090E0DF91CF911F910F91FF90EF90089551
:10047000F62E0B8D10E00F5F1F4F0F731127E02E2C
:100480008C8D8E110CC00FB607FCFACFE889F98964
:10049000808185FFF5CFCE010E94EF01F1CFEB8D7A
:1004A000EC0FFD2FF11DE35AFF4FF0829FB7F89438
:1004B0000B8FEA89FB8980818062CFCFCF93DF9356
:1004C000EC01888D8823B9F0AA89BB89E889F9896C
:1004D0008C9185FD03C0808186FD0DC00FB607FCA1
:1004E000F7CF8C9185FFF2CF808185FFEDCFCE01D4
:1004F0000E94EF01E9CFDF91CF91089590E0FC01D8
:10050000EE58FE4F2491FC01EA57FE4F3491FC0156
:10051000EC55FE4FE491EE23C9F0222339F023304D
:1005200001F1A8F4213019F1223029F1F0E0EE0FA9
:10053000FF1FE656FE4FA591B4918FB7F894EC914A
:10054000611126C030953E233C938FBF089527301C
:10055000A9F02830C9F0243049F7809180008F7DC0
:1005600003C0809180008F7780938000DFCF84B5B7
:100570008F7784BDDBCF84B58F7DFBCF8091B000BA
:100580008F778093B000D2CF8091B0008F7DF9CF6C
:100590003E2BDACFCF93DF9390E0FC01EA57FE4F7A
:1005A00024918C559E4FFC0184918823D1F090E0DA
:1005B000880F991FFC01E859FE4FA591B491FC01E9
:1005C000E656FE4FC591D49161110EC09FB7F894C5
:1005D0008C91E22FE0958E238C932881E223E8838F
:1005E0009FBFDF91CF9108958FB7F894EC91E22BE4
:1005F000EC938FBFF6CF3FB7F89480913201909182
:100600003301A0913401B091350126B5A89B05C0F6
:100610002F3F19F00196A11DB11D3FBFBA2FA92F81
:10062000982F8827BC01CD01620F711D811D911D7E
:1006300042E0660F771F881F991F4A95D1F70895EA
:10064000CF93DF9300D000D0CDB7DEB769837A8334
:100650008B839C83DE011196CE010596ED91F0E02F
:10066000E859FF4F44919D0121503109F901408320
:100670008A179B0799F769817A818B819C810F90FA
:100680000F900F900F90DF91CF910895FF920F93ED
:100690001F93CF93DF93EC01FF24F394F60E28858C
:1006A0002F1581F109851A85215041F16F3FE1F441
:1006B00030E050E040E06FEF7FEF80E090E00E949C
:1006C0003F11B901F8014C815D81CF01801B910B75
:1006D00084179507B0F44081469FC001479F900D55
:1006E000112490833196EFCF8F2D90E0982F88279B
:1006F0000197622F70E00E94AE11E4CF70E060E0DD
:10070000E1CFF886DF91CF911F910F91FF9008956F
:100710008F929F92AF92BF92CF92DF92EF92FF9211
:100720001F93CF93DF93FC01828193816817790730
:10073000A8F54A01AA24BB24C82DC32ED42EE52E29
:10074000FF241C2DD22F8085882361F0889E4001D4
:100750001124C92D8C9D600111241D2D829FD00173
:100760001124DB2FA685E184F2849385A91322C08E
:10077000CB01880F991F680F791F6E0D7F1DA38510
:10078000A60FB72FB11DCC93A485A60FB72FB11D0F
:100790001C938585680F711DFB01D083DF91CF917C
:1007A0001F91FF90EF90DF90CF90BF90AF909F9000
:1007B0008F900895660F771F660F771F6E0D7F1D50
:1007C000252F332744275527882349F090E0829F1F
:1007D0007001839FF00C929FF00C11242F2DA60F17
:1007E000B72FB11D2C93CBCFCF92DF92EF92FF9218
:1007F0000F931F93CF93DF93CDB7DEB729970FB633
:10080000F894DEBF0FBECDBF8C01DC0119968D912F
:100810009C91892B09F473C00E94FB02F801C784E4
:10082000D088E188F2886C157D058E059F0520F43F
:100830006787708B818B928BF801C784D088E188A1
:10084000F2886C197D098E099F096C32714081050F
:10085000910510F3F894D80114968D919C911597F9
:100860009A8389831996ED91FC917F01BFEFEB1A72
:10087000FB0A80818987F80190810388F489E02D43
:10088000D80155968C91992309F448C09081982BF2
:1008900098879081809589238F838F818C8388E0CE
:1008A0008B8358856F8149853B812C8189819A8111
:1008B000D701508347FD252F3A952083262F39F005
:1008C000441F00C000006083000000C0F2CF38E089
:1008D0004D9160830000019761F7D8015496FC9315
:1008E000EE93539749873B832C839A83898378942B
:1008F0000E94FB02F8016787708B818B928B29968F
:100900000FB6F894DEBF0FBECDBFDF91CF911F9120
:100910000F91FF90EF90DF90CF9008959081982BEA
:1009200098879081809589238F838F818E8388E03B
:100930008D8358856F8149853D812E8189819A817A
:10094000D701508347FD252F00C000C0208300C081
:1009500000C000C000C000C060830000262F3A9590
:1009600041F0441F000000C000C000C000C000C033
:10097000E8CF38E04D9100C0608300C0019709F7CF
:10098000D8015496FC93EE93539749873D832E8369
:10099000ACCFCF93DF93EC018E819F8197FD07C091
:1009A00061E00E94CA0260E08E810E947E0281E0C6
:1009B0008983DF91CF910895FC014481558170E0D6
:1009C00060E0818592850C94ED124F925F926F9258
:1009D0007F928F929F92AF92BF92CF92DF92EF92CF
:1009E000FF920F931F93CF93DF938C010E94D1103E
:1009F000CB010E9408010E9420034B015C010E9470
:100A0000D11080910501EFEFE80FE83008F0EDC15B
:100A10000E2E000CFF0BE15FFA4F0C94C21117056C
:100A200040056E05CA05FE0547068A06CD0670E03C
:100A30008091E3019091E4018617970718F40E94D2
:100A4000D110F5CFA501940181EE91E00E948803B9
:100A500081EE91E00E94F40381EE91E0DF91CF916D
:100A60001F910F91FF90EF90DF90CF90BF90AF90CC
:100A70009F908F907F906F905F904F900C94DC04CC
:100A8000C090E301D090E401F12CE12CC114D10419
:100A9000E104F10439F00E94D110A70196010E94EF
:100AA0003F116B016C2D70E0A501940181EE91E086
:100AB0000E94880381EE91E0DF91CF911F910F9109
:100AC000FF90EF90DF90CF90BF90AF909F908F906E
:100AD0007F906F905F904F900C94F403F12CE12C79
:100AE0004801110FAA08BB08412C512C3201639414
:100AF000E7012091E3013091E401C217D307E8F444
:100B0000BE0190E080E0CB017727662750E040E00F
:100B10000E943F118091420190914301820F931FE7
:100B20000E9408010E9420039B01AC01BE0181EEDE
:100B300091E00E9488032396DCCF81EE91E00E9431
:100B4000F403C301B201A50194010E943F118091F9
:100B5000420190914301280F391F309343012093A4
:100B600042018FEFE81AF80A83E0E816F10409F071
:100B7000BFCFDF91CF911F910F91FF90EF90DF904A
:100B8000CF90BF90AF909F908F907F906F905F902D
:100B90004F90089520914001309141018091E301EF
:100BA0009091E4018217930720F410924101109272
:100BB00040016091400170914101A501940181EED5
:100BC00091E00E9488036091400170914101615061
:100BD000710920E030E0A90181EE91E00E948803D4
:100BE00081EE91E00E94F4038091400190914101D7
:100BF00001969093410180934001BBCFC5E0D0E0C6
:100C0000412C512C32014A94EBEA8E2E0E94D110D5
:100C1000A30192010E943F11162F972E5C01689D3F
:100C2000812D11248695012F081BC090E301D090DF
:100C3000E401F12CE12CC114D104E104F10439F0F8
:100C40000E94D110A70196010E943F116B01812FD4
:100C5000992DD501AC013327222722273327552789
:100C6000BA2FA92F982F8827AA27BB27822B932B2F
:100C7000A42BB52B9C01AD01202B6C2D70E081EED7
:100C800091E00E948803219709F0C0CFE1CED0E027
:100C9000C0E0C12CD12C7601CA9445E0B42E8E015F
:100CA0008091E3019091E4010817190750F50E9423
:100CB000D110A70196010E943F11E62F462F572F12
:100CC000BC01DA019927882788279927BB27762F27
:100CD000652F542F4427662777279A01AB01282BCD
:100CE000392B4A2B5B2B8E2F6B2D0E94A211E81BF8
:100CF0002E2BB80181EE91E00E9488030D5F1F4FFB
:100D0000CFCF81EE91E00E94F4032196C330D1054C
:100D100031F62FCFD0E0C0E08091420190914301A5
:100D20000E9408010E9420039B01AC01BE0181EEDC
:100D300091E00E9488032196C530D10569F7809122
:100D40004201909143018D5C9C4C0E9408010E94DD
:100D500020039B01AC01BE0181EE91E00E9488035B
:100D60002196CA30D10559F781EE91E00E94F40333
:100D70009801110F440B550B60E070E081E090E0AA
:100D80000E943F118091420190914301280F391F29
:100D90003093430120934201ECCE20910601309123
:100DA0000701AFEFBFEF0E94931120E137E240E06F
:100DB00050E00E943F11C9010E9408010E942003D7
:100DC0006B017C01D0E0C0E08091E3019091E401EF
:100DD000C817D90708F06ECEA7019601BE0181EEB3
:100DE00091E00E9488032196EFCF87301CF081E0CC
:100DF00080930501809105018111BBCE88E080932D
:100E00000501B7CE1F920F920FB60F9211242F93A8
:100E10003F934F935F936F937F938F939F93AF9382
:100E2000BF93EF93FF9384E491E00E94EF01FF9161
:100E3000EF91BF91AF919F918F917F916F915F9152
:100E40004F913F912F910F900FBE0F901F901895CB
:100E50001F920F920FB60F9211242F938F939F938F
:100E6000EF93FF93E0915401F09155018081E0915F
:100E70005A01F0915B0182FD1BC0908180915D0160
:100E80008F5F8F7320915E01821741F0E0915D01C9
:100E9000F0E0EC5BFE4F958F80935D01FF91EF9149
:100EA0009F918F912F910F900FBE0F901F901895CB
:100EB0008081F4CF1F920F920FB60F9211242F93BF
:100EC0003F938F939F93AF93BF9380912E01909107
:100ED0002F01A0913001B091310130912D0123E01B
:100EE000230F2D3758F50196A11DB11D20932D011B
:100EF00080932E0190932F01A0933001B093310184
:100F00008091320190913301A0913401B09135016B
:100F10000196A11DB11D8093320190933301A093DE
:100F20003401B0933501BF91AF919F918F913F9163
:100F30002F910F900FBE0F901F90189526E8230F4A
:100F40000296A11DB11DD2CF1F920F920FB60F9224
:100F500011242F933F938F939F9380E480937C0081
:100F600080917A00806480937A0080917A0086FD77
:100F7000FCCF909178008091790089279827892764
:100F80009C01285431402832310508F44AC0245AC3
:100F900031092832310508F447C0245A3109283272
:100FA000310508F444C082559240889708F042C049
:100FB00084E090E020912C01222309F4E8C1215023
:100FC00020932C01009709F48AC0211188C0843035
:100FD000910599F524E620932C01209129012223E3
:100FE00079F0209127013091280124303105DCF57A
:100FF0002F5F3F4F30932801209327011092290142
:1010000020912701309128012115310589F5049798
:1010100019F481E08093360110922B0110922A017D
:101020005EC081E090E0C6CF82E090E0C3CF83E075
:1010300090E0C0CF90E080E0BDCF8130910521F4F9
:1010400021E020932B01C6CF8330910521F421E0CC
:1010500020932A01BFCF8230910509F0BECF21E055
:1010600020932901B7CF1092280110922701C6CFF3
:1010700021303105E9F580912B01882359F08091C9
:1010800025019091260101969093260180932501D8
:1010900010922B0180912A01882359F0809125011B
:1010A000909126010197909326018093250110923B
:1010B0002A018091250190912601039724F0109236
:1010C000260110922501809125019091260197FF1C
:1010D00006C082E090E090932601809325019F91C5
:1010E0008F913F912F910F900FBE0F901F901895E9
:1010F0002230310509F04FC08091250190912601E1
:1011000081309105A9F480912B01882339F08091D9
:1011100000018F5F8093000110922B0180912A01C2
:101120008823E9F28091000181508093000176CFFD
:1011300082309105A9F480912B01882339F08091A8
:1011400005018F5F8093050110922B0180912A0188
:10115000882329F2809105018150809305015ECF9B
:10116000892B09F0BCCF80912B01882349F0809115
:1011700005018F5F809305018093000110922B0180
:1011800080912A01882309F4AACF8091050181501A
:1011900080930501CACF2330310509F0FCC080914E
:1011A00025019091260181309105F9F480912B0160
:1011B000882339F080910401885F809304011092A4
:1011C0002B0180912A01882339F0809104018850F5
:1011D0008093040110922A018091040118160CF4E6
:1011E0007ECF81E0809304017ACF82309105F9F4BB
:1011F00080912B01882339F080910301885F8093CF
:10120000030110922B0180912A01882339F08091EB
:10121000030188508093030110922A0180910301F9
:1012200018160CF45CCF81E08093030158CF892B12
:1012300009F055CF80912B01882349F0809104015A
:10124000885F809304018093030110922B018091A9
:101250002A01882349F08091040188508093040179
:101260008093030110922A018091040118160CF456
:1012700036CF81E080930401D7CF82309105E1F52C
:1012800080912B01882361F08091060190910701E4
:10129000845F9140909307018093060110922B0187
:1012A00080912A01882361F08091060190910701C5
:1012B0008C509E4F909307018093060110922A0153
:1012C0008091060190910701843F914030F484EFB2
:1012D00091E090930701809306018091060190911F
:1012E00007018131974208F4FACE80E197E29093AA
:1012F000070180930601F3CE892B09F0F0CE80918F
:101300002B01882381F08091010190910201845F7B
:101310009140909302018093010190930701809383
:10132000060110922B0180912A01882381F080917F
:101330000101909102018C509E4F90930201809385
:101340000101909307018093060110922A01809178
:10135000010190910201843F914050F484EF91E0AB
:1013600090930201809301019093070180930601FD
:1013700080910101909102018131974208F4AFCE32
:1013800080E197E29093020180930101B0CF009732
:1013900009F01DCEA4CE2430310509F0A0CE8091F5
:1013A0002501909126018130910509F066CF809149
:1013B0002B01882361F08091010190910201845FEB
:1013C0009140909302018093010110922B01809132
:1013D0002A01882361F080910101909102018C50D3
:1013E0009E4F909302018093010110922A018091F7
:1013F000010190910201843F914030F484EF91E02B
:10140000909302018093010180910101909102016A
:101410008131974208F463CE80E197E29093020114
:10142000809301015CCE1F920F920FB60F92112490
:101430002F933F934F935F936F937F938F939F93DC
:10144000AF93BF93EF93FF93809127019091280171
:101450008230910509F453C02CF5009779F161E0D1
:10146000019709F44DC020912501309126012115E5
:10147000310509F462C0809124012130310509F061
:1014800056C0823309F459C0853634F061E08FE0EC
:101490000E947E0210922401809124018F5F80932C
:1014A00024011CC083309105B9F10497E1F660E096
:1014B00082E10E947E0261E081E134C061E08FE060
:1014C0000E947E0261E080E10E947E0261E081E193
:1014D0000E947E0261E082E10E947E02FF91EF9114
:1014E000BF91AF919F918F917F916F915F914F913C
:1014F0003F912F910F900FBE0F901F90189560E0B5
:1015000080E10E947E0261E081E10E947E0261E052
:1015100082E10E947E02A7CF60E081E10E947E020C
:1015200061E082E10E947E0261E080E1F2CF223040
:10153000310509F0B1CF823329F460E08FE00E94D9
:101540007E02AACF88330CF4A7CFA0CFCF92DF9230
:10155000EF92FF920F931F93CF93DF93EC016B01F8
:10156000F42EE52E198218861F86188A198A1A8A7F
:1015700081E08E878B871C8692E09D8788838B0114
:10158000000F111F060F171F1D830C83C8010E9437
:10159000C8119A878987009789F1A80170E060E0F7
:1015A0000E94ED12DB82CA82FE82EF82898188234B
:1015B00041F061E08F2D0E94CA0260E08F2D0E94F1
:1015C0007E028F2D9E2DFC01EC55FE4FE491F0E044
:1015D000EE0FFF1FE656FE4F259134913C8B2B8B6F
:1015E000FC01EA57FE4FE491ED8BDF91CF911F9103
:1015F0000F91FF90EF90DF90CF9008951D821C8295
:101600001B821A82D1CF109247011092460188EEB8
:1016100093E0A0E0B0E08093480190934901A0934B
:101620004A01B0934B0186E191E09093450180938C
:10163000440185EC90E0909351018093500184EC3B
:1016400090E0909353018093520180EC90E090934E
:1016500055018093540181EC90E090935701809361
:10166000560182EC90E0909359018093580186ECEA
:1016700090E090935B0180935A0110925D0110926B
:101680005E0110925F011092600145E050E062E15E
:1016900070E081E992E00E94A60A46E050E062E133
:1016A00070E08BE792E00E94A60A47E050E062E11A
:1016B00070E085E692E00E94A60A48E050E062E110
:1016C00070E08FE492E00E94A60AE7EFF1E081E08B
:1016D0002FEF3FEF92E080831182138212821582F6
:1016E0001482378326831086128611868387148698
:1016F000958786871786108A118A128A769642E025
:10170000EF34F40741F749E050E06AE070E081EE21
:1017100091E00C94A60A789484B5826084BD84B567
:10172000816084BD85B5826085BD85B5816085BDDC
:1017300080916E00816080936E0010928100809194
:10174000810082608093810080918100816080931C
:101750008100809180008160809380008091B10041
:1017600084608093B1008091B00081608093B0006C
:1017700080917A00846080937A0080917A00826000
:1017800080937A0080917A00816080937A008091C2
:101790007A00806880937A001092C10090E080E027
:1017A0000E9429118D3009F421C16DE090E080E0A4
:1017B0000E9431116091000181E090E00E9431119E
:1017C0006091050182E090E00E9431116091040176
:1017D00083E090E00E9431116091030184E090E089
:1017E0000E9431118091010190910201C4E6D0E084
:1017F000BE010E94AE1185E090E00E9431118091FF
:10180000060190910701BE010E94AE1186E090E0B2
:101810000E943111E0915401F091550182E08083E2
:10182000E0915001F09151011082E0915201F0914C
:1018300053018FEC808310925C01E0915801F0918C
:10184000590186E08083E0915601F0915701808133
:1018500080618083E0915601F0915701808188601A
:101860008083E0915601F0915701808180688083E8
:10187000E0915601F091570180818F7D808361E076
:101880008FE00E94CA0261E081E10E94CA0261E029
:1018900080E10E94CA0261E082E10E94CA02F894DB
:1018A00010928000109281001092B00081E080932D
:1018B000700080936F00809181008160809381002F
:1018C0008091B10081608093B100789486E1E1E974
:1018D000F2E0A7EFB1E001900D928A95E1F786E181
:1018E000EBE7F2E0ADE0B2E001900D928A95E1F70E
:1018F00086E1E5E6F2E0A3E2B2E001900D928A957E
:10190000E1F786E1EFE4F2E0A9E3B2E001900D92A5
:101910008A95E1F7CFE4D2E027EF822E21E0922EE4
:10192000C4010E94C904C4010E94F40362E3C4011B
:101930000E94460326E1820E911CC815D90581F745
:1019400081EE91E00E94C90481EE91E00E94F403CF
:1019500062E381EE91E00E9446039AE0292E312C49
:10196000C09104016C2F87EF91E00E9446036C2F19
:101970008DE092E00E9446036C2F83E292E00E9489
:1019800046036C2F89E392E00E94460360910301B5
:1019900081EE91E00E944603209101013091020105
:1019A000A9014150510980913E0190913F01841756
:1019B000950708F47DC0C901B1010E94AE116B0109
:1019C00080910001EFEFE80FE83008F053C30E2ECE
:1019D000000CFF0BE251F34F0C94C211260D280EA0
:1019E000560EB20EF10E5B0FAE0F0D1081E090E0BF
:1019F0000E9429118093000182E090E00E94291149
:101A00008093050183E090E00E94291180930401F6
:101A100084E090E00E9429118093030185E090E02A
:101A20000E942911C4E68C9FC001112490930201E9
:101A30008093010186E090E00E9429118C9FC001F3
:101A400011249093070180930601E4CEC7EFD1E003
:101A50000E94D110CB010E9408010E9420032B019B
:101A60003C01C090F901D090FA01F12CE12CC11495
:101A7000D104E104F10439F00E94D110A7019601CC
:101A80000E943F116B016C2D70E0A3019201CE0109
:101A90000E948803CE010E94F403CE010E94DC0460
:101AA0006696C815D905A1F610923F0110923E0125
:101AB0008091060190910701AC014150510920919C
:101AC00038013091390124173507E0F120910501E3
:101AD000243009F0DCC220910001243009F0D7C283
:101AE0004091F9015091FA0120913A0130913B0166
:101AF0004217530719F421E0209337012091370151
:101B0000222331F0B1010E94AE11CB010E94E50405
:101B10008091E3019091E401019620914001309180
:101B200041018217930751F481EE91E00E94DC0499
:101B300081EE91E00E94F403109237011092390176
:101B4000109238018091380190913901019690935B
:101B500039018093380180913E0190913F010196B7
:101B600090933F0180933E0180913601882309F4D0
:101B700062C06DE090E080E00E9431116091000150
:101B800081E090E00E9431116091050182E090E0D7
:101B90000E9431116091040183E090E00E943111B4
:101BA0006091030184E090E00E9431118091010175
:101BB0009091020164E670E00E94AE1185E090E031
:101BC0000E943111809106019091070164E670E056
:101BD0000E94AE1186E090E00E943111F89460E01E
:101BE0008FE00E947E0260E080E10E947E0260E061
:101BF00081E10E947E0260E082E10E947E029FEF0E
:101C000023ED80E3915020408040E1F700C00000C8
:101C100061E08FE00E947E0261E080E10E947E022E
:101C200061E081E10E947E0261E082E10E947E0229
:101C300010923601789480E090E0892B09F490CEE0
:101C40000E94DB01882309F48BCE0E94000088CE1D
:101C5000C090F901D090FA01F12CE12CC114D1040B
:101C6000E104F10439F00E94D110A70196010E940D
:101C70003F116B01CC2D0E94D110CB010E940801B5
:101C80000E9420036B017C0107EF11E0D0E0A70167
:101C90009601BE01C8010E948803C8010E94F40396
:101CA0000A5E1F4F0815190591F7FECE10E000E0FF
:101CB000F12CE12CE8012091F9013091FA01C217D1
:101CC000D30740F187EF91E00E94F4038DE092E0AA
:101CD0000E94F40383E292E00E94F40389E392E01D
:101CE0000E94F40360E070E081E090E0A7019601BB
:101CF0000E943F1180913C0190913D01280F391FB6
:101D000030933D0120933C010F5F1F4F03301105BD
:101D100089F6CACEBE0190E080E0CB017727662726
:101D200050E040E00E943F1180913C0190913D01C4
:101D3000820F931F0E9408010E9420032B013C0187
:101D400087EFA82E81E0B82EA3019201BE01C50144
:101D50000E94880386E1A80EB11CA814B904A1F75B
:101D60002396A9CF8091F9019091FA0101962091D3
:101D70003A0130913B018217930720F410923B0106
:101D800010923A01C7EFD1E00E94D110CB010E941E
:101D900008010E9420039B01AC0160913A017091FF
:101DA0003B01CE010E94880360913A0170913B0192
:101DB0006150710920E030E0A901CE010E94880342
:101DC000CE010E94F4036696C815D905E9F6809104
:101DD0003A0190913B01019690933B0180933A0127
:101DE00063CEA3E0EA2EF12C0E94D1102FEF30E059
:101DF00040E050E00E943F119B01AB01BC01DA01C1
:101E00009927882788279927BB274424542E652E95
:101E1000762E66247724482A592A6A2A7B2A822F1A
:101E200065E00E94A211281B422AA090F901B090FF
:101E3000FA01D12CC12CA114B104C104D10439F090
:101E40000E94D110A60195010E943F115B0107EF8E
:101E500011E0B12CA3019201B501C8010E948803D1
:101E60000A5E1F4F08151905A9F791E0E91AF10854
:101E700009F0BACF87EF91E00E94F40387EF91E079
:101E80000E94DC048DE092E00E94F4038DE092E079
:101E90000E94DC0483E292E00E94F40383E292E079
:101EA0000E94DC0489E392E00E94F40389E392E05B
:101EB0000E94DC04F9CD10E000E0E8018091F90116
:101EC0009091FA01C817D907B0F087EF91E00E940E
:101ED000F4038DE092E00E94F40383E292E00E941A
:101EE000F40389E392E00E94F4030F5F1F4F033075
:101EF000110519F7D9CD0E94D1102FEF30E040E045
:101F000050E00E943F119B01AB01BC01DA0199270F
:101F1000882788279927BB274424542E652E762EA0
:101F200066247724482A592A6A2A7B2A822F65E068
:101F30000E94A211281B422A47EFE42E41E0F42E12
:101F4000A3019201BE01C7010E94880326E1E20EAF
:101F5000F11CE814F904A1F72396B0CF07EF11E0C4
:101F6000D0E0C0E080913C0190913D01905C0E94E6
:101F700008010E9420039B01AC01BE01C8010E9420
:101F800088032196C830D10569F780913C01909172
:101F90003D0190580E9408010E9420039B01AC0162
:101FA000BE01C8010E9488032196CE30D10569F791
:101FB00080913C0190913D0190540E9408010E9443
:101FC00020039B01AC01BE01C8010E948803219639
:101FD000C231D10569F7C8010E94F403C0913C01E8
:101FE000D0913D01D05CD0933D01C0933C010A5E8D
:101FF0001F4F0815190509F0B3CF960150E040E0D6
:1020000060E070E081E090E00E943F11C20FD31FBA
:10201000D0933D01C0933C0147CDAFEFBFEF0E948D
:10202000931120E137E240E050E00E943F11C901E6
:102030000E9408010E9420036B017C01C7EFD1E0E0
:1020400010E000E08091F9019091FA01081719075A
:1020500048F4A7019601B801CE010E9488030F5FE2
:102060001F4FF0CFCE010E94F4036696C815D90524
:1020700039F71ACD89301CF081E0809300018091FE
:102080000001811111CD88E0809300010DCDB101D7
:102090000E94AE11CB010E94E50450CDCF93DF9397
:1020A000EC0189859A850E9464128E819F8197FD3B
:1020B00005C060E0DF91CF910C94CA02DF91CF910F
:1020C000089581EE91E00E944E1089E392E00E9413
:1020D0004E1083E292E00E944E108DE092E00E944A
:1020E0004E1087EF91E00E944E108FE492E00E9424
:1020F0004E1085E692E00E944E108BE792E00E941F
:102100004E1081E992E00C944E108F929F92AF9204
:10211000BF92CF92DF92EF92FF92CF93DF93EC01C9
:10212000688179818A819B8161157105810591059D
:1021300021F464E279ED8BE597E02DE133EF41E0A6
:1021400050E00E943F1149015A019B01AC01A7EAEE
:10215000B1E40E945E116B017C01ACEEB4EFA5010D
:1021600094010E946C11C60ED71EE81EF91EF7FEE0
:1021700006C081E0C81AD108E10880E8F80AC882E0
:10218000D982EA82FB82C701B6019F77DF91CF91A6
:10219000FF90EF90DF90CF90BF90AF909F908F9087
:1021A00008958F929F92AF92BF92CF92DF92EF925B
:1021B000FF92609108017091090180910A0190914C
:1021C0000B01611571058105910521F464E279ED3A
:1021D0008BE597E02DE133EF41E050E00E943F11A5
:1021E00049015A019B01AC01A7EAB1E40E945E11CA
:1021F0006B017C01ACEEB4EFA50194010E946C115F
:10220000C60ED71EE81EF91EF7FE06C081E0C81AEA
:10221000D108E10880E8F80AC0920801D0920901CB
:10222000E0920A01F0920B01C701B6019F77FF907F
:10223000EF90DF90CF90BF90AF909F908F900895D8
:10224000609308017093090180930A0190930B0138
:102250000895F999FECF92BD81BDF89A992780B56E
:102260000895262FF999FECF1FBA92BD81BD20BDDA
:102270000FB6F894FA9AF99A0FBE01960895052EB2
:1022800097FB1EF400940E94561157FD07D00E9440
:10229000711107FC03D04EF40C94561150954095E3
:1022A000309521953F4F4F4F5F4F08959095809502
:1022B000709561957F4F8F4F9F4F08950E949311A6
:1022C000A59F900DB49F900DA49F800D911D11248A
:1022D0000895B7FF0C945E110E945E11821B930B50
:1022E0000895A1E21A2EAA1BBB1BFD010DC0AA1F57
:1022F000BB1FEE1FFF1FA217B307E407F50720F06F
:10230000A21BB30BE40BF50B661F771F881F991FE9
:102310001A9469F760957095809590959B01AC0132
:10232000BD01CF010895A29FB001B39FC001A39F3B
:10233000700D811D1124911DB29F700D811D1124FE
:10234000911D0895991B79E004C0991F961708F014
:10235000961B881F7A95C9F780950895AA1BBB1B09
:1023600051E107C0AA1FBB1FA617B70710F0A61B95
:10237000B70B881F991F5A95A9F780959095BC01B6
:10238000CD010895EE0FFF1F0590F491E02D099403
:102390000F931F93CF93DF938230910510F482E067
:1023A00090E0E091A902F091AA0230E020E0B0E0D4
:1023B000A0E0309799F42115310509F44AC0281B93
:1023C000390B24303105D8F58A819B81611571055F
:1023D00089F1FB0193838283FE0111C04081518109
:1023E0000281138148175907E0F04817590799F4FB
:1023F000109761F012960C93129713961C933296D5
:10240000CF01DF91CF911F910F9108950093A90201
:102410001093AA02F4CF2115310551F0421753074A
:1024200038F0A901DB019A01BD01DF01F801C1CF3C
:10243000EF01F9CF9093AA028093A902CDCFFE01BC
:10244000E20FF31F8193919322503109398328833E
:10245000D7CF2091A7023091A802232B41F42091DD
:102460000E0130910F013093A8022093A702209112
:102470000C0130910D012115310541F42DB73EB706
:102480004091100150911101241B350BE091A702DE
:10249000F091A802E217F307A0F42E1B3F0B2817B8
:1024A000390778F0AC014E5F5F4F2417350748F0CD
:1024B0004E0F5F1F5093A8024093A7028193919300
:1024C0009FCFF0E0E0E09CCFCF93DF930097E9F05F
:1024D000FC01329713821282A091A902B091AA0244
:1024E000ED0130E020E01097A1F420813181820FCE
:1024F000931F2091A7023091A8022817390709F0ED
:1025000061C0F093A802E093A702DF91CF910895F4
:10251000EA01CE17DF07E8F54A815B819E0141158C
:102520005105B1F7E901FB83EA8349915991C40F41
:10253000D51FEC17FD0761F4808191810296840F0D
:10254000951FE90199838883828193819B838A8384
:10255000F0E0E0E012968D919C9113970097B9F509
:102560002D913C911197CD010296820F931F2091DE
:10257000A7023091A8022817390739F6309751F58C
:102580001092AA021092A902B093A802A093A702E7
:10259000BCCFD383C28340815181840F951FC8175C
:1025A000D90761F44E5F5F4F88819981480F591FA9
:1025B000518340838A819B819383828321153105D6
:1025C00009F0B0CFF093AA02E093A9029ECFFD01DB
:1025D000DC01C0CF13821282D7CFDC0101C06D9322
:1025E00041505040E0F7089510E0CDEDD0E004C038
:1025F000FE010E94C2112196CE3DD107C9F7F89481
:10260000FFCF04E803323204E803010000000000B9
:10261000AB02800000000000110271019E015E0209
:06262000CF01AD01C10174
:103800000C94341C0C94511C0C94511C0C94511CA1
:103810000C94511C0C94511C0C94511C0C94511C74
:103820000C94511C0C94511C0C94511C0C94511C64
:103830000C94511C0C94511C0C94511C0C94511C54
:103840000C94511C0C94511C0C94511C0C94511C44
:103850000C94511C0C94511C0C94511C0C94511C34
:103860000C94511C0C94511C11241FBECFEFD4E0BA
:10387000DEBFCDBF11E0A0E0B1E0E4EAFFE302C0AB
:1038800005900D92A230B107D9F712E0A2E0B1E0A5
:1038900001C01D92AD30B107E1F70E94361D0C94B6
:1038A000D01F0C94001C982F9595959595959595FE
:1038B000905D8F708A307CF0282F295A8091C0004B
:1038C00085FFFCCF9093C6008091C00085FFFCCFA0
:1038D0002093C6000895282F205DF0CF982F809167
:1038E000C00085FFFCCF9093C6000895EF92FF9231
:1038F0000F931F93EE24FF2487018091C00087FD62
:1039000017C00894E11CF11C011D111D81E4E8168B
:1039100082E4F8068FE0080780E0180770F3E09172
:103920000401F091050109958091C00087FFE9CF5E
:103930008091C6001F910F91FF90EF9008950E9413
:10394000761C982F8091C00085FFFCCF9093C60015
:1039500091362CF490330CF09053892F089597559D
:10396000892F08951F930E949F1C182F0E949F1C4F
:103970001295107F810F1F910895882351F0982F81
:1039800091508091C00087FFFCCF8091C6009923A1
:10399000B9F708951F93182F0E94761C803249F0C2
:1039A000809103018F5F809303018530C1F01F91E7
:1039B00008958091C00085FFFCCF84E18093C6000C
:1039C0008091C00085FFFCCF1093C6008091C0009D
:1039D00085FFFCCF80E18093C6001F910895E091A0
:1039E0000401F091050109951F9108950E94761C2C
:1039F000803241F0809103018F5F80930301853015
:103A000081F008958091C00085FFFCCF84E1809310
:103A1000C6008091C00085FFFCCF80E18093C60086
:103A20000895E0910401F09105010995089510921F
:103A30000A028823D1F090E040E951E02D9A28EE67
:103A400033E0FA013197F1F721503040D1F72D984A
:103A500028EE33E0FA013197F1F721503040D1F7E9
:103A60009F5F981758F380930A0208953F924F92F0
:103A70005F926F927F928F929F92AF92BF92CF92FE
:103A8000DF92EF92FF920F931F93CF93DF9300008B
:103A900083E38093C4001092C50088E18093C10045
:103AA00086E08093C2005098589A259A81E00E943F
:103AB000171D44E1F42E3EE1E32E24E9D22E96E0D8
:103AC000C92E80E1B82EAA24A39401E4902E16E515
:103AD000812EB2E57B2EA0E26A2EF9E45F2EE3E5AB
:103AE0004E2E70E5372E0E94761C8033B1F1813363
:103AF00009F441C0803409F479C0813409F48CC0E0
:103B0000823471F1853409F47BC0803531F182351E
:103B100021F1813511F1853509F48DC0863509F41F
:103B20009DC0843609F4AEC0843709F41BC18537C3
:103B300009F485C1863709F47AC0809103018F5F4B
:103B400080930301853079F6E0910401F09105013D
:103B500009950E94761C803351F60E94F61CC3CF53
:103B600093E18091C00087FFFCCF8091C60099232C
:103B7000A1F39150F6CF0E94761C8032F1F680912D
:103B8000C00085FFFCCFF092C6008091C00085FF89
:103B9000FCCF9092C6008091C00085FFFCCF809240
:103BA000C6008091C00085FFFCCF7092C600809156
:103BB000C00085FFFCCF6092C6008091C00085FFE9
:103BC000FCCF5092C6008091C00085FFFCCF409290
:103BD000C6008091C00085FFFCCF3092C600809166
:103BE000C00085FFFCCFB092C6007DCF0E94761C3E
:103BF000863808F4B2CF0E94761C0E94F61C73CF60
:103C000094E08091C00087FFFCCF8091C60099238B
:103C100009F4A3CF9150F5CF0E94761C8038D1F0E3
:103C2000813861F1823809F499C0883979F080E0EF
:103C30000E94CA1C58CF0E94761C809306010E94E5
:103C4000761C809307010E94F61C4DCF83E00E94F2
:103C5000CA1C49CF82E00E94CA1C45CF0E94761C34
:103C6000803309F486C192E08091C00087FFFCCFC9
:103C70008091C6009923D9F29150F6CF81E00E943D
:103C8000CA1C31CF0E94761C809309020E94761CC8
:103C90008093080280910C028E7F80930C020E9418
:103CA000761C853429F480910C02816080930C028B
:103CB0008091080290910902892B89F000E010E0C0
:103CC0000E94761CF801E85FFE4F80830F5F1F4F54
:103CD00080910802909109020817190788F30E9441
:103CE000761C803209F029CF80910C0280FFD1C070
:103CF0004091060150910701440F551F5093070151
:103D000040930601A0910802B09109021097C9F0F2
:103D1000E8E0F1E09A01BD016E0F7F1FF999FECF37
:103D200032BD21BD819180BDFA9AF99A2F5F3F4F34
:103D3000E617F70799F74A0F5B1F50930701409367
:103D400006018091C00085FFFCCFF092C6008091F3
:103D5000C00085FFFCCFB092C600C5CE80E10E94B6
:103D6000CA1CC1CE0E94761C809309020E94761C58
:103D7000809308028091060190910701880F991F96
:103D800090930701809306010E94761C853409F404
:103D90007AC080910C028E7F80930C020E94761C68
:103DA000803209F0A0CE8091C00085FFFCCFF09258
:103DB000C600A0910802B09109021097B9F1809154
:103DC0000C02182F1170082F0270E0910601F0917B
:103DD00007019F012F5F3F4FB90140E050E01123E1
:103DE000B1F4002339F494918091C00085FFFCCF99
:103DF0009093C6004F5F5F4FCB010196F9014A17C0
:103E00005B0780F4BC012F5F3F4F112351F3F999F9
:103E1000FECFF2BDE1BDF89A90B58091C00085FF5C
:103E2000FCCFE6CF70930701609306018091C0003C
:103E300085FDD9CE8091C00085FFF8CFD4CE0E94F9
:103E4000761C803209F079CE8091C00085FFFCCFCE
:103E5000F092C6008091C00085FFFCCFE092C600C2
:103E60008091C00085FFFCCFD092C6008091C00039
:103E700085FFFCCFC092C6008091C00085FFFCCFBB
:103E8000B092C60030CE80910C02816080930C020B
:103E900085CF809107018823880F880B8A21809322
:103EA0000B028091060190910701880F991F909352
:103EB0000701809306018091080280FF09C080916C
:103EC00008029091090201969093090280930802DA
:103ED000F894F999FECF1127E0910601F0910701BE
:103EE000C8E0D1E08091080290910902103091F46D
:103EF0000091570001700130D9F303E0009357009F
:103F0000E8950091570001700130D9F301E1009369
:103F10005700E89509901990009157000170013001
:103F2000D9F301E000935700E8951395103498F009
:103F300011270091570001700130D9F305E000937B
:103F40005700E8950091570001700130D9F301E165
:103F500000935700E8953296029709F0C7CF1030CA
:103F600011F00296E5CF11248091C00085FFE9CEC3
:103F7000ECCE0E94761C0E94761C182F0E94761CA4
:103F8000112351F0113021F086E00E94CA1CABCD04
:103F900084E90E94CA1CA7CD8EE10E94CA1CA3CD51
:063FA000F894FFCF800041
:00000001FF
