:020000040000FA
:100000000C9401010C9429010C9429010C942901F0
:100010000C9429010C9429010C9429010C942901B8
:100020000C9429010C94FA0B0C9429010C942901CD
:100030000C9429010C943E080C9429010C9429017C
:100040000C94F4070C9429010C9429010C942901B7
:100050000C9429010C9429010C9429010C94290178
:100060000C9429010C9429010000000000000000FC
:100070000000000000000000000000000000000080
:10008000010101010101010101010101020202025C
:10009000020202020303030303030404040405052C
:1000A00005050506060606070707080808090909E1
:1000B0000A0A0A0B0B0B0C0C0D0D0D0E0E0F0F1078
:1000C00010111112121313141415151616171818EF
:1000D00019191A1B1B1C1D1D1E1F1F202122222344
:1000E000242526262728292A2A2B2C2D2E2F30316D
:1000F00032333435363738393A3B3C3D3E3F404168
:10010000424445464748494B4C4D4E505152545538
:100110005658595A5C5D5E606163646667696A6CD3
:100120006D6F7072737577787A7C7D7F818284863B
:1001300088898B8D8F91929496989A9C9EA0A2A468
:10014000A6A8AAACAEB0B2B4B6B8BABCBFC1C3C55B
:10015000C7CACCCED1D3D5D7DADCDFE1E3E6E8EB12
:10016000EDF0F2F5F7FAFCFF000000002400270094
:100170002A000000000023002600290000000008DB
:10018000000201000003040700000000000000005E
:100190000000FF0000FF0000FF0000000000FF0063
:1001A000007FFF0000FFFF0000FF7F0000FF000056
:1001B0007FFF0000FFFF0000FF7F0000FF00000046
:1001C000FF007F00FF00FF007F00FF000102040826
:1001D00010204080010204081020010204081020B1
:1001E00000000000250028002B000404040404047F
:1001F00004040202020202020303030303032015A4
:10020000791511241FBECFEFD4E0DEBFCDBF11E0C2
:10021000A0E0B1E0E2E3F0E302C005900D92A4316A
:10022000B107D9F722E0A4E1B1E001C01D92A431E9
:10023000B207E1F710E0C0E0D1E004C02197FE0171
:100240000E94DA16CF3FD107C9F70E945B0D0C94CC
:100250000C180C940000CF92DF92EF92FF920F9354
:100260001F939C01AAEFB5E00E94AB16DC01CB0105
:100270009058AF4FBF4FCD01BB2797FDB095AB2F27
:100280008E3F21E0920758F5282F8F3F910508F403
:1002900045C06EEF681B862F30E02FEF682F70E0AF
:1002A00090E080E0CB0177276627D12CF12CE12C60
:1002B000632B7D298E299F29022F10E030E020E05A
:1002C000322F212F102F0027602B712B822B932B85
:1002D0001F910F91FF90EF90DF90CF9008958C3F8A
:1002E00023E0920768F48D3F22E0920728F432E081
:1002F000380F2FEF80E0D2CF2CEF281B3FEFFACF43
:100300008A3F25E0920769F03AEF381B8B3F24E0E3
:10031000920740F48C5F3FEF20E0C0CF30E08FEFDA
:10032000BDCF30E020E0FBCF833081F028F4813076
:1003300099F08230A9F008958730A9F08830C9F08B
:100340008430B1F4809180008F7D03C08091800063
:100350008F7780938000089584B58F7784BD08954A
:1003600084B58F7DFBCF8091B0008F778093B000F4
:1003700008958091B0008F7DF9CFCF93DF93282F20
:1003800030E0F901E458FE4F8491F901E453FE4F47
:10039000D491F901E651FE4FC491CC23A1F0811113
:1003A0000E949401EC2FF0E0EE0FFF1FEE58FE4F7D
:1003B000A591B491EC91ED2381E090E009F480E007
:1003C000DF91CF91089580E090E0FACF1F93CF9313
:1003D000DF93282F30E0F901E458FE4F8491F901B2
:1003E000E453FE4FD491F901E651FE4FC491CC2362
:1003F000A9F0162F81110E949401EC2FF0E0EE0F6E
:10040000FF1FE052FE4FA591B4918FB7F894EC9185
:10041000111108C0D095DE23DC938FBFDF91CF91FF
:100420001F910895DE2BF8CFCF93DF9390E0FC016E
:10043000E453FE4F249186519E4FFC018491882302
:10044000C9F090E0880F991FFC01E859FE4FA59173
:10045000B491FC01E052FE4FC591D49161110DC0E1
:100460009FB7F8948C91209582238C9388812823C0
:1004700028839FBFDF91CF910895623051F49FB7D9
:10048000F8943C91822F809583238C93E8812E2BC6
:10049000EFCF8FB7F894EC912E2B2C938FBFEACF30
:1004A0008E50806480937C0080917A008064809379
:1004B0007A0080917A0086FDFCCF8091780090913F
:1004C000790008953FB7F89480912201909123011B
:1004D000A0912401B091250126B5A89B05C02F3F0E
:1004E00019F00196A11DB11D3FBFBA2FA92F982F5A
:1004F0008827BC01CD01620F711D811D911D42E055
:10050000660F771F881F991F4A95D1F708958F921C
:100510009F92AF92BF92CF92DF92EF92FF920E9492
:1005200062024B015C0188EBC82E8BE0D82EE12CD7
:10053000F12C0E946202681979098A099B09683EB8
:10054000734081059105A8F321E0C21AD108E108A2
:10055000F10888EE880E83E0981EA11CB11CC1141E
:10056000D104E104F10429F7FF90EF90DF90CF90E0
:10057000BF90AF909F908F9008954F925F926F922F
:100580007F928F929F92AF92BF92EF92FF92CF9302
:10059000DF93DC011E968C911E971B969C911B97F6
:1005A00019964D915C911A9718968C901897282F50
:1005B00030E01C96EC911C97F0E01D96AC91B0E0F9
:1005C000891364C0CB01880F991F680F791F460FEC
:1005D000571F240F351FE9012881E40FF51FF08014
:1005E000A40FB51FCC91882009F445C0912CB12CE3
:1005F000A12C622F70E0762F6627072E000C880B47
:10060000990BA50194010E948916390155244424AF
:100610006F2D70E0762F6627072E000C880B990B44
:10062000A50194010E948916B42FA32F922F882729
:10063000482A592A6A2A7B2A6C2F70E0762F66276F
:10064000072E000C880B990BA50194010E948916B6
:10065000C301B201622B732B842B952BDF91CF91B9
:10066000FF90EF90BF90AF909F908F907F906F9092
:100670005F904F9008956F2D70E090E080E0982F8C
:10068000872F762F6627822B6C2BE8CF660F771F7C
:10069000660F771F640F751F260F371FE90138811A
:1006A000EB01C90FD11DF880E60FF71FC081A60F1F
:1006B000B71FEC90882009F44BC0912CB12CA12CD1
:1006C000632F70E0762F6627072E000C880B990B9E
:1006D000A50194010E948916722E66245524442493
:1006E0006F2D70E0762F6627072E000C880B990B74
:1006F000A50194010E948916A90133272227422AC5
:10070000532A642A752A6E2D70E0762F6627072EED
:10071000000C880B990BA50194010E948916422AAE
:10072000532A642A752A6C2F70E0762F6627072ECD
:10073000000C880B990BA50194010E948916942F37
:10074000832F722F6627642975298629972986CFDA
:100750006F2D70E090E080E0CB0177276627932B28
:100760006E297C2B7BCFCF93DF9300D000D0CDB709
:10077000DEB769837A838B839C83DE011196CE0179
:100780000596ED91F0E0E859FF4F44919D0121500D
:100790003109F90140838A179B0799F769817A81AA
:1007A0008B819C810F900F900F900F90DF91CF91D4
:1007B0000895FF920F931F93CF93DF93EC01FF24D3
:1007C000F394F60E28852F1581F109851A8521509D
:1007D00041F16F3FE1F430E050E040E06FEF7FEF38
:1007E00080E090E00E945716B901F8014C815D81CC
:1007F000CF01801B910B84179507B0F44081469F71
:10080000C001479F900D112490833196EFCF8F2D1B
:1008100090E0982F88270197622F70E00E94C616FB
:10082000E4CF70E060E0E1CFF886DF91CF911F91D7
:100830000F91FF9008958F929F92AF92BF92CF92A7
:10084000DF92EF92FF921F93CF93DF93FC0182819F
:10085000938168177907A8F54A01AA24BB24C82DFB
:10086000C32ED42EE52EFF241C2DD22F8085882365
:1008700061F0889E40011124C92D8C9D60011124D6
:100880001D2D829FD0011124DB2FA685E184F284E7
:100890009385A91322C0CB01880F991F680F791F78
:1008A0006E0D7F1DA385A60FB72FB11DCC93A48518
:1008B000A60FB72FB11D1C938585680F711DFB0115
:1008C000D083DF91CF911F91FF90EF90DF90CF9079
:1008D000BF90AF909F908F900895660F771F660F1F
:1008E000771F6E0D7F1D252F33274427552788231B
:1008F00049F090E0829F7001839FF00C929FF00C72
:1009000011242F2DA60FB72FB11D2C93CBCFCF9233
:10091000DF92EF92FF920F931F93CF93DF93CDB7A8
:10092000DEB729970FB6F894DEBF0FBECDBF8C019E
:10093000DC0119968D919C91892B09F473C00E945A
:100940006202F801C784D088E188F2886C157D05C1
:100950008E059F0520F46787708B818B928BF80141
:10096000C784D088E188F2886C197D098E099F09B7
:100970006C3271408105910510F3F894D8011496FA
:100980008D919C9115979A8389831996ED91FC918D
:100990007F01BFEFEB1AFB0A80818987F801908104
:1009A0000388F489E02DD80155968C91992309F498
:1009B00048C09081982B98879081809589238F8358
:1009C0008F818C8388E08B8358856F8149853B813B
:1009D0002C8189819A81D701508347FD252F3A9533
:1009E0002083262F39F0441F00C0000060830000E0
:1009F00000C0F2CF38E04D9160830000019761F7AD
:100A0000D8015496FC93EE93539749873B832C83EC
:100A10009A83898378940E946202F8016787708BB9
:100A2000818B928B29960FB6F894DEBF0FBECDBF97
:100A3000DF91CF911F910F91FF90EF90DF90CF90BA
:100A400008959081982B98879081809589238F8332
:100A50008F818E8388E08D8358856F8149853D81A4
:100A60002E8189819A81D701508347FD252F00C0AF
:100A700000C0208300C000C000C000C000C0608370
:100A80000000262F3A9541F0441F000000C000C02E
:100A900000C000C000C0E8CF38E04D9100C06083C6
:100AA00000C0019709F7D8015496FC93EE93539731
:100AB00049873D832E83ACCFCF93DF93EC018E81AA
:100AC0009F8197FD07C061E00E94140260E08E8163
:100AD0000E94E60181E08983DF91CF910895FC01B6
:100AE0004481558170E060E0818592850C94051801
:100AF0004F925F926F927F928F929F92AF92BF922E
:100B0000CF92DF92EF92FF920F931F93CF93DF93D9
:100B10000E94E915CB010E942B010E94B3034B01F7
:100B20005C010E94E91580910901EFEFE80FEA30BE
:100B300008F04DC20E2E000CFF0BEF55FA4F0C942F
:100B4000DA16AB05D40502064D068106CA060D0766
:100B500046076307BD0770E08091A3019091A4014F
:100B60008617970718F40E94E915F5CFA50194019F
:100B700081EA91E00E941B0481EA91E00E948704CF
:100B800081EA91E0DF91CF911F910F91FF90EF905B
:100B9000DF90CF90BF90AF909F908F907F906F909D
:100BA0005F904F900C946F05C090A301D090A4016A
:100BB000F12CE12CC114D104E104F10439F00E94BC
:100BC000E915A70196010E9457166B016C2D70E084
:100BD000A501940181EA91E00E941B0481EA91E061
:100BE000DF91CF911F910F91FF90EF90DF90CF9009
:100BF000BF90AF909F908F907F906F905F904F903D
:100C00000C94870410E000E0E8012091A3013091EA
:100C1000A401C217D307E8F4BE0190E080E0CB0145
:100C20007727662750E040E00E94571680919F0189
:100C30009091A001820F931F0E942B010E94B30389
:100C40009B01AC01BE0181EA91E00E941B04239646
:100C5000DCCF81EA91E00E94870480919F0190910E
:100C6000A00180589F4F9093A00180939F010F5F38
:100C70001F4F0330110541F6DF91CF911F910F9166
:100C8000FF90EF90DF90CF90BF90AF909F908F90AC
:100C90007F906F905F904F90089520919D013091CB
:100CA0009E018091A3019091A4018217930720F4E3
:100CB00010929E0110929D0160919D0170919E0184
:100CC000A501940181EA91E00E941B0460919D01BD
:100CD00070919E016150710920E030E0A90181EA24
:100CE00091E00E941B0481EA91E00E9487048091B8
:100CF0009D0190919E01019690939E0180939D018C
:100D0000BBCFC5E0D0E0412C512C32014A94EBEA34
:100D10008E2E0E94E915A30192010E945716162FEC
:100D2000972E5C01689D812D11248695012F081B4B
:100D3000C090A301D090A401F12CE12CC114D104E6
:100D4000E104F10439F00E94E915A70196010E941F
:100D500057166B01812F992DD501AC01332722271E
:100D6000222733275527BA2FA92F982F8827AA275C
:100D7000BB27822B932BA42BB52B9C01AD01202BE1
:100D80006C2D70E081EA91E00E941B04219709F02C
:100D9000C0CFF2CED0E0C0E0C12CD12C7601CA94F5
:100DA00045E0B42E8E018091A3019091A401081713
:100DB000190750F50E94E915A70196010E945716E0
:100DC000E62F462F572FBC01DA019927882788275D
:100DD0009927BB27762F652F542F4427662777271F
:100DE0009A01AB01282B392B4A2B5B2B8E2F6B2DB5
:100DF0000E94BA16E81B2E2BB80181EA91E00E94EE
:100E00001B040D5F1F4FCFCF81EA91E00E94870442
:100E10002196C330D10531F62FCFD0E0C0E08091CC
:100E20009F019091A0010E942B010E94B3039B019E
:100E3000AC01BE0181EA91E00E941B042196C530FD
:100E4000D10569F780919F019091A0018D5C9C4C28
:100E50000E942B010E94B3039B01AC01BE0181EAF9
:100E600091E00E941B042196CA30D10559F781EA0E
:100E700091E00E94870480919F019091A001805889
:100E80009F4F9093A00180939F01F6CED0E0C0E0E9
:100E90008091A3019091A401C817D90708F09ECEB4
:100EA000E0910F0284E0E89FF0011124E456FE4F28
:100EB0002591359145915491BE0181EA91E00E94BE
:100EC0001B042196E5CF8091B9019091BA0101965A
:100ED00020919D0130919E0182179307A0F41092FA
:100EE0009E0110929D0181EA91E00E946F0581EAC6
:100EF00091E00E946F0581EA91E00E946F0581EA0E
:100F000091E00E946F05C4E0D0E060919D01709176
:100F10009E0190E080E0CB01772766272091A30116
:100F20003091A4013695279550E040E00E94571675
:100F300080919F019091A001820F931F0E942B012D
:100F40000E94B3039B01AC0160919D0170919E01D1
:100F500081EA91E00E941B0481EA91E00E948704EB
:100F6000219799F680919F019091A0018150984F0F
:100F70009093A00180939F01BACEC090A301D0901E
:100F8000A401F12CE12CC114D104E104F10439F0E5
:100F90000E94E915A70196010E9457166B01D12CFA
:100FA0008091A3019091A401C816D90660F4B601FE
:100FB00081EA91E00E94BD02672B682B692B19F032
:100FC000812C912C5401A5019401B60103CE8B30E4
:100FD0001CF081E0809309018091090181114CCEC0
:100FE0008AE08093090148CE1F920F920FB60F92AC
:100FF00011242F933F938F939F93AF93BF9380912F
:101000001E0190911F01A0912001B091210130910A
:101010001D0123E0230F2D3758F50196A11DB11DA9
:1010200020931D0180931E0190931F01A093200126
:10103000B09321018091220190912301A09124017C
:10104000B09125010196A11DB11D809322019093BD
:101050002301A0932401B0932501BF91AF919F91EB
:101060008F913F912F910F900FBE0F901F90189569
:1010700026E8230F0296A11DB11DD2CF1F920F9219
:101080000FB60F9211242F933F934F935F936F935B
:101090007F938F939F93AF93BF93CF93DF93EF9300
:1010A000FF938EE00E9450029C0128543140C1E021
:1010B000D0E028323105B0F0245A3109C2E0D0E046
:1010C0002832310578F0245A3109C3E0D0E02832C3
:1010D000310540F082559240C4E0D0E0889710F08E
:1010E000D0E0C0E080911C01882319F081508093EA
:1010F0001C0180E00E94BD01892B71F480911C01CC
:1011000081110AC080919C01882371F181E0809354
:101110001B0182E380931C0181E00E94BD01892BA9
:1011200009F06EC080911C0181110BC080919C015F
:10113000882309F43FC081E080931A0182E3809301
:101140001C01FF91EF91DF91CF91BF91AF919F91E2
:101150008F917F916F915F914F913F912F910F9060
:101160000FBE0F901F90189581E080939C010E9404
:10117000E91522E130E040E050E00E9457167093FC
:101180009301609392010E94E91524E030E040E071
:1011900050E00E94571670939501609394010E944D
:1011A000E91523E030E040E050E00E9457166093DC
:1011B0009601AFCF81E080939C010E94E91522E166
:1011C00030E040E050E00E94571670939301609326
:1011D00092010E94E91524E030E040E050E00E94D6
:1011E000571670939501609394010E94E91523E0CE
:1011F00030E040E050E00E945716609396019ECF89
:10120000209709F49ECF80911C0181119ACFC430A0
:10121000D10509F04CC082E380931C018091170135
:10122000882379F080911501909116018430910501
:101230000CF055C001969093160180931501109201
:1012400017018091150190911601009709F04CC08B
:10125000249719F481E0809388011092190110926B
:10126000180180911501909116018230910509F0C5
:10127000B7C080918601909187018130910509F076
:1012800079C080911901882339F0809102018F5F24
:10129000809302011092190180911801882309F4AA
:1012A00050CF809102018150809302017BC0C230F7
:1012B000D10521F481E080931901ADCFC130D10572
:1012C00021F481E080931801A6CFC330D10509F045
:1012D000A5CF81E08093170110929C019CCF1092C2
:1012E000160110921501ABCF019709F0BACF80918A
:1012F0007E01882351F085E08093020165E081E062
:1013000090E00E94491610927E0180911901882375
:1013100059F0809186019091870101969093870101
:10132000809386011092190180911801882359F049
:101330008091860190918701019790938701809316
:101340008601109218018091860190918701039780
:1013500024F010928701109286018091860190916D
:10136000870197FF7ECF82E090E090938701809382
:10137000860177CF82309105C1F4809119018823CD
:1013800039F0809109018F5F809309011092190152
:1013900080911801882309F4D4CE809109018150ED
:1013A0008093090110921801CCCE892B09F0C9CE87
:1013B00080911901882349F0809109018F5F809302
:1013C000090180930201109219018091180188236C
:1013D00009F4B7CE8091090181508093090164CF4F
:1013E0008330910509F0BAC18091860190918701FF
:1013F00081309105D1F580911901882359F08091B0
:1014000007019091080108969093080180930701C5
:101410001092190180911801882359F080910701D9
:10142000909108010897909308018093070110920A
:1014300018018091070190910801089730F488E025
:1014400090E09093080180930701809107019091AB
:1014500008018F3F910509F008F473CE8FEF90E0FB
:1014600090930801809307016CCE82309105D1F5ED
:1014700080911901882359F080910501909106010E
:1014800008969093060180930501109219018091AE
:101490001801882359F08091050190910601089761
:1014A0009093060180930501109218018091050127
:1014B00090910601089730F488E090E0909306013F
:1014C0008093050180910501909106018F3F910560
:1014D00009F008F436CE8FEF90E0909306018093E8
:1014E00005012FCE892B09F02CCE8091190188237C
:1014F00079F0809107019091080108969093080176
:1015000080930701909306018093050110921901C1
:1015100080911801882379F080910701909108014A
:101520000897909308018093070190930601809398
:101530000501109218018091070190910801089708
:1015400050F488E090E09093080180930701909315
:1015500006018093050180910701909108018F3F5A
:10156000910509F008F4EDCD8FEF90E0909308011C
:1015700080930701B2CF109285010CC180910301C5
:1015800090910401845F9140909304018093030142
:1015900001C181500FC180910301909104018C50D1
:1015A0009E4F909304018093030106C18230910500
:1015B00009F059C080911901882369F080910901CF
:1015C0008830C9F580910F028F5F8C3088F5809349
:1015D0000F021092190180911801882369F08091FF
:1015E00009018830A9F580910F0281112FC08BE08D
:1015F00080930F02109218018091000190910101D7
:10160000843F914030F484EF91E090930101809306
:10161000000180910001909101018131974208F40D
:1016200090CD80E197E2909301018093000189CDF4
:1016300010920F02CECF8091000190910101845F42
:1016400091409093010180930001C3CF8150D0CF8E
:1016500080910001909101018C509E4F9093010167
:1016600080930001C7CF892B09F06BCD80911901C0
:101670008823D9F080910201883009F057C0809109
:1016800085018F5F8C3008F04EC08093850180917A
:1016900003019091040190930101809300018091D6
:1016A000850180930F0210921901809118018823FF
:1016B000D1F080910201883009F045C08091850108
:1016C00081113FC08BE0809385018091030190914F
:1016D0000401909301018093000180918501809322
:1016E0000F02109218018091030190910401843F30
:1016F000914050F484EF91E09093040180930301B2
:101700009093010180930001809103019091040165
:101710008131974208F415CD80E197E2909304015E
:101720008093030180CF10928501B1CF8091030196
:1017300090910401845F9140909304018093030190
:10174000A6CF8150C0CF80910301909104018C50AD
:101750009E4F9093040180930301B7CF049709F043
:10176000F0CC80918601909187018130910509F03C
:101770001DCF80911901882379F080910201883072
:1017800009F0FCCE809185018F5F8C3008F0F3CE9C
:10179000809385011092190180911801882371F0BE
:1017A00080910201883009F0F6CE80918501811187
:1017B000F0CE8BE080938501109218018091030197
:1017C00090910401843F914030F484EF91E0909334
:1017D0000401809303018091030190910401813100
:1017E000974208F4AECC80E197E290930401809395
:1017F0000301A7CC1F920F920FB60F9211242F93C3
:101800003F934F935F936F937F938F939F93AF9388
:10181000BF93EF93FF9380911B01882311F1809177
:101820009B01882309F473C09091960180917F01F8
:1018300098136DC0809180019091810101969093E1
:101840008101809380010E94E91523E030E040E0AF
:1018500050E00E94571660937F0110929B011092F6
:101860001B0180911A01882311F1909196018091BA
:10187000820198131CC080919B01882309F458C0F1
:1018800080918301909184010196909384018093CB
:1018900083010E94E91523E030E040E050E00E941F
:1018A00057166093820110929B0110921A01809149
:1018B0001501909116018230910509F478C00CF061
:1018C00048C0009709F452C061E0019709F470C064
:1018D00020918601309187012115310509F485C0D9
:1018E000809114012130310509F079C0823309F467
:1018F0007CC0853634F061E081E10E94E6011092FF
:101900001401809114018F5F809314013FC0809176
:10191000800190918101892B09F49FCF80918001F2
:10192000909181010197909381018093800195CFDF
:101930008091830190918401892B09F4B4CF809127
:101940008301909184010197909384018093830196
:10195000AACF83309105C1F1049709F0B9CF60E0B7
:101960008FE00E94E60161E082E134C061E081E144
:101970000E94E60161E080E10E94E60161E082E10F
:101980000E94E60161E08FE00E94E601FF91EF9185
:10199000BF91AF919F918F917F916F915F914F9187
:1019A0003F912F910F900FBE0F901F90189560E000
:1019B00080E10E94E60161E082E10E94E60161E0CF
:1019C0008FE00E94E60184CF60E082E10E94E601A0
:1019D00061E08FE00E94E60161E080E1F2CF223019
:1019E000310509F08ECF823329F460E081E10E9455
:1019F000E60187CF88330CF484CF7DCFCF92DF927E
:101A0000EF92FF920F931F93CF93DF93EC016B0143
:101A1000F42EE52E198218861F86188A198A1A8ACA
:101A200081E08E878B871C8692E09D8788838B015F
:101A3000000F111F060F171F1D830C83C8010E9482
:101A4000E0169A878987009789F1A80170E060E025
:101A50000E940518DB82CA82FE82EF828981882378
:101A600041F061E08F2D0E94140260E08F2D0E94F2
:101A7000E6018F2D9E2DFC01E651FE4FE491F0E032
:101A8000EE0FFF1FE052FE4F259134913C8B2B8BC4
:101A9000FC01E453FE4FE491ED8BDF91CF911F9158
:101AA0000F91FF90EF90DF90CF9008951D821C82E0
:101AB0001B821A82D1CF789484B5826084BD84B5AC
:101AC000816084BD85B5826085BD85B5816085BD39
:101AD00080916E00816080936E00109281008091F1
:101AE0008100826080938100809181008160809379
:101AF0008100809180008160809380008091B1009E
:101B000084608093B1008091B00081608093B000C8
:101B100080917A00846080937A0080917A0082605C
:101B200080937A0080917A00816080937A0080911E
:101B30007A00806880937A001092C10090E080E083
:101B40000E9441168D3009F4F4C06DE090E080E011
:101B50000E9449166091020181E090E00E944916BE
:101B60006091090182E090E00E94491660910701AE
:101B700083E090E00E9449166091050184E090E0C6
:101B80000E9449168091030190910401C4E6D0E0BF
:101B9000BE010E94C61685E090E00E944916809121
:101BA000000190910101BE010E94C61686E090E0FE
:101BB0000E9449166091860187E090E00E944916D4
:101BC0006091850188E090E00E94491660910F02C3
:101BD00089E090E00E94491680910201803F19F44B
:101BE00081E080937E0161E081E10E94140261E066
:101BF00082E10E94140261E080E10E94140261E02F
:101C00008FE00E94140262E080E00E94140262E011
:101C100081E00E941402F8941092800010928100DA
:101C20001092B00081E08093700080936F008091EB
:101C300081008160809381008091B10081608093F8
:101C4000B100789486E1E8E6F1E0A7EBB1E001901D
:101C50000D928A95E1F786E1E2E5F1E0ADECB1E0C5
:101C600001900D928A95E1F786E1ECE3F1E0A3EEB5
:101C7000B1E001900D928A95E1F786E1E6E2F1E0AC
:101C8000A9EFB1E001900D928A95E1F7C7EBD1E0A1
:101C9000CE010E945C05CE010E94870462E3CE0162
:101CA0000E94D903669622E0CF30D20789F781EAF5
:101CB00091E00E945C0581EA91E00E94870462E362
:101CC00081EA91E00E94D90380917E01882309F482
:101CD000AAC06AEA87EB91E00E94D9036AEA8DEC18
:101CE00091E00E94D9036AEA83EE91E00E94D90351
:101CF0006AEA89EF91E00E94D9036AEA81EA91E0F9
:101D00000E94D903C7EBD1E010E000E08091B90157
:101D10009091BA010817190708F056C02FEF3FEF4E
:101D20004FEF50E0B801CE010E941B040F5F1F4F20
:101D3000EDCF81E090E00E9441168093020182E0A5
:101D400090E00E9441168093090183E090E00E9498
:101D5000411690E0909308018093070184E090E0A1
:101D60000E94411690E0909306018093050185E062
:101D700090E00E944116C4E68C9FC001112490930C
:101D800004018093030186E090E00E9441168C9F3D
:101D9000C0011124909301018093000187E090E03D
:101DA0000E94411690E0909387018093860188E01D
:101DB00090E00E9441168093850189E090E00E94A6
:101DC000411680930F0208CF669682E0CF30D80785
:101DD00009F09ACFD0E0C0E08091A3019091A401D6
:101DE000C817D907A8F087EB91E00E9487048DEC13
:101DF00091E00E94870483EE91E00E94870489EFBE
:101E000091E00E94870481EA91E00E9487045CCF00
:101E10002FEF3FEF4FEF50E0BE0181EA91E00E94CB
:101E20001B042196D9CF83E10E945002BC01990F77
:101E3000880B990B611571058105910511F00E94C0
:101E400038160E94E91520ED37E040E050E00E948E
:101E5000571670939801609397010E94E915E3E08B
:101E6000CE2ED12CE12CF12CA70196010E94571601
:101E7000609396010E94E915A70196010E945716EA
:101E8000609382010E94E915A70196010E945716EE
:101E900060937F01F0ED4F2EF7E05F2E612C712CE7
:101EA00064E6262E312CC09107016C2F87EB91E060
:101EB0000E94D9036C2F8DEC91E00E94D9036C2F06
:101EC00083EE91E00E94D9036C2F89EF91E00E948C
:101ED000D9036091050181EA91E00E94D9038091C4
:101EE0009C01882309F4DBC180919B0181111DC0F5
:101EF000C7EBD1E0EA80FB80E114F10471F010E05F
:101F000000E020E030E0A901B801CE010E941B04EE
:101F10000F5F1F4FE016F106A1F7CE010E94870464
:101F2000669692E0CF30D90729F7C0919901D091F8
:101F30009A018091970190919801C817D90771F57E
:101F400081E080939B01E091960124E0E29FF00103
:101F50001124E057FE4F2591359145915491E09120
:101F60009401F0919501609192017091930116E1B5
:101F70001E9FC0011F9F900D112489549E4F0E94E7
:101F80001B042091940130919501129FC001139F71
:101F9000900D112489549E4F0E94870480919701CF
:101FA0009091980188519C4FC817D90709F04FC0EC
:101FB00010929B010E94E91524E030E040E050E0DF
:101FC0000E94571670939501609394010E94E91541
:101FD00022E130E040E050E00E94571670939301F8
:101FE000609392010E94E915A30192010E94571685
:101FF00070939801609397010E94E91523E030E007
:1020000040E050E00E94571660939601C7EBD1E084
:10201000EA80FB80E114F10471F010E000E020E0C0
:1020200030E0A901B801CE010E941B040F5F1F4FD1
:10203000E016F106A1F7CE010E948704669682E0C1
:10204000CF30D80729F710929A0110929901809108
:10205000990190919A018938934120F010929A0148
:102060001092990181EA91E00E946F05D0E0C0E0F2
:1020700080918301909184018C179D0700F1209736
:1020800059F020E030E740E750E0BE0161507109AF
:1020900081EA91E00E941B04E091820124E0E29F2A
:1020A000F0011124E057FE4F25913591459154914F
:1020B000BE0181EA91E00E941B042196D9CFC5E0C0
:1020C000D0E0809180019091810105968C179D0749
:1020D00008F1C530D10559F020E730E740E050E085
:1020E000BE016150710981EA91E00E941B04E091F8
:1020F0007F0184E0E89FF0011124E057FE4F259115
:10210000359145915491BE0181EA91E00E941B04F2
:102110002196D7CF81EA91E00E94870480918301C4
:1021200090918401059708F451C0C7EBD1E010E00D
:1021300000E08091B9019091BA010817190758F48D
:1021400020E030E740E750E0B801CE010E941B04D8
:102150000F5F1F4FEECFCE010E948704669692E07C
:10216000CF30D90721F71092840110928301109289
:1021700081011092800110929C010E94E915A30137
:1021800092010E94571670939801609397010E94E4
:102190008702C7EBD1E010E000E08091B901909197
:1021A000BA010817190750F420E030E0A901B8017E
:1021B000CE010E941B040F5F1F4FEFCFCE010E9484
:1021C00087046696E2E0CF30DE0729F78091800130
:1021D00090918101059708F451C0C7EBD1E010E060
:1021E00000E08091B9019091BA010817190758F4DD
:1021F00020E730E740E050E0B801CE010E941B0428
:102200000F5F1F4FEECFCE010E9487046696F2E06B
:10221000CF30DF0721F710928101109280011092D8
:1022200084011092830110929C010E94E915A30180
:1022300092010E94571670939801609397010E9433
:102240008702C7EBD1E010E000E08091B9019091E6
:10225000BA010817190750F420E030E0A901B801CD
:10226000CE010E941B040F5F1F4FEFCFCE010E94D3
:102270008704669622E0CF30D20729F78091990132
:1022800090919A01019690939A018093990180E030
:1022900090E0892B09F407CE0E94000001CE209126
:1022A00003013091040180919001909191012817D0
:1022B000390709F04DC080910201EFEFE80FEA30D5
:1022C00008F0AEC30E2E000CFF0BE759FE4E0C9427
:1022D000DA1673117612A512F9123913A113F61337
:1022E0004E147514D014C7EBD1E00E94E915CB0150
:1022F0000E942B010E94B3034B015C01C090B90105
:10230000D090BA01F12CE12CC114D104E104F10404
:1023100039F00E94E915A70196010E9457166B013A
:102320006C2D70E0A5019401CE010E941B04CE012A
:102330000E948704CE010E946F05669682E0CF302E
:10234000D80799F681E090E09093910180939001F5
:10235000209100013091010180918A0190918B01BF
:1023600028173907C9F580910901843009F065C340
:1023700080910201843009F060C32091B90130914D
:10238000BA0180918C0190918D012817390719F4B9
:1023900081E0809389018091890181110E947805F3
:1023A0008091A3019091A401019620919D0130910B
:1023B0009E018217930751F481EA91E00E946F0514
:1023C00081EA91E00E9487041092890181E090E007
:1023D00090938B0180938A0180918A0190918B0167
:1023E000019690938B0180938A0180919001909146
:1023F00091010196909391018093900180918801C1
:10240000882309F444CF6DE090E080E00E944916F3
:102410006091020181E090E00E94491660910901FB
:1024200082E090E00E9449166091070183E090E00D
:102430000E9449166091050184E090E00E944916CF
:102440008091030190910401B1010E94C61685E0BC
:1024500090E00E9449168091000190910101B10124
:102460000E94C61686E090E00E944916609186019F
:1024700087E090E00E9449166091850188E090E035
:102480000E94491660910F0289E090E00E9449166F
:10249000F89460E081E10E94E60160E080E10E9442
:1024A000E60160E082E10E94E60160E08FE00E94C8
:1024B000E6012FEF83ED90E3215080409040E1F75B
:1024C00000C0000061E081E10E94E60161E080E17E
:1024D0000E94E60161E082E10E94E60161E08FE096
:1024E0000E94E601109288017894D1CEC090B90183
:1024F000D090BA01F12CE12CC114D104E104F10413
:1025000039F00E94E915A70196010E9457166B0148
:10251000CC2D0E94E915CB010E942B010E94B30330
:102520006B017C0107EB11E0D0E0A7019601BE0131
:10253000C8010E941B04C8010E9487040A5E1F4F45
:1025400092E00F30190789F7FDCE10E000E0E801B6
:102550002091B9013091BA01C217D30700F187EB7E
:1025600091E00E9487048DEC91E00E94870483EE45
:1025700091E00E94870489EF91E00E948704809196
:102580008E0190918F0180589F4F90938F0180937F
:102590008E010F5F1F4F03301105C9F6D3CEBE0168
:1025A00090E080E0CB017727662750E040E00E9472
:1025B000571680918E0190918F01820F931F0E9478
:1025C0002B010E94B3034B015C0157EBE52E51E058
:1025D000F52EA5019401BE01C7010E941B04E6E18E
:1025E000EE0EF11CFFE0EF16F2E0FF0691F72396E6
:1025F000AFCF8091B9019091BA01019620918C01E1
:1026000030918D018217930720F410928D01109262
:102610008C01C7EBD1E00E94E915CB010E942B0190
:102620000E94B3039B01AC0160918C0170918D01FC
:10263000CE010E941B0460918C0170918D0161504C
:10264000710920E030E0A901CE010E941B04CE01F7
:102650000E948704669622E0CF30D207E1F680918F
:102660008C0190918D01019690938D0180938C0146
:1026700069CE03E010E00E94E9152FEF30E040E062
:1026800050E00E9457169B01AB01BC01DA0199276B
:10269000882788279927BB27CC24D42EE52EF62E11
:1026A000EE24FF24C82AD92AEA2AFB2A822F65E0D1
:1026B0000E94BA16281BC22A8090B9019090BA01D4
:1026C000B12CA12C81149104A104B10439F00E9411
:1026D000E915A50194010E9457164B01C7EBD1E003
:1026E000912CA7019601B401CE010E941B046696AD
:1026F00082E0CF30D807A9F70150110909F0BBCF0C
:1027000087EB91E00E94870487EB91E00E946F05C0
:102710008DEC91E00E9487048DEC91E00E946F05A2
:1027200083EE91E00E94870483EE91E00E946F05A2
:1027300089EF91E00E94870489EF91E00E946F0584
:1027400001CE10E000E0E8018091B9019091BA015A
:10275000C817D907B0F087EB91E00E9487048DEC91
:1027600091E00E94870483EE91E00E94870489EF44
:1027700091E00E9487040F5F1F4F0330110519F786
:10278000E1CD0E94E9152FEF30E040E050E00E94DB
:1027900057169B01AB01BC01DA01992788278827CE
:1027A0009927BB278824942EA52EB62EAA24BB24B5
:1027B000882A992AAA2ABB2A822F65E00E94BA1683
:1027C000281B822AF7EBEF2EF1E0FF2EA5019401E2
:1027D000BE01C7010E941B0496E1E90EF11CEFE067
:1027E000EE16E2E0FE0691F72396AECF07EB11E07E
:1027F000D0E0C0E080918E0190918F01905C0E94AA
:102800002B010E94B3039B01AC01BE01C8010E94D1
:102810001B042196C830D10569F780918E019091F3
:102820008F0190580E942B010E94B3039B01AC01C1
:10283000BE01C8010E941B042196CE30D10569F764
:1028400080918E0190918F0190540E942B010E94E3
:10285000B3039B01AC01BE01C8010E941B04219679
:10286000C231D10569F7C8010E94870480918E01A9
:1028700090918F019C01305C30938F0120938E01E9
:102880000A5E1F4FF2E00F301F0709F0B1CF8058EA
:102890009F4B90938F0180938E0154CDC7EBD1E075
:1028A00010E000E08091B9019091BA010817190772
:1028B00098F4E091850124E0E29FF0011124E456B0
:1028C000FE4F2591359145915491B801CE010E945A
:1028D0001B040F5F1F4FE6CFCE010E948704669650
:1028E00082E0CF30D807E1F62DCD8091B9019091EB
:1028F000BA01019620918C0130918D0182179307C6
:10290000A0F410928D0110928C0187EB91E00E944F
:102910006F058DEC91E00E946F0583EE91E00E94BF
:102920006F0589EF91E00E946F05C7EBD1E06091E0
:102930008C0170918D0190E080E0CB0177276627B4
:102940002091B9013091BA012F5F3F4F50E040E034
:102950000E94571680918E0190918F01820F931FD4
:102960000E942B010E94B3039B01AC0160918C017A
:1029700070918D01CE010E941B04CE010E9487043C
:10298000669692E0CF30D90791F680918E019091B2
:102990008F018150984F90938F0180938E015FCE6D
:1029A000C090B901D090BA01F12CE12CC114D1042E
:1029B000E104F10439F00E94E915A70196010E9493
:1029C00057166B01CC2D0E94E915CB010E942B01FB
:1029D0000E94B3036B017C0107EB11E0D0E0F8012A
:1029E00082819381C817D90758F4BE01C8010E949B
:1029F000BD02672B682B692B19F0C12CD12C7601F5
:102A0000A7019601BE01C8010E941B04C8010E94D3
:102A100087040A5E1F4FF2E00F301F0701F792CCC8
:102A20008B301CF081E080930201809102018111C2
:102A300089CC8AE08093020185CC0E947805C6CCBF
:102A400048E050E062E170E088E691E00E94FE0C10
:102A500047E050E062E170E082E591E00E94FE0C08
:102A600046E050E062E170E08CE391E00E94FE0CF1
:102A700045E050E062E170E086E291E00E94FE0CE9
:102A8000E7EBF1E081E02FEF3FEF92E080831182EE
:102A9000138212821582148237832683108612864F
:102AA000118683871486958786871786108A118AF0
:102AB000128A769642E0EF30F40741F749E050E0A1
:102AC0006AE070E081EA91E00C94FE0CCF93DF9312
:102AD000EC0189859A850E947C178E819F8197FDE4
:102AE00005C060E0DF91CF910C941402DF91CF918B
:102AF000089581EA91E00E94661589EF91E00E94B5
:102B0000661583EE91E00E9466158DEC91E00E94BF
:102B1000661587EB91E00E94661586E291E00E94BF
:102B200066158CE391E00E94661582E591E00E94B3
:102B3000661588E691E00C9466158F929F92AF928D
:102B4000BF92CF92DF92EF92FF92CF93DF93EC018F
:102B5000688179818A819B81611571058105910563
:102B600021F464E279ED8BE597E02DE133EF41E06C
:102B700050E00E94571649015A019B01AC01A7EA97
:102B8000B1E40E9476166B017C01ACEEB4EFA501B6
:102B900094010E948416C60ED71EE81EF91EF7FE89
:102BA00006C081E0C81AD108E10880E8F80AC882A6
:102BB000D982EA82FB82C701B6019F77DF91CF916C
:102BC000FF90EF90DF90CF90BF90AF909F908F904D
:102BD00008958F929F92AF92BF92CF92DF92EF9221
:102BE000FF9260910A0170910B0180910C0190910C
:102BF0000D01611571058105910521F464E279EDFE
:102C00008BE597E02DE133EF41E050E00E9457164D
:102C100049015A019B01AC01A7EAB1E40E94761672
:102C20006B017C01ACEEB4EFA50194010E94841607
:102C3000C60ED71EE81EF91EF7FE06C081E0C81AB0
:102C4000D108E10880E8F80AC0920A01D0920B018D
:102C5000E0920C01F0920D01C701B6019F77FF9041
:102C6000EF90DF90CF90BF90AF909F908F9008959E
:102C700060930A0170930B0180930C0190930D01F6
:102C80000895F999FECF92BD81BDF89A992780B534
:102C90000895262FF999FECF1FBA92BD81BD20BDA0
:102CA0000FB6F894FA9AF99A0FBE01960895052E78
:102CB00097FB1EF400940E946E1657FD07D00E94E9
:102CC000891607FC03D04EF40C946E16509540956F
:102CD000309521953F4F4F4F5F4F089590958095C8
:102CE000709561957F4F8F4F9F4F08950E94AB164F
:102CF000A59F900DB49F900DA49F800D911D112450
:102D00000895B7FF0C9476160E947616821B930BDB
:102D10000895A1E21A2EAA1BBB1BFD010DC0AA1F1C
:102D2000BB1FEE1FFF1FA217B307E407F50720F034
:102D3000A21BB30BE40BF50B661F771F881F991FAF
:102D40001A9469F760957095809590959B01AC01F8
:102D5000BD01CF010895A29FB001B39FC001A39F01
:102D6000700D811D1124911DB29F700D811D1124C4
:102D7000911D0895991B79E004C0991F961708F0DA
:102D8000961B881F7A95C9F780950895AA1BBB1BCF
:102D900051E107C0AA1FBB1FA617B70710F0A61B5B
:102DA000B70B881F991F5A95A9F780959095BC017C
:102DB000CD010895EE0FFF1F0590F491E02D0994C9
:102DC0000F931F93CF93DF938230910510F482E02D
:102DD00090E0E0911202F091130230E020E0B0E0C8
:102DE000A0E0309799F42115310509F44AC0281B59
:102DF000390B24303105D8F58A819B816115710525
:102E000089F1FB0193838283FE0111C040815181CE
:102E10000281138148175907E0F04817590799F4C0
:102E2000109761F012960C93129713961C9332969A
:102E3000CF01DF91CF911F910F910895009312025E
:102E400010931302F4CF2115310551F042175307A7
:102E500038F0A901DB019A01BD01DF01F801C1CF02
:102E6000EF01F9CF9093130280931202CDCFFE01B0
:102E7000E20FF31F81939193225031093983288304
:102E8000D7CF2091100230911102232B41F42091D1
:102E90001001309111013093110220931002209102
:102EA0000E0130910F012115310541F42DB73EB7C8
:102EB0004091120150911301241B350BE091100237
:102EC000F0911102E217F307A0F42E1B3F0B281715
:102ED000390778F0AC014E5F5F4F2417350748F093
:102EE0004E0F5F1F509311024093100281939193F4
:102EF0009FCFF0E0E0E09CCFCF93DF930097E9F025
:102F0000FC01329713821282A0911202B091130237
:102F1000ED0130E020E01097A1F420813181820F93
:102F2000931F20911002309111022817390709F0E0
:102F300061C0F0931102E0931002DF91CF910895E8
:102F4000EA01CE17DF07E8F54A815B819E01411552
:102F50005105B1F7E901FB83EA8349915991C40F07
:102F6000D51FEC17FD0761F4808191810296840FD3
:102F7000951FE90199838883828193819B838A834A
:102F8000F0E0E0E012968D919C9113970097B9F5CF
:102F90002D913C911197CD010296820F931F2091A4
:102FA0001002309111022817390739F6309751F580
:102FB0001092130210921202B0931102A093100209
:102FC000BCCFD383C28340815181840F951FC81722
:102FD000D90761F44E5F5F4F88819981480F591F6F
:102FE000518340838A819B8193838283211531059C
:102FF00009F0B0CFF0931302E09312029ECFFD01CF
:10300000DC01C0CF13821282D7CFDC0101C06D93E7
:1030100041505040E0F7089511E0C0E0D1E004C015
:10302000FE010E94DA162196C130D107C9F7F89443
:10303000FFCFE80304E8033200320004010000007F
:06304000000014028000F4
:103800000C94341C0C94511C0C94511C0C94511CA1
:103810000C94511C0C94511C0C94511C0C94511C74
:103820000C94511C0C94511C0C94511C0C94511C64
:103830000C94511C0C94511C0C94511C0C94511C54
:103840000C94511C0C94511C0C94511C0C94511C44
:103850000C94511C0C94511C0C94511C0C94511C34
:103860000C94511C0C94511C11241FBECFEFD4E0BA
:10387000DEBFCDBF11E0A0E0B1E0E4EAFFE302C0AB
:1038800005900D92A230B107D9F712E0A2E0B1E0A5
:1038900001C01D92AD30B107E1F70E94361D0C94B6
:1038A000D01F0C94001C982F9595959595959595FE
:1038B000905D8F708A307CF0282F295A8091C0004B
:1038C00085FFFCCF9093C6008091C00085FFFCCFA0
:1038D0002093C6000895282F205DF0CF982F809167
:1038E000C00085FFFCCF9093C6000895EF92FF9231
:1038F0000F931F93EE24FF2487018091C00087FD62
:1039000017C00894E11CF11C011D111D81E4E8168B
:1039100082E4F8068FE0080780E0180770F3E09172
:103920000401F091050109958091C00087FFE9CF5E
:103930008091C6001F910F91FF90EF9008950E9413
:10394000761C982F8091C00085FFFCCF9093C60015
:1039500091362CF490330CF09053892F089597559D
:10396000892F08951F930E949F1C182F0E949F1C4F
:103970001295107F810F1F910895882351F0982F81
:1039800091508091C00087FFFCCF8091C6009923A1
:10399000B9F708951F93182F0E94761C803249F0C2
:1039A000809103018F5F809303018530C1F01F91E7
:1039B00008958091C00085FFFCCF84E18093C6000C
:1039C0008091C00085FFFCCF1093C6008091C0009D
:1039D00085FFFCCF80E18093C6001F910895E091A0
:1039E0000401F091050109951F9108950E94761C2C
:1039F000803241F0809103018F5F80930301853015
:103A000081F008958091C00085FFFCCF84E1809310
:103A1000C6008091C00085FFFCCF80E18093C60086
:103A20000895E0910401F09105010995089510921F
:103A30000A028823D1F090E040E951E02D9A28EE67
:103A400033E0FA013197F1F721503040D1F72D984A
:103A500028EE33E0FA013197F1F721503040D1F7E9
:103A60009F5F981758F380930A0208953F924F92F0
:103A70005F926F927F928F929F92AF92BF92CF92FE
:103A8000DF92EF92FF920F931F93CF93DF9300008B
:103A900083E38093C4001092C50088E18093C10045
:103AA00086E08093C2005098589A259A81E00E943F
:103AB000171D44E1F42E3EE1E32E24E9D22E96E0D8
:103AC000C92E80E1B82EAA24A39401E4902E16E515
:103AD000812EB2E57B2EA0E26A2EF9E45F2EE3E5AB
:103AE0004E2E70E5372E0E94761C8033B1F1813363
:103AF00009F441C0803409F479C0813409F48CC0E0
:103B0000823471F1853409F47BC0803531F182351E
:103B100021F1813511F1853509F48DC0863509F41F
:103B20009DC0843609F4AEC0843709F41BC18537C3
:103B300009F485C1863709F47AC0809103018F5F4B
:103B400080930301853079F6E0910401F09105013D
:103B500009950E94761C803351F60E94F61CC3CF53
:103B600093E18091C00087FFFCCF8091C60099232C
:103B7000A1F39150F6CF0E94761C8032F1F680912D
:103B8000C00085FFFCCFF092C6008091C00085FF89
:103B9000FCCF9092C6008091C00085FFFCCF809240
:103BA000C6008091C00085FFFCCF7092C600809156
:103BB000C00085FFFCCF6092C6008091C00085FFE9
:103BC000FCCF5092C6008091C00085FFFCCF409290
:103BD000C6008091C00085FFFCCF3092C600809166
:103BE000C00085FFFCCFB092C6007DCF0E94761C3E
:103BF000863808F4B2CF0E94761C0E94F61C73CF60
:103C000094E08091C00087FFFCCF8091C60099238B
:103C100009F4A3CF9150F5CF0E94761C8038D1F0E3
:103C2000813861F1823809F499C0883979F080E0EF
:103C30000E94CA1C58CF0E94761C809306010E94E5
:103C4000761C809307010E94F61C4DCF83E00E94F2
:103C5000CA1C49CF82E00E94CA1C45CF0E94761C34
:103C6000803309F486C192E08091C00087FFFCCFC9
:103C70008091C6009923D9F29150F6CF81E00E943D
:103C8000CA1C31CF0E94761C809309020E94761CC8
:103C90008093080280910C028E7F80930C020E9418
:103CA000761C853429F480910C02816080930C028B
:103CB0008091080290910902892B89F000E010E0C0
:103CC0000E94761CF801E85FFE4F80830F5F1F4F54
:103CD00080910802909109020817190788F30E9441
:103CE000761C803209F029CF80910C0280FFD1C070
:103CF0004091060150910701440F551F5093070151
:103D000040930601A0910802B09109021097C9F0F2
:103D1000E8E0F1E09A01BD016E0F7F1FF999FECF37
:103D200032BD21BD819180BDFA9AF99A2F5F3F4F34
:103D3000E617F70799F74A0F5B1F50930701409367
:103D400006018091C00085FFFCCFF092C6008091F3
:103D5000C00085FFFCCFB092C600C5CE80E10E94B6
:103D6000CA1CC1CE0E94761C809309020E94761C58
:103D7000809308028091060190910701880F991F96
:103D800090930701809306010E94761C853409F404
:103D90007AC080910C028E7F80930C020E94761C68
:103DA000803209F0A0CE8091C00085FFFCCFF09258
:103DB000C600A0910802B09109021097B9F1809154
:103DC0000C02182F1170082F0270E0910601F0917B
:103DD00007019F012F5F3F4FB90140E050E01123E1
:103DE000B1F4002339F494918091C00085FFFCCF99
:103DF0009093C6004F5F5F4FCB010196F9014A17C0
:103E00005B0780F4BC012F5F3F4F112351F3F999F9
:103E1000FECFF2BDE1BDF89A90B58091C00085FF5C
:103E2000FCCFE6CF70930701609306018091C0003C
:103E300085FDD9CE8091C00085FFF8CFD4CE0E94F9
:103E4000761C803209F079CE8091C00085FFFCCFCE
:103E5000F092C6008091C00085FFFCCFE092C600C2
:103E60008091C00085FFFCCFD092C6008091C00039
:103E700085FFFCCFC092C6008091C00085FFFCCFBB
:103E8000B092C60030CE80910C02816080930C020B
:103E900085CF809107018823880F880B8A21809322
:103EA0000B028091060190910701880F991F909352
:103EB0000701809306018091080280FF09C080916C
:103EC00008029091090201969093090280930802DA
:103ED000F894F999FECF1127E0910601F0910701BE
:103EE000C8E0D1E08091080290910902103091F46D
:103EF0000091570001700130D9F303E0009357009F
:103F0000E8950091570001700130D9F301E1009369
:103F10005700E89509901990009157000170013001
:103F2000D9F301E000935700E8951395103498F009
:103F300011270091570001700130D9F305E000937B
:103F40005700E8950091570001700130D9F301E165
:103F500000935700E8953296029709F0C7CF1030CA
:103F600011F00296E5CF11248091C00085FFE9CEC3
:103F7000ECCE0E94761C0E94761C182F0E94761CA4
:103F8000112351F0113021F086E00E94CA1CABCD04
:103F900084E90E94CA1CA7CD8EE10E94CA1CA3CD51
:063FA000F894FFCF800041
:00000001FF
