:100000000C9401010C9429010C9429010C942901F0
:100010000C9429010C9429010C9429010C942901B8
:100020000C9429010C943E0C0C9429010C94290188
:100030000C9429010C9482080C9429010C94290138
:100040000C9438080C9429010C9429010C94290172
:100050000C9429010C9429010C9429010C94290178
:100060000C9429010C9429010000000000000000FC
:100070000000000000000000000000000000000080
:10008000010101010101010101010101020202025C
:10009000020202020303030303030404040405052C
:1000A00005050506060606070707080808090909E1
:1000B0000A0A0A0B0B0B0C0C0D0D0D0E0E0F0F1078
:1000C00010111112121313141415151616171818EF
:1000D00019191A1B1B1C1D1D1E1F1F202122222344
:1000E000242526262728292A2A2B2C2D2E2F30316D
:1000F00032333435363738393A3B3C3D3E3F404168
:10010000424445464748494B4C4D4E505152545538
:100110005658595A5C5D5E606163646667696A6CD3
:100120006D6F7072737577787A7C7D7F818284863B
:1001300088898B8D8F91929496989A9C9EA0A2A468
:10014000A6A8AAACAEB0B2B4B6B8BABCBFC1C3C55B
:10015000C7CACCCED1D3D5D7DADCDFE1E3E6E8EB12
:10016000EDF0F2F5F7FAFCFF000000002400270094
:100170002A000000000023002600290000000008DB
:10018000000201000003040700000000000000005E
:100190000000FF0000FF0000FF0000000000FF0063
:1001A000007FFF0000FFFF0000FF7F0000FF000056
:1001B0007FFF0000FFFF0000FF7F0000FF00000046
:1001C000FF007F00FF00FF007F00FF000102040826
:1001D00010204080010204081020010204081020B1
:1001E00000000000250028002B000404040404047F
:1001F0000404020202020202030303030303D515EF
:100200002E1611241FBECFEFD4E0DEBFCDBF11E00C
:10021000A0E0B1E0ECE9F1E302C005900D92A43159
:10022000B107D9F722E0A4E1B1E001C01D92A431E9
:10023000B207E1F710E0C0E0D1E004C02197FE0171
:100240000E948F17CF3FD107C9F70E949F0D0C94D2
:10025000C1180C940000CF92DF92EF92FF920F939F
:100260001F939C01AAEFB5E00E946017DC01CB014F
:100270009058AF4FBF4FCD01BB2797FDB095AB2F27
:100280008E3F21E0920758F5282F8F3F910508F403
:1002900045C06EEF681B862F30E02FEF682F70E0AF
:1002A00090E080E0CB0177276627D12CF12CE12C60
:1002B000632B7D298E299F29022F10E030E020E05A
:1002C000322F212F102F0027602B712B822B932B85
:1002D0001F910F91FF90EF90DF90CF9008958C3F8A
:1002E00023E0920768F48D3F22E0920728F432E081
:1002F000380F2FEF80E0D2CF2CEF281B3FEFFACF43
:100300008A3F25E0920769F03AEF381B8B3F24E0E3
:10031000920740F48C5F3FEF20E0C0CF30E08FEFDA
:10032000BDCF30E020E0FBCF833081F028F4813076
:1003300099F08230A9F008958730A9F08830C9F08B
:100340008430B1F4809180008F7D03C08091800063
:100350008F7780938000089584B58F7784BD08954A
:1003600084B58F7DFBCF8091B0008F778093B000F4
:1003700008958091B0008F7DF9CFCF93DF93282F20
:1003800030E0F901E458FE4F8491F901E453FE4F47
:10039000D491F901E651FE4FC491CC23A1F0811113
:1003A0000E949401EC2FF0E0EE0FFF1FEE58FE4F7D
:1003B000A591B491EC91ED2381E090E009F480E007
:1003C000DF91CF91089580E090E0FACF1F93CF9313
:1003D000DF93282F30E0F901E458FE4F8491F901B2
:1003E000E453FE4FD491F901E651FE4FC491CC2362
:1003F000A9F0162F81110E949401EC2FF0E0EE0F6E
:10040000FF1FE052FE4FA591B4918FB7F894EC9185
:10041000111108C0D095DE23DC938FBFDF91CF91FF
:100420001F910895DE2BF8CFCF93DF9390E0FC016E
:10043000E453FE4F249186519E4FFC018491882302
:10044000C9F090E0880F991FFC01E859FE4FA59173
:10045000B491FC01E052FE4FC591D49161110DC0E1
:100460009FB7F8948C91209582238C9388812823C0
:1004700028839FBFDF91CF910895623051F49FB7D9
:10048000F8943C91822F809583238C93E8812E2BC6
:10049000EFCF8FB7F894EC912E2B2C938FBFEACF30
:1004A0008E50806480937C0080917A008064809379
:1004B0007A0080917A0086FDFCCF8091780090913F
:1004C000790008953FB7F89480912201909123011B
:1004D000A0912401B091250126B5A89B05C02F3F0E
:1004E00019F00196A11DB11D3FBFBA2FA92F982F5A
:1004F0008827BC01CD01620F711D811D911D42E055
:10050000660F771F881F991F4A95D1F708958F921C
:100510009F92AF92BF92CF92DF92EF92FF920E9492
:1005200062024B015C0188EBC82E8BE0D82EE12CD7
:10053000F12C0E946202681979098A099B09683EB8
:10054000734081059105A8F321E0C21AD108E108A2
:10055000F10888EE880E83E0981EA11CB11CC1141E
:10056000D104E104F10429F7FF90EF90DF90CF90E0
:10057000BF90AF909F908F9008954F925F926F922F
:100580007F928F929F92AF92BF92EF92FF92CF9302
:10059000DF93DC011E968C911E971B969C911B97F6
:1005A00019964D915C911A9718968C901897282F50
:1005B00030E01C96EC911C97F0E01D96AC91B0E0F9
:1005C000891364C0CB01880F991F680F791F460FEC
:1005D000571F240F351FE9012881E40FF51FF08014
:1005E000A40FB51FCC91882009F445C0912CB12CE3
:1005F000A12C622F70E0762F6627072E000C880B47
:10060000990BA50194010E943E17390155244424F9
:100610006F2D70E0762F6627072E000C880B990B44
:10062000A50194010E943E17B42FA32F922F882773
:10063000482A592A6A2A7B2A6C2F70E0762F66276F
:10064000072E000C880B990BA50194010E943E1700
:10065000C301B201622B732B842B952BDF91CF91B9
:10066000FF90EF90BF90AF909F908F907F906F9092
:100670005F904F9008956F2D70E090E080E0982F8C
:10068000872F762F6627822B6C2BE8CF660F771F7C
:10069000660F771F640F751F260F371FE90138811A
:1006A000EB01C90FD11DF880E60FF71FC081A60F1F
:1006B000B71FEC90882009F44BC0912CB12CA12CD1
:1006C000632F70E0762F6627072E000C880B990B9E
:1006D000A50194010E943E17722E662455244424DD
:1006E0006F2D70E0762F6627072E000C880B990B74
:1006F000A50194010E943E17A90133272227422A0F
:10070000532A642A752A6E2D70E0762F6627072EED
:10071000000C880B990BA50194010E943E17422AF8
:10072000532A642A752A6C2F70E0762F6627072ECD
:10073000000C880B990BA50194010E943E17942F81
:10074000832F722F6627642975298629972986CFDA
:100750006F2D70E090E080E0CB0177276627932B28
:100760006E297C2B7BCFCF93DF9300D000D0CDB709
:10077000DEB769837A838B839C83DE011196CE0179
:100780000596ED91F0E0E859FF4F44919D0121500D
:100790003109F90140838A179B0799F769817A81AA
:1007A0008B819C810F900F900F900F90DF91CF91D4
:1007B0000895FF920F931F93CF93DF93EC01FF24D3
:1007C000F394F60E28852F1581F109851A8521509D
:1007D00041F16F3FE1F430E050E040E06FEF7FEF38
:1007E00080E090E00E940C17B901F8014C815D8116
:1007F000CF01801B910B84179507B0F44081469F71
:10080000C001479F900D112490833196EFCF8F2D1B
:1008100090E0982F88270197622F70E00E947B1745
:10082000E4CF70E060E0E1CFF886DF91CF911F91D7
:100830000F91FF9008958F929F92AF92BF92CF92A7
:10084000DF92EF92FF921F93CF93DF93FC0182819F
:10085000938168177907A8F54A01AA24BB24C82DFB
:10086000C32ED42EE52EFF241C2DD22F8085882365
:1008700061F0889E40011124C92D8C9D60011124D6
:100880001D2D829FD0011124DB2FA685E184F284E7
:100890009385A91322C0CB01880F991F680F791F78
:1008A0006E0D7F1DA385A60FB72FB11DCC93A48518
:1008B000A60FB72FB11D1C938585680F711DFB0115
:1008C000D083DF91CF911F91FF90EF90DF90CF9079
:1008D000BF90AF909F908F900895660F771F660F1F
:1008E000771F6E0D7F1D252F33274427552788231B
:1008F00049F090E0829F7001839FF00C929FF00C72
:1009000011242F2DA60FB72FB11D2C93CBCFCF9233
:10091000DF92EF92FF920F931F93CF93DF93CDB7A8
:10092000DEB729970FB6F894DEBF0FBECDBF8C019E
:10093000DC0119968D919C91892B09F473C00E945A
:100940006202F801C784D088E188F2886C157D05C1
:100950008E059F0520F46787708B818B928BF80141
:10096000C784D088E188F2886C197D098E099F09B7
:100970006C3271408105910510F3F894D8011496FA
:100980008D919C9115979A8389831996ED91FC918D
:100990007F01BFEFEB1AFB0A80818987F801908104
:1009A0000388F489E02DD80155968C91992309F498
:1009B00048C09081982B98879081809589238F8358
:1009C0008F818C8388E08B8358856F8149853B813B
:1009D0002C8189819A81D701508347FD252F3A9533
:1009E0002083262F39F0441F00C0000060830000E0
:1009F00000C0F2CF38E04D9160830000019761F7AD
:100A0000D8015496FC93EE93539749873B832C83EC
:100A10009A83898378940E946202F8016787708BB9
:100A2000818B928B29960FB6F894DEBF0FBECDBF97
:100A3000DF91CF911F910F91FF90EF90DF90CF90BA
:100A400008959081982B98879081809589238F8332
:100A50008F818E8388E08D8358856F8149853D81A4
:100A60002E8189819A81D701508347FD252F00C0AF
:100A700000C0208300C000C000C000C000C0608370
:100A80000000262F3A9541F0441F000000C000C02E
:100A900000C000C000C0E8CF38E04D9100C06083C6
:100AA00000C0019709F7D8015496FC93EE93539731
:100AB00049873D832E83ACCFCF93DF93EC018E81AA
:100AC0009F8197FD07C061E00E94140260E08E8163
:100AD0000E94E60181E08983DF91CF910895FC01B6
:100AE0004481558170E060E0818592850C94BA184C
:100AF000CF92DF92EF92FF926B017C01C114D1047F
:100B0000E104F10441F00E949E16A70196010E94A3
:100B10000C176B017C01C701B601FF90EF90DF90CD
:100B2000CF9008958F929F92AF92BF92CF92DF9213
:100B3000EF92FF920F931F93CF93DF930E949E1625
:100B4000CB010E942B010E94B3036B017C010E9428
:100B50009E1680910901EFEFE80FEC3008F07BC2A0
:100B60000E2E000CFF0BE954FA4F0C948F17C3059F
:100B7000E80507064E068206C00603073C0759072C
:100B8000B307D407000870E08091A3019091A401FD
:100B90008617970718F40E949E16F5CFA7019601B5
:100BA00081EA91E00E941B0481EA91E00E9487049F
:100BB00081EA91E0DF91CF911F910F91FF90EF902B
:100BC000DF90CF90BF90AF909F908F900C946F0567
:100BD0006091A3017091A40190E080E00E947805EB
:100BE00070E0A701960181EA91E00E941B0481EA6E
:100BF00091E0DF91CF911F910F91FF90EF90DF90E7
:100C0000CF90BF90AF909F908F900C94870410E08E
:100C100000E0E8012091A3013091A401C217D3079D
:100C2000E8F4BE0190E080E0CB017727662750E032
:100C300040E00E940C1780919F019091A001820FCB
:100C4000931F0E942B010E94B3039B01AC01BE01C4
:100C500081EA91E00E941B042396DCCF81EA91E0B7
:100C60000E94870480919F019091A00180589F4F1E
:100C70009093A00180939F010F5F1F4F03301105D8
:100C800041F6DF91CF911F910F91FF90EF90DF9090
:100C9000CF90BF90AF909F908F90089520919D012D
:100CA00030919E018091A3019091A4018217930736
:100CB00020F410929E0110929D0160919D0170910F
:100CC0009E01A701960181EA91E00E941B046091B8
:100CD0009D0170919E016150710920E030E0A901F1
:100CE00081EA91E00E941B0481EA91E00E9487045E
:100CF00080919D0190919E01019690939E01809319
:100D00009D01BFCFC5E0D0E0C12CD12C7601CA94A3
:100D10000BEA0E949E16A70196010E940C17B62EA0
:100D2000872E982EA92E609F812D112486951B2D2C
:100D3000181B6091A3017091A40190E080E00E94D3
:100D400078058B2D982DA92DBA2DAC01332722279C
:100D5000222733275527BA2FA92F982F8827AA276C
:100D6000BB27822B932BA42BB52B9C01AD01212BF0
:100D700070E081EA91E00E941B04219751F614CFA4
:100D8000D0E0C0E0C12CD12C7601CA9445E0B42E4D
:100D90008E018091A3019091A4010817190750F5C5
:100DA0000E949E16A70196010E940C17E62F462F5F
:100DB000572FBC01DA019927882788279927BB2755
:100DC000762F652F542F4427662777279A01AB018A
:100DD000282B392B4A2B5B2B8E2F6B2D0E946F17E4
:100DE000E81B2E2BB80181EA91E00E941B040D5FE5
:100DF0001F4FCFCF81EA91E00E9487042196C33034
:100E0000D10531F63ECFD0E0C0E080919F019091B6
:100E1000A0010E942B010E94B3039B01AC01BE0103
:100E200081EA91E00E941B042196C530D10569F743
:100E300080919F019091A0018D5C9C4C0E942B01A0
:100E40000E94B3039B01AC01BE0181EA91E00E94C4
:100E50001B042196CA30D10559F781EA91E00E941E
:100E6000870480919F019091A00180589F4F90939B
:100E7000A00180939F0105CFD0E0C0E08091A30145
:100E80009091A401C817D90708F0B1CEE0910F02E4
:100E900084E0E89FF0011124E456FE4F259135913E
:100EA00045915491BE0181EA91E00E941B04219674
:100EB000E5CF8091B9019091BA01019620919D01F1
:100EC00030919E0182179307A0F410929E01109218
:100ED0009D0181EA91E00E946F0581EA91E00E9404
:100EE0006F0581EA91E00E946F0581EA91E00E941E
:100EF0006F05C4E0D0E060919D0170919E0190E08B
:100F000080E0CB01772766272091A3013091A401CF
:100F10003695279550E040E00E940C1780919F0184
:100F20009091A001820F931F0E942B010E94B30396
:100F30009B01AC0160919D0170919E0181EA91E05D
:100F40000E941B0481EA91E00E948704219799F690
:100F500080919F019091A0018150984F9093A001A2
:100F600080939F01C5CE6091A3017091A40190E090
:100F700080E00E947805C62FD0E08091A301909177
:100F8000A401C817D90760F4BE0181EA91E00E946C
:100F9000BD02672B682B692B19F0C12CD12C76016F
:100FA000A7019601BE011FCED0E0C0E01AE08091FB
:100FB000A3019091A401C817D90708F062CE65E497
:100FC00070E080E090E00E947805DC01CB010196A2
:100FD000A11DB11D2227382F492F5A2F44275527ED
:100FE000612F0E946F17282B4F6FBE0181EA91E09D
:100FF0000E941B0481EA91E00E9487042196D7CFCA
:10100000C3E0D0E032E0832E912CA12CB12C0E94C1
:101010009E16A50194010E940C178FEF662311F014
:1010200080E06FEF90E0B0E0A0E0CC24D82EE92E75
:10103000FA2EE62A6091A3017091A40190E080E06D
:101040000E947805A701960181EA91E00E941B04A5
:101050002197E9F6A9CD8D301CF081E0809309013C
:101060008091090181110DCE8CE08093090109CE98
:101070001F920F920FB60F9211242F933F938F93CD
:101080009F93AF93BF9380911E0190911F01A091F8
:101090002001B091210130911D0123E0230F2D3754
:1010A00058F50196A11DB11D20931D0180931E01CD
:1010B00090931F01A0932001B09321018091220100
:1010C00090912301A0912401B09125010196A11DC9
:1010D000B11D8093220190932301A0932401B0932A
:1010E0002501BF91AF919F918F913F912F910F90CB
:1010F0000FBE0F901F90189526E8230F0296A11D92
:10110000B11DD2CF1F920F920FB60F9211242F93C1
:101110003F934F935F936F937F938F939F93AF937F
:10112000BF93CF93DF93EF93FF938EE00E94500223
:101130009C0128543140C1E0D0E028323105B0F0A4
:10114000245A3109C2E0D0E02832310578F0245A1F
:101150003109C3E0D0E02832310540F08255924099
:10116000C4E0D0E0889710F0D0E0C0E080911C018E
:10117000882319F0815080931C0180E00E94BD01FA
:10118000892B71F480911C0181110AC080919C010E
:10119000882371F181E080931B0182E380931C011D
:1011A00081E00E94BD01892B09F06EC080911C0175
:1011B00081110BC080919C01882309F43FC081E01C
:1011C00080931A0182E380931C01FF91EF91DF91DC
:1011D000CF91BF91AF919F918F917F916F915F91CF
:1011E0004F913F912F910F900FBE0F901F90189528
:1011F00081E080939C010E949E1622E130E040E055
:1012000050E00E940C1770939301609392010E942A
:101210009E1624E030E040E050E00E940C177093EE
:101220009501609394010E949E1623E030E040E017
:1012300050E00E940C1760939601AFCF81E080933D
:101240009C010E949E1622E130E040E050E00E94A6
:101250000C1770939301609392010E949E1624E0F4
:1012600030E040E050E00E940C17709395016093CD
:1012700094010E949E1623E030E040E050E00E947E
:101280000C17609396019ECF209709F49ECF809112
:101290001C0181119ACFC430D10509F04CC082E302
:1012A00080931C0180911701882379F080911501AA
:1012B00090911601843091050CF055C001969093E1
:1012C00016018093150110921701809115019091DC
:1012D0001601009709F04CC0249719F481E080931F
:1012E00088011092190110921801809115019091B6
:1012F00016018230910509F0B7C080918601909166
:1013000087018130910509F079C080911901882306
:1013100039F0809102018F5F8093020110921901D0
:1013200080911801882309F450CF809102018150E7
:10133000809302017BC0C230D10521F481E080930B
:101340001901ADCFC130D10521F481E0809318019E
:10135000A6CFC330D10509F0A5CF81E08093170156
:1013600010929C019CCF1092160110921501ABCFE8
:10137000019709F0BACF80916801882351F083E08A
:101380008093020163E081E090E00E94FE161092DB
:10139000680180911901882359F08091860190910C
:1013A000870101969093870180938601109219011D
:1013B00080911801882359F08091860190918701CE
:1013C0000197909387018093860110921801809174
:1013D000860190918701039724F010928701109263
:1013E0008601809186019091870197FF7ECF82E0F0
:1013F00090E0909387018093860177CF82309105AA
:10140000C1F480911901882339F0809109018F5F1F
:10141000809309011092190180911801882309F421
:10142000D4CE809109018150809309011092180156
:10143000CCCE892B09F0C9CE80911901882349F0BF
:10144000809109018F5F80930901809302011092BE
:10145000190180911801882309F4B7CE8091090100
:1014600081508093090164CF8330910509F0BAC19E
:10147000809186019091870181309105D1F580910D
:101480001901882359F0809107019091080108966D
:10149000909308018093070110921901809118011F
:1014A000882359F080910701909108010897909343
:1014B0000801809307011092180180910701909113
:1014C0000801089730F488E090E090930801809339
:1014D000070180910701909108018F3F910509F064
:1014E00008F473CE8FEF90E090930801809307018A
:1014F0006CCE82309105D1F580911901882359F085
:1015000080910501909106010896909306018093C1
:1015100005011092190180911801882359F08091DA
:1015200005019091060108979093060180930501AB
:10153000109218018091050190910601089730F4EE
:1015400088E090E090930601809305018091050169
:10155000909106018F3F910509F008F436CE8FEF88
:1015600090E090930601809305012FCE892B09F01E
:101570002CCE80911901882379F0809107019091F8
:101580000801089690930801809307019093060143
:10159000809305011092190180911801882379F038
:1015A000809107019091080108979093080180931A
:1015B0000701909306018093050110921801809114
:1015C000070190910801089750F488E090E090930B
:1015D0000801809307019093060180930501809193
:1015E0000701909108018F3F910509F008F4EDCDB6
:1015F0008FEF90E09093080180930701B2CF109293
:1016000085010CC18091030190910401845F914098
:10161000909304018093030101C181500FC1809117
:101620000301909104018C509E4F9093040180938C
:10163000030106C18230910509F059C0809119015A
:10164000882369F0809109018830C9F580910F02E3
:101650008F5F8C3088F580930F0210921901809172
:101660001801882369F0809109018830A9F58091DB
:101670000F0281112FC08BE080930F02109218018E
:101680008091000190910101843F914030F484EFFA
:1016900091E090930101809300018091000190916D
:1016A00001018131974208F490CD80E197E2909357
:1016B00001018093000189CD10920F02CECF80915D
:1016C000000190910101845F91409093010180930A
:1016D0000001C3CF8150D0CF8091000190910101D2
:1016E0008C509E4F9093010180930001C7CF892BAE
:1016F00009F06BCD809119018823D9F08091020106
:10170000883009F057C0809185018F5F8C3008F0D8
:101710004EC08093850180910301909104019093C4
:101720000101809300018091850180930F02109246
:101730001901809118018823D1F08091020188302D
:1017400009F045C08091850181113FC08BE08093F5
:101750008501809103019091040190930101809390
:1017600000018091850180930F02109218018091F1
:10177000030190910401843F914050F484EF91E083
:1017800090930401809303019093010180930001E1
:1017900080910301909104018131974208F415CDA5
:1017A00080E197E2909304018093030180CF10922F
:1017B0008501B1CF8091030190910401845F914034
:1017C0009093040180930301A6CF8150C0CF8091F4
:1017D0000301909104018C509E4F909304018093DB
:1017E0000301B7CF049709F0F0CC80918601909166
:1017F00087018130910509F01DCF8091190188235F
:1018000079F080910201883009F0FCCE8091850149
:101810008F5F8C3008F0F3CE809385011092190110
:1018200080911801882371F080910201883009F0BD
:10183000F6CE809185018111F0CE8BE080938501F9
:10184000109218018091030190910401843F91400E
:1018500030F484EF91E09093040180930301809130
:101860000301909104018131974208F4AECC80E1EC
:1018700097E29093040180930301A7CC1F920F92EB
:101880000FB60F9211242F933F934F935F936F9353
:101890007F938F939F93AF93BF93EF93FF93809129
:1018A0001B01882311F180919B01882309F473C0E7
:1018B000909196018091690198136DC080916A01A1
:1018C00090916B01019690936B0180936A010E9445
:1018D0009E1623E030E040E050E00E940C17609339
:1018E000690110929B0110921B0180911A018823BB
:1018F00011F19091960180916C0198131CC0809118
:101900009B01882309F458C080916D0190916E016C
:10191000019690936E0180936D010E949E1623E0C4
:1019200030E040E050E00E940C1760936C01109290
:101930009B0110921A01809115019091160182303D
:10194000910509F478C00CF048C0009709F452C022
:1019500061E0019709F470C0209186013091870100
:101960002115310509F485C080911401213031051C
:1019700009F079C0823309F47CC0853634F061E027
:1019800081E10E94E60110921401809114018F5FA1
:10199000809314013FC080916A0190916B01892B63
:1019A00009F49FCF80916A0190916B010197909308
:1019B0006B0180936A0195CF80916D0190916E01CA
:1019C000892B09F4B4CF80916D0190916E0101973C
:1019D00090936E0180936D01AACF83309105C1F180
:1019E000049709F0B9CF60E08FE00E94E60161E062
:1019F00082E134C061E081E10E94E60161E080E1C2
:101A00000E94E60161E082E10E94E60161E08FE070
:101A10000E94E601FF91EF91BF91AF919F918F914D
:101A20007F916F915F914F913F912F910F900FBEDA
:101A30000F901F90189560E080E10E94E60161E040
:101A400082E10E94E60161E08FE00E94E60184CF1E
:101A500060E082E10E94E60161E08FE00E94E60121
:101A600061E080E1F2CF2230310509F08ECF823380
:101A700029F460E081E10E94E60187CF88330CF40D
:101A800084CF7DCFCF92DF92EF92FF920F931F937F
:101A9000CF93DF93EC016B01F42EE52E19821886AB
:101AA0001F86188A198A1A8A81E08E878B871C867E
:101AB00092E09D8788838B01000F111F060F171F6F
:101AC0001D830C83C8010E9495179A878987009708
:101AD00089F1A80170E060E00E94BA18DB82CA8236
:101AE000FE82EF828981882341F061E08F2D0E9480
:101AF000140260E08F2D0E94E6018F2D9E2DFC01C7
:101B0000E651FE4FE491F0E0EE0FFF1FE052FE4F72
:101B1000259134913C8B2B8BFC01E453FE4FE491D7
:101B2000ED8BDF91CF911F910F91FF90EF90DF90A0
:101B3000CF9008951D821C821B821A82D1CF789487
:101B400084B5826084BD84B5816084BD85B58260C2
:101B500085BD85B5816085BD80916E008160809373
:101B60006E001092810080918100826080938100DC
:101B700080918100816080938100809180008160EC
:101B8000809380008091B10084608093B100809147
:101B9000B00081608093B00080917A00846080936F
:101BA0007A0080917A00826080937A0080917A0036
:101BB000816080937A0080917A00806880937A00B7
:101BC0001092C10090E080E00E94F6168D3009F47A
:101BD000F5C06DE090E080E00E94FE166091020189
:101BE00081E090E00E94FE166091090182E090E0A1
:101BF0000E94FE166091070183E090E00E94FE16AD
:101C00006091050184E090E00E94FE16809103013E
:101C100090910401C4E6D0E0BE010E947B1785E0EC
:101C200090E00E94FE168091000190910101BE019A
:101C30000E947B1786E090E00E94FE16609186016C
:101C400087E090E00E94FE166091850188E090E0B8
:101C50000E94FE1660910F0289E090E00E94FE163D
:101C600080910201803F19F481E08093680161E076
:101C700081E10E94140261E082E10E94140261E0AD
:101C800080E10E94140261E08FE00E94140262E091
:101C900080E00E94140262E081E00E941402F89445
:101CA00010928000109281001092B00081E0809329
:101CB000700080936F00809181008160809381002B
:101CC0008091B10081608093B100789486E1EFE665
:101CD000F1E0A7EBB1E001900D928A95E1F786E182
:101CE000E2E5F1E0ADECB1E001900D928A95E1F70B
:101CF00086E1ECE3F1E0A3EEB1E001900D928A956C
:101D0000E1F786E1E6E2F1E0A9EFB1E001900D92A2
:101D10008A95E1F7C7EBD1E0CE010E945C05CE01C8
:101D20000E94870462E3CE010E94D903669622E0F6
:101D3000CF30D20789F781EA91E00E945C0581EA01
:101D400091E00E94870462E381EA91E00E94D90356
:101D500080916801882309F4ACC06AEA87EB91E0BE
:101D60000E94D9036AEA8DEC91E00E94D9036AEAE5
:101D700083EE91E00E94D9036AEA89EF91E00E9424
:101D8000D9036AEA81EA91E00E94D90307EB11E0E6
:101D9000F12CE12C8091B9019091BA01E816F90675
:101DA00008F057C02FEF3FEF4FEF50E0B701C801E9
:101DB0000E941B048FEFE81AF80AECCF81E090E054
:101DC0000E94F6168093020182E090E00E94F616CF
:101DD0008093090183E090E00E94F61690E09093D2
:101DE00008018093070184E090E00E94F61690E0DD
:101DF000909306018093050185E090E00E94F6161D
:101E0000C4E68C9FC00111249093040180930301C8
:101E100086E090E00E94F6168C9FC00111249093FA
:101E200001018093000187E090E00E94F61690E0A7
:101E3000909387018093860188E090E00E94F616D7
:101E40008093850189E090E00E94F61680930F024E
:101E500007CF0A5E1F4FC017D10709F099CF10E0D6
:101E600000E08091A3019091A40108171907A8F040
:101E700087EB91E00E9487048DEC91E00E9487043B
:101E800083EE91E00E94870489EF91E00E9487042D
:101E900081EA91E00E9487045BCF2FEF3FEF4FEF85
:101EA00050E0B80181EA91E00E941B040F5F1F4FD0
:101EB000D8CF83E10E945002BC01990F880B990B87
:101EC000611571058105910511F00E94ED160E94C2
:101ED0009E1620ED37E040E050E00E940C17709312
:101EE0009801609397010E949E1613E0C12ED12C99
:101EF000E12CF12CA70196010E940C17609396012A
:101F00000E949E16A70196010E940C1760936C0117
:101F10000E949E16A70196010E940C17609369010A
:101F200000ED402E07E0502E612C712CB5E03B2EC9
:101F300010910701612F87EB91E00E94D903612F77
:101F40008DEC91E00E94D903612F83EE91E00E9415
:101F5000D903612F89EF91E00E94D90360910501B7
:101F600081EA91E00E94D90380919C01882309F4C1
:101F7000EDC180919B0181111FC007EB11E0F801B9
:101F8000C280D380C114D10479F0F12CE12C20E07F
:101F900030E0A901B701C8010E941B04FFEFEF1A4E
:101FA000FF0ACE14DF0499F7C8010E9487040A5E75
:101FB0001F4FC017D10719F70091990110919A018D
:101FC00080919701909198010817190779F581E0A0
:101FD00080939B01E091960124E0E29FF00111249F
:101FE000E057FE4F2591359145915491E091940130
:101FF000F09195016091920170919301A6E1FA2E02
:10200000FE9EC001FF9E900D112489549E4F0E9498
:102010001B042091940130919501F29EC001F39E22
:10202000900D112489549E4F0E948704809197013E
:102030009091980188519C4F0817190709F051C0D9
:1020400010929B010E949E1624E030E040E050E098
:102050000E940C1770939501609394010E949E1644
:1020600022E130E040E050E00E940C1770939301B1
:10207000609392010E949E16A30192010E940C1788
:1020800070939801609397010E949E1623E030E0C0
:1020900040E050E00E940C176093960107EB11E0BE
:1020A000F801C280D380C114D10479F0F12CE12C65
:1020B00020E030E0A901B701C8010E941B04FFEF36
:1020C000EF1AFF0ACE14DF0499F7C8010E948704B3
:1020D0000A5E1F4FC017D10719F710929A0110928C
:1020E00099018091990190919A018938934120F04A
:1020F00010929A011092990181EA91E00E946F0575
:1021000010E000E080916D0190916E0180179107C1
:1021100010F10115110559F020E030E740E750E0DB
:10212000B8016150710981EA91E00E941B04E091BD
:102130006C0184E0E89FF0011124E057FE4F2591E7
:10214000359145915491B80181EA91E00E941B04B8
:102150000F5F1F4FD7CF05E010E080916A0190918B
:102160006B0105968017910710F10530110559F0A4
:1021700020E730E740E050E0B8016150710981EAA2
:1021800091E00E941B04E091690194E0E99FF00155
:102190001124E057FE4F2591359145915491B80196
:1021A00081EA91E00E941B040F5F1F4FD6CF81EAA6
:1021B00091E00E94870480916D0190916E010597D6
:1021C00008F456C007EB11E0F12CE12C8091B90125
:1021D0009091BA01E816F90660F420E030E740E794
:1021E00050E0B701C8010E941B04EFEFEE1AFE0A8F
:1021F000EDCFC8010E9487040A5E1F4FC017D107A8
:1022000019F710926E0110926D0110926B011092ED
:102210006A0110929C010E949E16A30192010E94E5
:102220000C1770939801609397010E94870227EB27
:10223000E22E21E0F22ED12CC12C8091B901909197
:10224000BA01C816D90658F420E030E0A901B60159
:10225000C7010E941B04FFEFCF1ADF0AEECFC701B0
:102260000E94870426E1E20EF11CE016F10619F740
:1022700080916A0190916B01059708F456C007EBB5
:1022800011E0F12CE12C8091B9019091BA01E8168E
:10229000F90660F420E730E740E050E0B701C801FC
:1022A0000E941B048FEFE81AF80AEDCFC8010E94C4
:1022B00087040A5E1F4FC017D10719F710926B01F0
:1022C00010926A0110926E0110926D0110929C01A1
:1022D0000E949E16A30192010E940C177093980110
:1022E000609397010E94870297EBE92E91E0F92E07
:1022F000D12CC12C8091B9019091BA01C816D90690
:1023000058F420E030E0A901B601C7010E941B0487
:102310009FEFC91AD90AEECFC7010E948704E6E1F0
:10232000EE0EF11C0E151F0519F780919901909181
:102330009A01019690939A018093990180E090E030
:10234000892B09F4F5CD0E940000F0CD2091030106
:1023500030910401809190019091910128173907E3
:1023600009F044C080910201EFEFE80FEC3008F073
:102370000CC40E2E000CFF0BE054FE4E0C948F1775
:10238000CC11C612EA123F137F13DF1335149414D5
:10239000BD1419154E15941507EB11E00E949E16F9
:1023A000CB010E942B010E94B3036B017C01609161
:1023B000B9017091BA0190E080E00E94780570E068
:1023C000A7019601C8010E941B04C8010E9487044E
:1023D000C8010E946F050A5E1F4FC017D107F1F6B2
:1023E00081E090E090939101809390012091000111
:1023F0003091010180918A0190918B012817390752
:10240000C9F580910901843009F0CCC380910201A3
:10241000843009F0C7C32091B9013091BA0180918D
:102420008C0190918D012817390719F481E0809370
:1024300089018091890181110E9492058091A301F7
:102440009091A401019620919D0130919E018217E7
:10245000930751F481EA91E00E946F0581EA91E0CF
:102460000E9487041092890181E090E090938B0193
:1024700080938A0180918A0190918B0101969093BB
:102480008B0180938A018091900190919101019636
:10249000909391018093900180918801882309F4A1
:1024A0004DCF6DE090E080E00E94FE166091020149
:1024B00081E090E00E94FE166091090182E090E0C8
:1024C0000E94FE166091070183E090E00E94FE16D4
:1024D0006091050184E090E00E94FE168091030166
:1024E0009091040104E610E0B8010E947B1785E09A
:1024F00090E00E94FE168091000190910101B801C8
:102500000E947B1786E090E00E94FE166091860193
:1025100087E090E00E94FE166091850188E090E0DF
:102520000E94FE1660910F0289E090E00E94FE1664
:10253000F89460E081E10E94E60160E080E10E94A1
:10254000E60160E082E10E94E60160E08FE00E9427
:10255000E6018FEF93EDE0E381509040E040E1F73A
:1025600000C0000061E081E10E94E60161E080E1DD
:102570000E94E60161E082E10E94E60161E08FE0F5
:102580000E94E601109288017894D8CE6091B9013A
:102590007091BA0190E080E00E947805E62E0E94DA
:1025A0009E16CB010E942B010E94B3034B015C01DC
:1025B00007EB11E0F12CA5019401B701C8010E94BD
:1025C0001B04C8010E9487040A5E1F4FC017D10771
:1025D00091F706CFF12CE12C87012091B9013091C0
:1025E000BA010217130710F187EB91E00E948704EC
:1025F0008DEC91E00E94870483EE91E00E948704B5
:1026000089EF91E00E94870480918E0190918F0163
:1026100080589F4F90938F0180938E01FFEFEF1AA8
:10262000FF0A23E0E216F104B9F6DACEB80190E031
:1026300080E0CB017727662750E040E00E940C172E
:1026400080918E0190918F01820F931F0E942B0128
:102650000E94B3034B015C0187EBC82E81E0D82EAA
:10266000A5019401B801C6010E941B0486E1C80EB1
:10267000D11CCC15DD05A1F70D5F1F4FAECF8091AA
:10268000B9019091BA01019620918C0130918D0190
:102690008217930720F410928D0110928C0107EBA2
:1026A00011E00E949E16CB010E942B010E94B303F1
:1026B0009B01AC0160918C0170918D01C8010E9459
:1026C0001B0460918C0170918D016150710920E0B3
:1026D00030E0A901C8010E941B04C8010E948704C0
:1026E0000A5E1F4FC017D107E1F680918C019091CF
:1026F0008D01019690938D0180938C0171CEA3E0A2
:10270000EA2EF12C0E949E162FEF30E040E050E0C0
:102710000E940C179B01AB01BC01DA0199278827A5
:1027200088279927BB278824942EA52EB62EAA2465
:10273000BB24882A992AAA2ABB2A822F632D0E94A9
:102740006F17281B822A6091B9017091BA0190E03D
:1027500080E00E94780507EB11E0C62ED12CA50180
:102760009401B601C8010E941B040A5E1F4FC017E6
:10277000D107A9F791E0E91AF10821F687EB91E07A
:102780000E94870487EB91E00E946F058DEC91E039
:102790000E9487048DEC91E00E946F0583EE91E02A
:1027A0000E94870483EE91E00E946F0589EF91E01B
:1027B0000E94870489EF91E00E946F0511CEF12CF1
:1027C000E12C87018091B9019091BA01081719078E
:1027D000C0F087EB91E00E9487048DEC91E00E94AD
:1027E000870483EE91E00E94870489EF91E00E94C4
:1027F0008704EFEFEE1AFE0AF3E0EF16F10409F793
:10280000EFCD0E949E162FEF30E040E050E00E9496
:102810000C179B01AB01BC01DA0199278827882797
:102820009927BB278824942EA52EB62EAA24BB2434
:10283000882A992AAA2ABB2A822F632D0E946F1701
:10284000281B822A47EBC42E41E0D42EA501940117
:10285000B801C6010E941B0426E1C20ED11CCC1592
:10286000DD05A1F70D5F1F4FADCFF7EBEF2EF1E0C8
:10287000FF2E10E000E080918E0190918F01905C1E
:102880000E942B010E94B3039B01AC01B801C70158
:102890000E941B040F5F1F4F0830110561F78091E4
:1028A0008E0190918F0190580E942B010E94B303DA
:1028B0009B01AC01B801C7010E941B040F5F1F4FB1
:1028C0000E30110561F780918E0190918F01905427
:1028D0000E942B010E94B3039B01AC01B801C70108
:1028E0000E941B040F5F1F4F0231110561F7C701E2
:1028F0000E94870480918E0190918F019C01305C31
:1029000030938F0120938E01E6E1EE0EF11CFFE083
:10291000EF16F2E0FF0609F0ACCF80589F4B909382
:102920008F0180938E015CCD07EB11E0F12CE12C3F
:102930008091B9019091BA01E816F906A0F4E091EE
:10294000850124E0E29FF0011124E456FE4F259119
:10295000359145915491B701C8010E941B048FEF36
:10296000E81AF80AE5CFC8010E9487040A5E1F4FE3
:1029700092E00F301907D1F633CD8091B9019091D3
:10298000BA01019620918C0130918D018217930735
:10299000A0F410928D0110928C0187EB91E00E94BF
:1029A0006F058DEC91E00E946F0583EE91E00E942F
:1029B0006F0589EF91E00E946F0507EB11E06091D0
:1029C0008C0170918D0190E080E0CB017727662724
:1029D0002091B9013091BA012F5F3F4F50E040E0A4
:1029E0000E940C1780918E0190918F01820F931F8E
:1029F0000E942B010E94B3039B01AC0160918C01EA
:102A000070918D01C8010E941B04C8010E948704B7
:102A10000A5E1F4FE2E00F301E0789F680918E019B
:102A200090918F018150984F90938F0180938E01E8
:102A30005CCE6091B9017091BA0190E080E00E9493
:102A40007805E62E0E949E16CB010E942B010E9463
:102A5000B3034B015C0107EB11E0F12CF80182811B
:102A60009381E816F90658F4B701C8010E94BD0227
:102A7000672B682B692B19F0812C912C5401A5012F
:102A80009401B701C8010E941B04C8010E94870479
:102A90000A5E1F4FC017D10709F7A2CC10E000E073
:102AA0006AE0D62E80917101909172010817190782
:102AB00088F087EB91E00E9487048DEC91E00E9402
:102AC000870483EE91E00E94870489EF91E00E94E1
:102AD000870486CC65E470E080E090E00E94780591
:102AE000DC01CB010196A11DB11D8824982EA92ED1
:102AF000BA2EAA24BB246D2D0E946F17882AAA24FF
:102B0000AA9457EBE52E51E0F52EA5019401B801EA
:102B1000C7010E941B04F6E1EF0EF11CCE15DF0584
:102B2000A1F70F5F1F4FBECF33E0E32EF12C0E94C1
:102B30009E1622E030E040E050E00E940C178FEF3C
:102B4000662311F080E06FEF90E0B0E0A0E0882411
:102B5000982EA92EBA2EA62A07EB11E060917101DA
:102B60007091720190E080E00E947805A5019401C7
:102B7000C8010E941B040A5E1F4FC017D10771F7DE
:102B800021E0E21AF10899F6F9CD8D301CF081E0D0
:102B90008093020180910201811122CC8CE080930C
:102BA00002011ECC0E9492055FCC48E050E062E139
:102BB00070E08FE691E00E94420D47E050E062E154
:102BC00070E082E591E00E94420D46E050E062E153
:102BD00070E08CE391E00E94420D45E050E062E13C
:102BE00070E086E291E00E94420DE7EBF1E081E0C7
:102BF0002FEF3FEF92E080831182138212821582C1
:102C00001482378326831086128611868387148662
:102C1000958786871786108A118A128A769642E0EF
:102C2000EF30F40741F749E050E06AE070E081EAF4
:102C300091E00C94420DCF93DF93EC0189859A8546
:102C40000E9431188E819F8197FD05C060E0DF9161
:102C5000CF910C941402DF91CF91089581EA91E015
:102C60000E941B1689EF91E00E941B1683EE91E0F3
:102C70000E941B168DEC91E00E941B1687EB91E0E1
:102C80000E941B1686E291E00E941B168CE391E0E5
:102C90000E941B1682E591E00E941B168FE691E0D0
:102CA0000C941B168F929F92AF92BF92CF92DF929D
:102CB000EF92FF92CF93DF93EC01688179818A8153
:102CC0009B81611571058105910521F464E279ED1F
:102CD0008BE597E02DE133EF41E050E00E940C17C7
:102CE00049015A019B01AC01A7EAB1E40E942B17EC
:102CF0006B017C01ACEEB4EFA50194010E94391781
:102D0000C60ED71EE81EF91EF7FE06C081E0C81ADF
:102D1000D108E10880E8F80AC882D982EA82FB82F9
:102D2000C701B6019F77DF91CF91FF90EF90DF90C1
:102D3000CF90BF90AF909F908F9008958F929F9269
:102D4000AF92BF92CF92DF92EF92FF9260910A0111
:102D500070910B0180910C0190910D01611571052D
:102D60008105910521F464E279ED8BE597E02DE191
:102D700033EF41E050E00E940C1749015A019B01DA
:102D8000AC01A7EAB1E40E942B176B017C01ACEE09
:102D9000B4EFA50194010E943917C60ED71EE81E94
:102DA000F91EF7FE06C081E0C81AD108E10880E8E4
:102DB000F80AC0920A01D0920B01E0920C01F09245
:102DC0000D01C701B6019F77FF90EF90DF90CF9084
:102DD000BF90AF909F908F90089560930A01709379
:102DE0000B0180930C0190930D010895F999FECF8A
:102DF00092BD81BDF89A992780B50895262FF9993B
:102E0000FECF1FBA92BD81BD20BD0FB6F894FA9ACD
:102E1000F99A0FBE01960895052E97FB1EF40094B3
:102E20000E94231757FD07D00E943E1707FC03D0CE
:102E30004EF40C94231750954095309521953F4FB3
:102E40004F4F5F4F089590958095709561957F4F96
:102E50008F4F9F4F08950E946017A59F900DB49FBC
:102E6000900DA49F800D911D11240895B7FF0C941F
:102E70002B170E942B17821B930B0895A1E21A2E89
:102E8000AA1BBB1BFD010DC0AA1FBB1FEE1FFF1F0E
:102E9000A217B307E407F50720F0A21BB30BE40B5E
:102EA000F50B661F771F881F991F1A9469F76095A5
:102EB0007095809590959B01AC01BD01CF0108955F
:102EC000A29FB001B39FC001A39F700D811D11246B
:102ED000911DB29F700D811D1124911D0895991BA4
:102EE00079E004C0991F961708F0961B881F7A9501
:102EF000C9F780950895AA1BBB1B51E107C0AA1F03
:102F0000BB1FA617B70710F0A61BB70B881F991F8A
:102F10005A95A9F780959095BC01CD010895EE0FC3
:102F2000FF1F0590F491E02D09940F931F93CF9309
:102F3000DF938230910510F482E090E0E09112027C
:102F4000F091130230E020E0B0E0A0E0309799F477
:102F50002115310509F44AC0281B390B24303105ED
:102F6000D8F58A819B816115710589F1FB019383F5
:102F70008283FE0111C04081518102811381481773
:102F80005907E0F04817590799F4109761F0129625
:102F90000C93129713961C933296CF01DF91CF9129
:102FA0001F910F9108950093120210931302F4CF12
:102FB0002115310551F04217530738F0A901DB0103
:102FC0009A01BD01DF01F801C1CFEF01F9CF909364
:102FD000130280931202CDCFFE01E20FF31F819303
:102FE00091932250310939832883D7CF2091100241
:102FF00030911102232B41F42091100130911101E5
:10300000309311022093100220910E0130910F0194
:103010002115310541F42DB73EB740911201509171
:103020001301241B350BE0911002F0911102E217FD
:10303000F307A0F42E1B3F0B2817390778F0AC01DB
:103040004E5F5F4F2417350748F04E0F5F1F5093B8
:10305000110240931002819391939FCFF0E0E0E042
:103060009CCFCF93DF930097E9F0FC013297138256
:103070001282A0911202B0911302ED0130E020E023
:103080001097A1F420813181820F931F20911002AB
:10309000309111022817390709F061C0F09311022D
:1030A000E0931002DF91CF910895EA01CE17DF0778
:1030B000E8F54A815B819E0141155105B1F7E901AF
:1030C000FB83EA8349915991C40FD51FEC17FD0783
:1030D00061F4808191810296840F951FE9019983A3
:1030E0008883828193819B838A83F0E0E0E012965B
:1030F0008D919C9113970097B9F52D913C91119763
:10310000CD010296820F931F20911002309111027F
:103110002817390739F6309751F51092130210929B
:103120001202B0931102A0931002BCCFD383C283CA
:1031300040815181840F951FC817D90761F44E5FF4
:103140005F4F88819981480F591F518340838A813D
:103150009B81938382832115310509F0B0CFF093D1
:103160001302E09312029ECFFD01DC01C0CF138257
:103170001282D7CFDC0101C06D9341505040E0F77F
:10318000089511E0C0E0D1E004C0FE010E948F1755
:0C3190002196C130D107C9F7F894FFCF99
:10319C00E80304E8033200320004010000000000E0
:0431AC001402800089
:00000001FF
