:020000040000FA
:100000000C94FB000C9423010C9423010C94230109
:100010000C9423010C9423010C9423010C942301D0
:100020000C9423010C94BE0A0C9423010C9423011C
:100030000C9423010C9417070C9423010C942301B6
:100040000C94CD060C9423010C9423010C942301F1
:100050000C9423010C9423010C9423010C94230190
:100060000C9423010C942301000000000000000008
:100070000000000000000000000000000000000080
:10008000010101010101010101010101020202025C
:10009000020202020303030303030404040405052C
:1000A00005050506060606070707080808090909E1
:1000B0000A0A0A0B0B0B0C0C0D0D0D0E0E0F0F1078
:1000C00010111112121313141415151616171818EF
:1000D00019191A1B1B1C1D1D1E1F1F202122222344
:1000E000242526262728292A2A2B2C2D2E2F30316D
:1000F00032333435363738393A3B3C3D3E3F404168
:10010000424445464748494B4C4D4E505152545538
:100110005658595A5C5D5E606163646667696A6CD3
:100120006D6F7072737577787A7C7D7F818284863B
:1001300088898B8D8F91929496989A9C9EA0A2A468
:10014000A6A8AAACAEB0B2B4B6B8BABCBFC1C3C55B
:10015000C7CACCCED1D3D5D7DADCDFE1E3E6E8EB12
:10016000EDF0F2F5F7FAFCFF000000002400270094
:100170002A000000000023002600290000000008DB
:10018000000201000003040700000000000000005E
:100190000000FF00007FFF0000FFFF0000FF7F0066
:1001A00000FF00007FFF0000FFFF0000FF7F000056
:1001B000FF000000FF007F00FF00FF007F00FF0046
:1001C00001020408102040800102040810200102EE
:1001D0000408102000000000250028002B00040463
:1001E00004040404040402020202020203030303DF
:1001F00003030B13641311241FBECFEFD4E0DEBF43
:10020000CDBF11E0A0E0B1E0E8E0FCE202C0059063
:100210000D92A431B107D9F722E0A4E1B1E001C009
:100220001D92A131B207E1F710E0CAEFD0E004C09F
:100230002197FE010E94C514C93FD107C9F70E944A
:10024000E20B0C94F7150C940000CF92DF92EF9222
:10025000FF920F931F939C01AAEFB5E00E949614A2
:10026000DC01CB019058AF4FBF4FCD01BB2797FDAD
:10027000B095AB2F8E3F21E0920758F5282F8F3F86
:10028000910508F445C06EEF681B862F30E02FEF14
:10029000682F70E090E080E0CB0177276627D12CB3
:1002A000F12CE12C632B7D298E299F29022F10E050
:1002B00030E020E0322F212F102F0027602B712BF0
:1002C000822B932B1F910F91FF90EF90DF90CF9097
:1002D00008958C3F23E0920768F48D3F22E0920757
:1002E00028F432E0380F2FEF80E0D2CF2CEF281B1C
:1002F0003FEFFACF8A3F25E0920769F03AEF381BCB
:100300008B3F24E0920740F48C5F3FEF20E0C0CFAA
:1003100030E08FEFBDCF30E020E0FBCF833081F0C5
:1003200028F4813099F08230A9F008958730A9F03F
:100330008830C9F08430B1F4809180008F7D03C093
:10034000809180008F7780938000089584B58F77A7
:1003500084BD089584B58F7DFBCF8091B0008F77E9
:100360008093B00008958091B0008F7DF9CFCF9336
:10037000DF93282F30E0F901E458FE4F8491F90112
:10038000E054FE4FD491F901E252FE4FC491CC23C8
:10039000A1F081110E948E01EC2FF0E0EE0FFF1F03
:1003A000EE58FE4FA591B491EC91ED2381E090E0E1
:1003B00009F480E0DF91CF91089580E090E0FACFDA
:1003C0001F93CF93DF93282F30E0F901E458FE4FBD
:1003D0008491F901E054FE4FD491F901E252FE4FAD
:1003E000C491CC23A9F0162F81110E948E01EC2F0D
:1003F000F0E0EE0FFF1FEC52FE4FA591B4918FB7C6
:10040000F894EC91111108C0D095DE23DC938FBFD6
:10041000DF91CF911F910895DE2BF8CFCF93DF931B
:1004200090E0FC01E054FE4F249182529E4FFC016B
:1004300084918823C9F090E0880F991FFC01E85946
:10044000FE4FA591B491FC01EC52FE4FC591D491A1
:1004500061110DC09FB7F8948C91209582238C93E5
:100460008881282328839FBFDF91CF910895623030
:1004700051F49FB7F8943C91822F809583238C93FD
:10048000E8812E2BEFCF8FB7F894EC912E2B2C9385
:100490008FBFEACF8E50806480937C0080917A0079
:1004A000806480937A0080917A0086FDFCCF8091F1
:1004B00078009091790008953FB7F89480912201D7
:1004C00090912301A0912401B091250126B5A89B0C
:1004D00005C02F3F19F00196A11DB11D3FBFBA2FD6
:1004E000A92F982F8827BC01CD01620F711D811D96
:1004F000911D42E0660F771F881F991F4A95D1F71B
:1005000008958F929F92AF92BF92CF92DF92EF9217
:10051000FF920E945C024B015C0188EBC82E8BE0CD
:10052000D82EE12CF12C0E945C02681979098A0905
:100530009B09683E734081059105A8F321E0C21A2A
:10054000D108E108F10888EE880E83E0981EA11C0E
:10055000B11CC114D104E104F10429F7FF90EF901C
:10056000DF90CF90BF90AF909F908F900895CF93E2
:10057000DF9300D000D0CDB7DEB769837A838B8359
:100580009C83DE011196CE010596ED91F0E0E859CD
:10059000FF4F44919D0121503109F90140838A1791
:1005A0009B0799F769817A818B819C810F900F90CD
:1005B0000F900F90DF91CF910895FF920F931F93AB
:1005C000CF93DF93EC01FF24F394F60E28852F15CB
:1005D00081F109851A85215041F16F3FE1F430E046
:1005E00050E040E06FEF7FEF80E090E00E94421427
:1005F000B901F8014C815D81CF01801B910B8417FB
:100600009507B0F44081469FC001479F900D11248B
:1006100090833196EFCF8F2D90E0982F8827019708
:10062000622F70E00E94B114E4CF70E060E0E1CF8F
:10063000F886DF91CF911F910F91FF9008958F92CF
:100640009F92AF92BF92CF92DF92EF92FF921F9351
:10065000CF93DF93FC018281938168177907A8F516
:100660004A01AA24BB24C82DC32ED42EE52EFF2474
:100670001C2DD22F8085882361F0889E4001112493
:10068000C92D8C9D600111241D2D829FD001112444
:10069000DB2FA685E184F2849385A91322C0CB01C8
:1006A000880F991F680F791F6E0D7F1DA385A60FF8
:1006B000B72FB11DCC93A485A60FB72FB11D1C93E6
:1006C0008585680F711DFB01D083DF91CF911F914C
:1006D000FF90EF90DF90CF90BF90AF909F908F9062
:1006E0000895660F771F660F771F6E0D7F1D252FEC
:1006F000332744275527882349F090E0829F7001D3
:10070000839FF00C929FF00C11242F2DA60FB72F72
:10071000B11D2C93CBCFCF92DF92EF92FF920F932C
:100720001F93CF93DF93CDB7DEB729970FB6F89419
:10073000DEBF0FBECDBF8C01DC0119968D919C915F
:10074000892B09F473C00E945C02F801C784D08829
:10075000E188F2886C157D058E059F0520F467877A
:10076000708B818B928BF801C784D088E188F288E6
:100770006C197D098E099F096C32714081059105C4
:1007800010F3F894D80114968D919C9115979A8343
:1007900089831996ED91FC917F01BFEFEB1AFB0A5B
:1007A00080818987F80190810388F489E02DD80140
:1007B00055968C91992309F448C09081982B98877D
:1007C0009081809589238F838F818C8388E08B83B0
:1007D00058856F8149853B812C8189819A81D70118
:1007E000508347FD252F3A952083262F39F0441F4B
:1007F00000C000006083000000C0F2CF38E04D91DF
:1008000060830000019761F7D8015496FC93EE9342
:10081000539749873B832C839A83898378940E94DA
:100820005C02F8016787708B818B928B29960FB6DB
:10083000F894DEBF0FBECDBFDF91CF911F910F9116
:10084000FF90EF90DF90CF9008959081982B98873C
:100850009081809589238F838F818E8388E08D831B
:1008600058856F8149853D812E8189819A81D70183
:10087000508347FD252F00C000C0208300C000C06A
:1008800000C000C000C060830000262F3A9541F0F0
:10089000441F000000C000C000C000C000C0E8CF7E
:1008A00038E04D9100C0608300C0019709F7D8017E
:1008B0005496FC93EE93539749873D832E83ACCF98
:1008C000CF93DF93EC018E819F8197FD07C061E09C
:1008D0000E940E0260E08E810E94E00181E0898327
:1008E000DF91CF910895FC014481558170E060E073
:1008F000818592850C94F0154F925F926F927F9252
:100900008F929F92AF92BF92CF92DF92EF92FF921F
:100910000F931F93CF93DF930E94D413CB010E94B8
:1009200025010E94B7024B015C010E94D413809103
:100930000901EFEFE80FE93008F022C20E2E000C9B
:10094000FF0BEB55FB4F0C94C514AE04D704050503
:1009500050058405CD0510064906660670E08091B5
:10096000A0019091A1018617970718F40E94D41353
:10097000F5CFA50194018EE991E00E941F038EE955
:1009800091E00E948B038EE991E0DF91CF911F915E
:100990000F91FF90EF90DF90CF90BF90AF909F901E
:1009A0008F907F906F905F904F900C947304C090E5
:1009B000A001D090A101F12CE12CC114D104E104DB
:1009C000F10439F00E94D413A70196010E94421449
:1009D0006B016C2D70E0A50194018EE991E00E94FD
:1009E0001F038EE991E0DF91CF911F910F91FF904E
:1009F000EF90DF90CF90BF90AF909F908F907F90BF
:100A00006F905F904F900C948B0310E000E0E80132
:100A10002091A0013091A101C217D307E8F4BE01D3
:100A200090E080E0CB017727662750E040E00E940D
:100A3000421480919C0190919D01820F931F0E940E
:100A400025010E94B7029B01AC01BE018EE991E035
:100A50000E941F032396DCCF8EE991E00E948B0356
:100A600080919C0190919D0180589F4F90939D0192
:100A700080939C010F5F1F4F0330110541F6DF91FA
:100A8000CF911F910F91FF90EF90DF90CF90BF908B
:100A9000AF909F908F907F906F905F904F90089550
:100AA00020919A0130919B018091A0019091A10128
:100AB0008217930720F410929B0110929A01609183
:100AC0009A0170919B01A50194018EE991E00E9429
:100AD0001F0360919A0170919B016150710920E0A0
:100AE00030E0A9018EE991E00E941F038EE991E0B8
:100AF0000E948B0380919A0190919B0101969093A3
:100B00009B0180939A01BBCFC5E0D0E0412C512CD2
:100B100032014A94EBEA8E2E0E94D413A301920173
:100B20000E944214162F972E5C01689D812D11247E
:100B30008695012F081BC090A001D090A101F12C37
:100B4000E12CC114D104E104F10439F00E94D41362
:100B5000A70196010E9442146B01812F992DD501A6
:100B6000AC0133272227222733275527BA2FA92F55
:100B7000982F8827AA27BB27822B932BA42BB52B32
:100B80009C01AD01202B6C2D70E08EE991E00E945C
:100B90001F03219709F0C0CFF2CED0E0C0E0C12CF6
:100BA000D12C7601CA9445E0B42E8E018091A0012B
:100BB0009091A1010817190750F50E94D413A701BD
:100BC00096010E944214E62F462F572FBC01DA01EE
:100BD0009927882788279927BB27762F652F542F99
:100BE0004427662777279A01AB01282B392B4A2BFC
:100BF0005B2B8E2F6B2D0E94A514E81B2E2BB801AA
:100C00008EE991E00E941F030D5F1F4FCFCF8EE949
:100C100091E00E948B032196C330D10531F62FCF8E
:100C2000D0E0C0E080919C0190919D010E9425013F
:100C30000E94B7029B01AC01BE018EE991E00E94C7
:100C40001F032196C530D10569F780919C019091D1
:100C50009D018D5C9C4C0E9425010E94B7029B0166
:100C6000AC01BE018EE991E00E941F032196CA30BB
:100C7000D10559F78EE991E00E948B0380919C0188
:100C800090919D0180589F4F90939D0180939C016E
:100C9000F6CED0E0C0E08091A0019091A101C817EC
:100CA000D90708F09ECEE0910C0284E0E89FF001A5
:100CB0001124E057FE4F2591359145915491BE0185
:100CC0008EE991E00E941F032196E5CF8091B60145
:100CD0009091B701019620919A0130919B01821762
:100CE0009307A0F410929B0110929A018EE991E073
:100CF0000E9473048EE991E00E9473048EE991E0F2
:100D00000E9473048EE991E00E947304C4E0D0E075
:100D100060919A0170919B0190E080E0CB01772770
:100D200066272091A0013091A1013695279550E0CA
:100D300040E00E94421480919C0190919D01820F9D
:100D4000931F0E9425010E94B7029B01AC01609194
:100D50009A0170919B018EE991E00E941F038EE938
:100D600091E00E948B03219799F680919C019091CC
:100D70009D018150984F90939D0180939C01BACE24
:100D80008A301CF081E08093090180910901811172
:100D900076CE89E08093090172CE1F920F920FB632
:100DA0000F9211242F933F938F939F93AF93BF93F1
:100DB00080911E0190911F01A0912001B09121010D
:100DC00030911D0123E0230F2D3758F50196A11D09
:100DD000B11D20931D0180931E0190931F01A093CC
:100DE0002001B09321018091220190912301A091D3
:100DF0002401B09125010196A11DB11D809322010E
:100E000090932301A0932401B0932501BF91AF914A
:100E10009F918F913F912F910F900FBE0F901F9038
:100E2000189526E8230F0296A11DB11DD2CF1F925F
:100E30000F920FB60F9211242F933F934F935F930E
:100E40006F937F938F939F93AF93BF93CF93DF93D2
:100E5000EF93FF938EE00E944A029C012854314098
:100E6000C1E0D0E028323105B0F0245A3109C2E0A7
:100E7000D0E02832310578F0245A3109C3E0D0E0BF
:100E80002832310540F082559240C4E0D0E0889786
:100E900010F0D0E0C0E080911C01882319F081504F
:100EA00080931C0180E00E94B701892B71F480912E
:100EB0001C0181110AC080919901882369F181E0A8
:100EC00080931B0182E380931C0181E00E94B701A3
:100ED000892B09F059C080911C0181110AC08091B1
:100EE00099018823A9F181E080931A0182E380931C
:100EF0001C01FF91EF91DF91CF91BF91AF919F9135
:100F00008F917F916F915F914F913F912F910F90B2
:100F10000FBE0F901F90189581E0809399010E9459
:100F2000D41322E130E040E050E00E94421470937C
:100F30009101609390010E94D41322E030E040E0E0
:100F400050E00E9442147093930160939201BACFD3
:100F500081E0809399010E94D41322E130E040E0C7
:100F600050E00E94421470939101609390010E949E
:100F7000D41322E030E040E050E00E94421470932D
:100F8000930160939201B2CF209709F4B2CF809180
:100F90001C018111AECFC430D10509F04CC082E3F1
:100FA00080931C0180911701882379F080911501AD
:100FB00090911601843091050CF055C001969093E4
:100FC00016018093150110921701809115019091DF
:100FD0001601009709F04CC0249719F481E0809322
:100FE00086011092190110921801809115019091BB
:100FF00016018230910509F0B7C08091840190916B
:1010000085018130910509F079C08091190188230B
:1010100039F0809102018F5F8093020110921901D3
:1010200080911801882309F464CF809102018150D6
:10103000809302017BC0C230D10521F481E080930E
:101040001901ADCFC130D10521F481E080931801A1
:10105000A6CFC330D10509F0A5CF81E08093170159
:10106000109299019CCF1092160110921501ABCFEE
:10107000019709F0BACF80917E01882351F085E075
:101080008093020165E081E090E00E9434141092A8
:101090007E0180911901882359F0809184019091FB
:1010A0008501019690938501809384011092190126
:1010B00080911801882359F08091840190918501D5
:1010C000019790938501809384011092180180917B
:1010D000840190918501039724F01092850110926C
:1010E0008401809184019091850197FF7ECF82E0F9
:1010F00090E0909385018093840177CF82309105B1
:10110000C1F480911901882339F0809109018F5F22
:10111000809309011092190180911801882309F424
:10112000E8CE809109018150809309011092180145
:10113000E0CE892B09F0DDCE80911901882349F09A
:10114000809109018F5F80930901809302011092C1
:10115000190180911801882309F4CBCE80910901EF
:1011600081508093090164CF8330910509F0BAC1A1
:10117000809184019091850181309105D1F5809114
:101180001901882359F08091070190910801089670
:101190009093080180930701109219018091180122
:1011A000882359F080910701909108010897909346
:1011B0000801809307011092180180910701909116
:1011C0000801089730F488E090E09093080180933C
:1011D000070180910701909108018F3F910509F067
:1011E00008F487CE8FEF90E0909308018093070179
:1011F00080CE82309105D1F580911901882359F074
:1012000080910501909106010896909306018093C4
:1012100005011092190180911801882359F08091DD
:1012200005019091060108979093060180930501AE
:10123000109218018091050190910601089730F4F1
:1012400088E090E09093060180930501809105016C
:10125000909106018F3F910509F008F44ACE8FEF77
:1012600090E0909306018093050143CE892B09F00D
:1012700040CE80911901882379F0809107019091E7
:101280000801089690930801809307019093060146
:10129000809305011092190180911801882379F03B
:1012A000809107019091080108979093080180931D
:1012B0000701909306018093050110921801809117
:1012C000070190910801089750F488E090E090930E
:1012D0000801809307019093060180930501809196
:1012E0000701909108018F3F910509F008F401CEA4
:1012F0008FEF90E09093080180930701B2CF109296
:1013000083010CC18091030190910401845F91409D
:10131000909304018093030101C181500FC180911A
:101320000301909104018C509E4F9093040180938F
:10133000030106C18230910509F059C0809119015D
:10134000882369F0809109018830C9F580910C02E9
:101350008F5F8C3088F580930C0210921901809178
:101360001801882369F0809109018830A9F58091DE
:101370000C0281112FC08BE080930C021092180197
:101380008091000190910101843F914030F484EFFD
:1013900091E0909301018093000180910001909170
:1013A00001018131974208F4A4CD80E197E2909346
:1013B0000101809300019DCD10920C02CECF80914F
:1013C000000190910101845F91409093010180930D
:1013D0000001C3CF8150D0CF8091000190910101D5
:1013E0008C509E4F9093010180930001C7CF892BB1
:1013F00009F07FCD809119018823D9F080910201F5
:10140000883009F057C0809183018F5F8C3008F0DD
:101410004EC08093830180910301909104019093C9
:101420000101809300018091830180930C0210924E
:101430001901809118018823D1F080910201883030
:1014400009F045C08091830181113FC08BE08093FA
:101450008301809103019091040190930101809395
:1014600000018091830180930C02109218018091F9
:10147000030190910401843F914050F484EF91E086
:1014800090930401809303019093010180930001E4
:1014900080910301909104018131974208F429CD94
:1014A00080E197E2909304018093030180CF109232
:1014B0008301B1CF8091030190910401845F914039
:1014C0009093040180930301A6CF8150C0CF8091F7
:1014D0000301909104018C509E4F909304018093DE
:1014E0000301B7CF049709F004CD80918401909156
:1014F00085018130910509F01DCF80911901882364
:1015000079F080910201883009F0FCCE809183014E
:101510008F5F8C3008F0F3CE809383011092190115
:1015200080911801882371F080910201883009F0C0
:10153000F6CE809183018111F0CE8BE08093830100
:10154000109218018091030190910401843F914011
:1015500030F484EF91E09093040180930301809133
:101560000301909104018131974208F4C2CC80E1DB
:1015700097E29093040180930301BBCC1F920F92DA
:101580000FB60F9211242F933F934F935F936F9356
:101590007F938F939F93AF93BF93EF93FF9380912C
:1015A0001B01882391F02091980180917F019091F7
:1015B0008001222309F44CC001969093800180930E
:1015C0007F011092980110921B0180911A018823CB
:1015D00089F02091980180918101909182012223CC
:1015E000E1F101969093820180938101109298011C
:1015F00010921A0180911501909116018230910587
:1016000009F45CC074F50097C1F161E0019709F439
:1016100056C020918401309185012115310509F4CE
:101620006BC0809114012130310509F05FC0823315
:1016300009F462C0853634F061E081E10E94E00186
:1016400010921401809114018F5F8093140125C0C2
:10165000009709F4B6CF0197B0CF009739F2019700
:10166000C1CF83309105B9F1049799F660E08FE01E
:101670000E94E00161E082E134C061E081E10E940A
:10168000E00161E080E10E94E00161E082E10E940E
:10169000E00161E08FE00E94E001FF91EF91BF91D6
:1016A000AF919F918F917F916F915F914F913F91FA
:1016B0002F910F900FBE0F901F90189560E080E162
:1016C0000E94E00161E082E10E94E00161E08FE0C0
:1016D0000E94E0019ECF60E082E10E94E00161E0B3
:1016E0008FE00E94E00161E080E1F2CF223031051D
:1016F00009F0A8CF823329F460E081E10E94E00183
:10170000A1CF88330CF49ECF97CFCF92DF92EF9288
:10171000FF920F931F93CF93DF93EC016B01F42E95
:10172000E52E198218861F86188A198A1A8A81E07E
:101730008E878B871C8692E09D8788838B01000FA4
:10174000111F060F171F1D830C83C8010E94CB14A5
:101750009A878987009789F1A80170E060E00E946C
:10176000F015DB82CA82FE82EF828981882341F0F4
:1017700061E08F2D0E940E0260E08F2D0E94E0013B
:101780008F2D9E2DFC01E252FE4FE491F0E0EE0F12
:10179000FF1FEC52FE4F259134913C8B2B8BFC01AB
:1017A000E054FE4FE491ED8BDF91CF911F910F91AB
:1017B000FF90EF90DF90CF9008951D821C821B82D6
:1017C0001A82D1CF789484B5826084BD84B581605B
:1017D00084BD85B5826085BD85B5816085BD8091FC
:1017E0006E00816080936E00109281008091810074
:1017F000826080938100809181008160809381006C
:10180000809180008160809380008091B10084602D
:101810008093B1008091B00081608093B00080918E
:101820007A00846080937A0080917A00826080934D
:101830007A0080917A00816080937A0080917A00AA
:10184000806880937A001092C10090E080E00E944E
:101850002C148D3009F4F4C06DE090E080E00E941B
:1018600034146091020181E090E00E943414609190
:10187000090182E090E00E9434146091070183E046
:1018800090E00E9434146091050184E090E00E9491
:1018900034148091030190910401C4E6D0E0BE01AC
:1018A0000E94B11485E090E00E9434148091000100
:1018B00090910101BE010E94B11486E090E00E9467
:1018C00034146091840187E090E00E9434146091A8
:1018D000830188E090E00E94341460910C0289E05A
:1018E00090E00E94341480910201803F19F481E05D
:1018F00080937E0161E081E10E940E0261E082E15D
:101900000E940E0261E080E10E940E0261E08FE021
:101910000E940E0262E080E00E940E0262E081E01E
:101920000E940E02F8941092800010928100109292
:10193000B00081E08093700080936F0080918100FF
:101940008160809381008091B10081608093B100BB
:10195000789486E1E8E6F1E0A4EBB1E001900D9225
:101960008A95E1F786E1E2E5F1E0AAECB1E00190C9
:101970000D928A95E1F786E1ECE3F1E0A0EEB1E0AB
:1019800001900D928A95E1F786E1E6E2F1E0A6EF9B
:10199000B1E001900D928A95E1F7C4EBD1E0CE0160
:1019A0000E946004CE010E948B0362E3CE010E947C
:1019B000DD02669622E0CC30D20789F78EE991E00D
:1019C0000E9460048EE991E00E948B0362E38EE93D
:1019D00091E00E94DD0280917E01882309F4AAC073
:1019E0006AEA84EB91E00E94DD026AEA8AEC91E007
:1019F0000E94DD026AEA80EE91E00E94DD026AEA5E
:101A000086EF91E00E94DD026AEA8EE991E00E9491
:101A1000DD02C4EBD1E010E000E08091B6019091CE
:101A2000B7010817190708F056C02FEF3FEF4FEF27
:101A300050E0B801CE010E941F030F5F1F4FEDCF92
:101A400081E090E00E942C148093020182E090E0FB
:101A50000E942C148093090183E090E00E942C14D2
:101A600090E0909308018093070184E090E00E9449
:101A70002C1490E0909306018093050185E090E09E
:101A80000E942C14C4E68C9FC00111249093040181
:101A90008093030186E090E00E942C148C9FC0018B
:101AA0001124909301018093000187E090E00E944F
:101AB0002C1490E0909385018093840188E090E05D
:101AC0000E942C148093830189E090E00E942C14E2
:101AD00080930C0208CF669682E0CC30D80709F0DC
:101AE0009ACFD0E0C0E08091A0019091A101C817E9
:101AF000D907A8F084EB91E00E948B038AEC91E077
:101B00000E948B0380EE91E00E948B0386EF91E0B0
:101B10000E948B038EE991E00E948B035CCF2FEF34
:101B20003FEF4FEF50E0BE018EE991E00E941F03AE
:101B30002196D9CF83E10E944A02BC01990F880BFC
:101B4000990B611571058105910511F00E9423140F
:101B50000E94D41328E833E140E050E00E94421490
:101B6000709395016093940164E6262E312C78E8F9
:101B7000472E73E1572E612C712CC09107016C2FF9
:101B800084EB91E00E94DD026C2F8AEC91E00E94D0
:101B9000DD026C2F80EE91E00E94DD026C2F86EF5B
:101BA00091E00E94DD02609105018EE991E00E94C2
:101BB000DD0280919901882309F49DC180919801EB
:101BC00081111DC0C4EBD1E0EA80FB80E114F10477
:101BD00071F010E000E020E030E0A901B801CE0192
:101BE0000E941F030F5F1F4FE016F106A1F7CE0101
:101BF0000E948B03669692E0CC30D90729F7E090DB
:101C00009601F09097010091940110919501E016D2
:101C1000F10661F581E080939801809192019091A5
:101C2000930126E1289FE001299FD00D1124CE01C8
:101C30008C549E4F6C01A0909001B09091012FEFB9
:101C400030E040E050E0B5010E941F03C052DE4F7B
:101C50002FEF30E040E050E0B501CE010E941F03BD
:101C6000C6010E948B03CE010E948B0308511C4FBA
:101C7000E016F10609F045C0109298010E94D413B5
:101C800022E030E040E050E00E9442147093930163
:101C9000609392010E94D41322E130E040E050E0D2
:101CA0000E94421470939101609390010E94D4139A
:101CB000A30192010E9442147093950160939401D4
:101CC000C4EBD1E0EA80FB80E114F10471F010E094
:101CD00000E020E030E0A901B801CE010E941F031E
:101CE0000F5F1F4FE016F106A1F7CE010E948B0394
:101CF000669692E0CC30D90729F71092970110929E
:101D0000960180919601909197018131974220F040
:101D100010929701109296018EE991E00E9473044F
:101D2000D0E0C0E00091810110918201C017D1077D
:101D300058F420E030E04FEF50E0BE018EE991E032
:101D40000E941F032196EECFC5E0D0E080917F0175
:101D5000909180010596C817D90758F420E03FEF0D
:101D600040E050E0BE018EE991E00E941F03219601
:101D7000EDCF8EE991E00E948B030530110508F448
:101D800051C0C4EBD1E010E000E08091B601909129
:101D9000B7010817190758F420E030E04FEF50E082
:101DA000B801CE010E941F030F5F1F4FEECFCE017F
:101DB0000E948B03669682E0CC30D80721F7109200
:101DC0008201109281011092800110927F01109285
:101DD00099010E94D413A30192010E9442147093AE
:101DE0009501609394010E948102C4EBD1E010E060
:101DF00000E08091B6019091B7010817190750F4DF
:101E000020E030E0A901B801CE010E941F030F5F5E
:101E10001F4FEFCFCE010E948B03669692E0CC302D
:101E2000D90729F780917F0190918001059708F4E7
:101E300051C0C4EBD1E010E000E08091B601909178
:101E4000B7010817190758F420E03FEF40E050E0D1
:101E5000B801CE010E941F030F5F1F4FEECFCE01CE
:101E60000E948B03669622E0CC30D20721F71092B5
:101E7000800110927F0110928201109281011092D4
:101E800099010E94D413A30192010E9442147093FD
:101E90009501609394010E948102C4EBD1E010E0AF
:101EA00000E08091B6019091B7010817190750F42E
:101EB00020E030E0A901B801CE010E941F030F5FAE
:101EC0001F4FEFCFCE010E948B03669682E0CC308D
:101ED000D80729F7809196019091970101969093E8
:101EE00097018093960180E090E0892B09F445CE1C
:101EF0000E94000042CE20910301309104018091A4
:101F00008E0190918F012817390709F04CC08091FC
:101F10000201EFEFE80FE93008F06DC30E2E000C60
:101F2000FF0BEB56F04F0C94C5149E0FA110D01070
:101F300024116411CC1121127912A012C4EBD1E04A
:101F40000E94D413CB010E9425010E94B7024B01CD
:101F50005C01C090B601D090B701F12CE12CC11406
:101F6000D104E104F10439F00E94D413A7019601D1
:101F70000E9442146B016C2D70E0A5019401CE010A
:101F80000E941F03CE010E948B03CE010E947304A6
:101F9000669692E0CC30D90799F681E090E0909374
:101FA0008F0180938E012091000130910101809179
:101FB00088019091890128173907C9F58091090195
:101FC000843009F025C380910201843009F020C3D8
:101FD0002091B6013091B70180918A0190918B01D7
:101FE0002817390719F481E08093870180918701D0
:101FF00081110E947C048091A0019091A101019621
:1020000020919A0130919B018217930751F48EE938
:1020100091E00E9473048EE991E00E948B0310927C
:10202000870181E090E090938901809388018091FD
:10203000880190918901019690938901809388018C
:1020400080918E0190918F01019690938F018093E2
:102050008E0180918601882309F445CF6DE090E0E0
:1020600080E00E9434146091020181E090E00E94BF
:1020700034146091090182E090E00E943414609170
:10208000070183E090E00E9434146091050184E030
:1020900090E00E9434148091030190910401B101F9
:1020A0000E94B11485E090E00E94341480910001F8
:1020B00090910101B1010E94B11486E090E00E946C
:1020C00034146091840187E090E00E9434146091A0
:1020D000830188E090E00E94341460910C0289E052
:1020E00090E00E943414F89460E081E10E94E001E5
:1020F00060E080E10E94E00160E082E10E94E00196
:1021000060E08FE00E94E0019FEF23ED80E39150BB
:1021100020408040E1F700C0000061E081E10E94C2
:10212000E00161E080E10E94E00161E082E10E9463
:10213000E00161E08FE00E94E00110928601789456
:10214000D2CEC090B601D090B701F12CE12CC114D1
:10215000D104E104F10439F00E94D413A7019601DF
:102160000E9442146B01CC2D0E94D413CB010E941B
:1021700025010E94B7026B017C0104EB11E0D0E065
:10218000A7019601BE01C8010E941F03C8010E9459
:102190008B030A5E1F4F22E00C30120789F7FDCE39
:1021A00010E000E0E8012091B6013091B701C217BC
:1021B000D30700F184EB91E00E948B038AEC91E05D
:1021C0000E948B0380EE91E00E948B0386EF91E0EA
:1021D0000E948B0380918C0190918D0180589F4FBC
:1021E00090938D0180938C010F5F1F4F0330110579
:1021F000C9F6D3CEBE0190E080E0CB0177276627F9
:1022000050E040E00E94421480918C0190918D0139
:10221000820F931F0E9425010E94B7024B015C01AF
:1022200054EBE52E51E0F52EA5019401BE01C70146
:102230000E941F0386E1E80EF11C9CE0E91692E083
:10224000F90691F72396AFCF8091B6019091B7012F
:10225000019620918A0130918B018217930720F417
:1022600010928B0110928A01C4EBD1E00E94D4132A
:10227000CB010E9425010E94B7029B01AC01609135
:102280008A0170918B01CE010E941F0360918A0127
:1022900070918B016150710920E030E0A901CE01FD
:1022A0000E941F03CE010E948B03669622E0CC3071
:1022B000D207E1F680918A0190918B01019690936B
:1022C0008B0180938A0169CE03E010E00E94D41351
:1022D0002FEF30E040E050E00E9442149B01AB0140
:1022E000BC01DA019927882788279927BB27CC24A6
:1022F000D42EE52EF62EEE24FF24C82AD92AEA2A67
:10230000FB2A822F65E00E94A514281BC22A809018
:10231000B6019090B701B12CA12C81149104A104B5
:10232000B10439F00E94D413A50194010E94421413
:102330004B01C4EBD1E0912CA7019601B401CE0171
:102340000E941F03669682E0CC30D807A9F701509F
:10235000110909F0BBCF84EB91E00E948B0384EB61
:1023600091E00E9473048AEC91E00E948B038AEC56
:1023700091E00E94730480EE91E00E948B0380EE56
:1023800091E00E94730486EF91E00E948B0386EF38
:1023900091E00E94730401CE10E000E0E80180911A
:1023A000B6019091B701C817D907B0F084EB91E05E
:1023B0000E948B038AEC91E00E948B0380EE91E0F7
:1023C0000E948B0386EF91E00E948B030F5F1F4FEB
:1023D0000330110519F7E1CD0E94D4132FEF30E03F
:1023E00040E050E00E9442149B01AB01BC01DA01C5
:1023F0009927882788279927BB278824942EA52EDC
:10240000B62EAA24BB24882A992AAA2ABB2A822F5C
:1024100065E00E94A514281B822AF4EBEF2EF1E060
:10242000FF2EA5019401BE01C7010E941F0396E182
:10243000E90EF11C2CE0E21622E0F20691F7239659
:10244000AECF04EB11E0D0E0C0E080918C01909120
:102450008D01905C0E9425010E94B7029B01AC0196
:10246000BE01C8010E941F032196C830D10569F73B
:1024700080918C0190918D0190580E9425010E94BD
:10248000B7029B01AC01BE01C8010E941F03219647
:10249000CE30D10569F780918C0190918D019054D7
:1024A0000E9425010E94B7029B01AC01BE01C80138
:1024B0000E941F032196C231D10569F7C8010E940D
:1024C0008B0380918C0190918D019C01305C309345
:1024D0008D0120938C010A5E1F4F22E00C30120701
:1024E00009F0B1CF80589F4B90938D0180938C0160
:1024F00054CDC4EBD1E010E000E08091B6019091A2
:10250000B7010817190798F4E091830184E0E89F68
:10251000F0011124E057FE4F2591359145915491DA
:10252000B801CE010E941F030F5F1F4FE6CFCE01FF
:102530000E948B03669692E0CC30D907E1F62DCD50
:102540008091B6019091B701019620918A01309156
:102550008B0182179307A0F410928B0110928A01CD
:1025600084EB91E00E9473048AEC91E00E94730472
:1025700080EE91E00E94730486EF91E00E94730464
:10258000C4EBD1E060918A0170918B0190E080E012
:10259000CB01772766272091B6013091B7012F5FD5
:1025A0003F4F50E040E00E94421480918C01909196
:1025B0008D01820F931F0E9425010E94B7029B018B
:1025C000AC0160918A0170918B01CE010E941F03C2
:1025D000CE010E948B03669622E0CC30D20791F6A2
:1025E00080918C0190918D018150984F90938D0135
:1025F00080938C015FCE8A301CF081E080930201D1
:10260000809102018111C9CC89E080930201C5CC7F
:102610000E947C0406CD48E050E062E170E088E66C
:1026200091E00E94850B47E050E062E170E082E5B6
:1026300091E00E94850B46E050E062E170E08CE39F
:1026400091E00E94850B45E050E062E170E086E297
:1026500091E00E94850BE4EBF1E081E02FEF3FEF8A
:1026600092E0808311821382128215821482378352
:10267000268310861286118683871486958786871F
:102680001786108A118A128A769642E0EC30F40797
:1026900041F749E050E06AE070E08EE991E00C9487
:1026A000850BCF93DF93EC0189859A850E9467158E
:1026B0008E819F8197FD05C060E0DF91CF910C94E2
:1026C0000E02DF91CF9108958EE991E00E9451139F
:1026D00086EF91E00E94511380EE91E00E94511329
:1026E0008AEC91E00E94511384EB91E00E94511317
:1026F00086E291E00E9451138CE391E00E94511315
:1027000082E591E00E94511388E691E00C94511308
:102710008F929F92AF92BF92CF92DF92EF92FF92F1
:10272000CF93DF93EC01688179818A819B81611568
:1027300071058105910521F464E279ED8BE597E05F
:102740002DE133EF41E050E00E94421449015A016B
:102750009B01AC01A7EAB1E40E9461146B017C010A
:10276000ACEEB4EFA50194010E946F14C60ED71E03
:10277000E81EF91EF7FE06C081E0C81AD108E1087C
:1027800080E8F80AC882D982EA82FB82C701B601D2
:102790009F77DF91CF91FF90EF90DF90CF90BF9028
:1027A000AF909F908F9008958F929F92AF92BF921B
:1027B000CF92DF92EF92FF9260910A0170910B012C
:1027C00080910C0190910D016115710581059105B4
:1027D00021F464E279ED8BE597E02DE133EF41E000
:1027E00050E00E94421449015A019B01AC01A7EA42
:1027F000B1E40E9461146B017C01ACEEB4EFA50161
:1028000094010E946F14C60ED71EE81EF91EF7FE33
:1028100006C081E0C81AD108E10880E8F80AC09231
:102820000A01D0920B01E0920C01F0920D01C70158
:10283000B6019F77FF90EF90DF90CF90BF90AF9061
:102840009F908F90089560930A0170930B0180937D
:102850000C0190930D010895F999FECF92BD81BDB1
:10286000F89A992780B50895262FF999FECF1FBAB7
:1028700092BD81BD20BD0FB6F894FA9AF99A0FBEA9
:1028800001960895052E97FB1EF400940E9459149A
:1028900057FD07D00E94741407FC03D04EF40C942B
:1028A000591450954095309521953F4F4F4F5F4FAC
:1028B000089590958095709561957F4F8F4F9F4FAC
:1028C00008950E949614A59F900DB49F900DA49F0B
:1028D000800D911D11240895B7FF0C9461140E947E
:1028E0006114821B930B0895A1E21A2EAA1BBB1B35
:1028F000FD010DC0AA1FBB1FEE1FFF1FA217B307CC
:10290000E407F50720F0A21BB30BE40BF50B661FE1
:10291000771F881F991F1A9469F7609570958095A5
:1029200090959B01AC01BD01CF010895A29FB0011C
:10293000B39FC001A39F700D811D1124911DB29FF3
:10294000700D811D1124911D0895991B79E004C01B
:10295000991F961708F0961B881F7A95C9F78095DE
:102960000895AA1BBB1B51E107C0AA1FBB1FA617D6
:10297000B70710F0A61BB70B881F991F5A95A9F728
:1029800080959095BC01CD010895EE0FFF1F059035
:10299000F491E02D09940F931F93CF93DF9382302E
:1029A000910510F482E090E0E0910F02F0911002A6
:1029B00030E020E0B0E0A0E0309799F42115310537
:1029C00009F44AC0281B390B24303105D8F58A8117
:1029D0009B816115710589F1FB0193838283FE015F
:1029E00011C0408151810281138148175907E0F0DD
:1029F0004817590799F4109761F012960C931297A3
:102A000013961C933296CF01DF91CF911F910F91B6
:102A1000089500930F0210931002F4CF2115310591
:102A200051F04217530738F0A901DB019A01BD01AB
:102A3000DF01F801C1CFEF01F9CF9093100280932D
:102A40000F02CDCFFE01E20FF31F8193919322502D
:102A5000310939832883D7CF20910D0230910E029E
:102A6000232B41F4209110013091110130930E027B
:102A700020930D0220910E0130910F012115310597
:102A800041F42DB73EB74091120150911301241B20
:102A9000350BE0910D02F0910E02E217F307A0F45E
:102AA0002E1B3F0B2817390778F0AC014E5F5F4FA4
:102AB0002417350748F04E0F5F1F50930E024093C6
:102AC0000D02819391939FCFF0E0E0E09CCFCF93F4
:102AD000DF930097E9F0FC01329713821282A091F4
:102AE0000F02B0911002ED0130E020E01097A1F448
:102AF00020813181820F931F20910D0230910E02AF
:102B00002817390709F061C0F0930E02E0930D0217
:102B1000DF91CF910895EA01CE17DF07E8F54A81EA
:102B20005B819E0141155105B1F7E901FB83EA8301
:102B300049915991C40FD51FEC17FD0761F48081AD
:102B400091810296840F951FE90199838883828180
:102B500093819B838A83F0E0E0E012968D919C91B3
:102B600013970097B9F52D913C911197CD010296DD
:102B7000820F931F20910D0230910E022817390702
:102B800039F6309751F51092100210920F02B0935F
:102B90000E02A0930D02BCCFD383C283408151812A
:102BA000840F951FC817D90761F44E5F5F4F888166
:102BB0009981480F591F518340838A819B81938358
:102BC00082832115310509F0B0CFF0931002E09314
:102BD0000F029ECFFD01DC01C0CF13821282D7CF3E
:102BE000DC0101C06D9341505040E0F7089510E0C2
:102BF000CAEFD0E004C0FE010E94C5142196CB3F6D
:102C0000D107C9F7F894FFCFE80304E80332003294
:0C2C100000040100000000001102800020
:103800000C94341C0C94511C0C94511C0C94511CA1
:103810000C94511C0C94511C0C94511C0C94511C74
:103820000C94511C0C94511C0C94511C0C94511C64
:103830000C94511C0C94511C0C94511C0C94511C54
:103840000C94511C0C94511C0C94511C0C94511C44
:103850000C94511C0C94511C0C94511C0C94511C34
:103860000C94511C0C94511C11241FBECFEFD4E0BA
:10387000DEBFCDBF11E0A0E0B1E0E4EAFFE302C0AB
:1038800005900D92A230B107D9F712E0A2E0B1E0A5
:1038900001C01D92AD30B107E1F70E94361D0C94B6
:1038A000D01F0C94001C982F9595959595959595FE
:1038B000905D8F708A307CF0282F295A8091C0004B
:1038C00085FFFCCF9093C6008091C00085FFFCCFA0
:1038D0002093C6000895282F205DF0CF982F809167
:1038E000C00085FFFCCF9093C6000895EF92FF9231
:1038F0000F931F93EE24FF2487018091C00087FD62
:1039000017C00894E11CF11C011D111D81E4E8168B
:1039100082E4F8068FE0080780E0180770F3E09172
:103920000401F091050109958091C00087FFE9CF5E
:103930008091C6001F910F91FF90EF9008950E9413
:10394000761C982F8091C00085FFFCCF9093C60015
:1039500091362CF490330CF09053892F089597559D
:10396000892F08951F930E949F1C182F0E949F1C4F
:103970001295107F810F1F910895882351F0982F81
:1039800091508091C00087FFFCCF8091C6009923A1
:10399000B9F708951F93182F0E94761C803249F0C2
:1039A000809103018F5F809303018530C1F01F91E7
:1039B00008958091C00085FFFCCF84E18093C6000C
:1039C0008091C00085FFFCCF1093C6008091C0009D
:1039D00085FFFCCF80E18093C6001F910895E091A0
:1039E0000401F091050109951F9108950E94761C2C
:1039F000803241F0809103018F5F80930301853015
:103A000081F008958091C00085FFFCCF84E1809310
:103A1000C6008091C00085FFFCCF80E18093C60086
:103A20000895E0910401F09105010995089510921F
:103A30000A028823D1F090E040E951E02D9A28EE67
:103A400033E0FA013197F1F721503040D1F72D984A
:103A500028EE33E0FA013197F1F721503040D1F7E9
:103A60009F5F981758F380930A0208953F924F92F0
:103A70005F926F927F928F929F92AF92BF92CF92FE
:103A8000DF92EF92FF920F931F93CF93DF9300008B
:103A900083E38093C4001092C50088E18093C10045
:103AA00086E08093C2005098589A259A81E00E943F
:103AB000171D44E1F42E3EE1E32E24E9D22E96E0D8
:103AC000C92E80E1B82EAA24A39401E4902E16E515
:103AD000812EB2E57B2EA0E26A2EF9E45F2EE3E5AB
:103AE0004E2E70E5372E0E94761C8033B1F1813363
:103AF00009F441C0803409F479C0813409F48CC0E0
:103B0000823471F1853409F47BC0803531F182351E
:103B100021F1813511F1853509F48DC0863509F41F
:103B20009DC0843609F4AEC0843709F41BC18537C3
:103B300009F485C1863709F47AC0809103018F5F4B
:103B400080930301853079F6E0910401F09105013D
:103B500009950E94761C803351F60E94F61CC3CF53
:103B600093E18091C00087FFFCCF8091C60099232C
:103B7000A1F39150F6CF0E94761C8032F1F680912D
:103B8000C00085FFFCCFF092C6008091C00085FF89
:103B9000FCCF9092C6008091C00085FFFCCF809240
:103BA000C6008091C00085FFFCCF7092C600809156
:103BB000C00085FFFCCF6092C6008091C00085FFE9
:103BC000FCCF5092C6008091C00085FFFCCF409290
:103BD000C6008091C00085FFFCCF3092C600809166
:103BE000C00085FFFCCFB092C6007DCF0E94761C3E
:103BF000863808F4B2CF0E94761C0E94F61C73CF60
:103C000094E08091C00087FFFCCF8091C60099238B
:103C100009F4A3CF9150F5CF0E94761C8038D1F0E3
:103C2000813861F1823809F499C0883979F080E0EF
:103C30000E94CA1C58CF0E94761C809306010E94E5
:103C4000761C809307010E94F61C4DCF83E00E94F2
:103C5000CA1C49CF82E00E94CA1C45CF0E94761C34
:103C6000803309F486C192E08091C00087FFFCCFC9
:103C70008091C6009923D9F29150F6CF81E00E943D
:103C8000CA1C31CF0E94761C809309020E94761CC8
:103C90008093080280910C028E7F80930C020E9418
:103CA000761C853429F480910C02816080930C028B
:103CB0008091080290910902892B89F000E010E0C0
:103CC0000E94761CF801E85FFE4F80830F5F1F4F54
:103CD00080910802909109020817190788F30E9441
:103CE000761C803209F029CF80910C0280FFD1C070
:103CF0004091060150910701440F551F5093070151
:103D000040930601A0910802B09109021097C9F0F2
:103D1000E8E0F1E09A01BD016E0F7F1FF999FECF37
:103D200032BD21BD819180BDFA9AF99A2F5F3F4F34
:103D3000E617F70799F74A0F5B1F50930701409367
:103D400006018091C00085FFFCCFF092C6008091F3
:103D5000C00085FFFCCFB092C600C5CE80E10E94B6
:103D6000CA1CC1CE0E94761C809309020E94761C58
:103D7000809308028091060190910701880F991F96
:103D800090930701809306010E94761C853409F404
:103D90007AC080910C028E7F80930C020E94761C68
:103DA000803209F0A0CE8091C00085FFFCCFF09258
:103DB000C600A0910802B09109021097B9F1809154
:103DC0000C02182F1170082F0270E0910601F0917B
:103DD00007019F012F5F3F4FB90140E050E01123E1
:103DE000B1F4002339F494918091C00085FFFCCF99
:103DF0009093C6004F5F5F4FCB010196F9014A17C0
:103E00005B0780F4BC012F5F3F4F112351F3F999F9
:103E1000FECFF2BDE1BDF89A90B58091C00085FF5C
:103E2000FCCFE6CF70930701609306018091C0003C
:103E300085FDD9CE8091C00085FFF8CFD4CE0E94F9
:103E4000761C803209F079CE8091C00085FFFCCFCE
:103E5000F092C6008091C00085FFFCCFE092C600C2
:103E60008091C00085FFFCCFD092C6008091C00039
:103E700085FFFCCFC092C6008091C00085FFFCCFBB
:103E8000B092C60030CE80910C02816080930C020B
:103E900085CF809107018823880F880B8A21809322
:103EA0000B028091060190910701880F991F909352
:103EB0000701809306018091080280FF09C080916C
:103EC00008029091090201969093090280930802DA
:103ED000F894F999FECF1127E0910601F0910701BE
:103EE000C8E0D1E08091080290910902103091F46D
:103EF0000091570001700130D9F303E0009357009F
:103F0000E8950091570001700130D9F301E1009369
:103F10005700E89509901990009157000170013001
:103F2000D9F301E000935700E8951395103498F009
:103F300011270091570001700130D9F305E000937B
:103F40005700E8950091570001700130D9F301E165
:103F500000935700E8953296029709F0C7CF1030CA
:103F600011F00296E5CF11248091C00085FFE9CEC3
:103F7000ECCE0E94761C0E94761C182F0E94761CA4
:103F8000112351F0113021F086E00E94CA1CABCD04
:103F900084E90E94CA1CA7CD8EE10E94CA1CA3CD51
:063FA000F894FFCF800041
:00000001FF
